{
  "_format": "hh-sol-artifact-1",
  "contractName": "AirdropVault",
  "sourceName": "contracts/AirdropVault.sol",
  "abi": [
    {
      "inputs": [
        {
          "internalType": "address",
          "name": "_tosAddress",
          "type": "address"
        },
        {
          "internalType": "uint256",
          "name": "_maxInputOnce",
          "type": "uint256"
        }
      ],
      "stateMutability": "nonpayable",
      "type": "constructor"
    },
    {
      "anonymous": false,
      "inputs": [
        {
          "indexed": false,
          "internalType": "uint256",
          "name": "round",
          "type": "uint256"
        },
        {
          "indexed": false,
          "internalType": "address[]",
          "name": "users",
          "type": "address[]"
        }
      ],
      "name": "AddedWhitelist",
      "type": "event"
    },
    {
      "anonymous": false,
      "inputs": [
        {
          "indexed": false,
          "internalType": "uint256",
          "name": "round",
          "type": "uint256"
        },
        {
          "indexed": false,
          "internalType": "uint256",
          "name": "amount",
          "type": "uint256"
        }
      ],
      "name": "AllocatedAmount",
      "type": "event"
    },
    {
      "anonymous": false,
      "inputs": [
        {
          "indexed": true,
          "internalType": "address",
          "name": "caller",
          "type": "address"
        },
        {
          "indexed": false,
          "internalType": "uint256",
          "name": "amount",
          "type": "uint256"
        },
        {
          "indexed": false,
          "internalType": "uint256",
          "name": "totalClaimedAmount",
          "type": "uint256"
        }
      ],
      "name": "Claimed",
      "type": "event"
    },
    {
      "anonymous": false,
      "inputs": [
        {
          "indexed": true,
          "internalType": "bytes32",
          "name": "role",
          "type": "bytes32"
        },
        {
          "indexed": true,
          "internalType": "bytes32",
          "name": "previousAdminRole",
          "type": "bytes32"
        },
        {
          "indexed": true,
          "internalType": "bytes32",
          "name": "newAdminRole",
          "type": "bytes32"
        }
      ],
      "name": "RoleAdminChanged",
      "type": "event"
    },
    {
      "anonymous": false,
      "inputs": [
        {
          "indexed": true,
          "internalType": "bytes32",
          "name": "role",
          "type": "bytes32"
        },
        {
          "indexed": true,
          "internalType": "address",
          "name": "account",
          "type": "address"
        },
        {
          "indexed": true,
          "internalType": "address",
          "name": "sender",
          "type": "address"
        }
      ],
      "name": "RoleGranted",
      "type": "event"
    },
    {
      "anonymous": false,
      "inputs": [
        {
          "indexed": true,
          "internalType": "bytes32",
          "name": "role",
          "type": "bytes32"
        },
        {
          "indexed": true,
          "internalType": "address",
          "name": "account",
          "type": "address"
        },
        {
          "indexed": true,
          "internalType": "address",
          "name": "sender",
          "type": "address"
        }
      ],
      "name": "RoleRevoked",
      "type": "event"
    },
    {
      "anonymous": false,
      "inputs": [
        {
          "indexed": false,
          "internalType": "address",
          "name": "newClaimer",
          "type": "address"
        }
      ],
      "name": "SetNewClaimer",
      "type": "event"
    },
    {
      "anonymous": false,
      "inputs": [],
      "name": "Started",
      "type": "event"
    },
    {
      "anonymous": false,
      "inputs": [
        {
          "indexed": false,
          "internalType": "uint256",
          "name": "round",
          "type": "uint256"
        }
      ],
      "name": "StartedRound",
      "type": "event"
    },
    {
      "anonymous": false,
      "inputs": [
        {
          "indexed": true,
          "internalType": "address",
          "name": "caller",
          "type": "address"
        },
        {
          "indexed": false,
          "internalType": "uint256",
          "name": "amount",
          "type": "uint256"
        }
      ],
      "name": "Withdrawal",
      "type": "event"
    },
    {
      "inputs": [],
      "name": "ADMIN_ROLE",
      "outputs": [
        {
          "internalType": "bytes32",
          "name": "",
          "type": "bytes32"
        }
      ],
      "stateMutability": "view",
      "type": "function"
    },
    {
      "inputs": [],
      "name": "BURNER_ROLE",
      "outputs": [
        {
          "internalType": "bytes32",
          "name": "",
          "type": "bytes32"
        }
      ],
      "stateMutability": "view",
      "type": "function"
    },
    {
      "inputs": [],
      "name": "DEFAULT_ADMIN_ROLE",
      "outputs": [
        {
          "internalType": "bytes32",
          "name": "",
          "type": "bytes32"
        }
      ],
      "stateMutability": "view",
      "type": "function"
    },
    {
      "inputs": [],
      "name": "MINTER_ROLE",
      "outputs": [
        {
          "internalType": "bytes32",
          "name": "",
          "type": "bytes32"
        }
      ],
      "stateMutability": "view",
      "type": "function"
    },
    {
      "inputs": [
        {
          "internalType": "address",
          "name": "account",
          "type": "address"
        }
      ],
      "name": "addAdmin",
      "outputs": [],
      "stateMutability": "nonpayable",
      "type": "function"
    },
    {
      "inputs": [
        {
          "internalType": "uint256",
          "name": "round",
          "type": "uint256"
        },
        {
          "internalType": "address[]",
          "name": "users",
          "type": "address[]"
        }
      ],
      "name": "addWhitelist",
      "outputs": [],
      "stateMutability": "nonpayable",
      "type": "function"
    },
    {
      "inputs": [
        {
          "internalType": "uint256",
          "name": "amount",
          "type": "uint256"
        }
      ],
      "name": "allocateAmountTGE",
      "outputs": [],
      "stateMutability": "nonpayable",
      "type": "function"
    },
    {
      "inputs": [],
      "name": "allocatedAmountForRound",
      "outputs": [
        {
          "internalType": "uint256",
          "name": "",
          "type": "uint256"
        }
      ],
      "stateMutability": "view",
      "type": "function"
    },
    {
      "inputs": [],
      "name": "availableWithdrawAmount",
      "outputs": [
        {
          "internalType": "uint256",
          "name": "amount",
          "type": "uint256"
        }
      ],
      "stateMutability": "view",
      "type": "function"
    },
    {
      "inputs": [],
      "name": "claim",
      "outputs": [],
      "stateMutability": "nonpayable",
      "type": "function"
    },
    {
      "inputs": [],
      "name": "currentRound",
      "outputs": [
        {
          "internalType": "uint256",
          "name": "round",
          "type": "uint256"
        }
      ],
      "stateMutability": "view",
      "type": "function"
    },
    {
      "inputs": [],
      "name": "endTime",
      "outputs": [
        {
          "internalType": "uint256",
          "name": "",
          "type": "uint256"
        }
      ],
      "stateMutability": "view",
      "type": "function"
    },
    {
      "inputs": [
        {
          "internalType": "bytes32",
          "name": "role",
          "type": "bytes32"
        }
      ],
      "name": "getRoleAdmin",
      "outputs": [
        {
          "internalType": "bytes32",
          "name": "",
          "type": "bytes32"
        }
      ],
      "stateMutability": "view",
      "type": "function"
    },
    {
      "inputs": [
        {
          "internalType": "uint256",
          "name": "round",
          "type": "uint256"
        }
      ],
      "name": "getTgeInfos",
      "outputs": [
        {
          "internalType": "bool",
          "name": "allocated",
          "type": "bool"
        },
        {
          "internalType": "bool",
          "name": "started",
          "type": "bool"
        },
        {
          "internalType": "uint256",
          "name": "allocatedAmount",
          "type": "uint256"
        },
        {
          "internalType": "uint256",
          "name": "claimedCount",
          "type": "uint256"
        },
        {
          "internalType": "uint256",
          "name": "amount",
          "type": "uint256"
        },
        {
          "internalType": "address[]",
          "name": "whitelist",
          "type": "address[]"
        }
      ],
      "stateMutability": "view",
      "type": "function"
    },
    {
      "inputs": [
        {
          "internalType": "uint256",
          "name": "round",
          "type": "uint256"
        },
        {
          "internalType": "address",
          "name": "user",
          "type": "address"
        }
      ],
      "name": "getWhitelistInfo",
      "outputs": [
        {
          "internalType": "bool",
          "name": "joined",
          "type": "bool"
        },
        {
          "internalType": "uint256",
          "name": "claimedTime",
          "type": "uint256"
        }
      ],
      "stateMutability": "view",
      "type": "function"
    },
    {
      "inputs": [
        {
          "internalType": "bytes32",
          "name": "role",
          "type": "bytes32"
        },
        {
          "internalType": "address",
          "name": "account",
          "type": "address"
        }
      ],
      "name": "grantRole",
      "outputs": [],
      "stateMutability": "nonpayable",
      "type": "function"
    },
    {
      "inputs": [
        {
          "internalType": "bytes32",
          "name": "role",
          "type": "bytes32"
        },
        {
          "internalType": "address",
          "name": "account",
          "type": "address"
        }
      ],
      "name": "hasRole",
      "outputs": [
        {
          "internalType": "bool",
          "name": "",
          "type": "bool"
        }
      ],
      "stateMutability": "view",
      "type": "function"
    },
    {
      "inputs": [
        {
          "internalType": "uint256",
          "name": "_totalAllocatedAmount",
          "type": "uint256"
        },
        {
          "internalType": "uint256",
          "name": "_totalTgeCount",
          "type": "uint256"
        },
        {
          "internalType": "uint256",
          "name": "_startTime",
          "type": "uint256"
        },
        {
          "internalType": "uint256",
          "name": "_periodTimesPerCliam",
          "type": "uint256"
        }
      ],
      "name": "initialize",
      "outputs": [],
      "stateMutability": "nonpayable",
      "type": "function"
    },
    {
      "inputs": [
        {
          "internalType": "uint256",
          "name": "_totalAllocatedAmount",
          "type": "uint256"
        },
        {
          "internalType": "uint256",
          "name": "_totalClaims",
          "type": "uint256"
        },
        {
          "internalType": "uint256",
          "name": "_totalTgeCount",
          "type": "uint256"
        },
        {
          "internalType": "uint256",
          "name": "_startTime",
          "type": "uint256"
        },
        {
          "internalType": "uint256",
          "name": "_periodTimesPerCliam",
          "type": "uint256"
        }
      ],
      "name": "initializeBase",
      "outputs": [],
      "stateMutability": "nonpayable",
      "type": "function"
    },
    {
      "inputs": [
        {
          "internalType": "address",
          "name": "account",
          "type": "address"
        }
      ],
      "name": "isAdmin",
      "outputs": [
        {
          "internalType": "bool",
          "name": "",
          "type": "bool"
        }
      ],
      "stateMutability": "view",
      "type": "function"
    },
    {
      "inputs": [],
      "name": "lastClaimedRound",
      "outputs": [
        {
          "internalType": "uint256",
          "name": "",
          "type": "uint256"
        }
      ],
      "stateMutability": "view",
      "type": "function"
    },
    {
      "inputs": [],
      "name": "maxInputOnceTime",
      "outputs": [
        {
          "internalType": "uint256",
          "name": "",
          "type": "uint256"
        }
      ],
      "stateMutability": "view",
      "type": "function"
    },
    {
      "inputs": [],
      "name": "name",
      "outputs": [
        {
          "internalType": "string",
          "name": "",
          "type": "string"
        }
      ],
      "stateMutability": "view",
      "type": "function"
    },
    {
      "inputs": [],
      "name": "periodTimesPerCliam",
      "outputs": [
        {
          "internalType": "uint256",
          "name": "",
          "type": "uint256"
        }
      ],
      "stateMutability": "view",
      "type": "function"
    },
    {
      "inputs": [
        {
          "internalType": "address",
          "name": "account",
          "type": "address"
        }
      ],
      "name": "removeAdmin",
      "outputs": [],
      "stateMutability": "nonpayable",
      "type": "function"
    },
    {
      "inputs": [
        {
          "internalType": "bytes32",
          "name": "role",
          "type": "bytes32"
        },
        {
          "internalType": "address",
          "name": "account",
          "type": "address"
        }
      ],
      "name": "renounceRole",
      "outputs": [],
      "stateMutability": "nonpayable",
      "type": "function"
    },
    {
      "inputs": [
        {
          "internalType": "bytes32",
          "name": "role",
          "type": "bytes32"
        },
        {
          "internalType": "address",
          "name": "account",
          "type": "address"
        }
      ],
      "name": "revokeRole",
      "outputs": [],
      "stateMutability": "nonpayable",
      "type": "function"
    },
    {
      "inputs": [
        {
          "internalType": "uint256",
          "name": "_maxInputOnceTime",
          "type": "uint256"
        }
      ],
      "name": "setMaxInputOnceTimeWhitelist",
      "outputs": [],
      "stateMutability": "nonpayable",
      "type": "function"
    },
    {
      "inputs": [
        {
          "internalType": "uint256",
          "name": "round",
          "type": "uint256"
        }
      ],
      "name": "startRound",
      "outputs": [],
      "stateMutability": "nonpayable",
      "type": "function"
    },
    {
      "inputs": [
        {
          "internalType": "uint256",
          "name": "round",
          "type": "uint256"
        }
      ],
      "name": "startRoundTime",
      "outputs": [
        {
          "internalType": "uint256",
          "name": "start",
          "type": "uint256"
        }
      ],
      "stateMutability": "view",
      "type": "function"
    },
    {
      "inputs": [],
      "name": "startTime",
      "outputs": [
        {
          "internalType": "uint256",
          "name": "",
          "type": "uint256"
        }
      ],
      "stateMutability": "view",
      "type": "function"
    },
    {
      "inputs": [
        {
          "internalType": "bytes4",
          "name": "interfaceId",
          "type": "bytes4"
        }
      ],
      "name": "supportsInterface",
      "outputs": [
        {
          "internalType": "bool",
          "name": "",
          "type": "bool"
        }
      ],
      "stateMutability": "view",
      "type": "function"
    },
    {
      "inputs": [
        {
          "internalType": "uint256",
          "name": "",
          "type": "uint256"
        }
      ],
      "name": "tgeInfos",
      "outputs": [
        {
          "internalType": "bool",
          "name": "allocated",
          "type": "bool"
        },
        {
          "internalType": "bool",
          "name": "started",
          "type": "bool"
        },
        {
          "internalType": "uint256",
          "name": "allocatedAmount",
          "type": "uint256"
        },
        {
          "internalType": "uint256",
          "name": "claimedCount",
          "type": "uint256"
        },
        {
          "internalType": "uint256",
          "name": "amount",
          "type": "uint256"
        }
      ],
      "stateMutability": "view",
      "type": "function"
    },
    {
      "inputs": [],
      "name": "token",
      "outputs": [
        {
          "internalType": "address",
          "name": "",
          "type": "address"
        }
      ],
      "stateMutability": "view",
      "type": "function"
    },
    {
      "inputs": [],
      "name": "totalAllocatedAmount",
      "outputs": [
        {
          "internalType": "uint256",
          "name": "",
          "type": "uint256"
        }
      ],
      "stateMutability": "view",
      "type": "function"
    },
    {
      "inputs": [],
      "name": "totalClaimedAmount",
      "outputs": [
        {
          "internalType": "uint256",
          "name": "",
          "type": "uint256"
        }
      ],
      "stateMutability": "view",
      "type": "function"
    },
    {
      "inputs": [],
      "name": "totalClaims",
      "outputs": [
        {
          "internalType": "uint256",
          "name": "",
          "type": "uint256"
        }
      ],
      "stateMutability": "view",
      "type": "function"
    },
    {
      "inputs": [],
      "name": "totalTgeAmount",
      "outputs": [
        {
          "internalType": "uint256",
          "name": "",
          "type": "uint256"
        }
      ],
      "stateMutability": "view",
      "type": "function"
    },
    {
      "inputs": [],
      "name": "totalTgeCount",
      "outputs": [
        {
          "internalType": "uint256",
          "name": "",
          "type": "uint256"
        }
      ],
      "stateMutability": "view",
      "type": "function"
    },
    {
      "inputs": [
        {
          "internalType": "uint256",
          "name": "round",
          "type": "uint256"
        }
      ],
      "name": "totalWhitelist",
      "outputs": [
        {
          "internalType": "uint256",
          "name": "total",
          "type": "uint256"
        }
      ],
      "stateMutability": "view",
      "type": "function"
    },
    {
      "inputs": [
        {
          "internalType": "address",
          "name": "newAdmin",
          "type": "address"
        }
      ],
      "name": "transferAdmin",
      "outputs": [],
      "stateMutability": "nonpayable",
      "type": "function"
    },
    {
      "inputs": [],
      "name": "unclaimedInfos",
      "outputs": [
        {
          "internalType": "uint256",
          "name": "count",
          "type": "uint256"
        },
        {
          "internalType": "uint256",
          "name": "amount",
          "type": "uint256"
        }
      ],
      "stateMutability": "view",
      "type": "function"
    },
    {
      "inputs": [],
      "name": "unclaimedInfosDetails",
      "outputs": [
        {
          "internalType": "uint256[]",
          "name": "_rounds",
          "type": "uint256[]"
        },
        {
          "internalType": "uint256[]",
          "name": "_amounts",
          "type": "uint256[]"
        }
      ],
      "stateMutability": "view",
      "type": "function"
    },
    {
      "inputs": [
        {
          "internalType": "address",
          "name": "to",
          "type": "address"
        }
      ],
      "name": "withdraw",
      "outputs": [],
      "stateMutability": "nonpayable",
      "type": "function"
    }
  ],
  "bytecode": "0x60806040523480156200001157600080fd5b5060405162002c9638038062002c96833981016040819052620000349162000278565b60408051808201909152600780825266041697264726f760cc1b6020830190815284918491620000689160019190620001d2565b50600280546001600160a01b0319166001600160a01b0384161790556000819055620000a460008051602062002c7683398151915280620000ca565b620000bf60008051602062002c76833981519152336200011e565b5050505050620002ef565b6000828152600c6020526040902060010154819060405184907fbd79b86ffe0ab8e8776151514217cd7cacd52c909f66475c3af44e129f0b00ff90600090a46000918252600c602052604090912060010155565b6200012a82826200012e565b5050565b6000828152600c602090815260408083206001600160a01b038516845290915290205460ff166200012a576000828152600c602090815260408083206001600160a01b03851684529091529020805460ff191660011790556200018e3390565b6001600160a01b0316816001600160a01b0316837f2f8788117e7eff1d82e926ec794901d17c78024a50270940304540a733656f0d60405160405180910390a45050565b828054620001e090620002b2565b90600052602060002090601f0160209004810192826200020457600085556200024f565b82601f106200021f57805160ff19168380011785556200024f565b828001600101855582156200024f579182015b828111156200024f57825182559160200191906001019062000232565b506200025d92915062000261565b5090565b5b808211156200025d576000815560010162000262565b600080604083850312156200028b578182fd5b82516001600160a01b0381168114620002a2578283fd5b6020939093015192949293505050565b600181811c90821680620002c757607f821691505b60208210811415620002e957634e487b7160e01b600052602260045260246000fd5b50919050565b61297780620002ff6000396000f3fe608060405234801561001057600080fd5b50600436106102745760003560e01c8063704802751161015157806391d14854116100c3578063cb1b782f11610087578063cb1b782f1461057e578063d5391393146105a8578063d547741f146105cf578063d81fb387146105e2578063d9934719146105f5578063fc0c546a146105fe57600080fd5b806391d14854146105315780639661cb0d14610544578063a217fddf1461054d578063ab4eb57e14610555578063b730568f1461056857600080fd5b8063814f26fc11610115578063814f26fc146104ca57806383ff3495146104d3578063875d741d146104f05780638a19c8bc146105035780638aa1e44e1461050b5780638fcb7d8c1461051e57600080fd5b80637048027514610473578063717048ec1461048657806375829def1461049957806375b238fc146104ac57806378e97925146104c157600080fd5b80633e59df35116101ea578063517da719116101ae578063517da7191461040457806351cff8d914610429578063556400081461043c5780635fc3d52d1461044557806360a2da441461045857806361202e3b1461046b57600080fd5b80633e59df35146103d85780633ef1a1aa146103e15780634117cfb7146103ea57806341c61383146103f35780634e71d92d146103fc57600080fd5b8063248a9ca31161023c578063248a9ca31461034c57806324d7806c1461036f578063282c51f3146103825780632f2ff15d146103a95780633197cbb6146103bc57806336568abe146103c557600080fd5b806301ffc9a71461027957806306fdde03146102a1578063166cf32c146102b65780631785f53c1461032057806317d426f714610335575b600080fd5b61028c6102873660046123f6565b610629565b60405190151581526020015b60405180910390f35b6102a9610660565b6040516102989190612680565b6102f66102c43660046123b3565b600b60205260009081526040902080546001820154600283015460039093015460ff8084169461010090940416929085565b6040805195151586529315156020860152928401919091526060830152608082015260a001610298565b61033361032e366004612379565b6106ee565b005b61033e60075481565b604051908152602001610298565b61033e61035a3660046123b3565b6000908152600c602052604090206001015490565b61028c61037d366004612379565b610737565b61033e7f9667e80708b6eeeb0053fa0cca44e028ff548e2a9f029edfeac87c118b08b7c881565b6103336103b73660046123cb565b610751565b61033e60065481565b6103336103d33660046123cb565b61077c565b61033e600e5481565b61033e60005481565b61033e600d5481565b61033e60085481565b6103336107fa565b6104176104123660046123b3565b610aaf565b6040516102989695949392919061260a565b610333610437366004612379565b610baa565b61033e60035481565b6103336104533660046123b3565b610da2565b6103336104663660046124c2565b610fb8565b61033e610ff0565b610333610481366004612379565b6110e0565b61033e6104943660046123b3565b61111d565b6103336104a7366004612379565b61117b565b61033e60008051602061292283398151915281565b61033e60055481565b61033e600a5481565b6104db611278565b60408051928352602083019190915201610298565b6103336104fe3660046123b3565b611336565b61033e6113d0565b610333610519366004612448565b61140e565b61033e61052c3660046123b3565b611727565b61028c61053f3660046123cb565b611769565b61033e60045481565b61033e600081565b6103336105633660046124f3565b611794565b6105706119be565b6040516102989291906125dc565b61059161058c366004612436565b611b8c565b604080519215158352602083019190915201610298565b61033e7ff0887ba65ee2024ea881d91b74c2450ef19e1557f03bed3ea9f16b037cbe2dc981565b6103336105dd3660046123cb565b611c3f565b6103336105f03660046123b3565b611c65565b61033e60095481565b600254610611906001600160a01b031681565b6040516001600160a01b039091168152602001610298565b60006001600160e01b03198216637965db0b60e01b148061065a57506301ffc9a760e01b6001600160e01b03198316145b92915050565b6001805461066d906128b5565b80601f0160208091040260200160405190810160405280929190818152602001828054610699906128b5565b80156106e65780601f106106bb576101008083540402835291602001916106e6565b820191906000526020600020905b8154815290600101906020018083116106c957829003601f168201915b505050505081565b6106f733610737565b61071c5760405162461bcd60e51b8152600401610713906126b3565b60405180910390fd5b6107346000805160206129228339815191528261077c565b50565b600061065a60008051602061292283398151915283611769565b6000828152600c602052604090206001015461076d8133611e30565b6107778383611e94565b505050565b6001600160a01b03811633146107ec5760405162461bcd60e51b815260206004820152602f60248201527f416363657373436f6e74726f6c3a2063616e206f6e6c792072656e6f756e636560448201526e103937b632b9903337b91039b2b63360891b6064820152608401610713565b6107f68282611f1a565b5050565b600080600554421161084e5760405162461bcd60e51b815260206004820152601f60248201527f57686974656c6973745661756c743a206e6f74207374617274656420796574006044820152606401610713565b60006108586113d0565b905060015b600954811161092257808210610910576000818152600b602052604090208054610100900460ff161561090e5733600090815260058201602052604090205460ff1680156108bd5750336000908152600582016020526040902060010154155b1561090e57336000908152600582016020526040812042600190910155600282018054916108ea836128f0565b909155505060038101546108fe9085612804565b93508461090a816128f0565b9550505b505b8061091a816128f0565b91505061085d565b506000821161097f5760405162461bcd60e51b815260206004820152602360248201527f57686974656c6973745661756c743a206e6f20636c61696d61626c6520616d6f6044820152621d5b9d60ea1b6064820152608401610713565b81600460008282546109919190612804565b909155505060025460405163a9059cbb60e01b8152336004820152602481018490526001600160a01b039091169063a9059cbb90604401602060405180830381600087803b1580156109e257600080fd5b505af11580156109f6573d6000803e3d6000fd5b505050506040513d601f19601f82011682018060405250810190610a1a9190612393565b610a665760405162461bcd60e51b815260206004820152601d60248201527f57686974656c6973745661756c743a207472616e73666572206661696c0000006044820152606401610713565b60045460405133917f987d620f307ff6b94d58743cb7a7509f24071586a77759b77c2d4e29f75a2f9a91610aa291868252602082015260400190565b60405180910390a2505050565b600080600080600060608660008111610ada5760405162461bcd60e51b8152600401610713906126f5565b87600954811115610afd5760405162461bcd60e51b81526004016107139061276d565b6000898152600b60209081526040918290208054600182015460028301546003840154600485018054885181890281018901909952808952959760ff80871698610100909704169694959394929391929091839190830182828015610b8b57602002820191906000526020600020905b81546001600160a01b03168152600190910190602001808311610b6d575b5050505050905098509850985098509850985050505091939550919395565b610bb333610737565b610bcf5760405162461bcd60e51b8152600401610713906126b3565b806001600160a01b038116610c265760405162461bcd60e51b815260206004820152601e60248201527f426173655661756c7453746f726167653a207a65726f206164647265737300006044820152606401610713565b6000610c30610ff0565b905060008111610c8c5760405162461bcd60e51b815260206004820152602160248201527f426173655661756c743a206e6f20776974686472617761626c6520616d6f756e6044820152601d60fa1b6064820152608401610713565b6002546001600160a01b031663a9059cbb84610ca6610ff0565b6040516001600160e01b031960e085901b1681526001600160a01b0390921660048301526024820152604401602060405180830381600087803b158015610cec57600080fd5b505af1158015610d00573d6000803e3d6000fd5b505050506040513d601f19601f82011682018060405250810190610d249190612393565b610d705760405162461bcd60e51b815260206004820152601860248201527f426173655661756c743a207472616e73666572206661696c00000000000000006044820152606401610713565b60405181815233907f7fcf532c15f0a6db0bd6d0e038bea71d30d808c7d98cb3bf7268a95bf5081b6590602001610aa2565b610dab33610737565b610dc75760405162461bcd60e51b8152600401610713906126b3565b8060008111610de85760405162461bcd60e51b8152600401610713906126f5565b60095460008111610e0b5760405162461bcd60e51b8152600401610713906126f5565b82600954811115610e2e5760405162461bcd60e51b81526004016107139061276d565b6001841115610e4057610e4084611f81565b6000848152600b60205260409020805460ff168015610e63575060008160010154115b610eaf5760405162461bcd60e51b815260206004820152601c60248201527f57686974656c6973745661756c743a206e6f20616c6c6f6361746564000000006044820152606401610713565b8054610100900460ff1615610f065760405162461bcd60e51b815260206004820152601f60248201527f57686974656c6973745661756c743a20616c72656164792073746172746564006044820152606401610713565b6004810154610f575760405162461bcd60e51b815260206004820152601c60248201527f57686974656c6973745661756c743a206e6f2077686974656c697374000000006044820152606401610713565b805461ff00191661010017815560048101546001820154610f78919061281c565b60038201556040518581527f0ab582f1afc29efbd503feb5b4a945175eee54010e1be75f88d3e0a865f1631f906020015b60405180910390a15050505050565b610fc133610737565b610fdd5760405162461bcd60e51b8152600401610713906126b3565b610fea8484858585611794565b50505050565b6002546040516370a0823160e01b815230600482015260009182916001600160a01b03909116906370a082319060240160206040518083038186803b15801561103857600080fd5b505afa15801561104c573d6000803e3d6000fd5b505050506040513d601f19601f82011682018060405250810190611070919061241e565b90506000600454600354611084919061285b565b9050808210156110cf5760405162461bcd60e51b815260206004820152601660248201527510985cd955985d5b1d0e881a5b9cdd59999a58d95b9d60521b6044820152606401610713565b6110d9818361285b565b9250505090565b6110e933610737565b6111055760405162461bcd60e51b8152600401610713906126b3565b61073460008051602061292283398151915282610751565b600081600081116111405760405162461bcd60e51b8152600401610713906126f5565b826009548111156111635760405162461bcd60e51b81526004016107139061276d565b5050506000908152600b602052604090206004015490565b61118433610737565b6111a05760405162461bcd60e51b8152600401610713906126b3565b6001600160a01b0381166111f65760405162461bcd60e51b815260206004820152601860248201527f41636365737369626c653a207a65726f206164647265737300000000000000006044820152606401610713565b336001600160a01b03821614156112485760405162461bcd60e51b815260206004820152601660248201527520b1b1b2b9b9b4b136329d1039b0b6b29030b236b4b760511b6044820152606401610713565b61126060008051602061292283398151915282610751565b6107346000805160206129228339815191523361077c565b60055460009081904211156113325760006112916113d0565b905060015b600954811161132f5780821061131d576000818152600b602052604090208054610100900460ff161561131b5733600090815260058201602052604090205460ff1680156112f65750336000908152600582016020526040902060010154155b1561131b5784611305816128f0565b9550508060030154846113189190612804565b93505b505b80611327816128f0565b915050611296565b50505b9091565b61133f33610737565b61135b5760405162461bcd60e51b8152600401610713906126b3565b806000811161137c5760405162461bcd60e51b8152600401610713906126f5565b60005482808214156113c85760405162461bcd60e51b8152602060048201526015602482015274426173655661756c743a2073616d652076616c756560581b6044820152606401610713565b505050600055565b60006005544210156113e25750600090565b6007546005546113f2904261285b565b6113fc919061281c565b905080611408816128f0565b91505090565b61141733610737565b6114335760405162461bcd60e51b8152600401610713906126b3565b82600081116114545760405162461bcd60e51b8152600401610713906126f5565b836009548111156114775760405162461bcd60e51b81526004016107139061276d565b82801580159061148957506000548111155b6114e75760405162461bcd60e51b815260206004820152602960248201527f426173655661756c743a20636865636b20696e70757420636f756e74206174206044820152686f6e63652074696d6560b81b6064820152608401610713565b6000868152600b602052604090208054610100900460ff161561154c5760405162461bcd60e51b815260206004820152601a60248201527f426173655661756c743a20616c726561647920737461727465640000000000006044820152606401610713565b60005b858110156116e257600087878381811061157957634e487b7160e01b600052603260045260246000fd5b905060200201602081019061158e9190612379565b6001600160a01b0316141580156115fa57508160050160008888848181106115c657634e487b7160e01b600052603260045260246000fd5b90506020020160208101906115db9190612379565b6001600160a01b0316815260208101919091526040016000205460ff16155b156116d057600182600501600089898581811061162757634e487b7160e01b600052603260045260246000fd5b905060200201602081019061163c9190612379565b6001600160a01b031681526020810191909152604001600020805460ff19169115159190911790556004820187878381811061168857634e487b7160e01b600052603260045260246000fd5b905060200201602081019061169d9190612379565b81546001810183556000928352602090922090910180546001600160a01b0319166001600160a01b039092169190911790555b806116da816128f0565b91505061154f565b507f9c9ea5277c31b2732c1577550098533c5c80dda4ee8728a4f235421651856e96878787604051611716939291906127ae565b60405180910390a150505050505050565b6000808211801561173a57506009548211155b156117645761174a60018361285b565b600754611757919061283c565b60055461065a9190612804565b919050565b6000918252600c602090815260408084206001600160a01b0393909316845291905290205460ff1690565b61179d33610737565b6117b95760405162461bcd60e51b8152600401610713906126b3565b84600081116117da5760405162461bcd60e51b8152600401610713906126f5565b84600081116117fb5760405162461bcd60e51b8152600401610713906126f5565b846000811161181c5760405162461bcd60e51b8152600401610713906126f5565b846000811161183d5760405162461bcd60e51b8152600401610713906126f5565b846000811161185e5760405162461bcd60e51b8152600401610713906126f5565b6002546040516370a0823160e01b81523060048201528b916001600160a01b0316906370a082319060240160206040518083038186803b1580156118a157600080fd5b505afa1580156118b5573d6000803e3d6000fd5b505050506040513d601f19601f820116820180604052508101906118d9919061241e565b10156119325760405162461bcd60e51b815260206004820152602260248201527f426173655661756c743a2062616c616e63654f6620697320696e7375666669656044820152611b9d60f21b6064820152608401610713565b600354156119825760405162461bcd60e51b815260206004820152601e60248201527f426173655661756c743a20616c726561647920696e697469616c697a656400006044820152606401610713565b60038a905560088990556009889055600587905560078690556119a5898761283c565b6119af9088612804565b60065550505050505050505050565b60608060006119cb611278565b50905060008167ffffffffffffffff8111156119f757634e487b7160e01b600052604160045260246000fd5b604051908082528060200260200182016040528015611a20578160200160208202803683370190505b50905060008267ffffffffffffffff811115611a4c57634e487b7160e01b600052604160045260246000fd5b604051908082528060200260200182016040528015611a75578160200160208202803683370190505b5090508215611b82576000600554421115611b80576000611a946113d0565b905060015b6009548111611b7d57808210611b6b576000818152600b602052604090208054610100900460ff1615611b695733600090815260058201602052604090205460ff168015611af95750336000908152600582016020526040902060010154155b15611b695781868581518110611b1f57634e487b7160e01b600052603260045260246000fd5b6020026020010181815250508060030154858581518110611b5057634e487b7160e01b600052603260045260246000fd5b602090810291909101015283611b65816128f0565b9450505b505b80611b75816128f0565b915050611a99565b50505b505b9094909350915050565b6000808360008111611bb05760405162461bcd60e51b8152600401610713906126f5565b84600954811115611bd35760405162461bcd60e51b81526004016107139061276d565b6000868152600b602090815260408083206001600160a01b0389168452600581019092529091205460ff1615611c34576001600160a01b0386166000908152600590910160205260409020805460019091015460ff90911694509250611c36565b505b50509250929050565b6000828152600c6020526040902060010154611c5b8133611e30565b6107778383611f1a565b611c6e33610737565b611c8a5760405162461bcd60e51b8152600401610713906126b3565b8060008111611cab5760405162461bcd60e51b8152600401610713906126f5565b6001600954811115611ccf5760405162461bcd60e51b81526004016107139061276d565b60035483600a54611ce09190612804565b1115611d445760405162461bcd60e51b815260206004820152602d60248201527f57686974656c6973745661756c743a2065786365656420746f74616c20616c6c60448201526c1bd8d85d195908185b5bdd5b9d609a1b6064820152608401610713565b60016000819052600b6020527f72c6bfb7988af3a1efa6568f02a999bc52252641c659d85961ca3d372b57d5cf805460ff1615611d935760405162461bcd60e51b81526004016107139061272c565b805460ff1916600190811782558101859055600a8054869190600090611dba908490612804565b9091555050600e82905560095460011015611dfa576001600954611dde919061285b565b85600354611dec919061285b565b611df6919061281c565b600d555b60408051838152602081018790527f3fd8c003d3212e0132457c2c9a85802b483554aec663e60ee92100df71c15f169101610fa9565b611e3a8282611769565b6107f657611e52816001600160a01b03166014612179565b611e5d836020612179565b604051602001611e6e929190612567565b60408051601f198184030181529082905262461bcd60e51b825261071391600401612680565b611e9e8282611769565b6107f6576000828152600c602090815260408083206001600160a01b03851684529091529020805460ff19166001179055611ed63390565b6001600160a01b0316816001600160a01b0316837f2f8788117e7eff1d82e926ec794901d17c78024a50270940304540a733656f0d60405160405180910390a45050565b611f248282611769565b156107f6576000828152600c602090815260408083206001600160a01b0385168085529252808320805460ff1916905551339285917ff6391f5c32d9c69d2a47ea670b442974b53935d1edc7fd64eb21e047a839171b9190a45050565b600e5460008111611fa45760405162461bcd60e51b8152600401610713906126f5565b600d5460008111611fc75760405162461bcd60e51b8152600401610713906126f5565b600183118015611fd957506009548311155b6120305760405162461bcd60e51b815260206004820152602260248201527f57686974656c6973745661756c743a206e6f20617661696c61626c6520726f756044820152611b9960f21b6064820152608401610713565b600060075460055442612043919061285b565b61204d919061281c565b905061205a816001612804565b84146120b85760405162461bcd60e51b815260206004820152602760248201527f57686974656c6973745661756c743a206e6f2063757272656e7420726f756e64604482015266081c195c9a5bd960ca1b6064820152608401610713565b6000848152600b60205260409020805460ff16156120e85760405162461bcd60e51b81526004016107139061272c565b6000600d54600e54876120fb919061285b565b612105919061283c565b825460ff1916600190811784558301819055600a8054919250829160009061212e908490612804565b9091555050600e86905560408051878152602081018390527f3fd8c003d3212e0132457c2c9a85802b483554aec663e60ee92100df71c15f16910160405180910390a1505050505050565b6060600061218883600261283c565b612193906002612804565b67ffffffffffffffff8111156121b957634e487b7160e01b600052604160045260246000fd5b6040519080825280601f01601f1916602001820160405280156121e3576020820181803683370190505b509050600360fc1b8160008151811061220c57634e487b7160e01b600052603260045260246000fd5b60200101906001600160f81b031916908160001a905350600f60fb1b8160018151811061224957634e487b7160e01b600052603260045260246000fd5b60200101906001600160f81b031916908160001a905350600061226d84600261283c565b612278906001612804565b90505b600181111561230c576f181899199a1a9b1b9c1cb0b131b232b360811b85600f16601081106122ba57634e487b7160e01b600052603260045260246000fd5b1a60f81b8282815181106122de57634e487b7160e01b600052603260045260246000fd5b60200101906001600160f81b031916908160001a90535060049490941c936123058161289e565b905061227b565b50831561235b5760405162461bcd60e51b815260206004820181905260248201527f537472696e67733a20686578206c656e67746820696e73756666696369656e746044820152606401610713565b9392505050565b80356001600160a01b038116811461176457600080fd5b60006020828403121561238a578081fd5b61235b82612362565b6000602082840312156123a4578081fd5b8151801515811461235b578182fd5b6000602082840312156123c4578081fd5b5035919050565b600080604083850312156123dd578081fd5b823591506123ed60208401612362565b90509250929050565b600060208284031215612407578081fd5b81356001600160e01b03198116811461235b578182fd5b60006020828403121561242f578081fd5b5051919050565b600080604083850312156123dd578182fd5b60008060006040848603121561245c578081fd5b83359250602084013567ffffffffffffffff8082111561247a578283fd5b818601915086601f83011261248d578283fd5b81358181111561249b578384fd5b8760208260051b85010111156124af578384fd5b6020830194508093505050509250925092565b600080600080608085870312156124d7578081fd5b5050823594602084013594506040840135936060013592509050565b600080600080600060a0868803121561250a578081fd5b505083359560208501359550604085013594606081013594506080013592509050565b6000815180845260208085019450808401835b8381101561255c57815187529582019590820190600101612540565b509495945050505050565b7f416363657373436f6e74726f6c3a206163636f756e742000000000000000000081526000835161259f816017850160208801612872565b7001034b99036b4b9b9b4b733903937b6329607d1b60179184019182015283516125d0816028840160208801612872565b01602801949350505050565b6040815260006125ef604083018561252d565b8281036020840152612601818561252d565b95945050505050565b600060c08201881515835260208815158185015287604085015286606085015285608085015260c060a085015281855180845260e0860191508287019350845b8181101561266f5784516001600160a01b03168352938301939183019160010161264a565b50909b9a5050505050505050505050565b602081526000825180602084015261269f816040850160208701612872565b601f01601f19169190910160400192915050565b60208082526022908201527f41636365737369626c653a2043616c6c6572206973206e6f7420616e2061646d60408201526134b760f11b606082015260800190565b6020808252601c908201527f426173655661756c7453746f726167653a207a65726f2076616c756500000000604082015260600190565b60208082526021908201527f57686974656c6973745661756c743a20616c726561647920616c6c6f636174656040820152601960fa1b606082015260800190565b60208082526021908201527f426173655661756c743a2065786365656420617661696c61626c6520726f756e6040820152601960fa1b606082015260800190565b83815260406020808301829052908201839052600090849060608401835b868110156127f8576001600160a01b036127e585612362565b16825292820192908201906001016127cc565b50979650505050505050565b600082198211156128175761281761290b565b500190565b60008261283757634e487b7160e01b81526012600452602481fd5b500490565b60008160001904831182151516156128565761285661290b565b500290565b60008282101561286d5761286d61290b565b500390565b60005b8381101561288d578181015183820152602001612875565b83811115610fea5750506000910152565b6000816128ad576128ad61290b565b506000190190565b600181811c908216806128c957607f821691505b602082108114156128ea57634e487b7160e01b600052602260045260246000fd5b50919050565b60006000198214156129045761290461290b565b5060010190565b634e487b7160e01b600052601160045260246000fdfedf8b4c520ffe197c5343c6f5aec59570151ef9a492f2c624fd45ddde6135ec42a2646970667358221220085c43db6830979381a4f5a678a04c9fa38820c50339e1c094e622e7d08bbf8964736f6c63430008040033df8b4c520ffe197c5343c6f5aec59570151ef9a492f2c624fd45ddde6135ec42",
  "linkReferences": {},
  "deployedLinkReferences": {}
}