{
  "_format": "hh-sol-artifact-1",
  "contractName": "AccessibleCommon",
  "sourceName": "contracts/common/AccessibleCommon.sol",
  "abi": [
    {
      "anonymous": false,
      "inputs": [
        {
          "indexed": true,
          "internalType": "bytes32",
          "name": "role",
          "type": "bytes32"
        },
        {
          "indexed": true,
          "internalType": "bytes32",
          "name": "previousAdminRole",
          "type": "bytes32"
        },
        {
          "indexed": true,
          "internalType": "bytes32",
          "name": "newAdminRole",
          "type": "bytes32"
        }
      ],
      "name": "RoleAdminChanged",
      "type": "event"
    },
    {
      "anonymous": false,
      "inputs": [
        {
          "indexed": true,
          "internalType": "bytes32",
          "name": "role",
          "type": "bytes32"
        },
        {
          "indexed": true,
          "internalType": "address",
          "name": "account",
          "type": "address"
        },
        {
          "indexed": true,
          "internalType": "address",
          "name": "sender",
          "type": "address"
        }
      ],
      "name": "RoleGranted",
      "type": "event"
    },
    {
      "anonymous": false,
      "inputs": [
        {
          "indexed": true,
          "internalType": "bytes32",
          "name": "role",
          "type": "bytes32"
        },
        {
          "indexed": true,
          "internalType": "address",
          "name": "account",
          "type": "address"
        },
        {
          "indexed": true,
          "internalType": "address",
          "name": "sender",
          "type": "address"
        }
      ],
      "name": "RoleRevoked",
      "type": "event"
    },
    {
      "inputs": [],
      "name": "ADMIN_ROLE",
      "outputs": [
        {
          "internalType": "bytes32",
          "name": "",
          "type": "bytes32"
        }
      ],
      "stateMutability": "view",
      "type": "function"
    },
    {
      "inputs": [],
      "name": "BURNER_ROLE",
      "outputs": [
        {
          "internalType": "bytes32",
          "name": "",
          "type": "bytes32"
        }
      ],
      "stateMutability": "view",
      "type": "function"
    },
    {
      "inputs": [],
      "name": "DEFAULT_ADMIN_ROLE",
      "outputs": [
        {
          "internalType": "bytes32",
          "name": "",
          "type": "bytes32"
        }
      ],
      "stateMutability": "view",
      "type": "function"
    },
    {
      "inputs": [],
      "name": "MINTER_ROLE",
      "outputs": [
        {
          "internalType": "bytes32",
          "name": "",
          "type": "bytes32"
        }
      ],
      "stateMutability": "view",
      "type": "function"
    },
    {
      "inputs": [
        {
          "internalType": "address",
          "name": "account",
          "type": "address"
        }
      ],
      "name": "addAdmin",
      "outputs": [],
      "stateMutability": "nonpayable",
      "type": "function"
    },
    {
      "inputs": [
        {
          "internalType": "bytes32",
          "name": "role",
          "type": "bytes32"
        }
      ],
      "name": "getRoleAdmin",
      "outputs": [
        {
          "internalType": "bytes32",
          "name": "",
          "type": "bytes32"
        }
      ],
      "stateMutability": "view",
      "type": "function"
    },
    {
      "inputs": [
        {
          "internalType": "bytes32",
          "name": "role",
          "type": "bytes32"
        },
        {
          "internalType": "address",
          "name": "account",
          "type": "address"
        }
      ],
      "name": "grantRole",
      "outputs": [],
      "stateMutability": "nonpayable",
      "type": "function"
    },
    {
      "inputs": [
        {
          "internalType": "bytes32",
          "name": "role",
          "type": "bytes32"
        },
        {
          "internalType": "address",
          "name": "account",
          "type": "address"
        }
      ],
      "name": "hasRole",
      "outputs": [
        {
          "internalType": "bool",
          "name": "",
          "type": "bool"
        }
      ],
      "stateMutability": "view",
      "type": "function"
    },
    {
      "inputs": [
        {
          "internalType": "address",
          "name": "account",
          "type": "address"
        }
      ],
      "name": "isAdmin",
      "outputs": [
        {
          "internalType": "bool",
          "name": "",
          "type": "bool"
        }
      ],
      "stateMutability": "view",
      "type": "function"
    },
    {
      "inputs": [
        {
          "internalType": "address",
          "name": "account",
          "type": "address"
        }
      ],
      "name": "removeAdmin",
      "outputs": [],
      "stateMutability": "nonpayable",
      "type": "function"
    },
    {
      "inputs": [
        {
          "internalType": "bytes32",
          "name": "role",
          "type": "bytes32"
        },
        {
          "internalType": "address",
          "name": "account",
          "type": "address"
        }
      ],
      "name": "renounceRole",
      "outputs": [],
      "stateMutability": "nonpayable",
      "type": "function"
    },
    {
      "inputs": [
        {
          "internalType": "bytes32",
          "name": "role",
          "type": "bytes32"
        },
        {
          "internalType": "address",
          "name": "account",
          "type": "address"
        }
      ],
      "name": "revokeRole",
      "outputs": [],
      "stateMutability": "nonpayable",
      "type": "function"
    },
    {
      "inputs": [
        {
          "internalType": "bytes4",
          "name": "interfaceId",
          "type": "bytes4"
        }
      ],
      "name": "supportsInterface",
      "outputs": [
        {
          "internalType": "bool",
          "name": "",
          "type": "bool"
        }
      ],
      "stateMutability": "view",
      "type": "function"
    },
    {
      "inputs": [
        {
          "internalType": "address",
          "name": "newAdmin",
          "type": "address"
        }
      ],
      "name": "transferAdmin",
      "outputs": [],
      "stateMutability": "nonpayable",
      "type": "function"
    }
  ],
  "bytecode": "0x608060405234801561001057600080fd5b50610ac4806100206000396000f3fe608060405234801561001057600080fd5b50600436106100ea5760003560e01c8063704802751161008c57806391d148541161006657806391d14854146101f8578063a217fddf1461020b578063d539139314610213578063d547741f1461023a57600080fd5b806370480275146101bd57806375829def146101d057806375b238fc146101e357600080fd5b806324d7806c116100c857806324d7806c1461015d578063282c51f3146101705780632f2ff15d1461019757806336568abe146101aa57600080fd5b806301ffc9a7146100ef5780631785f53c14610117578063248a9ca31461012c575b600080fd5b6101026100fd3660046108c8565b61024d565b60405190151581526020015b60405180910390f35b61012a61012536600461086b565b610284565b005b61014f61013a366004610885565b60009081526020819052604090206001015490565b60405190815260200161010e565b61010261016b36600461086b565b6102cd565b61014f7f9667e80708b6eeeb0053fa0cca44e028ff548e2a9f029edfeac87c118b08b7c881565b61012a6101a536600461089d565b6102e7565b61012a6101b836600461089d565b610312565b61012a6101cb36600461086b565b610390565b61012a6101de36600461086b565b6103cd565b61014f600080516020610a6f83398151915281565b61010261020636600461089d565b6104ca565b61014f600081565b61014f7ff0887ba65ee2024ea881d91b74c2450ef19e1557f03bed3ea9f16b037cbe2dc981565b61012a61024836600461089d565b6104f3565b60006001600160e01b03198216637965db0b60e01b148061027e57506301ffc9a760e01b6001600160e01b03198316145b92915050565b61028d336102cd565b6102b25760405162461bcd60e51b81526004016102a990610998565b60405180910390fd5b6102ca600080516020610a6f83398151915282610312565b50565b600061027e600080516020610a6f833981519152836104ca565b6000828152602081905260409020600101546103038133610519565b61030d838361057d565b505050565b6001600160a01b03811633146103825760405162461bcd60e51b815260206004820152602f60248201527f416363657373436f6e74726f6c3a2063616e206f6e6c792072656e6f756e636560448201526e103937b632b9903337b91039b2b63360891b60648201526084016102a9565b61038c8282610601565b5050565b610399336102cd565b6103b55760405162461bcd60e51b81526004016102a990610998565b6102ca600080516020610a6f833981519152826102e7565b6103d6336102cd565b6103f25760405162461bcd60e51b81526004016102a990610998565b6001600160a01b0381166104485760405162461bcd60e51b815260206004820152601860248201527f41636365737369626c653a207a65726f2061646472657373000000000000000060448201526064016102a9565b336001600160a01b038216141561049a5760405162461bcd60e51b815260206004820152601660248201527520b1b1b2b9b9b4b136329d1039b0b6b29030b236b4b760511b60448201526064016102a9565b6104b2600080516020610a6f833981519152826102e7565b6102ca600080516020610a6f83398151915233610312565b6000918252602082815260408084206001600160a01b0393909316845291905290205460ff1690565b60008281526020819052604090206001015461050f8133610519565b61030d8383610601565b61052382826104ca565b61038c5761053b816001600160a01b03166014610666565b610546836020610666565b6040516020016105579291906108f0565b60408051601f198184030181529082905262461bcd60e51b82526102a991600401610965565b61058782826104ca565b61038c576000828152602081815260408083206001600160a01b03851684529091529020805460ff191660011790556105bd3390565b6001600160a01b0316816001600160a01b0316837f2f8788117e7eff1d82e926ec794901d17c78024a50270940304540a733656f0d60405160405180910390a45050565b61060b82826104ca565b1561038c576000828152602081815260408083206001600160a01b0385168085529252808320805460ff1916905551339285917ff6391f5c32d9c69d2a47ea670b442974b53935d1edc7fd64eb21e047a839171b9190a45050565b606060006106758360026109f2565b6106809060026109da565b67ffffffffffffffff8111156106a657634e487b7160e01b600052604160045260246000fd5b6040519080825280601f01601f1916602001820160405280156106d0576020820181803683370190505b509050600360fc1b816000815181106106f957634e487b7160e01b600052603260045260246000fd5b60200101906001600160f81b031916908160001a905350600f60fb1b8160018151811061073657634e487b7160e01b600052603260045260246000fd5b60200101906001600160f81b031916908160001a905350600061075a8460026109f2565b6107659060016109da565b90505b60018111156107f9576f181899199a1a9b1b9c1cb0b131b232b360811b85600f16601081106107a757634e487b7160e01b600052603260045260246000fd5b1a60f81b8282815181106107cb57634e487b7160e01b600052603260045260246000fd5b60200101906001600160f81b031916908160001a90535060049490941c936107f281610a41565b9050610768565b5083156108485760405162461bcd60e51b815260206004820181905260248201527f537472696e67733a20686578206c656e67746820696e73756666696369656e7460448201526064016102a9565b9392505050565b80356001600160a01b038116811461086657600080fd5b919050565b60006020828403121561087c578081fd5b6108488261084f565b600060208284031215610896578081fd5b5035919050565b600080604083850312156108af578081fd5b823591506108bf6020840161084f565b90509250929050565b6000602082840312156108d9578081fd5b81356001600160e01b031981168114610848578182fd5b7f416363657373436f6e74726f6c3a206163636f756e7420000000000000000000815260008351610928816017850160208801610a11565b7001034b99036b4b9b9b4b733903937b6329607d1b6017918401918201528351610959816028840160208801610a11565b01602801949350505050565b6020815260008251806020840152610984816040850160208701610a11565b601f01601f19169190910160400192915050565b60208082526022908201527f41636365737369626c653a2043616c6c6572206973206e6f7420616e2061646d60408201526134b760f11b606082015260800190565b600082198211156109ed576109ed610a58565b500190565b6000816000190483118215151615610a0c57610a0c610a58565b500290565b60005b83811015610a2c578181015183820152602001610a14565b83811115610a3b576000848401525b50505050565b600081610a5057610a50610a58565b506000190190565b634e487b7160e01b600052601160045260246000fdfedf8b4c520ffe197c5343c6f5aec59570151ef9a492f2c624fd45ddde6135ec42a2646970667358221220d2159ea4a11fc48ba33149749503b2da6570a823d94c931242345eddfd0b811e64736f6c63430008040033",
  "linkReferences": {},
  "deployedLinkReferences": {}
}