{
  "_format": "hh-sol-artifact-1",
  "contractName": "InitialContributorVault",
  "sourceName": "contracts/InitialContributorVault.sol",
  "abi": [
    {
      "inputs": [
        {
          "internalType": "address",
          "name": "_tosAddress",
          "type": "address"
        },
        {
          "internalType": "uint256",
          "name": "_maxInputOnce",
          "type": "uint256"
        }
      ],
      "stateMutability": "nonpayable",
      "type": "constructor"
    },
    {
      "anonymous": false,
      "inputs": [
        {
          "indexed": false,
          "internalType": "uint256",
          "name": "round",
          "type": "uint256"
        },
        {
          "indexed": false,
          "internalType": "address[]",
          "name": "users",
          "type": "address[]"
        }
      ],
      "name": "AddedWhitelist",
      "type": "event"
    },
    {
      "anonymous": false,
      "inputs": [
        {
          "indexed": false,
          "internalType": "uint256",
          "name": "round",
          "type": "uint256"
        },
        {
          "indexed": false,
          "internalType": "uint256",
          "name": "amount",
          "type": "uint256"
        }
      ],
      "name": "AllocatedAmount",
      "type": "event"
    },
    {
      "anonymous": false,
      "inputs": [
        {
          "indexed": true,
          "internalType": "address",
          "name": "caller",
          "type": "address"
        },
        {
          "indexed": false,
          "internalType": "uint256",
          "name": "amount",
          "type": "uint256"
        },
        {
          "indexed": false,
          "internalType": "uint256",
          "name": "totalClaimedAmount",
          "type": "uint256"
        }
      ],
      "name": "Claimed",
      "type": "event"
    },
    {
      "anonymous": false,
      "inputs": [
        {
          "indexed": true,
          "internalType": "bytes32",
          "name": "role",
          "type": "bytes32"
        },
        {
          "indexed": true,
          "internalType": "bytes32",
          "name": "previousAdminRole",
          "type": "bytes32"
        },
        {
          "indexed": true,
          "internalType": "bytes32",
          "name": "newAdminRole",
          "type": "bytes32"
        }
      ],
      "name": "RoleAdminChanged",
      "type": "event"
    },
    {
      "anonymous": false,
      "inputs": [
        {
          "indexed": true,
          "internalType": "bytes32",
          "name": "role",
          "type": "bytes32"
        },
        {
          "indexed": true,
          "internalType": "address",
          "name": "account",
          "type": "address"
        },
        {
          "indexed": true,
          "internalType": "address",
          "name": "sender",
          "type": "address"
        }
      ],
      "name": "RoleGranted",
      "type": "event"
    },
    {
      "anonymous": false,
      "inputs": [
        {
          "indexed": true,
          "internalType": "bytes32",
          "name": "role",
          "type": "bytes32"
        },
        {
          "indexed": true,
          "internalType": "address",
          "name": "account",
          "type": "address"
        },
        {
          "indexed": true,
          "internalType": "address",
          "name": "sender",
          "type": "address"
        }
      ],
      "name": "RoleRevoked",
      "type": "event"
    },
    {
      "anonymous": false,
      "inputs": [
        {
          "indexed": false,
          "internalType": "address",
          "name": "newClaimer",
          "type": "address"
        }
      ],
      "name": "SetNewClaimer",
      "type": "event"
    },
    {
      "anonymous": false,
      "inputs": [],
      "name": "Started",
      "type": "event"
    },
    {
      "anonymous": false,
      "inputs": [
        {
          "indexed": false,
          "internalType": "uint256",
          "name": "round",
          "type": "uint256"
        }
      ],
      "name": "StartedRound",
      "type": "event"
    },
    {
      "anonymous": false,
      "inputs": [
        {
          "indexed": true,
          "internalType": "address",
          "name": "caller",
          "type": "address"
        },
        {
          "indexed": false,
          "internalType": "uint256",
          "name": "amount",
          "type": "uint256"
        }
      ],
      "name": "Withdrawal",
      "type": "event"
    },
    {
      "inputs": [],
      "name": "ADMIN_ROLE",
      "outputs": [
        {
          "internalType": "bytes32",
          "name": "",
          "type": "bytes32"
        }
      ],
      "stateMutability": "view",
      "type": "function"
    },
    {
      "inputs": [],
      "name": "BURNER_ROLE",
      "outputs": [
        {
          "internalType": "bytes32",
          "name": "",
          "type": "bytes32"
        }
      ],
      "stateMutability": "view",
      "type": "function"
    },
    {
      "inputs": [],
      "name": "DEFAULT_ADMIN_ROLE",
      "outputs": [
        {
          "internalType": "bytes32",
          "name": "",
          "type": "bytes32"
        }
      ],
      "stateMutability": "view",
      "type": "function"
    },
    {
      "inputs": [],
      "name": "MINTER_ROLE",
      "outputs": [
        {
          "internalType": "bytes32",
          "name": "",
          "type": "bytes32"
        }
      ],
      "stateMutability": "view",
      "type": "function"
    },
    {
      "inputs": [
        {
          "internalType": "address",
          "name": "account",
          "type": "address"
        }
      ],
      "name": "addAdmin",
      "outputs": [],
      "stateMutability": "nonpayable",
      "type": "function"
    },
    {
      "inputs": [
        {
          "internalType": "uint256",
          "name": "round",
          "type": "uint256"
        },
        {
          "internalType": "address[]",
          "name": "users",
          "type": "address[]"
        }
      ],
      "name": "addWhitelist",
      "outputs": [],
      "stateMutability": "nonpayable",
      "type": "function"
    },
    {
      "inputs": [
        {
          "internalType": "uint256",
          "name": "round",
          "type": "uint256"
        },
        {
          "internalType": "uint256",
          "name": "amount",
          "type": "uint256"
        }
      ],
      "name": "allocateAmount",
      "outputs": [],
      "stateMutability": "nonpayable",
      "type": "function"
    },
    {
      "inputs": [],
      "name": "availableWithdrawAmount",
      "outputs": [
        {
          "internalType": "uint256",
          "name": "amount",
          "type": "uint256"
        }
      ],
      "stateMutability": "view",
      "type": "function"
    },
    {
      "inputs": [],
      "name": "claim",
      "outputs": [],
      "stateMutability": "nonpayable",
      "type": "function"
    },
    {
      "inputs": [
        {
          "internalType": "uint256",
          "name": "",
          "type": "uint256"
        }
      ],
      "name": "claimedTimesOfRoundByCliamer",
      "outputs": [
        {
          "internalType": "uint256",
          "name": "",
          "type": "uint256"
        }
      ],
      "stateMutability": "view",
      "type": "function"
    },
    {
      "inputs": [],
      "name": "claimer",
      "outputs": [
        {
          "internalType": "address",
          "name": "",
          "type": "address"
        }
      ],
      "stateMutability": "view",
      "type": "function"
    },
    {
      "inputs": [],
      "name": "currentRound",
      "outputs": [
        {
          "internalType": "uint256",
          "name": "round",
          "type": "uint256"
        }
      ],
      "stateMutability": "view",
      "type": "function"
    },
    {
      "inputs": [],
      "name": "endTime",
      "outputs": [
        {
          "internalType": "uint256",
          "name": "",
          "type": "uint256"
        }
      ],
      "stateMutability": "view",
      "type": "function"
    },
    {
      "inputs": [
        {
          "internalType": "bytes32",
          "name": "role",
          "type": "bytes32"
        }
      ],
      "name": "getRoleAdmin",
      "outputs": [
        {
          "internalType": "bytes32",
          "name": "",
          "type": "bytes32"
        }
      ],
      "stateMutability": "view",
      "type": "function"
    },
    {
      "inputs": [
        {
          "internalType": "uint256",
          "name": "round",
          "type": "uint256"
        }
      ],
      "name": "getTgeInfos",
      "outputs": [
        {
          "internalType": "bool",
          "name": "allocated",
          "type": "bool"
        },
        {
          "internalType": "bool",
          "name": "started",
          "type": "bool"
        },
        {
          "internalType": "uint256",
          "name": "allocatedAmount",
          "type": "uint256"
        },
        {
          "internalType": "uint256",
          "name": "claimedCount",
          "type": "uint256"
        },
        {
          "internalType": "uint256",
          "name": "amount",
          "type": "uint256"
        },
        {
          "internalType": "address[]",
          "name": "whitelist",
          "type": "address[]"
        }
      ],
      "stateMutability": "view",
      "type": "function"
    },
    {
      "inputs": [
        {
          "internalType": "uint256",
          "name": "round",
          "type": "uint256"
        },
        {
          "internalType": "address",
          "name": "user",
          "type": "address"
        }
      ],
      "name": "getWhitelistInfo",
      "outputs": [
        {
          "internalType": "bool",
          "name": "joined",
          "type": "bool"
        },
        {
          "internalType": "uint256",
          "name": "claimedTime",
          "type": "uint256"
        }
      ],
      "stateMutability": "view",
      "type": "function"
    },
    {
      "inputs": [
        {
          "internalType": "bytes32",
          "name": "role",
          "type": "bytes32"
        },
        {
          "internalType": "address",
          "name": "account",
          "type": "address"
        }
      ],
      "name": "grantRole",
      "outputs": [],
      "stateMutability": "nonpayable",
      "type": "function"
    },
    {
      "inputs": [
        {
          "internalType": "bytes32",
          "name": "role",
          "type": "bytes32"
        },
        {
          "internalType": "address",
          "name": "account",
          "type": "address"
        }
      ],
      "name": "hasRole",
      "outputs": [
        {
          "internalType": "bool",
          "name": "",
          "type": "bool"
        }
      ],
      "stateMutability": "view",
      "type": "function"
    },
    {
      "inputs": [
        {
          "internalType": "uint256",
          "name": "_totalAllocatedAmount",
          "type": "uint256"
        },
        {
          "internalType": "uint256",
          "name": "_totalClaims",
          "type": "uint256"
        },
        {
          "internalType": "uint256",
          "name": "_totalTgeCount",
          "type": "uint256"
        },
        {
          "internalType": "uint256",
          "name": "_startTime",
          "type": "uint256"
        },
        {
          "internalType": "uint256",
          "name": "_periodTimesPerCliam",
          "type": "uint256"
        }
      ],
      "name": "initialize",
      "outputs": [],
      "stateMutability": "nonpayable",
      "type": "function"
    },
    {
      "inputs": [
        {
          "internalType": "uint256",
          "name": "_totalAllocatedAmount",
          "type": "uint256"
        },
        {
          "internalType": "uint256",
          "name": "_totalClaims",
          "type": "uint256"
        },
        {
          "internalType": "uint256",
          "name": "_totalTgeCount",
          "type": "uint256"
        },
        {
          "internalType": "uint256",
          "name": "_startTime",
          "type": "uint256"
        },
        {
          "internalType": "uint256",
          "name": "_periodTimesPerCliam",
          "type": "uint256"
        }
      ],
      "name": "initializeBase",
      "outputs": [],
      "stateMutability": "nonpayable",
      "type": "function"
    },
    {
      "inputs": [
        {
          "internalType": "address",
          "name": "account",
          "type": "address"
        }
      ],
      "name": "isAdmin",
      "outputs": [
        {
          "internalType": "bool",
          "name": "",
          "type": "bool"
        }
      ],
      "stateMutability": "view",
      "type": "function"
    },
    {
      "inputs": [],
      "name": "lastClaimedRound",
      "outputs": [
        {
          "internalType": "uint256",
          "name": "",
          "type": "uint256"
        }
      ],
      "stateMutability": "view",
      "type": "function"
    },
    {
      "inputs": [],
      "name": "maxInputOnceTime",
      "outputs": [
        {
          "internalType": "uint256",
          "name": "",
          "type": "uint256"
        }
      ],
      "stateMutability": "view",
      "type": "function"
    },
    {
      "inputs": [],
      "name": "name",
      "outputs": [
        {
          "internalType": "string",
          "name": "",
          "type": "string"
        }
      ],
      "stateMutability": "view",
      "type": "function"
    },
    {
      "inputs": [],
      "name": "nextClaimRound",
      "outputs": [
        {
          "internalType": "uint256",
          "name": "nextRound",
          "type": "uint256"
        }
      ],
      "stateMutability": "view",
      "type": "function"
    },
    {
      "inputs": [],
      "name": "nextClaimStartTime",
      "outputs": [
        {
          "internalType": "uint256",
          "name": "nextTime",
          "type": "uint256"
        }
      ],
      "stateMutability": "view",
      "type": "function"
    },
    {
      "inputs": [],
      "name": "oneClaimAmountByClaimer",
      "outputs": [
        {
          "internalType": "uint256",
          "name": "",
          "type": "uint256"
        }
      ],
      "stateMutability": "view",
      "type": "function"
    },
    {
      "inputs": [],
      "name": "periodTimesPerCliam",
      "outputs": [
        {
          "internalType": "uint256",
          "name": "",
          "type": "uint256"
        }
      ],
      "stateMutability": "view",
      "type": "function"
    },
    {
      "inputs": [
        {
          "internalType": "address",
          "name": "account",
          "type": "address"
        }
      ],
      "name": "removeAdmin",
      "outputs": [],
      "stateMutability": "nonpayable",
      "type": "function"
    },
    {
      "inputs": [
        {
          "internalType": "bytes32",
          "name": "role",
          "type": "bytes32"
        },
        {
          "internalType": "address",
          "name": "account",
          "type": "address"
        }
      ],
      "name": "renounceRole",
      "outputs": [],
      "stateMutability": "nonpayable",
      "type": "function"
    },
    {
      "inputs": [
        {
          "internalType": "bytes32",
          "name": "role",
          "type": "bytes32"
        },
        {
          "internalType": "address",
          "name": "account",
          "type": "address"
        }
      ],
      "name": "revokeRole",
      "outputs": [],
      "stateMutability": "nonpayable",
      "type": "function"
    },
    {
      "inputs": [
        {
          "internalType": "address",
          "name": "_newClaimer",
          "type": "address"
        }
      ],
      "name": "setClaimer",
      "outputs": [],
      "stateMutability": "nonpayable",
      "type": "function"
    },
    {
      "inputs": [
        {
          "internalType": "uint256",
          "name": "_maxInputOnceTime",
          "type": "uint256"
        }
      ],
      "name": "setMaxInputOnceTimeWhitelist",
      "outputs": [],
      "stateMutability": "nonpayable",
      "type": "function"
    },
    {
      "inputs": [],
      "name": "start",
      "outputs": [],
      "stateMutability": "nonpayable",
      "type": "function"
    },
    {
      "inputs": [
        {
          "internalType": "uint256",
          "name": "round",
          "type": "uint256"
        }
      ],
      "name": "startRound",
      "outputs": [],
      "stateMutability": "nonpayable",
      "type": "function"
    },
    {
      "inputs": [],
      "name": "startTime",
      "outputs": [
        {
          "internalType": "uint256",
          "name": "",
          "type": "uint256"
        }
      ],
      "stateMutability": "view",
      "type": "function"
    },
    {
      "inputs": [],
      "name": "startedByClaimer",
      "outputs": [
        {
          "internalType": "bool",
          "name": "",
          "type": "bool"
        }
      ],
      "stateMutability": "view",
      "type": "function"
    },
    {
      "inputs": [
        {
          "internalType": "bytes4",
          "name": "interfaceId",
          "type": "bytes4"
        }
      ],
      "name": "supportsInterface",
      "outputs": [
        {
          "internalType": "bool",
          "name": "",
          "type": "bool"
        }
      ],
      "stateMutability": "view",
      "type": "function"
    },
    {
      "inputs": [
        {
          "internalType": "uint256",
          "name": "",
          "type": "uint256"
        }
      ],
      "name": "tgeInfos",
      "outputs": [
        {
          "internalType": "bool",
          "name": "allocated",
          "type": "bool"
        },
        {
          "internalType": "bool",
          "name": "started",
          "type": "bool"
        },
        {
          "internalType": "uint256",
          "name": "allocatedAmount",
          "type": "uint256"
        },
        {
          "internalType": "uint256",
          "name": "claimedCount",
          "type": "uint256"
        },
        {
          "internalType": "uint256",
          "name": "amount",
          "type": "uint256"
        }
      ],
      "stateMutability": "view",
      "type": "function"
    },
    {
      "inputs": [],
      "name": "token",
      "outputs": [
        {
          "internalType": "address",
          "name": "",
          "type": "address"
        }
      ],
      "stateMutability": "view",
      "type": "function"
    },
    {
      "inputs": [],
      "name": "totalAllocatedAmount",
      "outputs": [
        {
          "internalType": "uint256",
          "name": "",
          "type": "uint256"
        }
      ],
      "stateMutability": "view",
      "type": "function"
    },
    {
      "inputs": [],
      "name": "totalClaimedAmount",
      "outputs": [
        {
          "internalType": "uint256",
          "name": "",
          "type": "uint256"
        }
      ],
      "stateMutability": "view",
      "type": "function"
    },
    {
      "inputs": [],
      "name": "totalClaimedCountByClaimer",
      "outputs": [
        {
          "internalType": "uint256",
          "name": "",
          "type": "uint256"
        }
      ],
      "stateMutability": "view",
      "type": "function"
    },
    {
      "inputs": [],
      "name": "totalClaims",
      "outputs": [
        {
          "internalType": "uint256",
          "name": "",
          "type": "uint256"
        }
      ],
      "stateMutability": "view",
      "type": "function"
    },
    {
      "inputs": [],
      "name": "totalTgeAmount",
      "outputs": [
        {
          "internalType": "uint256",
          "name": "",
          "type": "uint256"
        }
      ],
      "stateMutability": "view",
      "type": "function"
    },
    {
      "inputs": [],
      "name": "totalTgeCount",
      "outputs": [
        {
          "internalType": "uint256",
          "name": "",
          "type": "uint256"
        }
      ],
      "stateMutability": "view",
      "type": "function"
    },
    {
      "inputs": [
        {
          "internalType": "uint256",
          "name": "round",
          "type": "uint256"
        }
      ],
      "name": "totalWhitelist",
      "outputs": [
        {
          "internalType": "uint256",
          "name": "total",
          "type": "uint256"
        }
      ],
      "stateMutability": "view",
      "type": "function"
    },
    {
      "inputs": [
        {
          "internalType": "address",
          "name": "newAdmin",
          "type": "address"
        }
      ],
      "name": "transferAdmin",
      "outputs": [],
      "stateMutability": "nonpayable",
      "type": "function"
    },
    {
      "inputs": [],
      "name": "unclaimedInfos",
      "outputs": [
        {
          "internalType": "uint256",
          "name": "count",
          "type": "uint256"
        },
        {
          "internalType": "uint256",
          "name": "amount",
          "type": "uint256"
        }
      ],
      "stateMutability": "view",
      "type": "function"
    },
    {
      "inputs": [
        {
          "internalType": "address",
          "name": "to",
          "type": "address"
        }
      ],
      "name": "withdraw",
      "outputs": [],
      "stateMutability": "nonpayable",
      "type": "function"
    }
  ],
  "bytecode": "0x60806040523480156200001157600080fd5b5060405162002dc438038062002dc4833981016040819052620000349162000291565b6040805180820190915260128082527124b734ba34b0b621b7b73a3934b13aba37b960711b6020830190815284918491620000739160019190620001eb565b50600280546001600160a01b0384166001600160a01b031991821617909155600d8054909116331790556000819055620000bd60008051602062002da483398151915280620000e3565b620000d860008051602062002da48339815191523362000137565b505050505062000308565b6000828152600c6020526040902060010154819060405184907fbd79b86ffe0ab8e8776151514217cd7cacd52c909f66475c3af44e129f0b00ff90600090a46000918252600c602052604090912060010155565b62000143828262000147565b5050565b6000828152600c602090815260408083206001600160a01b038516845290915290205460ff1662000143576000828152600c602090815260408083206001600160a01b03851684529091529020805460ff19166001179055620001a73390565b6001600160a01b0316816001600160a01b0316837f2f8788117e7eff1d82e926ec794901d17c78024a50270940304540a733656f0d60405160405180910390a45050565b828054620001f990620002cb565b90600052602060002090601f0160209004810192826200021d576000855562000268565b82601f106200023857805160ff191683800117855562000268565b8280016001018555821562000268579182015b82811115620002685782518255916020019190600101906200024b565b50620002769291506200027a565b5090565b5b808211156200027657600081556001016200027b565b60008060408385031215620002a4578182fd5b82516001600160a01b0381168114620002bb578283fd5b6020939093015192949293505050565b600181811c90821680620002e057607f821691505b602082108114156200030257634e487b7160e01b600052602260045260246000fd5b50919050565b612a8c80620003186000396000f3fe608060405234801561001057600080fd5b50600436106102d65760003560e01c806375b238fc11610182578063ab4eb57e116100e9578063d547741f116100a2578063e63e18a81161007c578063e63e18a8146106a5578063f64f4a39146106ae578063fc0c546a146106bb578063fe735400146106ce57600080fd5b8063d547741f14610676578063d993471914610689578063dcbab6081461069257600080fd5b8063ab4eb57e146105cc578063be9a6555146105df578063cb1b782f146105e7578063cdfb583214610611578063d379be2314610624578063d53913931461064f57600080fd5b80638a19c8bc1161013b5780638a19c8bc1461057a5780638aa1e44e1461058257806391d14854146105955780639661cb0d146105a85780639bde5427146105b1578063a217fddf146105c457600080fd5b806375b238fc1461050357806378e9792514610518578063814f26fc1461052157806383ff34951461052a57806385d0a81514610547578063875d741d1461056757600080fd5b80633e59df351161024157806355640008116101fa57806368871d6e116101d457806368871d6e146104c257806370480275146104ca578063717048ec146104dd57806375829def146104f057600080fd5b8063556400081461049e5780635fc3d52d146104a757806361202e3b146104ba57600080fd5b80633e59df35146104435780633ef1a1aa1461044c57806341c61383146104555780634e71d92d1461045e578063517da7191461046657806351cff8d91461048b57600080fd5b806324d7806c1161029357806324d7806c146103d1578063282c51f3146103e45780632f2ff15d1461040b5780633197cbb61461041e57806335e8bcd21461042757806336568abe1461043057600080fd5b806301ffc9a7146102db57806306fdde0314610303578063166cf32c146103185780631785f53c1461038257806317d426f714610397578063248a9ca3146103ae575b600080fd5b6102ee6102e936600461257e565b6106d6565b60405190151581526020015b60405180910390f35b61030b61070d565b6040516102fa9190612790565b61035861032636600461253b565b600b60205260009081526040902080546001820154600283015460039093015460ff8084169461010090940416929085565b6040805195151586529315156020860152928401919091526060830152608082015260a0016102fa565b610395610390366004612501565b61079b565b005b6103a060075481565b6040519081526020016102fa565b6103a06103bc36600461253b565b6000908152600c602052604090206001015490565b6102ee6103df366004612501565b6107e4565b6103a07f9667e80708b6eeeb0053fa0cca44e028ff548e2a9f029edfeac87c118b08b7c881565b610395610419366004612553565b6107fe565b6103a060065481565b6103a0600f5481565b61039561043e366004612553565b610829565b6103a0600e5481565b6103a060005481565b6103a060085481565b6103956108a7565b61047961047436600461253b565b610ce1565b6040516102fa9695949392919061271a565b610395610499366004612501565b610ddc565b6103a060035481565b6103956104b536600461253b565b610fd4565b6103a06111a1565b6103a0611291565b6103956104d8366004612501565b6112b5565b6103a06104eb36600461253b565b6112f2565b6103956104fe366004612501565b611350565b6103a0600080516020612a3783398151915281565b6103a060055481565b6103a0600a5481565b61053261144d565b604080519283526020830191909152016102fa565b6103a061055536600461253b565b60116020526000908152604090205481565b61039561057536600461253b565b611574565b6103a061160e565b6103956105903660046125d0565b61164c565b6102ee6105a3366004612553565b611965565b6103a060045481565b6103956105bf36600461264a565b611990565b6103a0600081565b6103956105da36600461266b565b611b5b565b610395611d85565b6105fa6105f53660046125be565b611f33565b6040805192151583526020830191909152016102fa565b61039561061f366004612501565b611fe6565b600d54610637906001600160a01b031681565b6040516001600160a01b0390911681526020016102fa565b6103a07ff0887ba65ee2024ea881d91b74c2450ef19e1557f03bed3ea9f16b037cbe2dc981565b610395610684366004612553565b61211b565b6103a060095481565b6103956106a036600461266b565b612141565b6103a060105481565b6012546102ee9060ff1681565b600254610637906001600160a01b031681565b6103a061217a565b60006001600160e01b03198216637965db0b60e01b148061070757506301ffc9a760e01b6001600160e01b03198316145b92915050565b6001805461071a906129ca565b80601f0160208091040260200160405190810160405280929190818152602001828054610746906129ca565b80156107935780601f1061076857610100808354040283529160200191610793565b820191906000526020600020905b81548152906001019060200180831161077657829003601f168201915b505050505081565b6107a4336107e4565b6107c95760405162461bcd60e51b81526004016107c090612805565b60405180910390fd5b6107e1600080516020612a3783398151915282610829565b50565b6000610707600080516020612a3783398151915283611965565b6000828152600c602052604090206001015461081a81336121ab565b610824838361220f565b505050565b6001600160a01b03811633146108995760405162461bcd60e51b815260206004820152602f60248201527f416363657373436f6e74726f6c3a2063616e206f6e6c792072656e6f756e636560448201526e103937b632b9903337b91039b2b63360891b60648201526084016107c0565b6108a38282612295565b5050565b60008060055442116108fb5760405162461bcd60e51b815260206004820152601e60248201527f44657369676e65645661756c743a206e6f74207374617274656420796574000060448201526064016107c0565b600061090561160e565b600d549091506001600160a01b0316331415610aa957600954600e5411156109465780600e54101561094157600e5461093e908261296c565b92505b610960565b8060095410156109605760095461095d908261296c565b92505b600f5461096d908461294d565b91506000821161098f5760405162461bcd60e51b81526004016107c0906127c3565b80600e8190555081600460008282546109a89190612915565b9091555050601080549060006109bd83612a05565b909155505060008181526011602052604090819020429055600254905163a9059cbb60e01b8152336004820152602481018490526001600160a01b039091169063a9059cbb90604401602060405180830381600087803b158015610a2057600080fd5b505af1158015610a34573d6000803e3d6000fd5b505050506040513d601f19601f82011682018060405250810190610a58919061251b565b610aa45760405162461bcd60e51b815260206004820152601c60248201527f44657369676e65645661756c743a207472616e73666572206661696c0000000060448201526064016107c0565b610c98565b60015b6009548111610b7157808210610b5f576000818152600b602052604090208054610100900460ff1615610b5d5733600090815260058201602052604090205460ff168015610b0c5750336000908152600582016020526040902060010154155b15610b5d5733600090815260058201602052604081204260019091015560028201805491610b3983612a05565b90915550506003810154610b4d9085612915565b935084610b5981612a05565b9550505b505b80610b6981612a05565b915050610aac565b5060008211610b925760405162461bcd60e51b81526004016107c0906127c3565b8160046000828254610ba49190612915565b9091555050600954600e54108015610bbd575060095481105b15610bc857600e8190555b60025460405163a9059cbb60e01b8152336004820152602481018490526001600160a01b039091169063a9059cbb90604401602060405180830381600087803b158015610c1457600080fd5b505af1158015610c28573d6000803e3d6000fd5b505050506040513d601f19601f82011682018060405250810190610c4c919061251b565b610c985760405162461bcd60e51b815260206004820152601c60248201527f44657369676e65645661756c743a207472616e73666572206661696c0000000060448201526064016107c0565b60045460405133917f987d620f307ff6b94d58743cb7a7509f24071586a77759b77c2d4e29f75a2f9a91610cd491868252602082015260400190565b60405180910390a2505050565b600080600080600060608660008111610d0c5760405162461bcd60e51b81526004016107c090612847565b87600954811115610d2f5760405162461bcd60e51b81526004016107c09061287e565b6000898152600b60209081526040918290208054600182015460028301546003840154600485018054885181890281018901909952808952959760ff80871698610100909704169694959394929391929091839190830182828015610dbd57602002820191906000526020600020905b81546001600160a01b03168152600190910190602001808311610d9f575b5050505050905098509850985098509850985050505091939550919395565b610de5336107e4565b610e015760405162461bcd60e51b81526004016107c090612805565b806001600160a01b038116610e585760405162461bcd60e51b815260206004820152601e60248201527f426173655661756c7453746f726167653a207a65726f2061646472657373000060448201526064016107c0565b6000610e626111a1565b905060008111610ebe5760405162461bcd60e51b815260206004820152602160248201527f426173655661756c743a206e6f20776974686472617761626c6520616d6f756e6044820152601d60fa1b60648201526084016107c0565b6002546001600160a01b031663a9059cbb84610ed86111a1565b6040516001600160e01b031960e085901b1681526001600160a01b0390921660048301526024820152604401602060405180830381600087803b158015610f1e57600080fd5b505af1158015610f32573d6000803e3d6000fd5b505050506040513d601f19601f82011682018060405250810190610f56919061251b565b610fa25760405162461bcd60e51b815260206004820152601860248201527f426173655661756c743a207472616e73666572206661696c000000000000000060448201526064016107c0565b60405181815233907f7fcf532c15f0a6db0bd6d0e038bea71d30d808c7d98cb3bf7268a95bf5081b6590602001610cd4565b610fdd336107e4565b610ff95760405162461bcd60e51b81526004016107c090612805565b806000811161101a5760405162461bcd60e51b81526004016107c090612847565b6008546000811161103d5760405162461bcd60e51b81526004016107c090612847565b826009548111156110605760405162461bcd60e51b81526004016107c09061287e565b6000848152600b60205260409020805460ff166110bf5760405162461bcd60e51b815260206004820152601b60248201527f44657369676e65645661756c743a206e6f20616c6c6f6361746564000000000060448201526064016107c0565b8054610100900460ff16156111165760405162461bcd60e51b815260206004820152601e60248201527f44657369676e65645661756c743a20616c72656164792073746172746564000060448201526064016107c0565b805461ff0019166101001781556001810154158015906111395750600481015415155b1561115c5760048101546001820154611152919061292d565b6003820155611167565b600181015460038201555b6040518581527f0ab582f1afc29efbd503feb5b4a945175eee54010e1be75f88d3e0a865f1631f9060200160405180910390a15050505050565b6002546040516370a0823160e01b815230600482015260009182916001600160a01b03909116906370a082319060240160206040518083038186803b1580156111e957600080fd5b505afa1580156111fd573d6000803e3d6000fd5b505050506040513d601f19601f8201168201806040525081019061122191906125a6565b90506000600454600354611235919061296c565b9050808210156112805760405162461bcd60e51b815260206004820152601660248201527510985cd955985d5b1d0e881a5b9cdd59999a58d95b9d60521b60448201526064016107c0565b61128a818361296c565b9250505090565b6000600e5460016112a29190612915565b90508060085410156112b2575060005b90565b6112be336107e4565b6112da5760405162461bcd60e51b81526004016107c090612805565b6107e1600080516020612a37833981519152826107fe565b600081600081116113155760405162461bcd60e51b81526004016107c090612847565b826009548111156113385760405162461bcd60e51b81526004016107c09061287e565b5050506000908152600b602052604090206004015490565b611359336107e4565b6113755760405162461bcd60e51b81526004016107c090612805565b6001600160a01b0381166113cb5760405162461bcd60e51b815260206004820152601860248201527f41636365737369626c653a207a65726f2061646472657373000000000000000060448201526064016107c0565b336001600160a01b038216141561141d5760405162461bcd60e51b815260206004820152601660248201527520b1b1b2b9b9b4b136329d1039b0b6b29030b236b4b760511b60448201526064016107c0565b611435600080516020612a37833981519152826107fe565b6107e1600080516020612a3783398151915233610829565b600554600090819042111561157057600061146661160e565b600d549091506001600160a01b03163314156114d0576009548111156114b557600954600e54106114a557600e5461149e908261296c565b92506114b5565b6009546114b2908261296c565b92505b82156114cb57600f546114c8908461294d565b91505b61156e565b60015b600954811161156c5780821061155a576000818152600b602052604090208054610100900460ff16156115585733600090815260058201602052604090205460ff1680156115335750336000908152600582016020526040902060010154155b15611558578461154281612a05565b9550508060030154846115559190612915565b93505b505b8061156481612a05565b9150506114d3565b505b505b9091565b61157d336107e4565b6115995760405162461bcd60e51b81526004016107c090612805565b80600081116115ba5760405162461bcd60e51b81526004016107c090612847565b60005482808214156116065760405162461bcd60e51b8152602060048201526015602482015274426173655661756c743a2073616d652076616c756560581b60448201526064016107c0565b505050600055565b60006005544210156116205750600090565b600754600554611630904261296c565b61163a919061292d565b90508061164681612a05565b91505090565b611655336107e4565b6116715760405162461bcd60e51b81526004016107c090612805565b82600081116116925760405162461bcd60e51b81526004016107c090612847565b836009548111156116b55760405162461bcd60e51b81526004016107c09061287e565b8280158015906116c757506000548111155b6117255760405162461bcd60e51b815260206004820152602960248201527f426173655661756c743a20636865636b20696e70757420636f756e74206174206044820152686f6e63652074696d6560b81b60648201526084016107c0565b6000868152600b602052604090208054610100900460ff161561178a5760405162461bcd60e51b815260206004820152601a60248201527f426173655661756c743a20616c7265616479207374617274656400000000000060448201526064016107c0565b60005b858110156119205760008787838181106117b757634e487b7160e01b600052603260045260246000fd5b90506020020160208101906117cc9190612501565b6001600160a01b031614158015611838575081600501600088888481811061180457634e487b7160e01b600052603260045260246000fd5b90506020020160208101906118199190612501565b6001600160a01b0316815260208101919091526040016000205460ff16155b1561190e57600182600501600089898581811061186557634e487b7160e01b600052603260045260246000fd5b905060200201602081019061187a9190612501565b6001600160a01b031681526020810191909152604001600020805460ff1916911515919091179055600482018787838181106118c657634e487b7160e01b600052603260045260246000fd5b90506020020160208101906118db9190612501565b81546001810183556000928352602090922090910180546001600160a01b0319166001600160a01b039092169190911790555b8061191881612a05565b91505061178d565b507f9c9ea5277c31b2732c1577550098533c5c80dda4ee8728a4f235421651856e96878787604051611954939291906128bf565b60405180910390a150505050505050565b6000918252600c602090815260408084206001600160a01b0393909316845291905290205460ff1690565b611999336107e4565b6119b55760405162461bcd60e51b81526004016107c090612805565b81600081116119d65760405162461bcd60e51b81526004016107c090612847565b81600081116119f75760405162461bcd60e51b81526004016107c090612847565b83600954811115611a1a5760405162461bcd60e51b81526004016107c09061287e565b60035484600a54611a2b9190612915565b1115611a8e5760405162461bcd60e51b815260206004820152602c60248201527f44657369676e65645661756c743a2065786365656420746f74616c20616c6c6f60448201526b18d85d195908185b5bdd5b9d60a21b60648201526084016107c0565b6000858152600b60205260409020805460ff1615611aee5760405162461bcd60e51b815260206004820181905260248201527f44657369676e65645661756c743a20616c726561647920616c6c6f636174656460448201526064016107c0565b805460ff1916600190811782558101859055600a8054869190600090611b15908490612915565b909155505060408051878152602081018790527f3fd8c003d3212e0132457c2c9a85802b483554aec663e60ee92100df71c15f16910160405180910390a1505050505050565b611b64336107e4565b611b805760405162461bcd60e51b81526004016107c090612805565b8460008111611ba15760405162461bcd60e51b81526004016107c090612847565b8460008111611bc25760405162461bcd60e51b81526004016107c090612847565b8460008111611be35760405162461bcd60e51b81526004016107c090612847565b8460008111611c045760405162461bcd60e51b81526004016107c090612847565b8460008111611c255760405162461bcd60e51b81526004016107c090612847565b6002546040516370a0823160e01b81523060048201528b916001600160a01b0316906370a082319060240160206040518083038186803b158015611c6857600080fd5b505afa158015611c7c573d6000803e3d6000fd5b505050506040513d601f19601f82011682018060405250810190611ca091906125a6565b1015611cf95760405162461bcd60e51b815260206004820152602260248201527f426173655661756c743a2062616c616e63654f6620697320696e7375666669656044820152611b9d60f21b60648201526084016107c0565b60035415611d495760405162461bcd60e51b815260206004820152601e60248201527f426173655661756c743a20616c726561647920696e697469616c697a6564000060448201526064016107c0565b60038a90556008899055600988905560058790556007869055611d6c898761294d565b611d769088612915565b60065550505050505050505050565b611d8e336107e4565b611daa5760405162461bcd60e51b81526004016107c090612805565b60085460008111611dcd5760405162461bcd60e51b81526004016107c090612847565b60125460ff1615611e325760405162461bcd60e51b815260206004820152602960248201527f44657369676e65645661756c743a20616c7265616479207374617274656420626044820152683c9031b630b4b6b2b960b91b60648201526084016107c0565b60015b6009548111611ecc576000818152600b602052604090205460ff16611eba5760405162461bcd60e51b815260206004820152603560248201527f44657369676e65645661756c743a2070726576696f757320726f756e642064696044820152743213ba1031329030b63637b1b0ba32b2103cb2ba1760591b60648201526084016107c0565b80611ec481612a05565b915050611e35565b506012805460ff19166001179055600954600854611eea919061296c565b600a54600354611efa919061296c565b611f04919061292d565b600f556040517fd8cea0ecd56872ff072e771658b5682ffe4de16d752947f79597d600ea56f7a990600090a150565b6000808360008111611f575760405162461bcd60e51b81526004016107c090612847565b84600954811115611f7a5760405162461bcd60e51b81526004016107c09061287e565b6000868152600b602090815260408083206001600160a01b0389168452600581019092529091205460ff1615611fdb576001600160a01b0386166000908152600590910160205260409020805460019091015460ff90911694509250611fdd565b505b50509250929050565b611fef336107e4565b61200b5760405162461bcd60e51b81526004016107c090612805565b806001600160a01b0381166120625760405162461bcd60e51b815260206004820152601e60248201527f426173655661756c7453746f726167653a207a65726f2061646472657373000060448201526064016107c0565b600d546001600160a01b0390811690839081168214156120c45760405162461bcd60e51b815260206004820152601760248201527f426173655661756c743a2073616d65206164647265737300000000000000000060448201526064016107c0565b600d80546001600160a01b0319166001600160a01b0386169081179091556040519081527fd8aa7b8f4725b1aeb0ddbafe541c6c63620536cef2c340dd7747b17adc653cb49060200160405180910390a150505050565b6000828152600c602052604090206001015461213781336121ab565b6108248383612295565b61214a336107e4565b6121665760405162461bcd60e51b81526004016107c090612805565b6121738585858585611b5b565b5050505050565b6000600e5460075461218c919061294d565b6005546121999190612915565b90508060065410156112b25750600090565b6121b58282611965565b6108a3576121cd816001600160a01b031660146122fc565b6121d88360206122fc565b6040516020016121e99291906126a5565b60408051601f198184030181529082905262461bcd60e51b82526107c091600401612790565b6122198282611965565b6108a3576000828152600c602090815260408083206001600160a01b03851684529091529020805460ff191660011790556122513390565b6001600160a01b0316816001600160a01b0316837f2f8788117e7eff1d82e926ec794901d17c78024a50270940304540a733656f0d60405160405180910390a45050565b61229f8282611965565b156108a3576000828152600c602090815260408083206001600160a01b0385168085529252808320805460ff1916905551339285917ff6391f5c32d9c69d2a47ea670b442974b53935d1edc7fd64eb21e047a839171b9190a45050565b6060600061230b83600261294d565b612316906002612915565b67ffffffffffffffff81111561233c57634e487b7160e01b600052604160045260246000fd5b6040519080825280601f01601f191660200182016040528015612366576020820181803683370190505b509050600360fc1b8160008151811061238f57634e487b7160e01b600052603260045260246000fd5b60200101906001600160f81b031916908160001a905350600f60fb1b816001815181106123cc57634e487b7160e01b600052603260045260246000fd5b60200101906001600160f81b031916908160001a90535060006123f084600261294d565b6123fb906001612915565b90505b600181111561248f576f181899199a1a9b1b9c1cb0b131b232b360811b85600f166010811061243d57634e487b7160e01b600052603260045260246000fd5b1a60f81b82828151811061246157634e487b7160e01b600052603260045260246000fd5b60200101906001600160f81b031916908160001a90535060049490941c93612488816129b3565b90506123fe565b5083156124de5760405162461bcd60e51b815260206004820181905260248201527f537472696e67733a20686578206c656e67746820696e73756666696369656e7460448201526064016107c0565b9392505050565b80356001600160a01b03811681146124fc57600080fd5b919050565b600060208284031215612512578081fd5b6124de826124e5565b60006020828403121561252c578081fd5b815180151581146124de578182fd5b60006020828403121561254c578081fd5b5035919050565b60008060408385031215612565578081fd5b82359150612575602084016124e5565b90509250929050565b60006020828403121561258f578081fd5b81356001600160e01b0319811681146124de578182fd5b6000602082840312156125b7578081fd5b5051919050565b60008060408385031215612565578182fd5b6000806000604084860312156125e4578081fd5b83359250602084013567ffffffffffffffff80821115612602578283fd5b818601915086601f830112612615578283fd5b813581811115612623578384fd5b8760208260051b8501011115612637578384fd5b6020830194508093505050509250925092565b6000806040838503121561265c578182fd5b50508035926020909101359150565b600080600080600060a08688031215612682578081fd5b505083359560208501359550604085013594606081013594506080013592509050565b7f416363657373436f6e74726f6c3a206163636f756e74200000000000000000008152600083516126dd816017850160208801612983565b7001034b99036b4b9b9b4b733903937b6329607d1b601791840191820152835161270e816028840160208801612983565b01602801949350505050565b600060c08201881515835260208815158185015287604085015286606085015285608085015260c060a085015281855180845260e0860191508287019350845b8181101561277f5784516001600160a01b03168352938301939183019160010161275a565b50909b9a5050505050505050505050565b60208152600082518060208401526127af816040850160208701612983565b601f01601f19169190910160400192915050565b60208082526022908201527f44657369676e65645661756c743a206e6f20636c61696d61626c6520616d6f756040820152611b9d60f21b606082015260800190565b60208082526022908201527f41636365737369626c653a2043616c6c6572206973206e6f7420616e2061646d60408201526134b760f11b606082015260800190565b6020808252601c908201527f426173655661756c7453746f726167653a207a65726f2076616c756500000000604082015260600190565b60208082526021908201527f426173655661756c743a2065786365656420617661696c61626c6520726f756e6040820152601960fa1b606082015260800190565b83815260406020808301829052908201839052600090849060608401835b86811015612909576001600160a01b036128f6856124e5565b16825292820192908201906001016128dd565b50979650505050505050565b6000821982111561292857612928612a20565b500190565b60008261294857634e487b7160e01b81526012600452602481fd5b500490565b600081600019048311821515161561296757612967612a20565b500290565b60008282101561297e5761297e612a20565b500390565b60005b8381101561299e578181015183820152602001612986565b838111156129ad576000848401525b50505050565b6000816129c2576129c2612a20565b506000190190565b600181811c908216806129de57607f821691505b602082108114156129ff57634e487b7160e01b600052602260045260246000fd5b50919050565b6000600019821415612a1957612a19612a20565b5060010190565b634e487b7160e01b600052601160045260246000fdfedf8b4c520ffe197c5343c6f5aec59570151ef9a492f2c624fd45ddde6135ec42a2646970667358221220e0af70daf40ecec178b5e82ca4ee9e4356e85e140b28d5daee171dc8f48bb24564736f6c63430008040033df8b4c520ffe197c5343c6f5aec59570151ef9a492f2c624fd45ddde6135ec42",
  "linkReferences": {},
  "deployedLinkReferences": {}
}