{
  "_format": "hh-sol-artifact-1",
  "contractName": "BaseVault",
  "sourceName": "contracts/vaults/BaseVault.sol",
  "abi": [
    {
      "anonymous": false,
      "inputs": [
        {
          "indexed": false,
          "internalType": "uint256",
          "name": "round",
          "type": "uint256"
        },
        {
          "indexed": false,
          "internalType": "address[]",
          "name": "users",
          "type": "address[]"
        }
      ],
      "name": "AddedWhitelist",
      "type": "event"
    },
    {
      "anonymous": false,
      "inputs": [
        {
          "indexed": false,
          "internalType": "uint256",
          "name": "round",
          "type": "uint256"
        },
        {
          "indexed": false,
          "internalType": "uint256",
          "name": "amount",
          "type": "uint256"
        }
      ],
      "name": "AllocatedAmount",
      "type": "event"
    },
    {
      "anonymous": false,
      "inputs": [
        {
          "indexed": true,
          "internalType": "address",
          "name": "caller",
          "type": "address"
        },
        {
          "indexed": false,
          "internalType": "uint256",
          "name": "amount",
          "type": "uint256"
        },
        {
          "indexed": false,
          "internalType": "uint256",
          "name": "totalClaimedAmount",
          "type": "uint256"
        }
      ],
      "name": "Claimed",
      "type": "event"
    },
    {
      "anonymous": false,
      "inputs": [
        {
          "indexed": true,
          "internalType": "bytes32",
          "name": "role",
          "type": "bytes32"
        },
        {
          "indexed": true,
          "internalType": "bytes32",
          "name": "previousAdminRole",
          "type": "bytes32"
        },
        {
          "indexed": true,
          "internalType": "bytes32",
          "name": "newAdminRole",
          "type": "bytes32"
        }
      ],
      "name": "RoleAdminChanged",
      "type": "event"
    },
    {
      "anonymous": false,
      "inputs": [
        {
          "indexed": true,
          "internalType": "bytes32",
          "name": "role",
          "type": "bytes32"
        },
        {
          "indexed": true,
          "internalType": "address",
          "name": "account",
          "type": "address"
        },
        {
          "indexed": true,
          "internalType": "address",
          "name": "sender",
          "type": "address"
        }
      ],
      "name": "RoleGranted",
      "type": "event"
    },
    {
      "anonymous": false,
      "inputs": [
        {
          "indexed": true,
          "internalType": "bytes32",
          "name": "role",
          "type": "bytes32"
        },
        {
          "indexed": true,
          "internalType": "address",
          "name": "account",
          "type": "address"
        },
        {
          "indexed": true,
          "internalType": "address",
          "name": "sender",
          "type": "address"
        }
      ],
      "name": "RoleRevoked",
      "type": "event"
    },
    {
      "anonymous": false,
      "inputs": [
        {
          "indexed": false,
          "internalType": "address",
          "name": "newClaimer",
          "type": "address"
        }
      ],
      "name": "SetNewClaimer",
      "type": "event"
    },
    {
      "anonymous": false,
      "inputs": [],
      "name": "Started",
      "type": "event"
    },
    {
      "anonymous": false,
      "inputs": [
        {
          "indexed": false,
          "internalType": "uint256",
          "name": "round",
          "type": "uint256"
        }
      ],
      "name": "StartedRound",
      "type": "event"
    },
    {
      "anonymous": false,
      "inputs": [
        {
          "indexed": true,
          "internalType": "address",
          "name": "caller",
          "type": "address"
        },
        {
          "indexed": false,
          "internalType": "uint256",
          "name": "amount",
          "type": "uint256"
        }
      ],
      "name": "Withdrawal",
      "type": "event"
    },
    {
      "inputs": [],
      "name": "ADMIN_ROLE",
      "outputs": [
        {
          "internalType": "bytes32",
          "name": "",
          "type": "bytes32"
        }
      ],
      "stateMutability": "view",
      "type": "function"
    },
    {
      "inputs": [],
      "name": "BURNER_ROLE",
      "outputs": [
        {
          "internalType": "bytes32",
          "name": "",
          "type": "bytes32"
        }
      ],
      "stateMutability": "view",
      "type": "function"
    },
    {
      "inputs": [],
      "name": "DEFAULT_ADMIN_ROLE",
      "outputs": [
        {
          "internalType": "bytes32",
          "name": "",
          "type": "bytes32"
        }
      ],
      "stateMutability": "view",
      "type": "function"
    },
    {
      "inputs": [],
      "name": "MINTER_ROLE",
      "outputs": [
        {
          "internalType": "bytes32",
          "name": "",
          "type": "bytes32"
        }
      ],
      "stateMutability": "view",
      "type": "function"
    },
    {
      "inputs": [
        {
          "internalType": "address",
          "name": "account",
          "type": "address"
        }
      ],
      "name": "addAdmin",
      "outputs": [],
      "stateMutability": "nonpayable",
      "type": "function"
    },
    {
      "inputs": [
        {
          "internalType": "uint256",
          "name": "round",
          "type": "uint256"
        },
        {
          "internalType": "address[]",
          "name": "users",
          "type": "address[]"
        }
      ],
      "name": "addWhitelist",
      "outputs": [],
      "stateMutability": "nonpayable",
      "type": "function"
    },
    {
      "inputs": [],
      "name": "availableWithdrawAmount",
      "outputs": [
        {
          "internalType": "uint256",
          "name": "amount",
          "type": "uint256"
        }
      ],
      "stateMutability": "view",
      "type": "function"
    },
    {
      "inputs": [],
      "name": "currentRound",
      "outputs": [
        {
          "internalType": "uint256",
          "name": "round",
          "type": "uint256"
        }
      ],
      "stateMutability": "view",
      "type": "function"
    },
    {
      "inputs": [],
      "name": "endTime",
      "outputs": [
        {
          "internalType": "uint256",
          "name": "",
          "type": "uint256"
        }
      ],
      "stateMutability": "view",
      "type": "function"
    },
    {
      "inputs": [
        {
          "internalType": "bytes32",
          "name": "role",
          "type": "bytes32"
        }
      ],
      "name": "getRoleAdmin",
      "outputs": [
        {
          "internalType": "bytes32",
          "name": "",
          "type": "bytes32"
        }
      ],
      "stateMutability": "view",
      "type": "function"
    },
    {
      "inputs": [
        {
          "internalType": "uint256",
          "name": "round",
          "type": "uint256"
        }
      ],
      "name": "getTgeInfos",
      "outputs": [
        {
          "internalType": "bool",
          "name": "allocated",
          "type": "bool"
        },
        {
          "internalType": "bool",
          "name": "started",
          "type": "bool"
        },
        {
          "internalType": "uint256",
          "name": "allocatedAmount",
          "type": "uint256"
        },
        {
          "internalType": "uint256",
          "name": "claimedCount",
          "type": "uint256"
        },
        {
          "internalType": "uint256",
          "name": "amount",
          "type": "uint256"
        },
        {
          "internalType": "address[]",
          "name": "whitelist",
          "type": "address[]"
        }
      ],
      "stateMutability": "view",
      "type": "function"
    },
    {
      "inputs": [
        {
          "internalType": "uint256",
          "name": "round",
          "type": "uint256"
        },
        {
          "internalType": "address",
          "name": "user",
          "type": "address"
        }
      ],
      "name": "getWhitelistInfo",
      "outputs": [
        {
          "internalType": "bool",
          "name": "joined",
          "type": "bool"
        },
        {
          "internalType": "uint256",
          "name": "claimedTime",
          "type": "uint256"
        }
      ],
      "stateMutability": "view",
      "type": "function"
    },
    {
      "inputs": [
        {
          "internalType": "bytes32",
          "name": "role",
          "type": "bytes32"
        },
        {
          "internalType": "address",
          "name": "account",
          "type": "address"
        }
      ],
      "name": "grantRole",
      "outputs": [],
      "stateMutability": "nonpayable",
      "type": "function"
    },
    {
      "inputs": [
        {
          "internalType": "bytes32",
          "name": "role",
          "type": "bytes32"
        },
        {
          "internalType": "address",
          "name": "account",
          "type": "address"
        }
      ],
      "name": "hasRole",
      "outputs": [
        {
          "internalType": "bool",
          "name": "",
          "type": "bool"
        }
      ],
      "stateMutability": "view",
      "type": "function"
    },
    {
      "inputs": [
        {
          "internalType": "uint256",
          "name": "_totalAllocatedAmount",
          "type": "uint256"
        },
        {
          "internalType": "uint256",
          "name": "_totalClaims",
          "type": "uint256"
        },
        {
          "internalType": "uint256",
          "name": "_totalTgeCount",
          "type": "uint256"
        },
        {
          "internalType": "uint256",
          "name": "_startTime",
          "type": "uint256"
        },
        {
          "internalType": "uint256",
          "name": "_periodTimesPerCliam",
          "type": "uint256"
        }
      ],
      "name": "initializeBase",
      "outputs": [],
      "stateMutability": "nonpayable",
      "type": "function"
    },
    {
      "inputs": [
        {
          "internalType": "address",
          "name": "account",
          "type": "address"
        }
      ],
      "name": "isAdmin",
      "outputs": [
        {
          "internalType": "bool",
          "name": "",
          "type": "bool"
        }
      ],
      "stateMutability": "view",
      "type": "function"
    },
    {
      "inputs": [],
      "name": "maxInputOnceTime",
      "outputs": [
        {
          "internalType": "uint256",
          "name": "",
          "type": "uint256"
        }
      ],
      "stateMutability": "view",
      "type": "function"
    },
    {
      "inputs": [],
      "name": "name",
      "outputs": [
        {
          "internalType": "string",
          "name": "",
          "type": "string"
        }
      ],
      "stateMutability": "view",
      "type": "function"
    },
    {
      "inputs": [],
      "name": "periodTimesPerCliam",
      "outputs": [
        {
          "internalType": "uint256",
          "name": "",
          "type": "uint256"
        }
      ],
      "stateMutability": "view",
      "type": "function"
    },
    {
      "inputs": [
        {
          "internalType": "address",
          "name": "account",
          "type": "address"
        }
      ],
      "name": "removeAdmin",
      "outputs": [],
      "stateMutability": "nonpayable",
      "type": "function"
    },
    {
      "inputs": [
        {
          "internalType": "bytes32",
          "name": "role",
          "type": "bytes32"
        },
        {
          "internalType": "address",
          "name": "account",
          "type": "address"
        }
      ],
      "name": "renounceRole",
      "outputs": [],
      "stateMutability": "nonpayable",
      "type": "function"
    },
    {
      "inputs": [
        {
          "internalType": "bytes32",
          "name": "role",
          "type": "bytes32"
        },
        {
          "internalType": "address",
          "name": "account",
          "type": "address"
        }
      ],
      "name": "revokeRole",
      "outputs": [],
      "stateMutability": "nonpayable",
      "type": "function"
    },
    {
      "inputs": [
        {
          "internalType": "uint256",
          "name": "_maxInputOnceTime",
          "type": "uint256"
        }
      ],
      "name": "setMaxInputOnceTimeWhitelist",
      "outputs": [],
      "stateMutability": "nonpayable",
      "type": "function"
    },
    {
      "inputs": [],
      "name": "startTime",
      "outputs": [
        {
          "internalType": "uint256",
          "name": "",
          "type": "uint256"
        }
      ],
      "stateMutability": "view",
      "type": "function"
    },
    {
      "inputs": [
        {
          "internalType": "bytes4",
          "name": "interfaceId",
          "type": "bytes4"
        }
      ],
      "name": "supportsInterface",
      "outputs": [
        {
          "internalType": "bool",
          "name": "",
          "type": "bool"
        }
      ],
      "stateMutability": "view",
      "type": "function"
    },
    {
      "inputs": [
        {
          "internalType": "uint256",
          "name": "",
          "type": "uint256"
        }
      ],
      "name": "tgeInfos",
      "outputs": [
        {
          "internalType": "bool",
          "name": "allocated",
          "type": "bool"
        },
        {
          "internalType": "bool",
          "name": "started",
          "type": "bool"
        },
        {
          "internalType": "uint256",
          "name": "allocatedAmount",
          "type": "uint256"
        },
        {
          "internalType": "uint256",
          "name": "claimedCount",
          "type": "uint256"
        },
        {
          "internalType": "uint256",
          "name": "amount",
          "type": "uint256"
        }
      ],
      "stateMutability": "view",
      "type": "function"
    },
    {
      "inputs": [],
      "name": "token",
      "outputs": [
        {
          "internalType": "address",
          "name": "",
          "type": "address"
        }
      ],
      "stateMutability": "view",
      "type": "function"
    },
    {
      "inputs": [],
      "name": "totalAllocatedAmount",
      "outputs": [
        {
          "internalType": "uint256",
          "name": "",
          "type": "uint256"
        }
      ],
      "stateMutability": "view",
      "type": "function"
    },
    {
      "inputs": [],
      "name": "totalClaimedAmount",
      "outputs": [
        {
          "internalType": "uint256",
          "name": "",
          "type": "uint256"
        }
      ],
      "stateMutability": "view",
      "type": "function"
    },
    {
      "inputs": [],
      "name": "totalClaims",
      "outputs": [
        {
          "internalType": "uint256",
          "name": "",
          "type": "uint256"
        }
      ],
      "stateMutability": "view",
      "type": "function"
    },
    {
      "inputs": [],
      "name": "totalTgeAmount",
      "outputs": [
        {
          "internalType": "uint256",
          "name": "",
          "type": "uint256"
        }
      ],
      "stateMutability": "view",
      "type": "function"
    },
    {
      "inputs": [],
      "name": "totalTgeCount",
      "outputs": [
        {
          "internalType": "uint256",
          "name": "",
          "type": "uint256"
        }
      ],
      "stateMutability": "view",
      "type": "function"
    },
    {
      "inputs": [
        {
          "internalType": "uint256",
          "name": "round",
          "type": "uint256"
        }
      ],
      "name": "totalWhitelist",
      "outputs": [
        {
          "internalType": "uint256",
          "name": "total",
          "type": "uint256"
        }
      ],
      "stateMutability": "view",
      "type": "function"
    },
    {
      "inputs": [
        {
          "internalType": "address",
          "name": "newAdmin",
          "type": "address"
        }
      ],
      "name": "transferAdmin",
      "outputs": [],
      "stateMutability": "nonpayable",
      "type": "function"
    },
    {
      "inputs": [
        {
          "internalType": "address",
          "name": "to",
          "type": "address"
        }
      ],
      "name": "withdraw",
      "outputs": [],
      "stateMutability": "nonpayable",
      "type": "function"
    }
  ],
  "bytecode": "0x608060405234801561001057600080fd5b50611c1e806100206000396000f3fe608060405234801561001057600080fd5b50600436106102115760003560e01c8063704802751161012557806391d14854116100ad578063cb1b782f1161007c578063cb1b782f14610495578063d5391393146104bf578063d547741f146104e6578063d9934719146104f9578063fc0c546a1461050257600080fd5b806391d148541461045e5780639661cb0d14610471578063a217fddf1461047a578063ab4eb57e1461048257600080fd5b806378e97925116100f457806378e979251461041e578063814f26fc14610427578063875d741d146104305780638a19c8bc146104435780638aa1e44e1461044b57600080fd5b806370480275146103d0578063717048ec146103e357806375829def146103f657806375b238fc1461040957600080fd5b80632f2ff15d116101a857806341c613831161017757806341c613831461037e578063517da7191461038757806351cff8d9146103ac57806355640008146103bf57806361202e3b146103c857600080fd5b80632f2ff15d146103465780633197cbb61461035957806336568abe146103625780633ef1a1aa1461037557600080fd5b806317d426f7116101e457806317d426f7146102d2578063248a9ca3146102e957806324d7806c1461030c578063282c51f31461031f57600080fd5b806301ffc9a71461021657806306fdde031461023e578063166cf32c146102535780631785f53c146102bd575b600080fd5b610229610224366004611773565b61052d565b60405190151581526020015b60405180910390f35b610246610564565b6040516102359190611964565b610293610261366004611730565b600b60205260009081526040902080546001820154600283015460039093015460ff8084169461010090940416929085565b6040805195151586529315156020860152928401919091526060830152608082015260a001610235565b6102d06102cb3660046116f6565b6105f2565b005b6102db60075481565b604051908152602001610235565b6102db6102f7366004611730565b6000908152600c602052604090206001015490565b61022961031a3660046116f6565b61063b565b6102db7f9667e80708b6eeeb0053fa0cca44e028ff548e2a9f029edfeac87c118b08b7c881565b6102d0610354366004611748565b610655565b6102db60065481565b6102d0610370366004611748565b610680565b6102db60005481565b6102db60085481565b61039a610395366004611730565b6106fe565b604051610235969594939291906118ee565b6102d06103ba3660046116f6565b6107f9565b6102db60035481565b6102db6109f9565b6102d06103de3660046116f6565b610ae9565b6102db6103f1366004611730565b610b26565b6102d06104043660046116f6565b610b84565b6102db600080516020611bc983398151915281565b6102db60055481565b6102db600a5481565b6102d061043e366004611730565b610c81565b6102db610d1b565b6102d06104593660046117c5565b610d59565b61022961046c366004611748565b611072565b6102db60045481565b6102db600081565b6102d061049036600461183f565b61109d565b6104a86104a33660046117b3565b6112c7565b604080519215158352602083019190915201610235565b6102db7ff0887ba65ee2024ea881d91b74c2450ef19e1557f03bed3ea9f16b037cbe2dc981565b6102d06104f4366004611748565b61137a565b6102db60095481565b600254610515906001600160a01b031681565b6040516001600160a01b039091168152602001610235565b60006001600160e01b03198216637965db0b60e01b148061055e57506301ffc9a760e01b6001600160e01b03198316145b92915050565b6001805461057190611b5c565b80601f016020809104026020016040519081016040528092919081815260200182805461059d90611b5c565b80156105ea5780601f106105bf576101008083540402835291602001916105ea565b820191906000526020600020905b8154815290600101906020018083116105cd57829003601f168201915b505050505081565b6105fb3361063b565b6106205760405162461bcd60e51b815260040161061790611997565b60405180910390fd5b610638600080516020611bc983398151915282610680565b50565b600061055e600080516020611bc983398151915283611072565b6000828152600c602052604090206001015461067181336113a0565b61067b8383611404565b505050565b6001600160a01b03811633146106f05760405162461bcd60e51b815260206004820152602f60248201527f416363657373436f6e74726f6c3a2063616e206f6e6c792072656e6f756e636560448201526e103937b632b9903337b91039b2b63360891b6064820152608401610617565b6106fa828261148a565b5050565b6000806000806000606086600081116107295760405162461bcd60e51b8152600401610617906119d9565b8760095481111561074c5760405162461bcd60e51b815260040161061790611a10565b6000898152600b60209081526040918290208054600182015460028301546003840154600485018054885181890281018901909952808952959760ff808716986101009097041696949593949293919290918391908301828280156107da57602002820191906000526020600020905b81546001600160a01b031681526001909101906020018083116107bc575b5050505050905098509850985098509850985050505091939550919395565b6108023361063b565b61081e5760405162461bcd60e51b815260040161061790611997565b806001600160a01b0381166108755760405162461bcd60e51b815260206004820152601e60248201527f426173655661756c7453746f726167653a207a65726f206164647265737300006044820152606401610617565b600061087f6109f9565b9050600081116108db5760405162461bcd60e51b815260206004820152602160248201527f426173655661756c743a206e6f20776974686472617761626c6520616d6f756e6044820152601d60fa1b6064820152608401610617565b6002546001600160a01b031663a9059cbb846108f56109f9565b6040516001600160e01b031960e085901b1681526001600160a01b0390921660048301526024820152604401602060405180830381600087803b15801561093b57600080fd5b505af115801561094f573d6000803e3d6000fd5b505050506040513d601f19601f820116820180604052508101906109739190611710565b6109bf5760405162461bcd60e51b815260206004820152601860248201527f426173655661756c743a207472616e73666572206661696c00000000000000006044820152606401610617565b60405181815233907f7fcf532c15f0a6db0bd6d0e038bea71d30d808c7d98cb3bf7268a95bf5081b659060200160405180910390a2505050565b6002546040516370a0823160e01b815230600482015260009182916001600160a01b03909116906370a082319060240160206040518083038186803b158015610a4157600080fd5b505afa158015610a55573d6000803e3d6000fd5b505050506040513d601f19601f82011682018060405250810190610a79919061179b565b90506000600454600354610a8d9190611afe565b905080821015610ad85760405162461bcd60e51b815260206004820152601660248201527510985cd955985d5b1d0e881a5b9cdd59999a58d95b9d60521b6044820152606401610617565b610ae28183611afe565b9250505090565b610af23361063b565b610b0e5760405162461bcd60e51b815260040161061790611997565b610638600080516020611bc983398151915282610655565b60008160008111610b495760405162461bcd60e51b8152600401610617906119d9565b82600954811115610b6c5760405162461bcd60e51b815260040161061790611a10565b5050506000908152600b602052604090206004015490565b610b8d3361063b565b610ba95760405162461bcd60e51b815260040161061790611997565b6001600160a01b038116610bff5760405162461bcd60e51b815260206004820152601860248201527f41636365737369626c653a207a65726f206164647265737300000000000000006044820152606401610617565b336001600160a01b0382161415610c515760405162461bcd60e51b815260206004820152601660248201527520b1b1b2b9b9b4b136329d1039b0b6b29030b236b4b760511b6044820152606401610617565b610c69600080516020611bc983398151915282610655565b610638600080516020611bc983398151915233610680565b610c8a3361063b565b610ca65760405162461bcd60e51b815260040161061790611997565b8060008111610cc75760405162461bcd60e51b8152600401610617906119d9565b6000548280821415610d135760405162461bcd60e51b8152602060048201526015602482015274426173655661756c743a2073616d652076616c756560581b6044820152606401610617565b505050600055565b6000600554421015610d2d5750600090565b600754600554610d3d9042611afe565b610d479190611abf565b905080610d5381611b97565b91505090565b610d623361063b565b610d7e5760405162461bcd60e51b815260040161061790611997565b8260008111610d9f5760405162461bcd60e51b8152600401610617906119d9565b83600954811115610dc25760405162461bcd60e51b815260040161061790611a10565b828015801590610dd457506000548111155b610e325760405162461bcd60e51b815260206004820152602960248201527f426173655661756c743a20636865636b20696e70757420636f756e74206174206044820152686f6e63652074696d6560b81b6064820152608401610617565b6000868152600b602052604090208054610100900460ff1615610e975760405162461bcd60e51b815260206004820152601a60248201527f426173655661756c743a20616c726561647920737461727465640000000000006044820152606401610617565b60005b8581101561102d576000878783818110610ec457634e487b7160e01b600052603260045260246000fd5b9050602002016020810190610ed991906116f6565b6001600160a01b031614158015610f455750816005016000888884818110610f1157634e487b7160e01b600052603260045260246000fd5b9050602002016020810190610f2691906116f6565b6001600160a01b0316815260208101919091526040016000205460ff16155b1561101b576001826005016000898985818110610f7257634e487b7160e01b600052603260045260246000fd5b9050602002016020810190610f8791906116f6565b6001600160a01b031681526020810191909152604001600020805460ff191691151591909117905560048201878783818110610fd357634e487b7160e01b600052603260045260246000fd5b9050602002016020810190610fe891906116f6565b81546001810183556000928352602090922090910180546001600160a01b0319166001600160a01b039092169190911790555b8061102581611b97565b915050610e9a565b507f9c9ea5277c31b2732c1577550098533c5c80dda4ee8728a4f235421651856e9687878760405161106193929190611a51565b60405180910390a150505050505050565b6000918252600c602090815260408084206001600160a01b0393909316845291905290205460ff1690565b6110a63361063b565b6110c25760405162461bcd60e51b815260040161061790611997565b84600081116110e35760405162461bcd60e51b8152600401610617906119d9565b84600081116111045760405162461bcd60e51b8152600401610617906119d9565b84600081116111255760405162461bcd60e51b8152600401610617906119d9565b84600081116111465760405162461bcd60e51b8152600401610617906119d9565b84600081116111675760405162461bcd60e51b8152600401610617906119d9565b6002546040516370a0823160e01b81523060048201528b916001600160a01b0316906370a082319060240160206040518083038186803b1580156111aa57600080fd5b505afa1580156111be573d6000803e3d6000fd5b505050506040513d601f19601f820116820180604052508101906111e2919061179b565b101561123b5760405162461bcd60e51b815260206004820152602260248201527f426173655661756c743a2062616c616e63654f6620697320696e7375666669656044820152611b9d60f21b6064820152608401610617565b6003541561128b5760405162461bcd60e51b815260206004820152601e60248201527f426173655661756c743a20616c726561647920696e697469616c697a656400006044820152606401610617565b60038a905560088990556009889055600587905560078690556112ae8987611adf565b6112b89088611aa7565b60065550505050505050505050565b60008083600081116112eb5760405162461bcd60e51b8152600401610617906119d9565b8460095481111561130e5760405162461bcd60e51b815260040161061790611a10565b6000868152600b602090815260408083206001600160a01b0389168452600581019092529091205460ff161561136f576001600160a01b0386166000908152600590910160205260409020805460019091015460ff90911694509250611371565b505b50509250929050565b6000828152600c602052604090206001015461139681336113a0565b61067b838361148a565b6113aa8282611072565b6106fa576113c2816001600160a01b031660146114f1565b6113cd8360206114f1565b6040516020016113de929190611879565b60408051601f198184030181529082905262461bcd60e51b825261061791600401611964565b61140e8282611072565b6106fa576000828152600c602090815260408083206001600160a01b03851684529091529020805460ff191660011790556114463390565b6001600160a01b0316816001600160a01b0316837f2f8788117e7eff1d82e926ec794901d17c78024a50270940304540a733656f0d60405160405180910390a45050565b6114948282611072565b156106fa576000828152600c602090815260408083206001600160a01b0385168085529252808320805460ff1916905551339285917ff6391f5c32d9c69d2a47ea670b442974b53935d1edc7fd64eb21e047a839171b9190a45050565b60606000611500836002611adf565b61150b906002611aa7565b67ffffffffffffffff81111561153157634e487b7160e01b600052604160045260246000fd5b6040519080825280601f01601f19166020018201604052801561155b576020820181803683370190505b509050600360fc1b8160008151811061158457634e487b7160e01b600052603260045260246000fd5b60200101906001600160f81b031916908160001a905350600f60fb1b816001815181106115c157634e487b7160e01b600052603260045260246000fd5b60200101906001600160f81b031916908160001a90535060006115e5846002611adf565b6115f0906001611aa7565b90505b6001811115611684576f181899199a1a9b1b9c1cb0b131b232b360811b85600f166010811061163257634e487b7160e01b600052603260045260246000fd5b1a60f81b82828151811061165657634e487b7160e01b600052603260045260246000fd5b60200101906001600160f81b031916908160001a90535060049490941c9361167d81611b45565b90506115f3565b5083156116d35760405162461bcd60e51b815260206004820181905260248201527f537472696e67733a20686578206c656e67746820696e73756666696369656e746044820152606401610617565b9392505050565b80356001600160a01b03811681146116f157600080fd5b919050565b600060208284031215611707578081fd5b6116d3826116da565b600060208284031215611721578081fd5b815180151581146116d3578182fd5b600060208284031215611741578081fd5b5035919050565b6000806040838503121561175a578081fd5b8235915061176a602084016116da565b90509250929050565b600060208284031215611784578081fd5b81356001600160e01b0319811681146116d3578182fd5b6000602082840312156117ac578081fd5b5051919050565b6000806040838503121561175a578182fd5b6000806000604084860312156117d9578081fd5b83359250602084013567ffffffffffffffff808211156117f7578283fd5b818601915086601f83011261180a578283fd5b813581811115611818578384fd5b8760208260051b850101111561182c578384fd5b6020830194508093505050509250925092565b600080600080600060a08688031215611856578081fd5b505083359560208501359550604085013594606081013594506080013592509050565b7f416363657373436f6e74726f6c3a206163636f756e74200000000000000000008152600083516118b1816017850160208801611b15565b7001034b99036b4b9b9b4b733903937b6329607d1b60179184019182015283516118e2816028840160208801611b15565b01602801949350505050565b600060c08201881515835260208815158185015287604085015286606085015285608085015260c060a085015281855180845260e0860191508287019350845b818110156119535784516001600160a01b03168352938301939183019160010161192e565b50909b9a5050505050505050505050565b6020815260008251806020840152611983816040850160208701611b15565b601f01601f19169190910160400192915050565b60208082526022908201527f41636365737369626c653a2043616c6c6572206973206e6f7420616e2061646d60408201526134b760f11b606082015260800190565b6020808252601c908201527f426173655661756c7453746f726167653a207a65726f2076616c756500000000604082015260600190565b60208082526021908201527f426173655661756c743a2065786365656420617661696c61626c6520726f756e6040820152601960fa1b606082015260800190565b83815260406020808301829052908201839052600090849060608401835b86811015611a9b576001600160a01b03611a88856116da565b1682529282019290820190600101611a6f565b50979650505050505050565b60008219821115611aba57611aba611bb2565b500190565b600082611ada57634e487b7160e01b81526012600452602481fd5b500490565b6000816000190483118215151615611af957611af9611bb2565b500290565b600082821015611b1057611b10611bb2565b500390565b60005b83811015611b30578181015183820152602001611b18565b83811115611b3f576000848401525b50505050565b600081611b5457611b54611bb2565b506000190190565b600181811c90821680611b7057607f821691505b60208210811415611b9157634e487b7160e01b600052602260045260246000fd5b50919050565b6000600019821415611bab57611bab611bb2565b5060010190565b634e487b7160e01b600052601160045260246000fdfedf8b4c520ffe197c5343c6f5aec59570151ef9a492f2c624fd45ddde6135ec42a2646970667358221220ddabb444829e2b93ca8eb265d540cf5f24939ad68bbc2fbeb484a0e1cbfe478c64736f6c63430008040033",
  "linkReferences": {},
  "deployedLinkReferences": {}
}