{
  "_format": "hh-sol-artifact-1",
  "contractName": "BaseVaultStorage",
  "sourceName": "contracts/vaults/BaseVaultStorage.sol",
  "abi": [
    {
      "inputs": [],
      "name": "endTime",
      "outputs": [
        {
          "internalType": "uint256",
          "name": "",
          "type": "uint256"
        }
      ],
      "stateMutability": "view",
      "type": "function"
    },
    {
      "inputs": [],
      "name": "maxInputOnceTime",
      "outputs": [
        {
          "internalType": "uint256",
          "name": "",
          "type": "uint256"
        }
      ],
      "stateMutability": "view",
      "type": "function"
    },
    {
      "inputs": [],
      "name": "name",
      "outputs": [
        {
          "internalType": "string",
          "name": "",
          "type": "string"
        }
      ],
      "stateMutability": "view",
      "type": "function"
    },
    {
      "inputs": [],
      "name": "periodTimesPerCliam",
      "outputs": [
        {
          "internalType": "uint256",
          "name": "",
          "type": "uint256"
        }
      ],
      "stateMutability": "view",
      "type": "function"
    },
    {
      "inputs": [],
      "name": "startTime",
      "outputs": [
        {
          "internalType": "uint256",
          "name": "",
          "type": "uint256"
        }
      ],
      "stateMutability": "view",
      "type": "function"
    },
    {
      "inputs": [
        {
          "internalType": "uint256",
          "name": "",
          "type": "uint256"
        }
      ],
      "name": "tgeInfos",
      "outputs": [
        {
          "internalType": "bool",
          "name": "allocated",
          "type": "bool"
        },
        {
          "internalType": "bool",
          "name": "started",
          "type": "bool"
        },
        {
          "internalType": "uint256",
          "name": "allocatedAmount",
          "type": "uint256"
        },
        {
          "internalType": "uint256",
          "name": "claimedCount",
          "type": "uint256"
        },
        {
          "internalType": "uint256",
          "name": "amount",
          "type": "uint256"
        }
      ],
      "stateMutability": "view",
      "type": "function"
    },
    {
      "inputs": [],
      "name": "token",
      "outputs": [
        {
          "internalType": "address",
          "name": "",
          "type": "address"
        }
      ],
      "stateMutability": "view",
      "type": "function"
    },
    {
      "inputs": [],
      "name": "totalAllocatedAmount",
      "outputs": [
        {
          "internalType": "uint256",
          "name": "",
          "type": "uint256"
        }
      ],
      "stateMutability": "view",
      "type": "function"
    },
    {
      "inputs": [],
      "name": "totalClaimedAmount",
      "outputs": [
        {
          "internalType": "uint256",
          "name": "",
          "type": "uint256"
        }
      ],
      "stateMutability": "view",
      "type": "function"
    },
    {
      "inputs": [],
      "name": "totalClaims",
      "outputs": [
        {
          "internalType": "uint256",
          "name": "",
          "type": "uint256"
        }
      ],
      "stateMutability": "view",
      "type": "function"
    },
    {
      "inputs": [],
      "name": "totalTgeAmount",
      "outputs": [
        {
          "internalType": "uint256",
          "name": "",
          "type": "uint256"
        }
      ],
      "stateMutability": "view",
      "type": "function"
    },
    {
      "inputs": [],
      "name": "totalTgeCount",
      "outputs": [
        {
          "internalType": "uint256",
          "name": "",
          "type": "uint256"
        }
      ],
      "stateMutability": "view",
      "type": "function"
    }
  ],
  "bytecode": "0x608060405234801561001057600080fd5b50610335806100206000396000f3fe608060405234801561001057600080fd5b50600436106100b45760003560e01c80635564000811610071578063556400081461017357806378e979251461017c578063814f26fc146101855780639661cb0d1461018e578063d993471914610197578063fc0c546a146101a057600080fd5b806306fdde03146100b9578063166cf32c146100d757806317d426f7146101415780633197cbb6146101585780633ef1a1aa1461016157806341c613831461016a575b600080fd5b6100c16101cb565b6040516100ce9190610271565b60405180910390f35b6101176100e5366004610259565b600b60205260009081526040902080546001820154600283015460039093015460ff8084169461010090940416929085565b6040805195151586529315156020860152928401919091526060830152608082015260a0016100ce565b61014a60075481565b6040519081526020016100ce565b61014a60065481565b61014a60005481565b61014a60085481565b61014a60035481565b61014a60055481565b61014a600a5481565b61014a60045481565b61014a60095481565b6002546101b3906001600160a01b031681565b6040516001600160a01b0390911681526020016100ce565b600180546101d8906102c4565b80601f0160208091040260200160405190810160405280929190818152602001828054610204906102c4565b80156102515780601f1061022657610100808354040283529160200191610251565b820191906000526020600020905b81548152906001019060200180831161023457829003601f168201915b505050505081565b60006020828403121561026a578081fd5b5035919050565b6000602080835283518082850152825b8181101561029d57858101830151858201604001528201610281565b818111156102ae5783604083870101525b50601f01601f1916929092016040019392505050565b600181811c908216806102d857607f821691505b602082108114156102f957634e487b7160e01b600052602260045260246000fd5b5091905056fea264697066735822122081a3800e49236c6a2968dbafe872011bc2e80946af2e813355ea5994aa5ca70364736f6c63430008040033",
  "linkReferences": {},
  "deployedLinkReferences": {}
}