{
  "_format": "hh-sol-artifact-1",
  "contractName": "AccessiblePlusCommon",
  "sourceName": "contracts/common/AccessiblePlusCommon.sol",
  "abi": [
    {
      "anonymous": false,
      "inputs": [
        {
          "indexed": true,
          "internalType": "bytes32",
          "name": "role",
          "type": "bytes32"
        },
        {
          "indexed": true,
          "internalType": "bytes32",
          "name": "previousAdminRole",
          "type": "bytes32"
        },
        {
          "indexed": true,
          "internalType": "bytes32",
          "name": "newAdminRole",
          "type": "bytes32"
        }
      ],
      "name": "RoleAdminChanged",
      "type": "event"
    },
    {
      "anonymous": false,
      "inputs": [
        {
          "indexed": true,
          "internalType": "bytes32",
          "name": "role",
          "type": "bytes32"
        },
        {
          "indexed": true,
          "internalType": "address",
          "name": "account",
          "type": "address"
        },
        {
          "indexed": true,
          "internalType": "address",
          "name": "sender",
          "type": "address"
        }
      ],
      "name": "RoleGranted",
      "type": "event"
    },
    {
      "anonymous": false,
      "inputs": [
        {
          "indexed": true,
          "internalType": "bytes32",
          "name": "role",
          "type": "bytes32"
        },
        {
          "indexed": true,
          "internalType": "address",
          "name": "account",
          "type": "address"
        },
        {
          "indexed": true,
          "internalType": "address",
          "name": "sender",
          "type": "address"
        }
      ],
      "name": "RoleRevoked",
      "type": "event"
    },
    {
      "inputs": [],
      "name": "ADMIN_ROLE",
      "outputs": [
        {
          "internalType": "bytes32",
          "name": "",
          "type": "bytes32"
        }
      ],
      "stateMutability": "view",
      "type": "function"
    },
    {
      "inputs": [],
      "name": "BURNER_ROLE",
      "outputs": [
        {
          "internalType": "bytes32",
          "name": "",
          "type": "bytes32"
        }
      ],
      "stateMutability": "view",
      "type": "function"
    },
    {
      "inputs": [],
      "name": "DEFAULT_ADMIN_ROLE",
      "outputs": [
        {
          "internalType": "bytes32",
          "name": "",
          "type": "bytes32"
        }
      ],
      "stateMutability": "view",
      "type": "function"
    },
    {
      "inputs": [],
      "name": "MINTER_ROLE",
      "outputs": [
        {
          "internalType": "bytes32",
          "name": "",
          "type": "bytes32"
        }
      ],
      "stateMutability": "view",
      "type": "function"
    },
    {
      "inputs": [
        {
          "internalType": "address",
          "name": "account",
          "type": "address"
        }
      ],
      "name": "addAdmin",
      "outputs": [],
      "stateMutability": "nonpayable",
      "type": "function"
    },
    {
      "inputs": [
        {
          "internalType": "address",
          "name": "account",
          "type": "address"
        }
      ],
      "name": "addBurner",
      "outputs": [],
      "stateMutability": "nonpayable",
      "type": "function"
    },
    {
      "inputs": [
        {
          "internalType": "address",
          "name": "account",
          "type": "address"
        }
      ],
      "name": "addMinter",
      "outputs": [],
      "stateMutability": "nonpayable",
      "type": "function"
    },
    {
      "inputs": [
        {
          "internalType": "bytes32",
          "name": "role",
          "type": "bytes32"
        }
      ],
      "name": "getRoleAdmin",
      "outputs": [
        {
          "internalType": "bytes32",
          "name": "",
          "type": "bytes32"
        }
      ],
      "stateMutability": "view",
      "type": "function"
    },
    {
      "inputs": [
        {
          "internalType": "bytes32",
          "name": "role",
          "type": "bytes32"
        },
        {
          "internalType": "address",
          "name": "account",
          "type": "address"
        }
      ],
      "name": "grantRole",
      "outputs": [],
      "stateMutability": "nonpayable",
      "type": "function"
    },
    {
      "inputs": [
        {
          "internalType": "bytes32",
          "name": "role",
          "type": "bytes32"
        },
        {
          "internalType": "address",
          "name": "account",
          "type": "address"
        }
      ],
      "name": "hasRole",
      "outputs": [
        {
          "internalType": "bool",
          "name": "",
          "type": "bool"
        }
      ],
      "stateMutability": "view",
      "type": "function"
    },
    {
      "inputs": [
        {
          "internalType": "address",
          "name": "account",
          "type": "address"
        }
      ],
      "name": "isAdmin",
      "outputs": [
        {
          "internalType": "bool",
          "name": "",
          "type": "bool"
        }
      ],
      "stateMutability": "view",
      "type": "function"
    },
    {
      "inputs": [
        {
          "internalType": "address",
          "name": "account",
          "type": "address"
        }
      ],
      "name": "isBurner",
      "outputs": [
        {
          "internalType": "bool",
          "name": "",
          "type": "bool"
        }
      ],
      "stateMutability": "view",
      "type": "function"
    },
    {
      "inputs": [
        {
          "internalType": "address",
          "name": "account",
          "type": "address"
        }
      ],
      "name": "isMinter",
      "outputs": [
        {
          "internalType": "bool",
          "name": "",
          "type": "bool"
        }
      ],
      "stateMutability": "view",
      "type": "function"
    },
    {
      "inputs": [
        {
          "internalType": "address",
          "name": "account",
          "type": "address"
        }
      ],
      "name": "removeAdmin",
      "outputs": [],
      "stateMutability": "nonpayable",
      "type": "function"
    },
    {
      "inputs": [
        {
          "internalType": "address",
          "name": "account",
          "type": "address"
        }
      ],
      "name": "removeBurner",
      "outputs": [],
      "stateMutability": "nonpayable",
      "type": "function"
    },
    {
      "inputs": [
        {
          "internalType": "address",
          "name": "account",
          "type": "address"
        }
      ],
      "name": "removeMinter",
      "outputs": [],
      "stateMutability": "nonpayable",
      "type": "function"
    },
    {
      "inputs": [
        {
          "internalType": "bytes32",
          "name": "role",
          "type": "bytes32"
        },
        {
          "internalType": "address",
          "name": "account",
          "type": "address"
        }
      ],
      "name": "renounceRole",
      "outputs": [],
      "stateMutability": "nonpayable",
      "type": "function"
    },
    {
      "inputs": [
        {
          "internalType": "bytes32",
          "name": "role",
          "type": "bytes32"
        },
        {
          "internalType": "address",
          "name": "account",
          "type": "address"
        }
      ],
      "name": "revokeRole",
      "outputs": [],
      "stateMutability": "nonpayable",
      "type": "function"
    },
    {
      "inputs": [
        {
          "internalType": "bytes4",
          "name": "interfaceId",
          "type": "bytes4"
        }
      ],
      "name": "supportsInterface",
      "outputs": [
        {
          "internalType": "bool",
          "name": "",
          "type": "bool"
        }
      ],
      "stateMutability": "view",
      "type": "function"
    },
    {
      "inputs": [
        {
          "internalType": "address",
          "name": "newAdmin",
          "type": "address"
        }
      ],
      "name": "transferAdmin",
      "outputs": [],
      "stateMutability": "nonpayable",
      "type": "function"
    }
  ],
  "bytecode": "0x608060405234801561001057600080fd5b50610cbc806100206000396000f3fe608060405234801561001057600080fd5b506004361061012c5760003560e01c806370480275116100ad578063a217fddf11610071578063a217fddf14610287578063aa271e1a1461028f578063d5391393146102a2578063d547741f146102b7578063f44637ba146102ca57600080fd5b8063704802751461022657806375829def1461023957806375b238fc1461024c57806391d1485414610261578063983b2d561461027457600080fd5b8063282c51f3116100f4578063282c51f3146101c55780632f2ff15d146101da5780633092afd5146101ed57806336568abe146102005780634334614a1461021357600080fd5b806301ffc9a71461013157806302846858146101595780631785f53c1461016e578063248a9ca31461018157806324d7806c146101b2575b600080fd5b61014461013f366004610a80565b6102dd565b60405190151581526020015b60405180910390f35b61016c610167366004610a23565b610314565b005b61016c61017c366004610a23565b61035d565b6101a461018f366004610a3d565b60009081526020819052604090206001015490565b604051908152602001610150565b6101446101c0366004610a23565b61039a565b6101a4600080516020610c6783398151915281565b61016c6101e8366004610a55565b6103b4565b61016c6101fb366004610a23565b6103df565b61016c61020e366004610a55565b61041c565b610144610221366004610a23565b61049a565b61016c610234366004610a23565b6104b4565b61016c610247366004610a23565b6104f1565b6101a4600080516020610c4783398151915281565b61014461026f366004610a55565b6105ee565b61016c610282366004610a23565b610617565b6101a4600081565b61014461029d366004610a23565b610654565b6101a4600080516020610c2783398151915281565b61016c6102c5366004610a55565b61066e565b61016c6102d8366004610a23565b610694565b60006001600160e01b03198216637965db0b60e01b148061030e57506301ffc9a760e01b6001600160e01b03198316145b92915050565b61031d3361039a565b6103425760405162461bcd60e51b815260040161033990610b50565b60405180910390fd5b61035a600080516020610c678339815191528261066e565b50565b6103663361039a565b6103825760405162461bcd60e51b815260040161033990610b50565b61035a600080516020610c478339815191528261041c565b600061030e600080516020610c47833981519152836105ee565b6000828152602081905260409020600101546103d081336106d1565b6103da8383610735565b505050565b6103e83361039a565b6104045760405162461bcd60e51b815260040161033990610b50565b61035a600080516020610c278339815191528261066e565b6001600160a01b038116331461048c5760405162461bcd60e51b815260206004820152602f60248201527f416363657373436f6e74726f6c3a2063616e206f6e6c792072656e6f756e636560448201526e103937b632b9903337b91039b2b63360891b6064820152608401610339565b61049682826107b9565b5050565b600061030e600080516020610c67833981519152836105ee565b6104bd3361039a565b6104d95760405162461bcd60e51b815260040161033990610b50565b61035a600080516020610c47833981519152826103b4565b6104fa3361039a565b6105165760405162461bcd60e51b815260040161033990610b50565b6001600160a01b03811661056c5760405162461bcd60e51b815260206004820152601860248201527f41636365737369626c653a207a65726f206164647265737300000000000000006044820152606401610339565b336001600160a01b03821614156105be5760405162461bcd60e51b815260206004820152601660248201527520b1b1b2b9b9b4b136329d1039b0b6b29030b236b4b760511b6044820152606401610339565b6105d6600080516020610c47833981519152826103b4565b61035a600080516020610c478339815191523361041c565b6000918252602082815260408084206001600160a01b0393909316845291905290205460ff1690565b6106203361039a565b61063c5760405162461bcd60e51b815260040161033990610b50565b61035a600080516020610c27833981519152826103b4565b600061030e600080516020610c27833981519152836105ee565b60008281526020819052604090206001015461068a81336106d1565b6103da83836107b9565b61069d3361039a565b6106b95760405162461bcd60e51b815260040161033990610b50565b61035a600080516020610c67833981519152826103b4565b6106db82826105ee565b610496576106f3816001600160a01b0316601461081e565b6106fe83602061081e565b60405160200161070f929190610aa8565b60408051601f198184030181529082905262461bcd60e51b825261033991600401610b1d565b61073f82826105ee565b610496576000828152602081815260408083206001600160a01b03851684529091529020805460ff191660011790556107753390565b6001600160a01b0316816001600160a01b0316837f2f8788117e7eff1d82e926ec794901d17c78024a50270940304540a733656f0d60405160405180910390a45050565b6107c382826105ee565b15610496576000828152602081815260408083206001600160a01b0385168085529252808320805460ff1916905551339285917ff6391f5c32d9c69d2a47ea670b442974b53935d1edc7fd64eb21e047a839171b9190a45050565b6060600061082d836002610baa565b610838906002610b92565b67ffffffffffffffff81111561085e57634e487b7160e01b600052604160045260246000fd5b6040519080825280601f01601f191660200182016040528015610888576020820181803683370190505b509050600360fc1b816000815181106108b157634e487b7160e01b600052603260045260246000fd5b60200101906001600160f81b031916908160001a905350600f60fb1b816001815181106108ee57634e487b7160e01b600052603260045260246000fd5b60200101906001600160f81b031916908160001a9053506000610912846002610baa565b61091d906001610b92565b90505b60018111156109b1576f181899199a1a9b1b9c1cb0b131b232b360811b85600f166010811061095f57634e487b7160e01b600052603260045260246000fd5b1a60f81b82828151811061098357634e487b7160e01b600052603260045260246000fd5b60200101906001600160f81b031916908160001a90535060049490941c936109aa81610bf9565b9050610920565b508315610a005760405162461bcd60e51b815260206004820181905260248201527f537472696e67733a20686578206c656e67746820696e73756666696369656e746044820152606401610339565b9392505050565b80356001600160a01b0381168114610a1e57600080fd5b919050565b600060208284031215610a34578081fd5b610a0082610a07565b600060208284031215610a4e578081fd5b5035919050565b60008060408385031215610a67578081fd5b82359150610a7760208401610a07565b90509250929050565b600060208284031215610a91578081fd5b81356001600160e01b031981168114610a00578182fd5b7f416363657373436f6e74726f6c3a206163636f756e7420000000000000000000815260008351610ae0816017850160208801610bc9565b7001034b99036b4b9b9b4b733903937b6329607d1b6017918401918201528351610b11816028840160208801610bc9565b01602801949350505050565b6020815260008251806020840152610b3c816040850160208701610bc9565b601f01601f19169190910160400192915050565b60208082526022908201527f41636365737369626c653a2043616c6c6572206973206e6f7420616e2061646d60408201526134b760f11b606082015260800190565b60008219821115610ba557610ba5610c10565b500190565b6000816000190483118215151615610bc457610bc4610c10565b500290565b60005b83811015610be4578181015183820152602001610bcc565b83811115610bf3576000848401525b50505050565b600081610c0857610c08610c10565b506000190190565b634e487b7160e01b600052601160045260246000fdfef0887ba65ee2024ea881d91b74c2450ef19e1557f03bed3ea9f16b037cbe2dc9df8b4c520ffe197c5343c6f5aec59570151ef9a492f2c624fd45ddde6135ec429667e80708b6eeeb0053fa0cca44e028ff548e2a9f029edfeac87c118b08b7c8a2646970667358221220f3e5350e6bc8a0c3858d745771ca066c4f76d259badbb6297c43bc51bac830bb64736f6c63430008040033",
  "linkReferences": {},
  "deployedLinkReferences": {}
}