{
  "contractName": "AccessiblePlusCommon",
  "abi": [
    {
      "anonymous": false,
      "inputs": [
        {
          "indexed": true,
          "internalType": "bytes32",
          "name": "role",
          "type": "bytes32"
        },
        {
          "indexed": true,
          "internalType": "bytes32",
          "name": "previousAdminRole",
          "type": "bytes32"
        },
        {
          "indexed": true,
          "internalType": "bytes32",
          "name": "newAdminRole",
          "type": "bytes32"
        }
      ],
      "name": "RoleAdminChanged",
      "type": "event"
    },
    {
      "anonymous": false,
      "inputs": [
        {
          "indexed": true,
          "internalType": "bytes32",
          "name": "role",
          "type": "bytes32"
        },
        {
          "indexed": true,
          "internalType": "address",
          "name": "account",
          "type": "address"
        },
        {
          "indexed": true,
          "internalType": "address",
          "name": "sender",
          "type": "address"
        }
      ],
      "name": "RoleGranted",
      "type": "event"
    },
    {
      "anonymous": false,
      "inputs": [
        {
          "indexed": true,
          "internalType": "bytes32",
          "name": "role",
          "type": "bytes32"
        },
        {
          "indexed": true,
          "internalType": "address",
          "name": "account",
          "type": "address"
        },
        {
          "indexed": true,
          "internalType": "address",
          "name": "sender",
          "type": "address"
        }
      ],
      "name": "RoleRevoked",
      "type": "event"
    },
    {
      "inputs": [],
      "name": "ADMIN_ROLE",
      "outputs": [
        {
          "internalType": "bytes32",
          "name": "",
          "type": "bytes32"
        }
      ],
      "stateMutability": "view",
      "type": "function"
    },
    {
      "inputs": [],
      "name": "BURNER_ROLE",
      "outputs": [
        {
          "internalType": "bytes32",
          "name": "",
          "type": "bytes32"
        }
      ],
      "stateMutability": "view",
      "type": "function"
    },
    {
      "inputs": [],
      "name": "DEFAULT_ADMIN_ROLE",
      "outputs": [
        {
          "internalType": "bytes32",
          "name": "",
          "type": "bytes32"
        }
      ],
      "stateMutability": "view",
      "type": "function"
    },
    {
      "inputs": [],
      "name": "MINTER_ROLE",
      "outputs": [
        {
          "internalType": "bytes32",
          "name": "",
          "type": "bytes32"
        }
      ],
      "stateMutability": "view",
      "type": "function"
    },
    {
      "inputs": [
        {
          "internalType": "address",
          "name": "account",
          "type": "address"
        }
      ],
      "name": "addAdmin",
      "outputs": [],
      "stateMutability": "nonpayable",
      "type": "function"
    },
    {
      "inputs": [
        {
          "internalType": "bytes32",
          "name": "role",
          "type": "bytes32"
        }
      ],
      "name": "getRoleAdmin",
      "outputs": [
        {
          "internalType": "bytes32",
          "name": "",
          "type": "bytes32"
        }
      ],
      "stateMutability": "view",
      "type": "function"
    },
    {
      "inputs": [
        {
          "internalType": "bytes32",
          "name": "role",
          "type": "bytes32"
        },
        {
          "internalType": "address",
          "name": "account",
          "type": "address"
        }
      ],
      "name": "grantRole",
      "outputs": [],
      "stateMutability": "nonpayable",
      "type": "function"
    },
    {
      "inputs": [
        {
          "internalType": "bytes32",
          "name": "role",
          "type": "bytes32"
        },
        {
          "internalType": "address",
          "name": "account",
          "type": "address"
        }
      ],
      "name": "hasRole",
      "outputs": [
        {
          "internalType": "bool",
          "name": "",
          "type": "bool"
        }
      ],
      "stateMutability": "view",
      "type": "function"
    },
    {
      "inputs": [
        {
          "internalType": "address",
          "name": "account",
          "type": "address"
        }
      ],
      "name": "isAdmin",
      "outputs": [
        {
          "internalType": "bool",
          "name": "",
          "type": "bool"
        }
      ],
      "stateMutability": "view",
      "type": "function"
    },
    {
      "inputs": [
        {
          "internalType": "address",
          "name": "account",
          "type": "address"
        }
      ],
      "name": "removeAdmin",
      "outputs": [],
      "stateMutability": "nonpayable",
      "type": "function"
    },
    {
      "inputs": [
        {
          "internalType": "bytes32",
          "name": "role",
          "type": "bytes32"
        },
        {
          "internalType": "address",
          "name": "account",
          "type": "address"
        }
      ],
      "name": "renounceRole",
      "outputs": [],
      "stateMutability": "nonpayable",
      "type": "function"
    },
    {
      "inputs": [
        {
          "internalType": "bytes32",
          "name": "role",
          "type": "bytes32"
        },
        {
          "internalType": "address",
          "name": "account",
          "type": "address"
        }
      ],
      "name": "revokeRole",
      "outputs": [],
      "stateMutability": "nonpayable",
      "type": "function"
    },
    {
      "inputs": [
        {
          "internalType": "bytes4",
          "name": "interfaceId",
          "type": "bytes4"
        }
      ],
      "name": "supportsInterface",
      "outputs": [
        {
          "internalType": "bool",
          "name": "",
          "type": "bool"
        }
      ],
      "stateMutability": "view",
      "type": "function"
    },
    {
      "inputs": [
        {
          "internalType": "address",
          "name": "newAdmin",
          "type": "address"
        }
      ],
      "name": "transferAdmin",
      "outputs": [],
      "stateMutability": "nonpayable",
      "type": "function"
    },
    {
      "inputs": [
        {
          "internalType": "address",
          "name": "account",
          "type": "address"
        }
      ],
      "name": "isMinter",
      "outputs": [
        {
          "internalType": "bool",
          "name": "",
          "type": "bool"
        }
      ],
      "stateMutability": "view",
      "type": "function"
    },
    {
      "inputs": [
        {
          "internalType": "address",
          "name": "account",
          "type": "address"
        }
      ],
      "name": "isBurner",
      "outputs": [
        {
          "internalType": "bool",
          "name": "",
          "type": "bool"
        }
      ],
      "stateMutability": "view",
      "type": "function"
    },
    {
      "inputs": [
        {
          "internalType": "address",
          "name": "account",
          "type": "address"
        }
      ],
      "name": "addMinter",
      "outputs": [],
      "stateMutability": "nonpayable",
      "type": "function"
    },
    {
      "inputs": [
        {
          "internalType": "address",
          "name": "account",
          "type": "address"
        }
      ],
      "name": "addBurner",
      "outputs": [],
      "stateMutability": "nonpayable",
      "type": "function"
    },
    {
      "inputs": [
        {
          "internalType": "address",
          "name": "account",
          "type": "address"
        }
      ],
      "name": "removeMinter",
      "outputs": [],
      "stateMutability": "nonpayable",
      "type": "function"
    },
    {
      "inputs": [
        {
          "internalType": "address",
          "name": "account",
          "type": "address"
        }
      ],
      "name": "removeBurner",
      "outputs": [],
      "stateMutability": "nonpayable",
      "type": "function"
    }
  ],
  "bytecode": "0x608060405234801561001057600080fd5b50611848806100206000396000f3fe608060405234801561001057600080fd5b506004361061012c5760003560e01c806370480275116100ad578063a217fddf11610071578063a217fddf1461033d578063aa271e1a1461035b578063d53913931461038b578063d547741f146103a9578063f44637ba146103c55761012c565b8063704802751461029b57806375829def146102b757806375b238fc146102d357806391d14854146102f1578063983b2d56146103215761012c565b8063282c51f3116100f4578063282c51f3146101f95780632f2ff15d146102175780633092afd51461023357806336568abe1461024f5780634334614a1461026b5761012c565b806301ffc9a71461013157806302846858146101615780631785f53c1461017d578063248a9ca31461019957806324d7806c146101c9575b600080fd5b61014b60048036038101906101469190611198565b6103e1565b6040516101589190611378565b60405180910390f35b61017b6004803603810190610176919061110a565b61045b565b005b6101976004803603810190610192919061110a565b6104d0565b005b6101b360048036038101906101ae9190611133565b610545565b6040516101c09190611393565b60405180910390f35b6101e360048036038101906101de919061110a565b610564565b6040516101f09190611378565b60405180910390f35b610201610597565b60405161020e9190611393565b60405180910390f35b610231600480360381019061022c919061115c565b6105bb565b005b61024d6004803603810190610248919061110a565b6105e4565b005b6102696004803603810190610264919061115c565b610659565b005b6102856004803603810190610280919061110a565b6106dc565b6040516102929190611378565b60405180910390f35b6102b560048036038101906102b0919061110a565b61070f565b005b6102d160048036038101906102cc919061110a565b610784565b005b6102db610902565b6040516102e89190611393565b60405180910390f35b61030b6004803603810190610306919061115c565b610926565b6040516103189190611378565b60405180910390f35b61033b6004803603810190610336919061110a565b610990565b005b610345610a05565b6040516103529190611393565b60405180910390f35b6103756004803603810190610370919061110a565b610a0c565b6040516103829190611378565b60405180910390f35b610393610a3f565b6040516103a09190611393565b60405180910390f35b6103c360048036038101906103be919061115c565b610a63565b005b6103df60048036038101906103da919061110a565b610a8c565b005b60007f7965db0b000000000000000000000000000000000000000000000000000000007bffffffffffffffffffffffffffffffffffffffffffffffffffffffff1916827bffffffffffffffffffffffffffffffffffffffffffffffffffffffff19161480610454575061045382610b01565b5b9050919050565b61046433610564565b6104a3576040517f08c379a000000000000000000000000000000000000000000000000000000000815260040161049a906113f0565b60405180910390fd5b6104cd7f9667e80708b6eeeb0053fa0cca44e028ff548e2a9f029edfeac87c118b08b7c882610a63565b50565b6104d933610564565b610518576040517f08c379a000000000000000000000000000000000000000000000000000000000815260040161050f906113f0565b60405180910390fd5b6105427fdf8b4c520ffe197c5343c6f5aec59570151ef9a492f2c624fd45ddde6135ec4282610659565b50565b6000806000838152602001908152602001600020600101549050919050565b60006105907fdf8b4c520ffe197c5343c6f5aec59570151ef9a492f2c624fd45ddde6135ec4283610926565b9050919050565b7f9667e80708b6eeeb0053fa0cca44e028ff548e2a9f029edfeac87c118b08b7c881565b6105c482610545565b6105d5816105d0610b6b565b610b73565b6105df8383610c10565b505050565b6105ed33610564565b61062c576040517f08c379a0000000000000000000000000000000000000000000000000000000008152600401610623906113f0565b60405180910390fd5b6106567ff0887ba65ee2024ea881d91b74c2450ef19e1557f03bed3ea9f16b037cbe2dc982610a63565b50565b610661610b6b565b73ffffffffffffffffffffffffffffffffffffffff168173ffffffffffffffffffffffffffffffffffffffff16146106ce576040517f08c379a00000000000000000000000000000000000000000000000000000000081526004016106c590611450565b60405180910390fd5b6106d88282610cf0565b5050565b60006107087f9667e80708b6eeeb0053fa0cca44e028ff548e2a9f029edfeac87c118b08b7c883610926565b9050919050565b61071833610564565b610757576040517f08c379a000000000000000000000000000000000000000000000000000000000815260040161074e906113f0565b60405180910390fd5b6107817fdf8b4c520ffe197c5343c6f5aec59570151ef9a492f2c624fd45ddde6135ec42826105bb565b50565b61078d33610564565b6107cc576040517f08c379a00000000000000000000000000000000000000000000000000000000081526004016107c3906113f0565b60405180910390fd5b600073ffffffffffffffffffffffffffffffffffffffff168173ffffffffffffffffffffffffffffffffffffffff16141561083c576040517f08c379a000000000000000000000000000000000000000000000000000000000815260040161083390611410565b60405180910390fd5b8073ffffffffffffffffffffffffffffffffffffffff163373ffffffffffffffffffffffffffffffffffffffff1614156108ab576040517f08c379a00000000000000000000000000000000000000000000000000000000081526004016108a290611430565b60405180910390fd5b6108d57fdf8b4c520ffe197c5343c6f5aec59570151ef9a492f2c624fd45ddde6135ec42826105bb565b6108ff7fdf8b4c520ffe197c5343c6f5aec59570151ef9a492f2c624fd45ddde6135ec4233610659565b50565b7fdf8b4c520ffe197c5343c6f5aec59570151ef9a492f2c624fd45ddde6135ec4281565b600080600084815260200190815260200160002060000160008373ffffffffffffffffffffffffffffffffffffffff1673ffffffffffffffffffffffffffffffffffffffff16815260200190815260200160002060009054906101000a900460ff16905092915050565b61099933610564565b6109d8576040517f08c379a00000000000000000000000000000000000000000000000000000000081526004016109cf906113f0565b60405180910390fd5b610a027ff0887ba65ee2024ea881d91b74c2450ef19e1557f03bed3ea9f16b037cbe2dc9826105bb565b50565b6000801b81565b6000610a387ff0887ba65ee2024ea881d91b74c2450ef19e1557f03bed3ea9f16b037cbe2dc983610926565b9050919050565b7ff0887ba65ee2024ea881d91b74c2450ef19e1557f03bed3ea9f16b037cbe2dc981565b610a6c82610545565b610a7d81610a78610b6b565b610b73565b610a878383610cf0565b505050565b610a9533610564565b610ad4576040517f08c379a0000000000000000000000000000000000000000000000000000000008152600401610acb906113f0565b60405180910390fd5b610afe7f9667e80708b6eeeb0053fa0cca44e028ff548e2a9f029edfeac87c118b08b7c8826105bb565b50565b60007f01ffc9a7000000000000000000000000000000000000000000000000000000007bffffffffffffffffffffffffffffffffffffffffffffffffffffffff1916827bffffffffffffffffffffffffffffffffffffffffffffffffffffffff1916149050919050565b600033905090565b610b7d8282610926565b610c0c57610ba28173ffffffffffffffffffffffffffffffffffffffff166014610dd1565b610bb08360001c6020610dd1565b604051602001610bc192919061133e565b6040516020818303038152906040526040517f08c379a0000000000000000000000000000000000000000000000000000000008152600401610c0391906113ae565b60405180910390fd5b5050565b610c1a8282610926565b610cec57600160008084815260200190815260200160002060000160008373ffffffffffffffffffffffffffffffffffffffff1673ffffffffffffffffffffffffffffffffffffffff16815260200190815260200160002060006101000a81548160ff021916908315150217905550610c91610b6b565b73ffffffffffffffffffffffffffffffffffffffff168173ffffffffffffffffffffffffffffffffffffffff16837f2f8788117e7eff1d82e926ec794901d17c78024a50270940304540a733656f0d60405160405180910390a45b5050565b610cfa8282610926565b15610dcd57600080600084815260200190815260200160002060000160008373ffffffffffffffffffffffffffffffffffffffff1673ffffffffffffffffffffffffffffffffffffffff16815260200190815260200160002060006101000a81548160ff021916908315150217905550610d72610b6b565b73ffffffffffffffffffffffffffffffffffffffff168173ffffffffffffffffffffffffffffffffffffffff16837ff6391f5c32d9c69d2a47ea670b442974b53935d1edc7fd64eb21e047a839171b60405160405180910390a45b5050565b606060006002836002610de491906114ed565b610dee9190611497565b67ffffffffffffffff811115610e2d577f4e487b7100000000000000000000000000000000000000000000000000000000600052604160045260246000fd5b6040519080825280601f01601f191660200182016040528015610e5f5781602001600182028036833780820191505090505b5090507f300000000000000000000000000000000000000000000000000000000000000081600081518110610ebd577f4e487b7100000000000000000000000000000000000000000000000000000000600052603260045260246000fd5b60200101907effffffffffffffffffffffffffffffffffffffffffffffffffffffffffffff1916908160001a9053507f780000000000000000000000000000000000000000000000000000000000000081600181518110610f47577f4e487b7100000000000000000000000000000000000000000000000000000000600052603260045260246000fd5b60200101907effffffffffffffffffffffffffffffffffffffffffffffffffffffffffffff1916908160001a90535060006001846002610f8791906114ed565b610f919190611497565b90505b600181111561107d577f3031323334353637383961626364656600000000000000000000000000000000600f861660108110610ff9577f4e487b7100000000000000000000000000000000000000000000000000000000600052603260045260246000fd5b1a60f81b828281518110611036577f4e487b7100000000000000000000000000000000000000000000000000000000600052603260045260246000fd5b60200101907effffffffffffffffffffffffffffffffffffffffffffffffffffffffffffff1916908160001a905350600485901c945080611076906115f8565b9050610f94565b50600084146110c1576040517f08c379a00000000000000000000000000000000000000000000000000000000081526004016110b8906113d0565b60405180910390fd5b8091505092915050565b6000813590506110da816117cd565b92915050565b6000813590506110ef816117e4565b92915050565b600081359050611104816117fb565b92915050565b60006020828403121561111c57600080fd5b600061112a848285016110cb565b91505092915050565b60006020828403121561114557600080fd5b6000611153848285016110e0565b91505092915050565b6000806040838503121561116f57600080fd5b600061117d858286016110e0565b925050602061118e858286016110cb565b9150509250929050565b6000602082840312156111aa57600080fd5b60006111b8848285016110f5565b91505092915050565b6111ca81611559565b82525050565b6111d981611565565b82525050565b60006111ea82611470565b6111f4818561147b565b93506112048185602086016115c5565b61120d81611651565b840191505092915050565b600061122382611470565b61122d818561148c565b935061123d8185602086016115c5565b80840191505092915050565b600061125660208361147b565b915061126182611662565b602082019050919050565b600061127960228361147b565b91506112848261168b565b604082019050919050565b600061129c60188361147b565b91506112a7826116da565b602082019050919050565b60006112bf60168361147b565b91506112ca82611703565b602082019050919050565b60006112e260178361148c565b91506112ed8261172c565b601782019050919050565b600061130560118361148c565b915061131082611755565b601182019050919050565b6000611328602f8361147b565b91506113338261177e565b604082019050919050565b6000611349826112d5565b91506113558285611218565b9150611360826112f8565b915061136c8284611218565b91508190509392505050565b600060208201905061138d60008301846111c1565b92915050565b60006020820190506113a860008301846111d0565b92915050565b600060208201905081810360008301526113c881846111df565b905092915050565b600060208201905081810360008301526113e981611249565b9050919050565b600060208201905081810360008301526114098161126c565b9050919050565b600060208201905081810360008301526114298161128f565b9050919050565b60006020820190508181036000830152611449816112b2565b9050919050565b600060208201905081810360008301526114698161131b565b9050919050565b600081519050919050565b600082825260208201905092915050565b600081905092915050565b60006114a2826115bb565b91506114ad836115bb565b9250827fffffffffffffffffffffffffffffffffffffffffffffffffffffffffffffffff038211156114e2576114e1611622565b5b828201905092915050565b60006114f8826115bb565b9150611503836115bb565b9250817fffffffffffffffffffffffffffffffffffffffffffffffffffffffffffffffff048311821515161561153c5761153b611622565b5b828202905092915050565b60006115528261159b565b9050919050565b60008115159050919050565b6000819050919050565b60007fffffffff0000000000000000000000000000000000000000000000000000000082169050919050565b600073ffffffffffffffffffffffffffffffffffffffff82169050919050565b6000819050919050565b60005b838110156115e35780820151818401526020810190506115c8565b838111156115f2576000848401525b50505050565b6000611603826115bb565b9150600082141561161757611616611622565b5b600182039050919050565b7f4e487b7100000000000000000000000000000000000000000000000000000000600052601160045260246000fd5b6000601f19601f8301169050919050565b7f537472696e67733a20686578206c656e67746820696e73756666696369656e74600082015250565b7f41636365737369626c653a2043616c6c6572206973206e6f7420616e2061646d60008201527f696e000000000000000000000000000000000000000000000000000000000000602082015250565b7f41636365737369626c653a207a65726f20616464726573730000000000000000600082015250565b7f41636365737369626c653a2073616d652061646d696e00000000000000000000600082015250565b7f416363657373436f6e74726f6c3a206163636f756e7420000000000000000000600082015250565b7f206973206d697373696e6720726f6c6520000000000000000000000000000000600082015250565b7f416363657373436f6e74726f6c3a2063616e206f6e6c792072656e6f756e636560008201527f20726f6c657320666f722073656c660000000000000000000000000000000000602082015250565b6117d681611547565b81146117e157600080fd5b50565b6117ed81611565565b81146117f857600080fd5b50565b6118048161156f565b811461180f57600080fd5b5056fea264697066735822122087d7728c6f45c4d2ea77eea6fddc4ee06d999ccb9d9d99b2ce569003d6dcf4b964736f6c63430008040033",
  "immutableReferences": {},
  "source": "// SPDX-License-Identifier: MIT\npragma solidity ^0.8.4;\n\nimport \"./AccessibleCommon.sol\";\n\ncontract AccessiblePlusCommon is AccessibleCommon {\n    modifier onlyMinter() {\n        require(\n            isMinter(msg.sender),\n            \"AccessiblePlusCommon: Caller is not a minter\"\n        );\n        _;\n    }\n    modifier onlyBurner() {\n        require(\n            isBurner(msg.sender),\n            \"AccessiblePlusCommon: Caller is not a burner\"\n        );\n        _;\n    }\n\n    function isMinter(address account) public view virtual returns (bool) {\n        return hasRole(MINTER_ROLE, account);\n    }\n\n    function isBurner(address account) public view virtual returns (bool) {\n        return hasRole(BURNER_ROLE, account);\n    }\n\n    function addMinter(address account) public virtual onlyOwner {\n        grantRole(MINTER_ROLE, account);\n    }\n\n    function addBurner(address account) public virtual onlyOwner {\n        grantRole(BURNER_ROLE, account);\n    }\n\n    function removeMinter(address account) public virtual onlyOwner {\n        revokeRole(MINTER_ROLE, account);\n    }\n\n    function removeBurner(address account) public virtual onlyOwner {\n        revokeRole(BURNER_ROLE, account);\n    }\n}\n",
  "sourcePath": "/Users/zena/tonstarter/tonstarter-token-distribution/contracts/common/AccessiblePlusCommon.sol",
  "compiler": {
    "name": "solc",
    "version": "0.8.4+commit.c7e474f2.Emscripten.clang"
  },
  "schemaVersion": "3.4.4",
  "updatedAt": "2023-11-27T04:24:12.953Z",
  "devdoc": {
    "kind": "dev",
    "methods": {
      "addAdmin(address)": {
        "details": "add admin",
        "params": {
          "account": "address to add"
        }
      },
      "getRoleAdmin(bytes32)": {
        "details": "Returns the admin role that controls `role`. See {grantRole} and {revokeRole}. To change a role's admin, use {_setRoleAdmin}."
      },
      "grantRole(bytes32,address)": {
        "details": "Grants `role` to `account`. If `account` had not been already granted `role`, emits a {RoleGranted} event. Requirements: - the caller must have ``role``'s admin role."
      },
      "hasRole(bytes32,address)": {
        "details": "Returns `true` if `account` has been granted `role`."
      },
      "isAdmin(address)": {
        "details": "whether admin",
        "params": {
          "account": "address to check"
        }
      },
      "removeAdmin(address)": {
        "details": "remove admin",
        "params": {
          "account": "address to remove"
        }
      },
      "renounceRole(bytes32,address)": {
        "details": "Revokes `role` from the calling account. Roles are often managed via {grantRole} and {revokeRole}: this function's purpose is to provide a mechanism for accounts to lose their privileges if they are compromised (such as when a trusted device is misplaced). If the calling account had been granted `role`, emits a {RoleRevoked} event. Requirements: - the caller must be `account`."
      },
      "revokeRole(bytes32,address)": {
        "details": "Revokes `role` from `account`. If `account` had been granted `role`, emits a {RoleRevoked} event. Requirements: - the caller must have ``role``'s admin role."
      },
      "supportsInterface(bytes4)": {
        "details": "See {IERC165-supportsInterface}."
      },
      "transferAdmin(address)": {
        "details": "transfer admin",
        "params": {
          "newAdmin": "new admin address"
        }
      }
    },
    "version": 1
  },
  "userdoc": {
    "kind": "user",
    "methods": {},
    "version": 1
  }
}