{
  "contractName": "AccessibleCommon",
  "abi": [
    {
      "anonymous": false,
      "inputs": [
        {
          "indexed": true,
          "internalType": "bytes32",
          "name": "role",
          "type": "bytes32"
        },
        {
          "indexed": true,
          "internalType": "bytes32",
          "name": "previousAdminRole",
          "type": "bytes32"
        },
        {
          "indexed": true,
          "internalType": "bytes32",
          "name": "newAdminRole",
          "type": "bytes32"
        }
      ],
      "name": "RoleAdminChanged",
      "type": "event"
    },
    {
      "anonymous": false,
      "inputs": [
        {
          "indexed": true,
          "internalType": "bytes32",
          "name": "role",
          "type": "bytes32"
        },
        {
          "indexed": true,
          "internalType": "address",
          "name": "account",
          "type": "address"
        },
        {
          "indexed": true,
          "internalType": "address",
          "name": "sender",
          "type": "address"
        }
      ],
      "name": "RoleGranted",
      "type": "event"
    },
    {
      "anonymous": false,
      "inputs": [
        {
          "indexed": true,
          "internalType": "bytes32",
          "name": "role",
          "type": "bytes32"
        },
        {
          "indexed": true,
          "internalType": "address",
          "name": "account",
          "type": "address"
        },
        {
          "indexed": true,
          "internalType": "address",
          "name": "sender",
          "type": "address"
        }
      ],
      "name": "RoleRevoked",
      "type": "event"
    },
    {
      "inputs": [],
      "name": "ADMIN_ROLE",
      "outputs": [
        {
          "internalType": "bytes32",
          "name": "",
          "type": "bytes32"
        }
      ],
      "stateMutability": "view",
      "type": "function"
    },
    {
      "inputs": [],
      "name": "BURNER_ROLE",
      "outputs": [
        {
          "internalType": "bytes32",
          "name": "",
          "type": "bytes32"
        }
      ],
      "stateMutability": "view",
      "type": "function"
    },
    {
      "inputs": [],
      "name": "DEFAULT_ADMIN_ROLE",
      "outputs": [
        {
          "internalType": "bytes32",
          "name": "",
          "type": "bytes32"
        }
      ],
      "stateMutability": "view",
      "type": "function"
    },
    {
      "inputs": [],
      "name": "MINTER_ROLE",
      "outputs": [
        {
          "internalType": "bytes32",
          "name": "",
          "type": "bytes32"
        }
      ],
      "stateMutability": "view",
      "type": "function"
    },
    {
      "inputs": [
        {
          "internalType": "bytes32",
          "name": "role",
          "type": "bytes32"
        }
      ],
      "name": "getRoleAdmin",
      "outputs": [
        {
          "internalType": "bytes32",
          "name": "",
          "type": "bytes32"
        }
      ],
      "stateMutability": "view",
      "type": "function"
    },
    {
      "inputs": [
        {
          "internalType": "bytes32",
          "name": "role",
          "type": "bytes32"
        },
        {
          "internalType": "address",
          "name": "account",
          "type": "address"
        }
      ],
      "name": "grantRole",
      "outputs": [],
      "stateMutability": "nonpayable",
      "type": "function"
    },
    {
      "inputs": [
        {
          "internalType": "bytes32",
          "name": "role",
          "type": "bytes32"
        },
        {
          "internalType": "address",
          "name": "account",
          "type": "address"
        }
      ],
      "name": "hasRole",
      "outputs": [
        {
          "internalType": "bool",
          "name": "",
          "type": "bool"
        }
      ],
      "stateMutability": "view",
      "type": "function"
    },
    {
      "inputs": [
        {
          "internalType": "bytes32",
          "name": "role",
          "type": "bytes32"
        },
        {
          "internalType": "address",
          "name": "account",
          "type": "address"
        }
      ],
      "name": "renounceRole",
      "outputs": [],
      "stateMutability": "nonpayable",
      "type": "function"
    },
    {
      "inputs": [
        {
          "internalType": "bytes32",
          "name": "role",
          "type": "bytes32"
        },
        {
          "internalType": "address",
          "name": "account",
          "type": "address"
        }
      ],
      "name": "revokeRole",
      "outputs": [],
      "stateMutability": "nonpayable",
      "type": "function"
    },
    {
      "inputs": [
        {
          "internalType": "bytes4",
          "name": "interfaceId",
          "type": "bytes4"
        }
      ],
      "name": "supportsInterface",
      "outputs": [
        {
          "internalType": "bool",
          "name": "",
          "type": "bool"
        }
      ],
      "stateMutability": "view",
      "type": "function"
    },
    {
      "inputs": [
        {
          "internalType": "address",
          "name": "account",
          "type": "address"
        }
      ],
      "name": "addAdmin",
      "outputs": [],
      "stateMutability": "nonpayable",
      "type": "function"
    },
    {
      "inputs": [
        {
          "internalType": "address",
          "name": "account",
          "type": "address"
        }
      ],
      "name": "removeAdmin",
      "outputs": [],
      "stateMutability": "nonpayable",
      "type": "function"
    },
    {
      "inputs": [
        {
          "internalType": "address",
          "name": "newAdmin",
          "type": "address"
        }
      ],
      "name": "transferAdmin",
      "outputs": [],
      "stateMutability": "nonpayable",
      "type": "function"
    },
    {
      "inputs": [
        {
          "internalType": "address",
          "name": "account",
          "type": "address"
        }
      ],
      "name": "isAdmin",
      "outputs": [
        {
          "internalType": "bool",
          "name": "",
          "type": "bool"
        }
      ],
      "stateMutability": "view",
      "type": "function"
    }
  ],
  "bytecode": "0x608060405234801561001057600080fd5b506114fc806100206000396000f3fe608060405234801561001057600080fd5b50600436106100ea5760003560e01c8063704802751161008c57806391d148541161006657806391d1485414610247578063a217fddf14610277578063d539139314610295578063d547741f146102b3576100ea565b806370480275146101f157806375829def1461020d57806375b238fc14610229576100ea565b806324d7806c116100c857806324d7806c1461016b578063282c51f31461019b5780632f2ff15d146101b957806336568abe146101d5576100ea565b806301ffc9a7146100ef5780631785f53c1461011f578063248a9ca31461013b575b600080fd5b61010960048036038101906101049190610e4c565b6102cf565b604051610116919061102c565b60405180910390f35b61013960048036038101906101349190610dbe565b610349565b005b61015560048036038101906101509190610de7565b6103be565b6040516101629190611047565b60405180910390f35b61018560048036038101906101809190610dbe565b6103dd565b604051610192919061102c565b60405180910390f35b6101a3610410565b6040516101b09190611047565b60405180910390f35b6101d360048036038101906101ce9190610e10565b610434565b005b6101ef60048036038101906101ea9190610e10565b61045d565b005b61020b60048036038101906102069190610dbe565b6104e0565b005b61022760048036038101906102229190610dbe565b610555565b005b6102316106d3565b60405161023e9190611047565b60405180910390f35b610261600480360381019061025c9190610e10565b6106f7565b60405161026e919061102c565b60405180910390f35b61027f610761565b60405161028c9190611047565b60405180910390f35b61029d610768565b6040516102aa9190611047565b60405180910390f35b6102cd60048036038101906102c89190610e10565b61078c565b005b60007f7965db0b000000000000000000000000000000000000000000000000000000007bffffffffffffffffffffffffffffffffffffffffffffffffffffffff1916827bffffffffffffffffffffffffffffffffffffffffffffffffffffffff191614806103425750610341826107b5565b5b9050919050565b610352336103dd565b610391576040517f08c379a0000000000000000000000000000000000000000000000000000000008152600401610388906110a4565b60405180910390fd5b6103bb7fdf8b4c520ffe197c5343c6f5aec59570151ef9a492f2c624fd45ddde6135ec428261045d565b50565b6000806000838152602001908152602001600020600101549050919050565b60006104097fdf8b4c520ffe197c5343c6f5aec59570151ef9a492f2c624fd45ddde6135ec42836106f7565b9050919050565b7f9667e80708b6eeeb0053fa0cca44e028ff548e2a9f029edfeac87c118b08b7c881565b61043d826103be565b61044e8161044961081f565b610827565b61045883836108c4565b505050565b61046561081f565b73ffffffffffffffffffffffffffffffffffffffff168173ffffffffffffffffffffffffffffffffffffffff16146104d2576040517f08c379a00000000000000000000000000000000000000000000000000000000081526004016104c990611104565b60405180910390fd5b6104dc82826109a4565b5050565b6104e9336103dd565b610528576040517f08c379a000000000000000000000000000000000000000000000000000000000815260040161051f906110a4565b60405180910390fd5b6105527fdf8b4c520ffe197c5343c6f5aec59570151ef9a492f2c624fd45ddde6135ec4282610434565b50565b61055e336103dd565b61059d576040517f08c379a0000000000000000000000000000000000000000000000000000000008152600401610594906110a4565b60405180910390fd5b600073ffffffffffffffffffffffffffffffffffffffff168173ffffffffffffffffffffffffffffffffffffffff16141561060d576040517f08c379a0000000000000000000000000000000000000000000000000000000008152600401610604906110c4565b60405180910390fd5b8073ffffffffffffffffffffffffffffffffffffffff163373ffffffffffffffffffffffffffffffffffffffff16141561067c576040517f08c379a0000000000000000000000000000000000000000000000000000000008152600401610673906110e4565b60405180910390fd5b6106a67fdf8b4c520ffe197c5343c6f5aec59570151ef9a492f2c624fd45ddde6135ec4282610434565b6106d07fdf8b4c520ffe197c5343c6f5aec59570151ef9a492f2c624fd45ddde6135ec423361045d565b50565b7fdf8b4c520ffe197c5343c6f5aec59570151ef9a492f2c624fd45ddde6135ec4281565b600080600084815260200190815260200160002060000160008373ffffffffffffffffffffffffffffffffffffffff1673ffffffffffffffffffffffffffffffffffffffff16815260200190815260200160002060009054906101000a900460ff16905092915050565b6000801b81565b7ff0887ba65ee2024ea881d91b74c2450ef19e1557f03bed3ea9f16b037cbe2dc981565b610795826103be565b6107a6816107a161081f565b610827565b6107b083836109a4565b505050565b60007f01ffc9a7000000000000000000000000000000000000000000000000000000007bffffffffffffffffffffffffffffffffffffffffffffffffffffffff1916827bffffffffffffffffffffffffffffffffffffffffffffffffffffffff1916149050919050565b600033905090565b61083182826106f7565b6108c0576108568173ffffffffffffffffffffffffffffffffffffffff166014610a85565b6108648360001c6020610a85565b604051602001610875929190610ff2565b6040516020818303038152906040526040517f08c379a00000000000000000000000000000000000000000000000000000000081526004016108b79190611062565b60405180910390fd5b5050565b6108ce82826106f7565b6109a057600160008084815260200190815260200160002060000160008373ffffffffffffffffffffffffffffffffffffffff1673ffffffffffffffffffffffffffffffffffffffff16815260200190815260200160002060006101000a81548160ff02191690831515021790555061094561081f565b73ffffffffffffffffffffffffffffffffffffffff168173ffffffffffffffffffffffffffffffffffffffff16837f2f8788117e7eff1d82e926ec794901d17c78024a50270940304540a733656f0d60405160405180910390a45b5050565b6109ae82826106f7565b15610a8157600080600084815260200190815260200160002060000160008373ffffffffffffffffffffffffffffffffffffffff1673ffffffffffffffffffffffffffffffffffffffff16815260200190815260200160002060006101000a81548160ff021916908315150217905550610a2661081f565b73ffffffffffffffffffffffffffffffffffffffff168173ffffffffffffffffffffffffffffffffffffffff16837ff6391f5c32d9c69d2a47ea670b442974b53935d1edc7fd64eb21e047a839171b60405160405180910390a45b5050565b606060006002836002610a9891906111a1565b610aa2919061114b565b67ffffffffffffffff811115610ae1577f4e487b7100000000000000000000000000000000000000000000000000000000600052604160045260246000fd5b6040519080825280601f01601f191660200182016040528015610b135781602001600182028036833780820191505090505b5090507f300000000000000000000000000000000000000000000000000000000000000081600081518110610b71577f4e487b7100000000000000000000000000000000000000000000000000000000600052603260045260246000fd5b60200101907effffffffffffffffffffffffffffffffffffffffffffffffffffffffffffff1916908160001a9053507f780000000000000000000000000000000000000000000000000000000000000081600181518110610bfb577f4e487b7100000000000000000000000000000000000000000000000000000000600052603260045260246000fd5b60200101907effffffffffffffffffffffffffffffffffffffffffffffffffffffffffffff1916908160001a90535060006001846002610c3b91906111a1565b610c45919061114b565b90505b6001811115610d31577f3031323334353637383961626364656600000000000000000000000000000000600f861660108110610cad577f4e487b7100000000000000000000000000000000000000000000000000000000600052603260045260246000fd5b1a60f81b828281518110610cea577f4e487b7100000000000000000000000000000000000000000000000000000000600052603260045260246000fd5b60200101907effffffffffffffffffffffffffffffffffffffffffffffffffffffffffffff1916908160001a905350600485901c945080610d2a906112ac565b9050610c48565b5060008414610d75576040517f08c379a0000000000000000000000000000000000000000000000000000000008152600401610d6c90611084565b60405180910390fd5b8091505092915050565b600081359050610d8e81611481565b92915050565b600081359050610da381611498565b92915050565b600081359050610db8816114af565b92915050565b600060208284031215610dd057600080fd5b6000610dde84828501610d7f565b91505092915050565b600060208284031215610df957600080fd5b6000610e0784828501610d94565b91505092915050565b60008060408385031215610e2357600080fd5b6000610e3185828601610d94565b9250506020610e4285828601610d7f565b9150509250929050565b600060208284031215610e5e57600080fd5b6000610e6c84828501610da9565b91505092915050565b610e7e8161120d565b82525050565b610e8d81611219565b82525050565b6000610e9e82611124565b610ea8818561112f565b9350610eb8818560208601611279565b610ec181611305565b840191505092915050565b6000610ed782611124565b610ee18185611140565b9350610ef1818560208601611279565b80840191505092915050565b6000610f0a60208361112f565b9150610f1582611316565b602082019050919050565b6000610f2d60228361112f565b9150610f388261133f565b604082019050919050565b6000610f5060188361112f565b9150610f5b8261138e565b602082019050919050565b6000610f7360168361112f565b9150610f7e826113b7565b602082019050919050565b6000610f96601783611140565b9150610fa1826113e0565b601782019050919050565b6000610fb9601183611140565b9150610fc482611409565b601182019050919050565b6000610fdc602f8361112f565b9150610fe782611432565b604082019050919050565b6000610ffd82610f89565b91506110098285610ecc565b915061101482610fac565b91506110208284610ecc565b91508190509392505050565b60006020820190506110416000830184610e75565b92915050565b600060208201905061105c6000830184610e84565b92915050565b6000602082019050818103600083015261107c8184610e93565b905092915050565b6000602082019050818103600083015261109d81610efd565b9050919050565b600060208201905081810360008301526110bd81610f20565b9050919050565b600060208201905081810360008301526110dd81610f43565b9050919050565b600060208201905081810360008301526110fd81610f66565b9050919050565b6000602082019050818103600083015261111d81610fcf565b9050919050565b600081519050919050565b600082825260208201905092915050565b600081905092915050565b60006111568261126f565b91506111618361126f565b9250827fffffffffffffffffffffffffffffffffffffffffffffffffffffffffffffffff03821115611196576111956112d6565b5b828201905092915050565b60006111ac8261126f565b91506111b78361126f565b9250817fffffffffffffffffffffffffffffffffffffffffffffffffffffffffffffffff04831182151516156111f0576111ef6112d6565b5b828202905092915050565b60006112068261124f565b9050919050565b60008115159050919050565b6000819050919050565b60007fffffffff0000000000000000000000000000000000000000000000000000000082169050919050565b600073ffffffffffffffffffffffffffffffffffffffff82169050919050565b6000819050919050565b60005b8381101561129757808201518184015260208101905061127c565b838111156112a6576000848401525b50505050565b60006112b78261126f565b915060008214156112cb576112ca6112d6565b5b600182039050919050565b7f4e487b7100000000000000000000000000000000000000000000000000000000600052601160045260246000fd5b6000601f19601f8301169050919050565b7f537472696e67733a20686578206c656e67746820696e73756666696369656e74600082015250565b7f41636365737369626c653a2043616c6c6572206973206e6f7420616e2061646d60008201527f696e000000000000000000000000000000000000000000000000000000000000602082015250565b7f41636365737369626c653a207a65726f20616464726573730000000000000000600082015250565b7f41636365737369626c653a2073616d652061646d696e00000000000000000000600082015250565b7f416363657373436f6e74726f6c3a206163636f756e7420000000000000000000600082015250565b7f206973206d697373696e6720726f6c6520000000000000000000000000000000600082015250565b7f416363657373436f6e74726f6c3a2063616e206f6e6c792072656e6f756e636560008201527f20726f6c657320666f722073656c660000000000000000000000000000000000602082015250565b61148a816111fb565b811461149557600080fd5b50565b6114a181611219565b81146114ac57600080fd5b50565b6114b881611223565b81146114c357600080fd5b5056fea26469706673582212207faebb1c7378dede1fbba29a1ea2ca9cc4981711ff8603effe2fef89a79541a864736f6c63430008040033",
  "immutableReferences": {},
  "source": "// SPDX-License-Identifier: MIT\npragma solidity ^0.8.4;\nimport \"@openzeppelin/contracts/access/AccessControl.sol\";\nimport \"./AccessRoleCommon.sol\";\n\ncontract AccessibleCommon is AccessRoleCommon, AccessControl {\n    modifier onlyOwner() {\n        require(isAdmin(msg.sender), \"Accessible: Caller is not an admin\");\n        _;\n    }\n\n    /// @dev add admin\n    /// @param account  address to add\n    function addAdmin(address account) public virtual onlyOwner {\n        grantRole(ADMIN_ROLE, account);\n    }\n\n    /// @dev remove admin\n    /// @param account  address to remove\n    function removeAdmin(address account) public virtual onlyOwner {\n        renounceRole(ADMIN_ROLE, account);\n    }\n\n    /// @dev transfer admin\n    /// @param newAdmin new admin address\n    function transferAdmin(address newAdmin) external virtual onlyOwner {\n        require(newAdmin != address(0), \"Accessible: zero address\");\n        require(msg.sender != newAdmin, \"Accessible: same admin\");\n\n        grantRole(ADMIN_ROLE, newAdmin);\n        renounceRole(ADMIN_ROLE, msg.sender);\n    }\n\n    /// @dev whether admin\n    /// @param account  address to check\n    function isAdmin(address account) public view virtual returns (bool) {\n        return hasRole(ADMIN_ROLE, account);\n    }\n}\n",
  "sourcePath": "/Users/zena/tonstarter/tonstarter-token-distribution/contracts/common/AccessibleCommon.sol",
  "compiler": {
    "name": "solc",
    "version": "0.8.4+commit.c7e474f2.Emscripten.clang"
  },
  "schemaVersion": "3.4.4",
  "updatedAt": "2023-11-27T04:24:12.948Z",
  "devdoc": {
    "kind": "dev",
    "methods": {
      "addAdmin(address)": {
        "details": "add admin",
        "params": {
          "account": "address to add"
        }
      },
      "getRoleAdmin(bytes32)": {
        "details": "Returns the admin role that controls `role`. See {grantRole} and {revokeRole}. To change a role's admin, use {_setRoleAdmin}."
      },
      "grantRole(bytes32,address)": {
        "details": "Grants `role` to `account`. If `account` had not been already granted `role`, emits a {RoleGranted} event. Requirements: - the caller must have ``role``'s admin role."
      },
      "hasRole(bytes32,address)": {
        "details": "Returns `true` if `account` has been granted `role`."
      },
      "isAdmin(address)": {
        "details": "whether admin",
        "params": {
          "account": "address to check"
        }
      },
      "removeAdmin(address)": {
        "details": "remove admin",
        "params": {
          "account": "address to remove"
        }
      },
      "renounceRole(bytes32,address)": {
        "details": "Revokes `role` from the calling account. Roles are often managed via {grantRole} and {revokeRole}: this function's purpose is to provide a mechanism for accounts to lose their privileges if they are compromised (such as when a trusted device is misplaced). If the calling account had been granted `role`, emits a {RoleRevoked} event. Requirements: - the caller must be `account`."
      },
      "revokeRole(bytes32,address)": {
        "details": "Revokes `role` from `account`. If `account` had been granted `role`, emits a {RoleRevoked} event. Requirements: - the caller must have ``role``'s admin role."
      },
      "supportsInterface(bytes4)": {
        "details": "See {IERC165-supportsInterface}."
      },
      "transferAdmin(address)": {
        "details": "transfer admin",
        "params": {
          "newAdmin": "new admin address"
        }
      }
    },
    "version": 1
  },
  "userdoc": {
    "kind": "user",
    "methods": {},
    "version": 1
  }
}