{
  "contractName": "BaseVault",
  "abi": [
    {
      "anonymous": false,
      "inputs": [
        {
          "indexed": false,
          "internalType": "uint256",
          "name": "round",
          "type": "uint256"
        },
        {
          "indexed": false,
          "internalType": "address[]",
          "name": "users",
          "type": "address[]"
        }
      ],
      "name": "AddedWhitelist",
      "type": "event"
    },
    {
      "anonymous": false,
      "inputs": [
        {
          "indexed": false,
          "internalType": "uint256",
          "name": "round",
          "type": "uint256"
        },
        {
          "indexed": false,
          "internalType": "uint256",
          "name": "amount",
          "type": "uint256"
        }
      ],
      "name": "AllocatedAmount",
      "type": "event"
    },
    {
      "anonymous": false,
      "inputs": [
        {
          "indexed": true,
          "internalType": "address",
          "name": "caller",
          "type": "address"
        },
        {
          "indexed": false,
          "internalType": "uint256",
          "name": "amount",
          "type": "uint256"
        },
        {
          "indexed": false,
          "internalType": "uint256",
          "name": "totalClaimedAmount",
          "type": "uint256"
        }
      ],
      "name": "Claimed",
      "type": "event"
    },
    {
      "anonymous": false,
      "inputs": [
        {
          "indexed": true,
          "internalType": "bytes32",
          "name": "role",
          "type": "bytes32"
        },
        {
          "indexed": true,
          "internalType": "bytes32",
          "name": "previousAdminRole",
          "type": "bytes32"
        },
        {
          "indexed": true,
          "internalType": "bytes32",
          "name": "newAdminRole",
          "type": "bytes32"
        }
      ],
      "name": "RoleAdminChanged",
      "type": "event"
    },
    {
      "anonymous": false,
      "inputs": [
        {
          "indexed": true,
          "internalType": "bytes32",
          "name": "role",
          "type": "bytes32"
        },
        {
          "indexed": true,
          "internalType": "address",
          "name": "account",
          "type": "address"
        },
        {
          "indexed": true,
          "internalType": "address",
          "name": "sender",
          "type": "address"
        }
      ],
      "name": "RoleGranted",
      "type": "event"
    },
    {
      "anonymous": false,
      "inputs": [
        {
          "indexed": true,
          "internalType": "bytes32",
          "name": "role",
          "type": "bytes32"
        },
        {
          "indexed": true,
          "internalType": "address",
          "name": "account",
          "type": "address"
        },
        {
          "indexed": true,
          "internalType": "address",
          "name": "sender",
          "type": "address"
        }
      ],
      "name": "RoleRevoked",
      "type": "event"
    },
    {
      "anonymous": false,
      "inputs": [
        {
          "indexed": false,
          "internalType": "address",
          "name": "newClaimer",
          "type": "address"
        }
      ],
      "name": "SetNewClaimer",
      "type": "event"
    },
    {
      "anonymous": false,
      "inputs": [],
      "name": "Started",
      "type": "event"
    },
    {
      "anonymous": false,
      "inputs": [
        {
          "indexed": false,
          "internalType": "uint256",
          "name": "round",
          "type": "uint256"
        }
      ],
      "name": "StartedRound",
      "type": "event"
    },
    {
      "anonymous": false,
      "inputs": [
        {
          "indexed": true,
          "internalType": "address",
          "name": "caller",
          "type": "address"
        },
        {
          "indexed": false,
          "internalType": "uint256",
          "name": "amount",
          "type": "uint256"
        }
      ],
      "name": "Withdrawal",
      "type": "event"
    },
    {
      "inputs": [],
      "name": "ADMIN_ROLE",
      "outputs": [
        {
          "internalType": "bytes32",
          "name": "",
          "type": "bytes32"
        }
      ],
      "stateMutability": "view",
      "type": "function"
    },
    {
      "inputs": [],
      "name": "BURNER_ROLE",
      "outputs": [
        {
          "internalType": "bytes32",
          "name": "",
          "type": "bytes32"
        }
      ],
      "stateMutability": "view",
      "type": "function"
    },
    {
      "inputs": [],
      "name": "DEFAULT_ADMIN_ROLE",
      "outputs": [
        {
          "internalType": "bytes32",
          "name": "",
          "type": "bytes32"
        }
      ],
      "stateMutability": "view",
      "type": "function"
    },
    {
      "inputs": [],
      "name": "MINTER_ROLE",
      "outputs": [
        {
          "internalType": "bytes32",
          "name": "",
          "type": "bytes32"
        }
      ],
      "stateMutability": "view",
      "type": "function"
    },
    {
      "inputs": [
        {
          "internalType": "address",
          "name": "account",
          "type": "address"
        }
      ],
      "name": "addAdmin",
      "outputs": [],
      "stateMutability": "nonpayable",
      "type": "function"
    },
    {
      "inputs": [],
      "name": "endTime",
      "outputs": [
        {
          "internalType": "uint256",
          "name": "",
          "type": "uint256"
        }
      ],
      "stateMutability": "view",
      "type": "function"
    },
    {
      "inputs": [
        {
          "internalType": "bytes32",
          "name": "role",
          "type": "bytes32"
        }
      ],
      "name": "getRoleAdmin",
      "outputs": [
        {
          "internalType": "bytes32",
          "name": "",
          "type": "bytes32"
        }
      ],
      "stateMutability": "view",
      "type": "function"
    },
    {
      "inputs": [
        {
          "internalType": "bytes32",
          "name": "role",
          "type": "bytes32"
        },
        {
          "internalType": "address",
          "name": "account",
          "type": "address"
        }
      ],
      "name": "grantRole",
      "outputs": [],
      "stateMutability": "nonpayable",
      "type": "function"
    },
    {
      "inputs": [
        {
          "internalType": "bytes32",
          "name": "role",
          "type": "bytes32"
        },
        {
          "internalType": "address",
          "name": "account",
          "type": "address"
        }
      ],
      "name": "hasRole",
      "outputs": [
        {
          "internalType": "bool",
          "name": "",
          "type": "bool"
        }
      ],
      "stateMutability": "view",
      "type": "function"
    },
    {
      "inputs": [
        {
          "internalType": "address",
          "name": "account",
          "type": "address"
        }
      ],
      "name": "isAdmin",
      "outputs": [
        {
          "internalType": "bool",
          "name": "",
          "type": "bool"
        }
      ],
      "stateMutability": "view",
      "type": "function"
    },
    {
      "inputs": [],
      "name": "maxInputOnceTime",
      "outputs": [
        {
          "internalType": "uint256",
          "name": "",
          "type": "uint256"
        }
      ],
      "stateMutability": "view",
      "type": "function"
    },
    {
      "inputs": [],
      "name": "name",
      "outputs": [
        {
          "internalType": "string",
          "name": "",
          "type": "string"
        }
      ],
      "stateMutability": "view",
      "type": "function"
    },
    {
      "inputs": [],
      "name": "periodTimesPerClaim",
      "outputs": [
        {
          "internalType": "uint256",
          "name": "",
          "type": "uint256"
        }
      ],
      "stateMutability": "view",
      "type": "function"
    },
    {
      "inputs": [
        {
          "internalType": "address",
          "name": "account",
          "type": "address"
        }
      ],
      "name": "removeAdmin",
      "outputs": [],
      "stateMutability": "nonpayable",
      "type": "function"
    },
    {
      "inputs": [
        {
          "internalType": "bytes32",
          "name": "role",
          "type": "bytes32"
        },
        {
          "internalType": "address",
          "name": "account",
          "type": "address"
        }
      ],
      "name": "renounceRole",
      "outputs": [],
      "stateMutability": "nonpayable",
      "type": "function"
    },
    {
      "inputs": [
        {
          "internalType": "bytes32",
          "name": "role",
          "type": "bytes32"
        },
        {
          "internalType": "address",
          "name": "account",
          "type": "address"
        }
      ],
      "name": "revokeRole",
      "outputs": [],
      "stateMutability": "nonpayable",
      "type": "function"
    },
    {
      "inputs": [],
      "name": "startTime",
      "outputs": [
        {
          "internalType": "uint256",
          "name": "",
          "type": "uint256"
        }
      ],
      "stateMutability": "view",
      "type": "function"
    },
    {
      "inputs": [
        {
          "internalType": "bytes4",
          "name": "interfaceId",
          "type": "bytes4"
        }
      ],
      "name": "supportsInterface",
      "outputs": [
        {
          "internalType": "bool",
          "name": "",
          "type": "bool"
        }
      ],
      "stateMutability": "view",
      "type": "function"
    },
    {
      "inputs": [
        {
          "internalType": "uint256",
          "name": "",
          "type": "uint256"
        }
      ],
      "name": "tgeInfos",
      "outputs": [
        {
          "internalType": "bool",
          "name": "allocated",
          "type": "bool"
        },
        {
          "internalType": "bool",
          "name": "started",
          "type": "bool"
        },
        {
          "internalType": "uint256",
          "name": "allocatedAmount",
          "type": "uint256"
        },
        {
          "internalType": "uint256",
          "name": "claimedCount",
          "type": "uint256"
        },
        {
          "internalType": "uint256",
          "name": "amount",
          "type": "uint256"
        }
      ],
      "stateMutability": "view",
      "type": "function"
    },
    {
      "inputs": [],
      "name": "tos",
      "outputs": [
        {
          "internalType": "address",
          "name": "",
          "type": "address"
        }
      ],
      "stateMutability": "view",
      "type": "function"
    },
    {
      "inputs": [],
      "name": "totalAllocatedAmount",
      "outputs": [
        {
          "internalType": "uint256",
          "name": "",
          "type": "uint256"
        }
      ],
      "stateMutability": "view",
      "type": "function"
    },
    {
      "inputs": [],
      "name": "totalClaimedAmount",
      "outputs": [
        {
          "internalType": "uint256",
          "name": "",
          "type": "uint256"
        }
      ],
      "stateMutability": "view",
      "type": "function"
    },
    {
      "inputs": [],
      "name": "totalClaims",
      "outputs": [
        {
          "internalType": "uint256",
          "name": "",
          "type": "uint256"
        }
      ],
      "stateMutability": "view",
      "type": "function"
    },
    {
      "inputs": [],
      "name": "totalTgeAmount",
      "outputs": [
        {
          "internalType": "uint256",
          "name": "",
          "type": "uint256"
        }
      ],
      "stateMutability": "view",
      "type": "function"
    },
    {
      "inputs": [],
      "name": "totalTgeCount",
      "outputs": [
        {
          "internalType": "uint256",
          "name": "",
          "type": "uint256"
        }
      ],
      "stateMutability": "view",
      "type": "function"
    },
    {
      "inputs": [
        {
          "internalType": "address",
          "name": "newAdmin",
          "type": "address"
        }
      ],
      "name": "transferAdmin",
      "outputs": [],
      "stateMutability": "nonpayable",
      "type": "function"
    },
    {
      "inputs": [
        {
          "internalType": "address",
          "name": "",
          "type": "address"
        }
      ],
      "name": "userClaimedAmount",
      "outputs": [
        {
          "internalType": "uint256",
          "name": "",
          "type": "uint256"
        }
      ],
      "stateMutability": "view",
      "type": "function"
    },
    {
      "stateMutability": "payable",
      "type": "receive"
    },
    {
      "inputs": [
        {
          "internalType": "uint256",
          "name": "_totalAllocatedAmount",
          "type": "uint256"
        },
        {
          "internalType": "uint256",
          "name": "_totalClaims",
          "type": "uint256"
        },
        {
          "internalType": "uint256",
          "name": "_totalTgeCount",
          "type": "uint256"
        },
        {
          "internalType": "uint256",
          "name": "_startTime",
          "type": "uint256"
        },
        {
          "internalType": "uint256",
          "name": "_periodTimesPerClaim",
          "type": "uint256"
        }
      ],
      "name": "initializeBase",
      "outputs": [],
      "stateMutability": "nonpayable",
      "type": "function"
    },
    {
      "inputs": [
        {
          "internalType": "uint256",
          "name": "_maxInputOnceTime",
          "type": "uint256"
        }
      ],
      "name": "setMaxInputOnceTimeWhitelist",
      "outputs": [],
      "stateMutability": "nonpayable",
      "type": "function"
    },
    {
      "inputs": [
        {
          "internalType": "uint256",
          "name": "round",
          "type": "uint256"
        },
        {
          "internalType": "address[]",
          "name": "users",
          "type": "address[]"
        }
      ],
      "name": "addWhitelist",
      "outputs": [],
      "stateMutability": "nonpayable",
      "type": "function"
    },
    {
      "inputs": [],
      "name": "currentRound",
      "outputs": [
        {
          "internalType": "uint256",
          "name": "round",
          "type": "uint256"
        }
      ],
      "stateMutability": "view",
      "type": "function"
    },
    {
      "inputs": [],
      "name": "availableWithdrawAmount",
      "outputs": [
        {
          "internalType": "uint256",
          "name": "amount",
          "type": "uint256"
        }
      ],
      "stateMutability": "view",
      "type": "function"
    },
    {
      "inputs": [
        {
          "internalType": "address",
          "name": "to",
          "type": "address"
        }
      ],
      "name": "withdraw",
      "outputs": [],
      "stateMutability": "nonpayable",
      "type": "function"
    },
    {
      "inputs": [
        {
          "internalType": "uint256",
          "name": "round",
          "type": "uint256"
        }
      ],
      "name": "getTgeInfos",
      "outputs": [
        {
          "internalType": "bool",
          "name": "allocated",
          "type": "bool"
        },
        {
          "internalType": "bool",
          "name": "started",
          "type": "bool"
        },
        {
          "internalType": "uint256",
          "name": "allocatedAmount",
          "type": "uint256"
        },
        {
          "internalType": "uint256",
          "name": "claimedCount",
          "type": "uint256"
        },
        {
          "internalType": "uint256",
          "name": "amount",
          "type": "uint256"
        },
        {
          "internalType": "address[]",
          "name": "whitelist",
          "type": "address[]"
        }
      ],
      "stateMutability": "view",
      "type": "function"
    },
    {
      "inputs": [
        {
          "internalType": "uint256",
          "name": "round",
          "type": "uint256"
        },
        {
          "internalType": "address",
          "name": "user",
          "type": "address"
        }
      ],
      "name": "getWhitelistInfo",
      "outputs": [
        {
          "internalType": "bool",
          "name": "joined",
          "type": "bool"
        },
        {
          "internalType": "uint256",
          "name": "claimedTime",
          "type": "uint256"
        }
      ],
      "stateMutability": "view",
      "type": "function"
    },
    {
      "inputs": [
        {
          "internalType": "uint256",
          "name": "round",
          "type": "uint256"
        }
      ],
      "name": "totalWhitelist",
      "outputs": [
        {
          "internalType": "uint256",
          "name": "total",
          "type": "uint256"
        }
      ],
      "stateMutability": "view",
      "type": "function"
    }
  ],
  "bytecode": "0x608060405234801561001057600080fd5b50613836806100206000396000f3fe6080604052600436106102135760003560e01c806370480275116101185780638aa1e44e116100a0578063ab4eb57e1161006f578063ab4eb57e14610816578063cb1b782f1461083f578063d53913931461087d578063d547741f146108a8578063d9934719146108d157610253565b80638aa1e44e1461075a57806391d14854146107835780639661cb0d146107c0578063a217fddf146107eb57610253565b806378e97925116100e757806378e9792514610685578063814f26fc146106b0578063875d741d146106db57806389f395de146107045780638a19c8bc1461072f57610253565b806370480275146105cb578063717048ec146105f457806375829def1461063157806375b238fc1461065a57610253565b80633197cbb61161019b578063517da7191161016a578063517da719146104df57806351cff8d914610521578063556400081461054a5780635913ec191461057557806361202e3b146105a057610253565b80633197cbb61461043557806336568abe146104605780633ef1a1aa1461048957806341c61383146104b457610253565b8063248a9ca3116101e2578063248a9ca31461032a57806324d7806c14610367578063282c51f3146103a45780632f2ff15d146103cf5780632f926723146103f857610253565b806301ffc9a71461025857806306fdde0314610295578063166cf32c146102c05780631785f53c1461030157610253565b36610253576040517f08c379a000000000000000000000000000000000000000000000000000000000815260040161024a90612efa565b60405180910390fd5b600080fd5b34801561026457600080fd5b5061027f600480360381019061027a9190612639565b6108fc565b60405161028c9190612c5e565b60405180910390f35b3480156102a157600080fd5b506102aa610976565b6040516102b79190612d78565b60405180910390f35b3480156102cc57600080fd5b506102e760048036038101906102e29190612662565b610a04565b6040516102f8959493929190612c79565b60405180910390f35b34801561030d57600080fd5b5061032860048036038101906103239190612582565b610a54565b005b34801561033657600080fd5b50610351600480360381019061034c91906125d4565b610ac9565b60405161035e9190612d5d565b60405180910390f35b34801561037357600080fd5b5061038e60048036038101906103899190612582565b610ae9565b60405161039b9190612c5e565b60405180910390f35b3480156103b057600080fd5b506103b9610b1c565b6040516103c69190612d5d565b60405180910390f35b3480156103db57600080fd5b506103f660048036038101906103f191906125fd565b610b40565b005b34801561040457600080fd5b5061041f600480360381019061041a9190612582565b610b69565b60405161042c9190612fba565b60405180910390f35b34801561044157600080fd5b5061044a610b81565b6040516104579190612fba565b60405180910390f35b34801561046c57600080fd5b50610487600480360381019061048291906125fd565b610b87565b005b34801561049557600080fd5b5061049e610c0a565b6040516104ab9190612fba565b60405180910390f35b3480156104c057600080fd5b506104c9610c10565b6040516104d69190612fba565b60405180910390f35b3480156104eb57600080fd5b5061050660048036038101906105019190612662565b610c16565b60405161051896959493929190612ccc565b60405180910390f35b34801561052d57600080fd5b5061054860048036038101906105439190612582565b610d98565b005b34801561055657600080fd5b5061055f610fe1565b60405161056c9190612fba565b60405180910390f35b34801561058157600080fd5b5061058a610fe7565b6040516105979190612fba565b60405180910390f35b3480156105ac57600080fd5b506105b5610fed565b6040516105c29190612fba565b60405180910390f35b3480156105d757600080fd5b506105f260048036038101906105ed9190612582565b611107565b005b34801561060057600080fd5b5061061b60048036038101906106169190612662565b61117c565b6040516106289190612fba565b60405180910390f35b34801561063d57600080fd5b5061065860048036038101906106539190612582565b611231565b005b34801561066657600080fd5b5061066f6113af565b60405161067c9190612d5d565b60405180910390f35b34801561069157600080fd5b5061069a6113d3565b6040516106a79190612fba565b60405180910390f35b3480156106bc57600080fd5b506106c56113d9565b6040516106d29190612fba565b60405180910390f35b3480156106e757600080fd5b5061070260048036038101906106fd9190612662565b6113df565b005b34801561071057600080fd5b506107196114bf565b6040516107269190612c1a565b60405180910390f35b34801561073b57600080fd5b506107446114e5565b6040516107519190612fba565b60405180910390f35b34801561076657600080fd5b50610781600480360381019061077c91906126f0565b611529565b005b34801561078f57600080fd5b506107aa60048036038101906107a591906125fd565b6119a7565b6040516107b79190612c5e565b60405180910390f35b3480156107cc57600080fd5b506107d5611a12565b6040516107e29190612fba565b60405180910390f35b3480156107f757600080fd5b50610800611a18565b60405161080d9190612d5d565b60405180910390f35b34801561082257600080fd5b5061083d60048036038101906108389190612748565b611a1f565b005b34801561084b57600080fd5b50610866600480360381019061086191906126b4565b611cf4565b604051610874929190612d34565b60405180910390f35b34801561088957600080fd5b50610892611e9b565b60405161089f9190612d5d565b60405180910390f35b3480156108b457600080fd5b506108cf60048036038101906108ca91906125fd565b611ebf565b005b3480156108dd57600080fd5b506108e6611ee8565b6040516108f39190612fba565b60405180910390f35b60007f7965db0b000000000000000000000000000000000000000000000000000000007bffffffffffffffffffffffffffffffffffffffffffffffffffffffff1916827bffffffffffffffffffffffffffffffffffffffffffffffffffffffff1916148061096f575061096e82611eee565b5b9050919050565b6001805461098390613285565b80601f01602080910402602001604051908101604052809291908181526020018280546109af90613285565b80156109fc5780601f106109d1576101008083540402835291602001916109fc565b820191906000526020600020905b8154815290600101906020018083116109df57829003601f168201915b505050505081565b600b6020528060005260406000206000915090508060000160009054906101000a900460ff16908060000160019054906101000a900460ff16908060010154908060020154908060030154905085565b610a5d33610ae9565b610a9c576040517f08c379a0000000000000000000000000000000000000000000000000000000008152600401610a9390612dda565b60405180910390fd5b610ac67fdf8b4c520ffe197c5343c6f5aec59570151ef9a492f2c624fd45ddde6135ec4282610b87565b50565b6000600d6000838152602001908152602001600020600101549050919050565b6000610b157fdf8b4c520ffe197c5343c6f5aec59570151ef9a492f2c624fd45ddde6135ec42836119a7565b9050919050565b7f9667e80708b6eeeb0053fa0cca44e028ff548e2a9f029edfeac87c118b08b7c881565b610b4982610ac9565b610b5a81610b55611f58565b611f60565b610b648383611ffd565b505050565b600c6020528060005260406000206000915090505481565b60065481565b610b8f611f58565b73ffffffffffffffffffffffffffffffffffffffff168173ffffffffffffffffffffffffffffffffffffffff1614610bfc576040517f08c379a0000000000000000000000000000000000000000000000000000000008152600401610bf390612f9a565b60405180910390fd5b610c0682826120de565b5050565b60005481565b60085481565b600080600080600060608660008111610c64576040517f08c379a0000000000000000000000000000000000000000000000000000000008152600401610c5b90612e3a565b60405180910390fd5b87600954811115610caa576040517f08c379a0000000000000000000000000000000000000000000000000000000008152600401610ca190612f7a565b60405180910390fd5b6000600b60008b815260200190815260200160002090508060000160009054906101000a900460ff168160000160019054906101000a900460ff168260010154836002015484600301548560040180805480602002602001604051908101604052809291908181526020018280548015610d7957602002820191906000526020600020905b8160009054906101000a900473ffffffffffffffffffffffffffffffffffffffff1673ffffffffffffffffffffffffffffffffffffffff1681526020019060010190808311610d2f575b5050505050905098509850985098509850985050505091939550919395565b610da133610ae9565b610de0576040517f08c379a0000000000000000000000000000000000000000000000000000000008152600401610dd790612dda565b60405180910390fd5b80600073ffffffffffffffffffffffffffffffffffffffff168173ffffffffffffffffffffffffffffffffffffffff161415610e51576040517f08c379a0000000000000000000000000000000000000000000000000000000008152600401610e4890612f5a565b60405180910390fd5b6000610e5b610fed565b905060008111610ea0576040517f08c379a0000000000000000000000000000000000000000000000000000000008152600401610e9790612f3a565b60405180910390fd5b600260009054906101000a900473ffffffffffffffffffffffffffffffffffffffff1673ffffffffffffffffffffffffffffffffffffffff1663a9059cbb84836040518363ffffffff1660e01b8152600401610efd929190612c35565b602060405180830381600087803b158015610f1757600080fd5b505af1158015610f2b573d6000803e3d6000fd5b505050506040513d601f19601f82011682018060405250810190610f4f91906125ab565b610f8e576040517f08c379a0000000000000000000000000000000000000000000000000000000008152600401610f8590612e7a565b60405180910390fd5b3373ffffffffffffffffffffffffffffffffffffffff167f7fcf532c15f0a6db0bd6d0e038bea71d30d808c7d98cb3bf7268a95bf5081b6582604051610fd49190612fba565b60405180910390a2505050565b60035481565b60075481565b600080600260009054906101000a900473ffffffffffffffffffffffffffffffffffffffff1673ffffffffffffffffffffffffffffffffffffffff166370a08231306040518263ffffffff1660e01b815260040161104b9190612c1a565b60206040518083038186803b15801561106357600080fd5b505afa158015611077573d6000803e3d6000fd5b505050506040513d601f19601f8201168201806040525081019061109b919061268b565b905060006004546003546110af9190613176565b9050808210156110f4576040517f08c379a00000000000000000000000000000000000000000000000000000000081526004016110eb90612e5a565b60405180910390fd5b80826111009190613176565b9250505090565b61111033610ae9565b61114f576040517f08c379a000000000000000000000000000000000000000000000000000000000815260040161114690612dda565b60405180910390fd5b6111797fdf8b4c520ffe197c5343c6f5aec59570151ef9a492f2c624fd45ddde6135ec4282610b40565b50565b600081600081116111c2576040517f08c379a00000000000000000000000000000000000000000000000000000000081526004016111b990612e3a565b60405180910390fd5b82600954811115611208576040517f08c379a00000000000000000000000000000000000000000000000000000000081526004016111ff90612f7a565b60405180910390fd5b6000600b6000868152602001908152602001600020905080600401805490509350505050919050565b61123a33610ae9565b611279576040517f08c379a000000000000000000000000000000000000000000000000000000000815260040161127090612dda565b60405180910390fd5b600073ffffffffffffffffffffffffffffffffffffffff168173ffffffffffffffffffffffffffffffffffffffff1614156112e9576040517f08c379a00000000000000000000000000000000000000000000000000000000081526004016112e090612e1a565b60405180910390fd5b8073ffffffffffffffffffffffffffffffffffffffff163373ffffffffffffffffffffffffffffffffffffffff161415611358576040517f08c379a000000000000000000000000000000000000000000000000000000000815260040161134f90612eda565b60405180910390fd5b6113827fdf8b4c520ffe197c5343c6f5aec59570151ef9a492f2c624fd45ddde6135ec4282610b40565b6113ac7fdf8b4c520ffe197c5343c6f5aec59570151ef9a492f2c624fd45ddde6135ec4233610b87565b50565b7fdf8b4c520ffe197c5343c6f5aec59570151ef9a492f2c624fd45ddde6135ec4281565b60055481565b600a5481565b6113e833610ae9565b611427576040517f08c379a000000000000000000000000000000000000000000000000000000000815260040161141e90612dda565b60405180910390fd5b806000811161146b576040517f08c379a000000000000000000000000000000000000000000000000000000000815260040161146290612e3a565b60405180910390fd5b60005482808214156114b2576040517f08c379a00000000000000000000000000000000000000000000000000000000081526004016114a990612dba565b60405180910390fd5b8360008190555050505050565b600260009054906101000a900473ffffffffffffffffffffffffffffffffffffffff1681565b60006005544210156114fa5760009050611526565b6007546005544261150b9190613176565b61151591906130eb565b90508080611522906132b7565b9150505b90565b61153233610ae9565b611571576040517f08c379a000000000000000000000000000000000000000000000000000000000815260040161156890612dda565b60405180910390fd5b82600081116115b5576040517f08c379a00000000000000000000000000000000000000000000000000000000081526004016115ac90612e3a565b60405180910390fd5b836009548111156115fb576040517f08c379a00000000000000000000000000000000000000000000000000000000081526004016115f290612f7a565b60405180910390fd5b8383905060008111801561161157506000548111155b611650576040517f08c379a000000000000000000000000000000000000000000000000000000000815260040161164790612f1a565b60405180910390fd5b6000600b600088815260200190815260200160002090508060000160019054906101000a900460ff16156116b9576040517f08c379a00000000000000000000000000000000000000000000000000000000081526004016116b090612dfa565b60405180910390fd5b60005b8686905081101561196257600073ffffffffffffffffffffffffffffffffffffffff16878783818110611718577f4e487b7100000000000000000000000000000000000000000000000000000000600052603260045260246000fd5b905060200201602081019061172d9190612582565b73ffffffffffffffffffffffffffffffffffffffff16141580156117ed575081600501600088888481811061178b577f4e487b7100000000000000000000000000000000000000000000000000000000600052603260045260246000fd5b90506020020160208101906117a09190612582565b73ffffffffffffffffffffffffffffffffffffffff1673ffffffffffffffffffffffffffffffffffffffff16815260200190815260200160002060000160009054906101000a900460ff16155b1561194f576001826005016000898985818110611833577f4e487b7100000000000000000000000000000000000000000000000000000000600052603260045260246000fd5b90506020020160208101906118489190612582565b73ffffffffffffffffffffffffffffffffffffffff1673ffffffffffffffffffffffffffffffffffffffff16815260200190815260200160002060000160006101000a81548160ff021916908315150217905550816004018787838181106118d9577f4e487b7100000000000000000000000000000000000000000000000000000000600052603260045260246000fd5b90506020020160208101906118ee9190612582565b9080600181540180825580915050600190039060005260206000200160009091909190916101000a81548173ffffffffffffffffffffffffffffffffffffffff021916908373ffffffffffffffffffffffffffffffffffffffff1602179055505b808061195a906132b7565b9150506116bc565b507f9c9ea5277c31b2732c1577550098533c5c80dda4ee8728a4f235421651856e9687878760405161199693929190612fd5565b60405180910390a150505050505050565b6000600d600084815260200190815260200160002060000160008373ffffffffffffffffffffffffffffffffffffffff1673ffffffffffffffffffffffffffffffffffffffff16815260200190815260200160002060009054906101000a900460ff16905092915050565b60045481565b6000801b81565b611a2833610ae9565b611a67576040517f08c379a0000000000000000000000000000000000000000000000000000000008152600401611a5e90612dda565b60405180910390fd5b8460008111611aab576040517f08c379a0000000000000000000000000000000000000000000000000000000008152600401611aa290612e3a565b60405180910390fd5b8460008111611aef576040517f08c379a0000000000000000000000000000000000000000000000000000000008152600401611ae690612e3a565b60405180910390fd5b8360008111611b33576040517f08c379a0000000000000000000000000000000000000000000000000000000008152600401611b2a90612e3a565b60405180910390fd5b8360008111611b77576040517f08c379a0000000000000000000000000000000000000000000000000000000008152600401611b6e90612e3a565b60405180910390fd5b88600260009054906101000a900473ffffffffffffffffffffffffffffffffffffffff1673ffffffffffffffffffffffffffffffffffffffff166370a08231306040518263ffffffff1660e01b8152600401611bd39190612c1a565b60206040518083038186803b158015611beb57600080fd5b505afa158015611bff573d6000803e3d6000fd5b505050506040513d601f19601f82011682018060405250810190611c23919061268b565b1015611c64576040517f08c379a0000000000000000000000000000000000000000000000000000000008152600401611c5b90612e9a565b60405180910390fd5b600060035414611ca9576040517f08c379a0000000000000000000000000000000000000000000000000000000008152600401611ca090612eba565b60405180910390fd5b88600381905550876008819055508660098190555085600581905550846007819055508785611cd8919061311c565b86611ce39190613095565b600681905550505050505050505050565b6000808360008111611d3b576040517f08c379a0000000000000000000000000000000000000000000000000000000008152600401611d3290612e3a565b60405180910390fd5b84600954811115611d81576040517f08c379a0000000000000000000000000000000000000000000000000000000008152600401611d7890612f7a565b60405180910390fd5b6000600b600088815260200190815260200160002090508060050160008773ffffffffffffffffffffffffffffffffffffffff1673ffffffffffffffffffffffffffffffffffffffff16815260200190815260200160002060000160009054906101000a900460ff1615611e90578060050160008773ffffffffffffffffffffffffffffffffffffffff1673ffffffffffffffffffffffffffffffffffffffff16815260200190815260200160002060000160009054906101000a900460ff168160050160008873ffffffffffffffffffffffffffffffffffffffff1673ffffffffffffffffffffffffffffffffffffffff168152602001908152602001600020600101549450945050611e92565b505b50509250929050565b7ff0887ba65ee2024ea881d91b74c2450ef19e1557f03bed3ea9f16b037cbe2dc981565b611ec882610ac9565b611ed981611ed4611f58565b611f60565b611ee383836120de565b505050565b60095481565b60007f01ffc9a7000000000000000000000000000000000000000000000000000000007bffffffffffffffffffffffffffffffffffffffffffffffffffffffff1916827bffffffffffffffffffffffffffffffffffffffffffffffffffffffff1916149050919050565b600033905090565b611f6a82826119a7565b611ff957611f8f8173ffffffffffffffffffffffffffffffffffffffff1660146121c0565b611f9d8360001c60206121c0565b604051602001611fae929190612be0565b6040516020818303038152906040526040517f08c379a0000000000000000000000000000000000000000000000000000000008152600401611ff09190612d78565b60405180910390fd5b5050565b61200782826119a7565b6120da576001600d600084815260200190815260200160002060000160008373ffffffffffffffffffffffffffffffffffffffff1673ffffffffffffffffffffffffffffffffffffffff16815260200190815260200160002060006101000a81548160ff02191690831515021790555061207f611f58565b73ffffffffffffffffffffffffffffffffffffffff168173ffffffffffffffffffffffffffffffffffffffff16837f2f8788117e7eff1d82e926ec794901d17c78024a50270940304540a733656f0d60405160405180910390a45b5050565b6120e882826119a7565b156121bc576000600d600084815260200190815260200160002060000160008373ffffffffffffffffffffffffffffffffffffffff1673ffffffffffffffffffffffffffffffffffffffff16815260200190815260200160002060006101000a81548160ff021916908315150217905550612161611f58565b73ffffffffffffffffffffffffffffffffffffffff168173ffffffffffffffffffffffffffffffffffffffff16837ff6391f5c32d9c69d2a47ea670b442974b53935d1edc7fd64eb21e047a839171b60405160405180910390a45b5050565b6060600060028360026121d3919061311c565b6121dd9190613095565b67ffffffffffffffff81111561221c577f4e487b7100000000000000000000000000000000000000000000000000000000600052604160045260246000fd5b6040519080825280601f01601f19166020018201604052801561224e5781602001600182028036833780820191505090505b5090507f3000000000000000000000000000000000000000000000000000000000000000816000815181106122ac577f4e487b7100000000000000000000000000000000000000000000000000000000600052603260045260246000fd5b60200101907effffffffffffffffffffffffffffffffffffffffffffffffffffffffffffff1916908160001a9053507f780000000000000000000000000000000000000000000000000000000000000081600181518110612336577f4e487b7100000000000000000000000000000000000000000000000000000000600052603260045260246000fd5b60200101907effffffffffffffffffffffffffffffffffffffffffffffffffffffffffffff1916908160001a90535060006001846002612376919061311c565b6123809190613095565b90505b600181111561246c577f3031323334353637383961626364656600000000000000000000000000000000600f8616601081106123e8577f4e487b7100000000000000000000000000000000000000000000000000000000600052603260045260246000fd5b1a60f81b828281518110612425577f4e487b7100000000000000000000000000000000000000000000000000000000600052603260045260246000fd5b60200101907effffffffffffffffffffffffffffffffffffffffffffffffffffffffffffff1916908160001a905350600485901c9450806124659061325b565b9050612383565b50600084146124b0576040517f08c379a00000000000000000000000000000000000000000000000000000000081526004016124a790612d9a565b60405180910390fd5b8091505092915050565b6000813590506124c98161378d565b92915050565b60008083601f8401126124e157600080fd5b8235905067ffffffffffffffff8111156124fa57600080fd5b60208301915083602082028301111561251257600080fd5b9250929050565b600081519050612528816137a4565b92915050565b60008135905061253d816137bb565b92915050565b600081359050612552816137d2565b92915050565b600081359050612567816137e9565b92915050565b60008151905061257c816137e9565b92915050565b60006020828403121561259457600080fd5b60006125a2848285016124ba565b91505092915050565b6000602082840312156125bd57600080fd5b60006125cb84828501612519565b91505092915050565b6000602082840312156125e657600080fd5b60006125f48482850161252e565b91505092915050565b6000806040838503121561261057600080fd5b600061261e8582860161252e565b925050602061262f858286016124ba565b9150509250929050565b60006020828403121561264b57600080fd5b600061265984828501612543565b91505092915050565b60006020828403121561267457600080fd5b600061268284828501612558565b91505092915050565b60006020828403121561269d57600080fd5b60006126ab8482850161256d565b91505092915050565b600080604083850312156126c757600080fd5b60006126d585828601612558565b92505060206126e6858286016124ba565b9150509250929050565b60008060006040848603121561270557600080fd5b600061271386828701612558565b935050602084013567ffffffffffffffff81111561273057600080fd5b61273c868287016124cf565b92509250509250925092565b600080600080600060a0868803121561276057600080fd5b600061276e88828901612558565b955050602061277f88828901612558565b945050604061279088828901612558565b93505060606127a188828901612558565b92505060806127b288828901612558565b9150509295509295909350565b60006127cb83836127d7565b60208301905092915050565b6127e0816131aa565b82525050565b6127ef816131aa565b82525050565b60006128018385613051565b935061280c82613007565b8060005b8581101561284557612822828461307e565b61282c88826127bf565b975061283783613037565b925050600181019050612810565b5085925050509392505050565b600061285d82613021565b6128678185613051565b935061287283613011565b8060005b838110156128a357815161288a88826127bf565b975061289583613044565b925050600181019050612876565b5085935050505092915050565b6128b9816131bc565b82525050565b6128c8816131c8565b82525050565b60006128d98261302c565b6128e38185613062565b93506128f3818560208601613228565b6128fc8161338d565b840191505092915050565b60006129128261302c565b61291c8185613073565b935061292c818560208601613228565b80840191505092915050565b6000612945602083613062565b91506129508261339e565b602082019050919050565b6000612968601583613062565b9150612973826133c7565b602082019050919050565b600061298b602283613062565b9150612996826133f0565b604082019050919050565b60006129ae601a83613062565b91506129b98261343f565b602082019050919050565b60006129d1601883613062565b91506129dc82613468565b602082019050919050565b60006129f4601c83613062565b91506129ff82613491565b602082019050919050565b6000612a17601683613062565b9150612a22826134ba565b602082019050919050565b6000612a3a601883613062565b9150612a45826134e3565b602082019050919050565b6000612a5d602283613062565b9150612a688261350c565b604082019050919050565b6000612a80601e83613062565b9150612a8b8261355b565b602082019050919050565b6000612aa3601683613062565b9150612aae82613584565b602082019050919050565b6000612ac6601483613062565b9150612ad1826135ad565b602082019050919050565b6000612ae9602983613062565b9150612af4826135d6565b604082019050919050565b6000612b0c601783613073565b9150612b1782613625565b601782019050919050565b6000612b2f602183613062565b9150612b3a8261364e565b604082019050919050565b6000612b52601e83613062565b9150612b5d8261369d565b602082019050919050565b6000612b75601183613073565b9150612b80826136c6565b601182019050919050565b6000612b98602183613062565b9150612ba3826136ef565b604082019050919050565b6000612bbb602f83613062565b9150612bc68261373e565b604082019050919050565b612bda8161321e565b82525050565b6000612beb82612aff565b9150612bf78285612907565b9150612c0282612b68565b9150612c0e8284612907565b91508190509392505050565b6000602082019050612c2f60008301846127e6565b92915050565b6000604082019050612c4a60008301856127e6565b612c576020830184612bd1565b9392505050565b6000602082019050612c7360008301846128b0565b92915050565b600060a082019050612c8e60008301886128b0565b612c9b60208301876128b0565b612ca86040830186612bd1565b612cb56060830185612bd1565b612cc26080830184612bd1565b9695505050505050565b600060c082019050612ce160008301896128b0565b612cee60208301886128b0565b612cfb6040830187612bd1565b612d086060830186612bd1565b612d156080830185612bd1565b81810360a0830152612d278184612852565b9050979650505050505050565b6000604082019050612d4960008301856128b0565b612d566020830184612bd1565b9392505050565b6000602082019050612d7260008301846128bf565b92915050565b60006020820190508181036000830152612d9281846128ce565b905092915050565b60006020820190508181036000830152612db381612938565b9050919050565b60006020820190508181036000830152612dd38161295b565b9050919050565b60006020820190508181036000830152612df38161297e565b9050919050565b60006020820190508181036000830152612e13816129a1565b9050919050565b60006020820190508181036000830152612e33816129c4565b9050919050565b60006020820190508181036000830152612e53816129e7565b9050919050565b60006020820190508181036000830152612e7381612a0a565b9050919050565b60006020820190508181036000830152612e9381612a2d565b9050919050565b60006020820190508181036000830152612eb381612a50565b9050919050565b60006020820190508181036000830152612ed381612a73565b9050919050565b60006020820190508181036000830152612ef381612a96565b9050919050565b60006020820190508181036000830152612f1381612ab9565b9050919050565b60006020820190508181036000830152612f3381612adc565b9050919050565b60006020820190508181036000830152612f5381612b22565b9050919050565b60006020820190508181036000830152612f7381612b45565b9050919050565b60006020820190508181036000830152612f9381612b8b565b9050919050565b60006020820190508181036000830152612fb381612bae565b9050919050565b6000602082019050612fcf6000830184612bd1565b92915050565b6000604082019050612fea6000830186612bd1565b8181036020830152612ffd8184866127f5565b9050949350505050565b6000819050919050565b6000819050602082019050919050565b600081519050919050565b600081519050919050565b6000602082019050919050565b6000602082019050919050565b600082825260208201905092915050565b600082825260208201905092915050565b600081905092915050565b600061308d60208401846124ba565b905092915050565b60006130a08261321e565b91506130ab8361321e565b9250827fffffffffffffffffffffffffffffffffffffffffffffffffffffffffffffffff038211156130e0576130df613300565b5b828201905092915050565b60006130f68261321e565b91506131018361321e565b9250826131115761311061332f565b5b828204905092915050565b60006131278261321e565b91506131328361321e565b9250817fffffffffffffffffffffffffffffffffffffffffffffffffffffffffffffffff048311821515161561316b5761316a613300565b5b828202905092915050565b60006131818261321e565b915061318c8361321e565b92508282101561319f5761319e613300565b5b828203905092915050565b60006131b5826131fe565b9050919050565b60008115159050919050565b6000819050919050565b60007fffffffff0000000000000000000000000000000000000000000000000000000082169050919050565b600073ffffffffffffffffffffffffffffffffffffffff82169050919050565b6000819050919050565b60005b8381101561324657808201518184015260208101905061322b565b83811115613255576000848401525b50505050565b60006132668261321e565b9150600082141561327a57613279613300565b5b600182039050919050565b6000600282049050600182168061329d57607f821691505b602082108114156132b1576132b061335e565b5b50919050565b60006132c28261321e565b91507fffffffffffffffffffffffffffffffffffffffffffffffffffffffffffffffff8214156132f5576132f4613300565b5b600182019050919050565b7f4e487b7100000000000000000000000000000000000000000000000000000000600052601160045260246000fd5b7f4e487b7100000000000000000000000000000000000000000000000000000000600052601260045260246000fd5b7f4e487b7100000000000000000000000000000000000000000000000000000000600052602260045260246000fd5b6000601f19601f8301169050919050565b7f537472696e67733a20686578206c656e67746820696e73756666696369656e74600082015250565b7f426173655661756c743a2073616d652076616c75650000000000000000000000600082015250565b7f41636365737369626c653a2043616c6c6572206973206e6f7420616e2061646d60008201527f696e000000000000000000000000000000000000000000000000000000000000602082015250565b7f426173655661756c743a20616c72656164792073746172746564000000000000600082015250565b7f41636365737369626c653a207a65726f20616464726573730000000000000000600082015250565b7f426173655661756c7453746f726167653a207a65726f2076616c756500000000600082015250565b7f426173655661756c743a20696e737566666963656e7400000000000000000000600082015250565b7f426173655661756c743a207472616e73666572206661696c0000000000000000600082015250565b7f426173655661756c743a2062616c616e63654f6620697320696e73756666696560008201527f6e74000000000000000000000000000000000000000000000000000000000000602082015250565b7f426173655661756c743a20616c726561647920696e697469616c697a65640000600082015250565b7f41636365737369626c653a2073616d652061646d696e00000000000000000000600082015250565b7f63616e6e6f742072656365697665204574686572000000000000000000000000600082015250565b7f426173655661756c743a20636865636b20696e70757420636f756e742061742060008201527f6f6e63652074696d650000000000000000000000000000000000000000000000602082015250565b7f416363657373436f6e74726f6c3a206163636f756e7420000000000000000000600082015250565b7f426173655661756c743a206e6f20776974686472617761626c6520616d6f756e60008201527f7400000000000000000000000000000000000000000000000000000000000000602082015250565b7f426173655661756c7453746f726167653a207a65726f20616464726573730000600082015250565b7f206973206d697373696e6720726f6c6520000000000000000000000000000000600082015250565b7f426173655661756c743a2065786365656420617661696c61626c6520726f756e60008201527f6400000000000000000000000000000000000000000000000000000000000000602082015250565b7f416363657373436f6e74726f6c3a2063616e206f6e6c792072656e6f756e636560008201527f20726f6c657320666f722073656c660000000000000000000000000000000000602082015250565b613796816131aa565b81146137a157600080fd5b50565b6137ad816131bc565b81146137b857600080fd5b50565b6137c4816131c8565b81146137cf57600080fd5b50565b6137db816131d2565b81146137e657600080fd5b50565b6137f28161321e565b81146137fd57600080fd5b5056fea264697066735822122035fe6273c11705cf6449c79e1d0f2d4311a949499996e2c7ea89f8de8dc794f664736f6c63430008040033",
  "immutableReferences": {},
  "source": "//SPDX-License-Identifier: Unlicense\npragma solidity ^0.8.4;\n\nimport \"@openzeppelin/contracts/token/ERC20/IERC20.sol\";\nimport \"../libraries/ClaimVaultLib.sol\";\n\nimport \"../common/AccessibleCommon.sol\";\nimport \"./BaseVaultStorage.sol\";\nimport \"./VaultEvent.sol\";\n\ncontract BaseVault is BaseVaultStorage, AccessibleCommon, VaultEvent {\n    ///@dev initialization function\n    ///@param _totalAllocatedAmount total allocated amount\n    ///@param _totalTgeCount   total tge count\n    ///@param _startTime start time\n    ///@param _periodTimesPerClaim period time per claim\n    function initializeBase(\n        uint256 _totalAllocatedAmount,\n        uint256 _totalClaims,\n        uint256 _totalTgeCount,\n        uint256 _startTime,\n        uint256 _periodTimesPerClaim\n    )\n        public\n        onlyOwner\n        nonZero(_totalAllocatedAmount)\n        nonZero(_totalClaims)\n        nonZero(_startTime)\n        nonZero(_periodTimesPerClaim)\n    {\n        require(\n            IERC20(tos).balanceOf(address(this)) >= _totalAllocatedAmount,\n            \"BaseVault: balanceOf is insuffient\"\n        );\n\n        require(totalAllocatedAmount == 0, \"BaseVault: already initialized\");\n        totalAllocatedAmount = _totalAllocatedAmount;\n        totalClaims = _totalClaims;\n        totalTgeCount = _totalTgeCount;\n        startTime = _startTime;\n        periodTimesPerClaim = _periodTimesPerClaim;\n        endTime = _startTime + (_periodTimesPerClaim * _totalClaims);\n    }\n\n    receive() external payable {\n        revert(\"cannot receive Ether\");\n    }\n\n    ///@dev set max input at once time of whitelist\n    ///@param _maxInputOnceTime  max input at once time\n    function setMaxInputOnceTimeWhitelist(uint256 _maxInputOnceTime)\n        external\n        onlyOwner\n        nonZero(_maxInputOnceTime)\n        nonSame(maxInputOnceTime, _maxInputOnceTime)\n    {\n        maxInputOnceTime = _maxInputOnceTime;\n    }\n\n    ///@dev Register the white list for the round.\n    ///@param round  it is the period unit can claim once\n    ///@param users people who can claim in that round\n    function addWhitelist(uint256 round, address[] calldata users)\n        external\n        onlyOwner\n        nonZero(round)\n        validTgeRound(round)\n        validMaxInputOnceTime(users.length)\n    {\n        ClaimVaultLib.TgeInfo storage tgeinfo = tgeInfos[round];\n        require(!tgeinfo.started, \"BaseVault: already started\");\n\n        for (uint256 i = 0; i < users.length; i++) {\n            if (\n                users[i] != address(0) && !tgeinfo.claimedTime[users[i]].joined\n            ) {\n                tgeinfo.claimedTime[users[i]].joined = true;\n                tgeinfo.whitelist.push(users[i]);\n            }\n        }\n\n        emit AddedWhitelist(round, users);\n    }\n\n    function currentRound() public view returns (uint256 round) {\n        if (block.timestamp < startTime) {\n            round = 0;\n        } else {\n            round = (block.timestamp - startTime) / periodTimesPerClaim;\n            round++;\n        }\n    }\n\n    ///@dev Amount that can be withdrawn by the owner\n    function availableWithdrawAmount() public view returns (uint256 amount) {\n        uint256 balance = IERC20(tos).balanceOf(address(this));\n        uint256 remainSendAmount = totalAllocatedAmount - totalClaimedAmount;\n        require(balance >= remainSendAmount, \"BaseVault: insufficent\");\n        amount = balance - remainSendAmount;\n    }\n\n    ///@dev withdraw to whom\n    ///@param to to address to send\n    function withdraw(address to) external onlyOwner nonZeroAddress(to) {\n        uint256 amount = availableWithdrawAmount();\n        require(amount > 0, \"BaseVault: no withdrawable amount\");\n        require(\n            IERC20(tos).transfer(to, amount),\n            \"BaseVault: transfer fail\"\n        );\n\n        emit Withdrawal(msg.sender, amount);\n    }\n\n    ///@dev get Tge infos\n    ///@param round  it is the period unit can claim once\n    ///@return allocated whether allocated\n    ///@return started whether started\n    ///@return allocatedAmount allocated amount\n    ///@return claimedCount claimed  count\n    ///@return amount the claimeable amount by person in TGE period\n    ///@return whitelist who can claim in TGE period\n    function getTgeInfos(uint256 round)\n        external\n        view\n        nonZero(round)\n        validTgeRound(round)\n        returns (\n            bool allocated,\n            bool started,\n            uint256 allocatedAmount,\n            uint256 claimedCount,\n            uint256 amount,\n            address[] memory whitelist\n        )\n    {\n        ClaimVaultLib.TgeInfo storage tgeinfo = tgeInfos[round];\n\n        return (\n            tgeinfo.allocated,\n            tgeinfo.started,\n            tgeinfo.allocatedAmount,\n            tgeinfo.claimedCount,\n            tgeinfo.amount,\n            tgeinfo.whitelist\n        );\n    }\n\n    ///@dev get the claim info of whitelist's person\n    ///@param round  it is the period unit can claim once\n    ///@param user person in whitelist\n    ///@return joined whether joined\n    ///@return claimedTime the claimed time\n    function getWhitelistInfo(uint256 round, address user)\n        external\n        view\n        nonZero(round)\n        validTgeRound(round)\n        returns (bool joined, uint256 claimedTime)\n    {\n        ClaimVaultLib.TgeInfo storage tgeinfo = tgeInfos[round];\n        if (tgeinfo.claimedTime[user].joined)\n            return (\n                tgeinfo.claimedTime[user].joined,\n                tgeinfo.claimedTime[user].claimedTime\n            );\n    }\n\n    ///@dev get the total count of whitelist in round\n    ///@param round  it is the period unit can claim once\n    ///@return total the total count of whitelist in round\n    function totalWhitelist(uint256 round)\n        external\n        view\n        nonZero(round)\n        validTgeRound(round)\n        returns (uint256 total)\n    {\n        ClaimVaultLib.TgeInfo storage tgeinfo = tgeInfos[round];\n        total = tgeinfo.whitelist.length;\n    }\n}\n",
  "sourcePath": "/Users/zena/tonstarter/tonstarter-token-distribution/contracts/vaults/BaseVault.sol",
  "compiler": {
    "name": "solc",
    "version": "0.8.4+commit.c7e474f2.Emscripten.clang"
  },
  "schemaVersion": "3.4.4",
  "updatedAt": "2023-11-27T04:24:12.983Z",
  "devdoc": {
    "kind": "dev",
    "methods": {
      "addAdmin(address)": {
        "details": "add admin",
        "params": {
          "account": "address to add"
        }
      },
      "addWhitelist(uint256,address[])": {
        "details": "Register the white list for the round.",
        "params": {
          "round": "it is the period unit can claim once",
          "users": "people who can claim in that round"
        }
      },
      "availableWithdrawAmount()": {
        "details": "Amount that can be withdrawn by the owner"
      },
      "getRoleAdmin(bytes32)": {
        "details": "Returns the admin role that controls `role`. See {grantRole} and {revokeRole}. To change a role's admin, use {_setRoleAdmin}."
      },
      "getTgeInfos(uint256)": {
        "details": "get Tge infos",
        "params": {
          "round": "it is the period unit can claim once"
        },
        "returns": {
          "allocated": "whether allocated",
          "allocatedAmount": "allocated amount",
          "amount": "the claimeable amount by person in TGE period",
          "claimedCount": "claimed  count",
          "started": "whether started",
          "whitelist": "who can claim in TGE period"
        }
      },
      "getWhitelistInfo(uint256,address)": {
        "details": "get the claim info of whitelist's person",
        "params": {
          "round": "it is the period unit can claim once",
          "user": "person in whitelist"
        },
        "returns": {
          "claimedTime": "the claimed time",
          "joined": "whether joined"
        }
      },
      "grantRole(bytes32,address)": {
        "details": "Grants `role` to `account`. If `account` had not been already granted `role`, emits a {RoleGranted} event. Requirements: - the caller must have ``role``'s admin role."
      },
      "hasRole(bytes32,address)": {
        "details": "Returns `true` if `account` has been granted `role`."
      },
      "initializeBase(uint256,uint256,uint256,uint256,uint256)": {
        "details": "initialization function",
        "params": {
          "_periodTimesPerClaim": "period time per claim",
          "_startTime": "start time",
          "_totalAllocatedAmount": "total allocated amount",
          "_totalTgeCount": "total tge count"
        }
      },
      "isAdmin(address)": {
        "details": "whether admin",
        "params": {
          "account": "address to check"
        }
      },
      "removeAdmin(address)": {
        "details": "remove admin",
        "params": {
          "account": "address to remove"
        }
      },
      "renounceRole(bytes32,address)": {
        "details": "Revokes `role` from the calling account. Roles are often managed via {grantRole} and {revokeRole}: this function's purpose is to provide a mechanism for accounts to lose their privileges if they are compromised (such as when a trusted device is misplaced). If the calling account had been granted `role`, emits a {RoleRevoked} event. Requirements: - the caller must be `account`."
      },
      "revokeRole(bytes32,address)": {
        "details": "Revokes `role` from `account`. If `account` had been granted `role`, emits a {RoleRevoked} event. Requirements: - the caller must have ``role``'s admin role."
      },
      "setMaxInputOnceTimeWhitelist(uint256)": {
        "details": "set max input at once time of whitelist",
        "params": {
          "_maxInputOnceTime": "max input at once time"
        }
      },
      "supportsInterface(bytes4)": {
        "details": "See {IERC165-supportsInterface}."
      },
      "totalWhitelist(uint256)": {
        "details": "get the total count of whitelist in round",
        "params": {
          "round": "it is the period unit can claim once"
        },
        "returns": {
          "total": "the total count of whitelist in round"
        }
      },
      "transferAdmin(address)": {
        "details": "transfer admin",
        "params": {
          "newAdmin": "new admin address"
        }
      },
      "withdraw(address)": {
        "details": "withdraw to whom",
        "params": {
          "to": "to address to send"
        }
      }
    },
    "version": 1
  },
  "userdoc": {
    "kind": "user",
    "methods": {
      "tgeInfos(uint256)": {
        "notice": "round => TgeInfo"
      }
    },
    "version": 1
  }
}