{
  "contractName": "BaseVaultStorage",
  "abi": [
    {
      "inputs": [],
      "name": "endTime",
      "outputs": [
        {
          "internalType": "uint256",
          "name": "",
          "type": "uint256"
        }
      ],
      "stateMutability": "view",
      "type": "function"
    },
    {
      "inputs": [],
      "name": "maxInputOnceTime",
      "outputs": [
        {
          "internalType": "uint256",
          "name": "",
          "type": "uint256"
        }
      ],
      "stateMutability": "view",
      "type": "function"
    },
    {
      "inputs": [],
      "name": "name",
      "outputs": [
        {
          "internalType": "string",
          "name": "",
          "type": "string"
        }
      ],
      "stateMutability": "view",
      "type": "function"
    },
    {
      "inputs": [],
      "name": "periodTimesPerClaim",
      "outputs": [
        {
          "internalType": "uint256",
          "name": "",
          "type": "uint256"
        }
      ],
      "stateMutability": "view",
      "type": "function"
    },
    {
      "inputs": [],
      "name": "startTime",
      "outputs": [
        {
          "internalType": "uint256",
          "name": "",
          "type": "uint256"
        }
      ],
      "stateMutability": "view",
      "type": "function"
    },
    {
      "inputs": [
        {
          "internalType": "uint256",
          "name": "",
          "type": "uint256"
        }
      ],
      "name": "tgeInfos",
      "outputs": [
        {
          "internalType": "bool",
          "name": "allocated",
          "type": "bool"
        },
        {
          "internalType": "bool",
          "name": "started",
          "type": "bool"
        },
        {
          "internalType": "uint256",
          "name": "allocatedAmount",
          "type": "uint256"
        },
        {
          "internalType": "uint256",
          "name": "claimedCount",
          "type": "uint256"
        },
        {
          "internalType": "uint256",
          "name": "amount",
          "type": "uint256"
        }
      ],
      "stateMutability": "view",
      "type": "function"
    },
    {
      "inputs": [],
      "name": "tos",
      "outputs": [
        {
          "internalType": "address",
          "name": "",
          "type": "address"
        }
      ],
      "stateMutability": "view",
      "type": "function"
    },
    {
      "inputs": [],
      "name": "totalAllocatedAmount",
      "outputs": [
        {
          "internalType": "uint256",
          "name": "",
          "type": "uint256"
        }
      ],
      "stateMutability": "view",
      "type": "function"
    },
    {
      "inputs": [],
      "name": "totalClaimedAmount",
      "outputs": [
        {
          "internalType": "uint256",
          "name": "",
          "type": "uint256"
        }
      ],
      "stateMutability": "view",
      "type": "function"
    },
    {
      "inputs": [],
      "name": "totalClaims",
      "outputs": [
        {
          "internalType": "uint256",
          "name": "",
          "type": "uint256"
        }
      ],
      "stateMutability": "view",
      "type": "function"
    },
    {
      "inputs": [],
      "name": "totalTgeAmount",
      "outputs": [
        {
          "internalType": "uint256",
          "name": "",
          "type": "uint256"
        }
      ],
      "stateMutability": "view",
      "type": "function"
    },
    {
      "inputs": [],
      "name": "totalTgeCount",
      "outputs": [
        {
          "internalType": "uint256",
          "name": "",
          "type": "uint256"
        }
      ],
      "stateMutability": "view",
      "type": "function"
    },
    {
      "inputs": [
        {
          "internalType": "address",
          "name": "",
          "type": "address"
        }
      ],
      "name": "userClaimedAmount",
      "outputs": [
        {
          "internalType": "uint256",
          "name": "",
          "type": "uint256"
        }
      ],
      "stateMutability": "view",
      "type": "function"
    }
  ],
  "bytecode": "0x608060405234801561001057600080fd5b506106ce806100206000396000f3fe608060405234801561001057600080fd5b50600436106100cf5760003560e01c8063556400081161008c578063814f26fc11610066578063814f26fc1461020a57806389f395de146102285780639661cb0d14610246578063d993471914610264576100cf565b806355640008146101b05780635913ec19146101ce57806378e97925146101ec576100cf565b806306fdde03146100d4578063166cf32c146100f25780632f926723146101265780633197cbb6146101565780633ef1a1aa1461017457806341c6138314610192575b600080fd5b6100dc610282565b6040516100e99190610524565b60405180910390f35b61010c60048036038101906101079190610427565b610310565b60405161011d9594939291906104d1565b60405180910390f35b610140600480360381019061013b91906103fe565b610360565b60405161014d9190610546565b60405180910390f35b61015e610378565b60405161016b9190610546565b60405180910390f35b61017c61037e565b6040516101899190610546565b60405180910390f35b61019a610384565b6040516101a79190610546565b60405180910390f35b6101b861038a565b6040516101c59190610546565b60405180910390f35b6101d6610390565b6040516101e39190610546565b60405180910390f35b6101f4610396565b6040516102019190610546565b60405180910390f35b61021261039c565b60405161021f9190610546565b60405180910390f35b6102306103a2565b60405161023d91906104b6565b60405180910390f35b61024e6103c8565b60405161025b9190610546565b60405180910390f35b61026c6103ce565b6040516102799190610546565b60405180910390f35b6001805461028f906105f8565b80601f01602080910402602001604051908101604052809291908181526020018280546102bb906105f8565b80156103085780601f106102dd57610100808354040283529160200191610308565b820191906000526020600020905b8154815290600101906020018083116102eb57829003601f168201915b505050505081565b600b6020528060005260406000206000915090508060000160009054906101000a900460ff16908060000160019054906101000a900460ff16908060010154908060020154908060030154905085565b600c6020528060005260406000206000915090505481565b60065481565b60005481565b60085481565b60035481565b60075481565b60055481565b600a5481565b600260009054906101000a900473ffffffffffffffffffffffffffffffffffffffff1681565b60045481565b60095481565b6000813590506103e38161066a565b92915050565b6000813590506103f881610681565b92915050565b60006020828403121561041057600080fd5b600061041e848285016103d4565b91505092915050565b60006020828403121561043957600080fd5b6000610447848285016103e9565b91505092915050565b6104598161057d565b82525050565b6104688161058f565b82525050565b600061047982610561565b610483818561056c565b93506104938185602086016105c5565b61049c81610659565b840191505092915050565b6104b0816105bb565b82525050565b60006020820190506104cb6000830184610450565b92915050565b600060a0820190506104e6600083018861045f565b6104f3602083018761045f565b61050060408301866104a7565b61050d60608301856104a7565b61051a60808301846104a7565b9695505050505050565b6000602082019050818103600083015261053e818461046e565b905092915050565b600060208201905061055b60008301846104a7565b92915050565b600081519050919050565b600082825260208201905092915050565b60006105888261059b565b9050919050565b60008115159050919050565b600073ffffffffffffffffffffffffffffffffffffffff82169050919050565b6000819050919050565b60005b838110156105e35780820151818401526020810190506105c8565b838111156105f2576000848401525b50505050565b6000600282049050600182168061061057607f821691505b602082108114156106245761062361062a565b5b50919050565b7f4e487b7100000000000000000000000000000000000000000000000000000000600052602260045260246000fd5b6000601f19601f8301169050919050565b6106738161057d565b811461067e57600080fd5b50565b61068a816105bb565b811461069557600080fd5b5056fea2646970667358221220fdc002007197319c89043b47d6f35669c4dc5ad1d6bedf44ef7534abf1dd5ff364736f6c63430008040033",
  "immutableReferences": {},
  "source": "//SPDX-License-Identifier: Unlicense\npragma solidity ^0.8.4;\n\nimport \"../libraries/ClaimVaultLib.sol\";\n\ncontract BaseVaultStorage {\n    uint256 public maxInputOnceTime;\n    ///\n    string public name;\n    ///\n    address public tos;\n\n    uint256 public totalAllocatedAmount;\n    uint256 public totalClaimedAmount;\n    // uint256 public totalClaims;\n\n    uint256 public startTime;\n    uint256 public endTime;\n    uint256 public periodTimesPerClaim;\n\n    uint256 public totalClaims;\n    uint256 public totalTgeCount;\n    uint256 public totalTgeAmount;\n\n    /// round => TgeInfo\n    mapping(uint256 => ClaimVaultLib.TgeInfo) public tgeInfos;\n\n    mapping(address => uint256) public userClaimedAmount;\n\n    modifier nonZeroAddress(address _addr) {\n        require(_addr != address(0), \"BaseVaultStorage: zero address\");\n        _;\n    }\n\n    modifier nonZero(uint256 _value) {\n        require(_value > 0, \"BaseVaultStorage: zero value\");\n        _;\n    }\n\n    modifier nonSame(uint256 _value1, uint256 _value2) {\n        require(_value1 != _value2, \"BaseVault: same value\");\n        _;\n    }\n\n    modifier nonSameAddress(address _value1, address _value2) {\n        require(_value1 != _value2, \"BaseVault: same address\");\n        _;\n    }\n\n    modifier validTgeRound(uint256 _round) {\n        require(_round <= totalTgeCount, \"BaseVault: exceed available round\");\n        _;\n    }\n\n    modifier validMaxInputOnceTime(uint256 _length) {\n        require(\n            _length > 0 && _length <= maxInputOnceTime,\n            \"BaseVault: check input count at once time\"\n        );\n        _;\n    }\n}\n",
  "sourcePath": "/Users/zena/tonstarter/tonstarter-token-distribution/contracts/vaults/BaseVaultStorage.sol",
  "compiler": {
    "name": "solc",
    "version": "0.8.4+commit.c7e474f2.Emscripten.clang"
  },
  "schemaVersion": "3.4.4",
  "updatedAt": "2023-11-27T04:24:13.000Z",
  "devdoc": {
    "kind": "dev",
    "methods": {},
    "version": 1
  },
  "userdoc": {
    "kind": "user",
    "methods": {
      "tgeInfos(uint256)": {
        "notice": "round => TgeInfo"
      }
    },
    "version": 1
  }
}