{
  "contractName": "DesignateVault",
  "abi": [
    {
      "inputs": [
        {
          "internalType": "string",
          "name": "_name",
          "type": "string"
        },
        {
          "internalType": "address",
          "name": "_token",
          "type": "address"
        }
      ],
      "stateMutability": "nonpayable",
      "type": "constructor"
    },
    {
      "anonymous": false,
      "inputs": [
        {
          "indexed": true,
          "internalType": "address",
          "name": "previousOwner",
          "type": "address"
        },
        {
          "indexed": true,
          "internalType": "address",
          "name": "newOwner",
          "type": "address"
        }
      ],
      "name": "OwnershipTransferred",
      "type": "event"
    },
    {
      "inputs": [
        {
          "internalType": "uint256",
          "name": "",
          "type": "uint256"
        }
      ],
      "name": "claimedTimesOfNoByCliamer",
      "outputs": [
        {
          "internalType": "uint256",
          "name": "",
          "type": "uint256"
        }
      ],
      "stateMutability": "view",
      "type": "function"
    },
    {
      "inputs": [],
      "name": "claimer",
      "outputs": [
        {
          "internalType": "address",
          "name": "",
          "type": "address"
        }
      ],
      "stateMutability": "view",
      "type": "function"
    },
    {
      "inputs": [],
      "name": "endTime",
      "outputs": [
        {
          "internalType": "uint256",
          "name": "",
          "type": "uint256"
        }
      ],
      "stateMutability": "view",
      "type": "function"
    },
    {
      "inputs": [],
      "name": "lastClaimedNo",
      "outputs": [
        {
          "internalType": "uint256",
          "name": "",
          "type": "uint256"
        }
      ],
      "stateMutability": "view",
      "type": "function"
    },
    {
      "inputs": [],
      "name": "name",
      "outputs": [
        {
          "internalType": "string",
          "name": "",
          "type": "string"
        }
      ],
      "stateMutability": "view",
      "type": "function"
    },
    {
      "inputs": [],
      "name": "oneClaimAmountByClaimer",
      "outputs": [
        {
          "internalType": "uint256",
          "name": "",
          "type": "uint256"
        }
      ],
      "stateMutability": "view",
      "type": "function"
    },
    {
      "inputs": [],
      "name": "owner",
      "outputs": [
        {
          "internalType": "address",
          "name": "",
          "type": "address"
        }
      ],
      "stateMutability": "view",
      "type": "function"
    },
    {
      "inputs": [],
      "name": "periodTimesPerCliam",
      "outputs": [
        {
          "internalType": "uint256",
          "name": "",
          "type": "uint256"
        }
      ],
      "stateMutability": "view",
      "type": "function"
    },
    {
      "inputs": [],
      "name": "renounceOwnership",
      "outputs": [],
      "stateMutability": "nonpayable",
      "type": "function"
    },
    {
      "inputs": [],
      "name": "startTime",
      "outputs": [
        {
          "internalType": "uint256",
          "name": "",
          "type": "uint256"
        }
      ],
      "stateMutability": "view",
      "type": "function"
    },
    {
      "inputs": [],
      "name": "startedByClaimer",
      "outputs": [
        {
          "internalType": "bool",
          "name": "",
          "type": "bool"
        }
      ],
      "stateMutability": "view",
      "type": "function"
    },
    {
      "inputs": [
        {
          "internalType": "uint256",
          "name": "",
          "type": "uint256"
        }
      ],
      "name": "tgeInfos",
      "outputs": [
        {
          "internalType": "bool",
          "name": "allocated",
          "type": "bool"
        },
        {
          "internalType": "bool",
          "name": "started",
          "type": "bool"
        },
        {
          "internalType": "uint256",
          "name": "allocatedAmount",
          "type": "uint256"
        },
        {
          "internalType": "uint256",
          "name": "claimedCount",
          "type": "uint256"
        },
        {
          "internalType": "uint256",
          "name": "amount",
          "type": "uint256"
        }
      ],
      "stateMutability": "view",
      "type": "function"
    },
    {
      "inputs": [],
      "name": "token",
      "outputs": [
        {
          "internalType": "address",
          "name": "",
          "type": "address"
        }
      ],
      "stateMutability": "view",
      "type": "function"
    },
    {
      "inputs": [],
      "name": "totalAllocatedAmount",
      "outputs": [
        {
          "internalType": "uint256",
          "name": "",
          "type": "uint256"
        }
      ],
      "stateMutability": "view",
      "type": "function"
    },
    {
      "inputs": [],
      "name": "totalClaimedAmount",
      "outputs": [
        {
          "internalType": "uint256",
          "name": "",
          "type": "uint256"
        }
      ],
      "stateMutability": "view",
      "type": "function"
    },
    {
      "inputs": [],
      "name": "totalClaimedCountByClaimer",
      "outputs": [
        {
          "internalType": "uint256",
          "name": "",
          "type": "uint256"
        }
      ],
      "stateMutability": "view",
      "type": "function"
    },
    {
      "inputs": [],
      "name": "totalClaims",
      "outputs": [
        {
          "internalType": "uint256",
          "name": "",
          "type": "uint256"
        }
      ],
      "stateMutability": "view",
      "type": "function"
    },
    {
      "inputs": [],
      "name": "totalTgeCount",
      "outputs": [
        {
          "internalType": "uint256",
          "name": "",
          "type": "uint256"
        }
      ],
      "stateMutability": "view",
      "type": "function"
    },
    {
      "inputs": [
        {
          "internalType": "address",
          "name": "newOwner",
          "type": "address"
        }
      ],
      "name": "transferOwnership",
      "outputs": [],
      "stateMutability": "nonpayable",
      "type": "function"
    },
    {
      "inputs": [
        {
          "internalType": "uint256",
          "name": "_totalAllocatedAmount",
          "type": "uint256"
        },
        {
          "internalType": "uint256",
          "name": "_totalClaims",
          "type": "uint256"
        },
        {
          "internalType": "uint256",
          "name": "_totalTgeCount",
          "type": "uint256"
        },
        {
          "internalType": "uint256",
          "name": "_startTime",
          "type": "uint256"
        },
        {
          "internalType": "uint256",
          "name": "_periodTimesPerCliam",
          "type": "uint256"
        }
      ],
      "name": "initialize",
      "outputs": [],
      "stateMutability": "nonpayable",
      "type": "function"
    },
    {
      "inputs": [
        {
          "internalType": "address",
          "name": "_newClaimer",
          "type": "address"
        }
      ],
      "name": "setClaimer",
      "outputs": [],
      "stateMutability": "nonpayable",
      "type": "function"
    }
  ],
  "bytecode": "0x60806040523480156200001157600080fd5b5060405162001724380380620017248339818101604052810190620000379190620002cb565b6000620000496200018a60201b60201c565b9050806000806101000a81548173ffffffffffffffffffffffffffffffffffffffff021916908373ffffffffffffffffffffffffffffffffffffffff1602179055508073ffffffffffffffffffffffffffffffffffffffff16600073ffffffffffffffffffffffffffffffffffffffff167f8be0079c531659141344cd1fd0a4f28419497f9722a3daafe3b4186f6b6457e060405160405180910390a3508160019080519060200190620000ff92919062000192565b5080600260006101000a81548173ffffffffffffffffffffffffffffffffffffffff021916908373ffffffffffffffffffffffffffffffffffffffff16021790555033600360006101000a81548173ffffffffffffffffffffffffffffffffffffffff021916908373ffffffffffffffffffffffffffffffffffffffff1602179055505050620004a4565b600033905090565b828054620001a090620003f6565b90600052602060002090601f016020900481019282620001c4576000855562000210565b82601f10620001df57805160ff191683800117855562000210565b8280016001018555821562000210579182015b828111156200020f578251825591602001919060010190620001f2565b5b5090506200021f919062000223565b5090565b5b808211156200023e57600081600090555060010162000224565b5090565b600062000259620002538462000359565b62000325565b9050828152602081018484840111156200027257600080fd5b6200027f848285620003c0565b509392505050565b60008151905062000298816200048a565b92915050565b600082601f830112620002b057600080fd5b8151620002c284826020860162000242565b91505092915050565b60008060408385031215620002df57600080fd5b600083015167ffffffffffffffff811115620002fa57600080fd5b62000308858286016200029e565b92505060206200031b8582860162000287565b9150509250929050565b6000604051905081810181811067ffffffffffffffff821117156200034f576200034e6200045b565b5b8060405250919050565b600067ffffffffffffffff8211156200037757620003766200045b565b5b601f19601f8301169050602081019050919050565b60006200039982620003a0565b9050919050565b600073ffffffffffffffffffffffffffffffffffffffff82169050919050565b60005b83811015620003e0578082015181840152602081019050620003c3565b83811115620003f0576000848401525b50505050565b600060028204905060018216806200040f57607f821691505b602082108114156200042657620004256200042c565b5b50919050565b7f4e487b7100000000000000000000000000000000000000000000000000000000600052602260045260246000fd5b7f4e487b7100000000000000000000000000000000000000000000000000000000600052604160045260246000fd5b62000495816200038c565b8114620004a157600080fd5b50565b61127080620004b46000396000f3fe608060405234801561001057600080fd5b50600436106101375760003560e01c80639661cb0d116100b8578063d99347191161007c578063d993471914610310578063dcbab6081461032e578063e63e18a81461034a578063f2fde38b14610368578063f64f4a3914610384578063fc0c546a146103a257610137565b80639661cb0d1461026a578063a0aa7d0c14610288578063c1ed577f146102b8578063cdfb5832146102d6578063d379be23146102f257610137565b806341c61383116100ff57806341c61383146101e85780635564000814610206578063715018a61461022457806378e979251461022e5780638da5cb5b1461024c57610137565b806306fdde031461013c578063166cf32c1461015a57806317d426f71461018e5780633197cbb6146101ac57806335e8bcd2146101ca575b600080fd5b6101446103c0565b6040516101519190610f47565b60405180910390f35b610174600480360381019061016f9190610c52565b61044e565b604051610185959493929190610ef4565b60405180910390f35b61019661049e565b6040516101a39190611009565b60405180910390f35b6101b46104a4565b6040516101c19190611009565b60405180910390f35b6101d26104aa565b6040516101df9190611009565b60405180910390f35b6101f06104b0565b6040516101fd9190611009565b60405180910390f35b61020e6104b6565b60405161021b9190611009565b60405180910390f35b61022c6104bc565b005b6102366105f6565b6040516102439190611009565b60405180910390f35b6102546105fc565b6040516102619190610ebe565b60405180910390f35b610272610625565b60405161027f9190611009565b60405180910390f35b6102a2600480360381019061029d9190610c52565b61062b565b6040516102af9190611009565b60405180910390f35b6102c0610643565b6040516102cd9190611009565b60405180910390f35b6102f060048036038101906102eb9190610c29565b610649565b005b6102fa61080c565b6040516103079190610ebe565b60405180910390f35b610318610832565b6040516103259190611009565b60405180910390f35b61034860048036038101906103439190610c7b565b610838565b005b610352610a0f565b60405161035f9190611009565b60405180910390f35b610382600480360381019061037d9190610c29565b610a15565b005b61038c610bbe565b6040516103999190610ed9565b60405180910390f35b6103aa610bd1565b6040516103b79190610ebe565b60405180910390f35b600180546103cd9061116b565b80601f01602080910402602001604051908101604052809291908181526020018280546103f99061116b565b80156104465780601f1061041b57610100808354040283529160200191610446565b820191906000526020600020905b81548152906001019060200180831161042957829003601f168201915b505050505081565b600c6020528060005260406000206000915090508060000160009054906101000a900460ff16908060000160019054906101000a900460ff16908060010154908060020154908060030154905085565b600a5481565b60095481565b600d5481565b60065481565b60045481565b6104c4610bf7565b73ffffffffffffffffffffffffffffffffffffffff166104e26105fc565b73ffffffffffffffffffffffffffffffffffffffff1614610538576040517f08c379a000000000000000000000000000000000000000000000000000000000815260040161052f90610fc9565b60405180910390fd5b600073ffffffffffffffffffffffffffffffffffffffff1660008054906101000a900473ffffffffffffffffffffffffffffffffffffffff1673ffffffffffffffffffffffffffffffffffffffff167f8be0079c531659141344cd1fd0a4f28419497f9722a3daafe3b4186f6b6457e060405160405180910390a360008060006101000a81548173ffffffffffffffffffffffffffffffffffffffff021916908373ffffffffffffffffffffffffffffffffffffffff160217905550565b60085481565b60008060009054906101000a900473ffffffffffffffffffffffffffffffffffffffff16905090565b60055481565b600f6020528060005260406000206000915090505481565b60075481565b610651610bf7565b73ffffffffffffffffffffffffffffffffffffffff1661066f6105fc565b73ffffffffffffffffffffffffffffffffffffffff16146106c5576040517f08c379a00000000000000000000000000000000000000000000000000000000081526004016106bc90610fc9565b60405180910390fd5b80600073ffffffffffffffffffffffffffffffffffffffff168173ffffffffffffffffffffffffffffffffffffffff161415610736576040517f08c379a000000000000000000000000000000000000000000000000000000000815260040161072d90610f89565b60405180910390fd5b8173ffffffffffffffffffffffffffffffffffffffff16600360009054906101000a900473ffffffffffffffffffffffffffffffffffffffff1673ffffffffffffffffffffffffffffffffffffffff1614156107c7576040517f08c379a00000000000000000000000000000000000000000000000000000000081526004016107be90610fe9565b60405180910390fd5b81600360006101000a81548173ffffffffffffffffffffffffffffffffffffffff021916908373ffffffffffffffffffffffffffffffffffffffff1602179055505050565b600360009054906101000a900473ffffffffffffffffffffffffffffffffffffffff1681565b600b5481565b610840610bf7565b73ffffffffffffffffffffffffffffffffffffffff1661085e6105fc565b73ffffffffffffffffffffffffffffffffffffffff16146108b4576040517f08c379a00000000000000000000000000000000000000000000000000000000081526004016108ab90610fc9565b60405180910390fd5b84600081116108f8576040517f08c379a00000000000000000000000000000000000000000000000000000000081526004016108ef90610fa9565b60405180910390fd5b846000811161093c576040517f08c379a000000000000000000000000000000000000000000000000000000000815260040161093390610fa9565b60405180910390fd5b8360008111610980576040517f08c379a000000000000000000000000000000000000000000000000000000000815260040161097790610fa9565b60405180910390fd5b83600081116109c4576040517f08c379a00000000000000000000000000000000000000000000000000000000081526004016109bb90610fa9565b60405180910390fd5b886004819055508760068190555086600b819055508560088190555084600a8190555087856109f39190611096565b866109fe9190611040565b600981905550505050505050505050565b600e5481565b610a1d610bf7565b73ffffffffffffffffffffffffffffffffffffffff16610a3b6105fc565b73ffffffffffffffffffffffffffffffffffffffff1614610a91576040517f08c379a0000000000000000000000000000000000000000000000000000000008152600401610a8890610fc9565b60405180910390fd5b600073ffffffffffffffffffffffffffffffffffffffff168173ffffffffffffffffffffffffffffffffffffffff161415610b01576040517f08c379a0000000000000000000000000000000000000000000000000000000008152600401610af890610f69565b60405180910390fd5b8073ffffffffffffffffffffffffffffffffffffffff1660008054906101000a900473ffffffffffffffffffffffffffffffffffffffff1673ffffffffffffffffffffffffffffffffffffffff167f8be0079c531659141344cd1fd0a4f28419497f9722a3daafe3b4186f6b6457e060405160405180910390a3806000806101000a81548173ffffffffffffffffffffffffffffffffffffffff021916908373ffffffffffffffffffffffffffffffffffffffff16021790555050565b601060009054906101000a900460ff1681565b600260009054906101000a900473ffffffffffffffffffffffffffffffffffffffff1681565b600033905090565b600081359050610c0e8161120c565b92915050565b600081359050610c2381611223565b92915050565b600060208284031215610c3b57600080fd5b6000610c4984828501610bff565b91505092915050565b600060208284031215610c6457600080fd5b6000610c7284828501610c14565b91505092915050565b600080600080600060a08688031215610c9357600080fd5b6000610ca188828901610c14565b9550506020610cb288828901610c14565b9450506040610cc388828901610c14565b9350506060610cd488828901610c14565b9250506080610ce588828901610c14565b9150509295509295909350565b610cfb816110f0565b82525050565b610d0a81611102565b82525050565b6000610d1b82611024565b610d25818561102f565b9350610d35818560208601611138565b610d3e816111fb565b840191505092915050565b6000610d5660268361102f565b91507f4f776e61626c653a206e6577206f776e657220697320746865207a65726f206160008301527f64647265737300000000000000000000000000000000000000000000000000006020830152604082019050919050565b6000610dbc601c8361102f565b91507f44657369676e6174655661756c743a207a65726f2061646472657373000000006000830152602082019050919050565b6000610dfc601a8361102f565b91507f44657369676e6174655661756c743a207a65726f2076616c75650000000000006000830152602082019050919050565b6000610e3c60208361102f565b91507f4f776e61626c653a2063616c6c6572206973206e6f7420746865206f776e65726000830152602082019050919050565b6000610e7c601c8361102f565b91507f44657369676e6174655661756c743a2073616d652061646472657373000000006000830152602082019050919050565b610eb88161112e565b82525050565b6000602082019050610ed36000830184610cf2565b92915050565b6000602082019050610eee6000830184610d01565b92915050565b600060a082019050610f096000830188610d01565b610f166020830187610d01565b610f236040830186610eaf565b610f306060830185610eaf565b610f3d6080830184610eaf565b9695505050505050565b60006020820190508181036000830152610f618184610d10565b905092915050565b60006020820190508181036000830152610f8281610d49565b9050919050565b60006020820190508181036000830152610fa281610daf565b9050919050565b60006020820190508181036000830152610fc281610def565b9050919050565b60006020820190508181036000830152610fe281610e2f565b9050919050565b6000602082019050818103600083015261100281610e6f565b9050919050565b600060208201905061101e6000830184610eaf565b92915050565b600081519050919050565b600082825260208201905092915050565b600061104b8261112e565b91506110568361112e565b9250827fffffffffffffffffffffffffffffffffffffffffffffffffffffffffffffffff0382111561108b5761108a61119d565b5b828201905092915050565b60006110a18261112e565b91506110ac8361112e565b9250817fffffffffffffffffffffffffffffffffffffffffffffffffffffffffffffffff04831182151516156110e5576110e461119d565b5b828202905092915050565b60006110fb8261110e565b9050919050565b60008115159050919050565b600073ffffffffffffffffffffffffffffffffffffffff82169050919050565b6000819050919050565b60005b8381101561115657808201518184015260208101905061113b565b83811115611165576000848401525b50505050565b6000600282049050600182168061118357607f821691505b60208210811415611197576111966111cc565b5b50919050565b7f4e487b7100000000000000000000000000000000000000000000000000000000600052601160045260246000fd5b7f4e487b7100000000000000000000000000000000000000000000000000000000600052602260045260246000fd5b6000601f19601f8301169050919050565b611215816110f0565b811461122057600080fd5b50565b61122c8161112e565b811461123757600080fd5b5056fea2646970667358221220bd3a982390469a0f71294ad73633ffe2ed53601ed305199cdfdf9ac5371ec4ac64736f6c63430008000033",
  "immutableReferences": {},
  "source": "//SPDX-License-Identifier: Unlicense\npragma solidity ^0.8.0;\n\nimport \"@openzeppelin/contracts/token/ERC20/IERC20.sol\";\nimport \"@openzeppelin/contracts/token/ERC20/utils/SafeERC20.sol\";\nimport \"@openzeppelin/contracts/access/Ownable.sol\";\n//import \"hardhat/console.sol\";\n\ncontract DesignateVault is Ownable {\n    using SafeERC20 for IERC20;\n\n    struct TgeInfo {\n        bool allocated;\n        bool started;\n        uint256 allocatedAmount;\n        uint256 claimedCount;\n        uint256 amount;\n        address[] whitelist;\n        mapping(address=>uint256) claimedTime;\n    }\n\n    ///\n    string public name;\n    ///\n    address public token;\n    address public claimer;\n\n    uint256 public totalAllocatedAmount;\n    uint256 public totalClaimedAmount;\n    uint256 public totalClaims;\n    uint256 public lastClaimedNo;\n\n    uint256 public startTime;\n    uint256 public endTime;\n    uint256 public periodTimesPerCliam;\n\n    uint256 public totalTgeCount;\n    mapping(uint256=>TgeInfo) public tgeInfos;\n\n    uint256 public oneClaimAmountByClaimer;\n    uint256 public totalClaimedCountByClaimer;\n    mapping(uint256=>uint256) public claimedTimesOfNoByCliamer;\n    bool public startedByClaimer;\n\n\n    modifier nonZeroAddress(address _addr) {\n        require(_addr != address(0), \"DesignateVault: zero address\");\n        _;\n    }\n\n    modifier nonZero(uint256 _value) {\n        require(_value > 0, \"DesignateVault: zero value\");\n        _;\n    }\n\n    ///@dev constructor\n    ///@param _name Vault's name\n    ///@param _token Allocated token address\n    constructor(\n      string memory _name,\n      address _token\n    ) {\n      name = _name;\n      token = _token;\n      claimer = msg.sender;\n    }\n\n    ///@dev initialization function\n    ///@param _totalAllocatedAmount total allocated amount\n    ///@param _totalClaims total available claim count\n    ///@param _totalTgeCount   total tge count\n    ///@param _startTime start time\n    ///@param _periodTimesPerCliam period time per claim\n    function initialize(\n      uint256 _totalAllocatedAmount,\n      uint256 _totalClaims,\n      uint256 _totalTgeCount,\n      uint256 _startTime,\n      uint256 _periodTimesPerCliam\n    )\n      external onlyOwner\n      nonZero(_totalAllocatedAmount)\n      nonZero(_totalClaims)\n      nonZero(_startTime)\n      nonZero(_periodTimesPerCliam)\n    {\n      totalAllocatedAmount = _totalAllocatedAmount;\n      totalClaims = _totalClaims;\n      totalTgeCount = _totalTgeCount;\n      startTime = _startTime;\n      periodTimesPerCliam = _periodTimesPerCliam;\n      endTime  = _startTime + ( _periodTimesPerCliam * _totalClaims );\n    }\n\n    function setClaimer(\n      address _newClaimer\n    )\n      external onlyOwner\n      nonZeroAddress(_newClaimer)\n    {\n        require(claimer!=_newClaimer, \"DesignateVault: same address\");\n        claimer = _newClaimer;\n    }\n\n}\n",
  "sourcePath": "/Users/zena/tonstarter/tonstarter-token-distribution/contracts/DesignateVault.sol",
  "compiler": {
    "name": "solc",
    "version": "0.8.0+commit.c7dfd78e.Emscripten.clang"
  },
  "schemaVersion": "3.3.4",
  "updatedAt": "2021-06-25T06:27:27.807Z",
  "devdoc": {
    "kind": "dev",
    "methods": {
      "constructor": {
        "details": "constructor",
        "params": {
          "_name": "Vault's name",
          "_token": "Allocated token address"
        }
      },
      "initialize(uint256,uint256,uint256,uint256,uint256)": {
        "details": "initialization function",
        "params": {
          "_periodTimesPerCliam": "period time per claim",
          "_startTime": "start time",
          "_totalAllocatedAmount": "total allocated amount",
          "_totalClaims": "total available claim count",
          "_totalTgeCount": "total tge count"
        }
      },
      "owner()": {
        "details": "Returns the address of the current owner."
      },
      "renounceOwnership()": {
        "details": "Leaves the contract without owner. It will not be possible to call `onlyOwner` functions anymore. Can only be called by the current owner. NOTE: Renouncing ownership will leave the contract without an owner, thereby removing any functionality that is only available to the owner."
      },
      "transferOwnership(address)": {
        "details": "Transfers ownership of the contract to a new account (`newOwner`). Can only be called by the current owner."
      }
    },
    "version": 1
  },
  "userdoc": {
    "kind": "user",
    "methods": {},
    "version": 1
  }
}