{
  "contractName": "InitialContributorVault",
  "abi": [
    {
      "inputs": [
        {
          "internalType": "address",
          "name": "_tosAddress",
          "type": "address"
        },
        {
          "internalType": "uint256",
          "name": "_maxInputOnce",
          "type": "uint256"
        }
      ],
      "stateMutability": "nonpayable",
      "type": "constructor"
    },
    {
      "anonymous": false,
      "inputs": [
        {
          "indexed": true,
          "internalType": "address",
          "name": "previousOwner",
          "type": "address"
        },
        {
          "indexed": true,
          "internalType": "address",
          "name": "newOwner",
          "type": "address"
        }
      ],
      "name": "OwnershipTransferred",
      "type": "event"
    },
    {
      "inputs": [
        {
          "internalType": "uint256",
          "name": "round",
          "type": "uint256"
        },
        {
          "internalType": "address[]",
          "name": "users",
          "type": "address[]"
        }
      ],
      "name": "addWhitelist",
      "outputs": [],
      "stateMutability": "nonpayable",
      "type": "function"
    },
    {
      "inputs": [
        {
          "internalType": "uint256",
          "name": "round",
          "type": "uint256"
        },
        {
          "internalType": "uint256",
          "name": "amount",
          "type": "uint256"
        }
      ],
      "name": "allocateAmount",
      "outputs": [],
      "stateMutability": "nonpayable",
      "type": "function"
    },
    {
      "inputs": [],
      "name": "availableWithdrawAmount",
      "outputs": [
        {
          "internalType": "uint256",
          "name": "amount",
          "type": "uint256"
        }
      ],
      "stateMutability": "view",
      "type": "function"
    },
    {
      "inputs": [],
      "name": "claim",
      "outputs": [],
      "stateMutability": "nonpayable",
      "type": "function"
    },
    {
      "inputs": [
        {
          "internalType": "uint256",
          "name": "",
          "type": "uint256"
        }
      ],
      "name": "claimedTimesOfRoundByCliamer",
      "outputs": [
        {
          "internalType": "uint256",
          "name": "",
          "type": "uint256"
        }
      ],
      "stateMutability": "view",
      "type": "function"
    },
    {
      "inputs": [],
      "name": "claimer",
      "outputs": [
        {
          "internalType": "address",
          "name": "",
          "type": "address"
        }
      ],
      "stateMutability": "view",
      "type": "function"
    },
    {
      "inputs": [],
      "name": "endTime",
      "outputs": [
        {
          "internalType": "uint256",
          "name": "",
          "type": "uint256"
        }
      ],
      "stateMutability": "view",
      "type": "function"
    },
    {
      "inputs": [
        {
          "internalType": "uint256",
          "name": "round",
          "type": "uint256"
        }
      ],
      "name": "getTgeInfos",
      "outputs": [
        {
          "internalType": "bool",
          "name": "allocated",
          "type": "bool"
        },
        {
          "internalType": "bool",
          "name": "started",
          "type": "bool"
        },
        {
          "internalType": "uint256",
          "name": "allocatedAmount",
          "type": "uint256"
        },
        {
          "internalType": "uint256",
          "name": "claimedCount",
          "type": "uint256"
        },
        {
          "internalType": "uint256",
          "name": "amount",
          "type": "uint256"
        },
        {
          "internalType": "address[]",
          "name": "whitelist",
          "type": "address[]"
        }
      ],
      "stateMutability": "view",
      "type": "function"
    },
    {
      "inputs": [
        {
          "internalType": "uint256",
          "name": "round",
          "type": "uint256"
        },
        {
          "internalType": "address",
          "name": "user",
          "type": "address"
        }
      ],
      "name": "getWhitelistInfo",
      "outputs": [
        {
          "internalType": "bool",
          "name": "joined",
          "type": "bool"
        },
        {
          "internalType": "uint256",
          "name": "claimedTime",
          "type": "uint256"
        }
      ],
      "stateMutability": "view",
      "type": "function"
    },
    {
      "inputs": [
        {
          "internalType": "uint256",
          "name": "_totalAllocatedAmount",
          "type": "uint256"
        },
        {
          "internalType": "uint256",
          "name": "_totalClaims",
          "type": "uint256"
        },
        {
          "internalType": "uint256",
          "name": "_totalTgeCount",
          "type": "uint256"
        },
        {
          "internalType": "uint256",
          "name": "_startTime",
          "type": "uint256"
        },
        {
          "internalType": "uint256",
          "name": "_periodTimesPerCliam",
          "type": "uint256"
        }
      ],
      "name": "initialize",
      "outputs": [],
      "stateMutability": "nonpayable",
      "type": "function"
    },
    {
      "inputs": [],
      "name": "lastClaimedRound",
      "outputs": [
        {
          "internalType": "uint256",
          "name": "",
          "type": "uint256"
        }
      ],
      "stateMutability": "view",
      "type": "function"
    },
    {
      "inputs": [],
      "name": "maxInputOnceTime",
      "outputs": [
        {
          "internalType": "uint256",
          "name": "",
          "type": "uint256"
        }
      ],
      "stateMutability": "view",
      "type": "function"
    },
    {
      "inputs": [],
      "name": "name",
      "outputs": [
        {
          "internalType": "string",
          "name": "",
          "type": "string"
        }
      ],
      "stateMutability": "view",
      "type": "function"
    },
    {
      "inputs": [],
      "name": "nextClaimRound",
      "outputs": [
        {
          "internalType": "uint256",
          "name": "nextRound",
          "type": "uint256"
        }
      ],
      "stateMutability": "view",
      "type": "function"
    },
    {
      "inputs": [],
      "name": "nextClaimStartTime",
      "outputs": [
        {
          "internalType": "uint256",
          "name": "nextTime",
          "type": "uint256"
        }
      ],
      "stateMutability": "view",
      "type": "function"
    },
    {
      "inputs": [],
      "name": "oneClaimAmountByClaimer",
      "outputs": [
        {
          "internalType": "uint256",
          "name": "",
          "type": "uint256"
        }
      ],
      "stateMutability": "view",
      "type": "function"
    },
    {
      "inputs": [],
      "name": "owner",
      "outputs": [
        {
          "internalType": "address",
          "name": "",
          "type": "address"
        }
      ],
      "stateMutability": "view",
      "type": "function"
    },
    {
      "inputs": [],
      "name": "periodTimesPerCliam",
      "outputs": [
        {
          "internalType": "uint256",
          "name": "",
          "type": "uint256"
        }
      ],
      "stateMutability": "view",
      "type": "function"
    },
    {
      "inputs": [],
      "name": "renounceOwnership",
      "outputs": [],
      "stateMutability": "nonpayable",
      "type": "function"
    },
    {
      "inputs": [
        {
          "internalType": "address",
          "name": "_newClaimer",
          "type": "address"
        }
      ],
      "name": "setClaimer",
      "outputs": [],
      "stateMutability": "nonpayable",
      "type": "function"
    },
    {
      "inputs": [],
      "name": "start",
      "outputs": [],
      "stateMutability": "nonpayable",
      "type": "function"
    },
    {
      "inputs": [
        {
          "internalType": "uint256",
          "name": "round",
          "type": "uint256"
        }
      ],
      "name": "startRound",
      "outputs": [],
      "stateMutability": "nonpayable",
      "type": "function"
    },
    {
      "inputs": [],
      "name": "startTime",
      "outputs": [
        {
          "internalType": "uint256",
          "name": "",
          "type": "uint256"
        }
      ],
      "stateMutability": "view",
      "type": "function"
    },
    {
      "inputs": [],
      "name": "startedByClaimer",
      "outputs": [
        {
          "internalType": "bool",
          "name": "",
          "type": "bool"
        }
      ],
      "stateMutability": "view",
      "type": "function"
    },
    {
      "inputs": [
        {
          "internalType": "uint256",
          "name": "",
          "type": "uint256"
        }
      ],
      "name": "tgeInfos",
      "outputs": [
        {
          "internalType": "bool",
          "name": "allocated",
          "type": "bool"
        },
        {
          "internalType": "bool",
          "name": "started",
          "type": "bool"
        },
        {
          "internalType": "uint256",
          "name": "allocatedAmount",
          "type": "uint256"
        },
        {
          "internalType": "uint256",
          "name": "claimedCount",
          "type": "uint256"
        },
        {
          "internalType": "uint256",
          "name": "amount",
          "type": "uint256"
        }
      ],
      "stateMutability": "view",
      "type": "function"
    },
    {
      "inputs": [],
      "name": "token",
      "outputs": [
        {
          "internalType": "address",
          "name": "",
          "type": "address"
        }
      ],
      "stateMutability": "view",
      "type": "function"
    },
    {
      "inputs": [],
      "name": "totalAllocatedAmount",
      "outputs": [
        {
          "internalType": "uint256",
          "name": "",
          "type": "uint256"
        }
      ],
      "stateMutability": "view",
      "type": "function"
    },
    {
      "inputs": [],
      "name": "totalClaimedAmount",
      "outputs": [
        {
          "internalType": "uint256",
          "name": "",
          "type": "uint256"
        }
      ],
      "stateMutability": "view",
      "type": "function"
    },
    {
      "inputs": [],
      "name": "totalClaimedCountByClaimer",
      "outputs": [
        {
          "internalType": "uint256",
          "name": "",
          "type": "uint256"
        }
      ],
      "stateMutability": "view",
      "type": "function"
    },
    {
      "inputs": [],
      "name": "totalClaims",
      "outputs": [
        {
          "internalType": "uint256",
          "name": "",
          "type": "uint256"
        }
      ],
      "stateMutability": "view",
      "type": "function"
    },
    {
      "inputs": [],
      "name": "totalTgeAmount",
      "outputs": [
        {
          "internalType": "uint256",
          "name": "",
          "type": "uint256"
        }
      ],
      "stateMutability": "view",
      "type": "function"
    },
    {
      "inputs": [],
      "name": "totalTgeCount",
      "outputs": [
        {
          "internalType": "uint256",
          "name": "",
          "type": "uint256"
        }
      ],
      "stateMutability": "view",
      "type": "function"
    },
    {
      "inputs": [
        {
          "internalType": "address",
          "name": "newOwner",
          "type": "address"
        }
      ],
      "name": "transferOwnership",
      "outputs": [],
      "stateMutability": "nonpayable",
      "type": "function"
    },
    {
      "inputs": [],
      "name": "unclaimedInfos",
      "outputs": [
        {
          "internalType": "uint256",
          "name": "count",
          "type": "uint256"
        },
        {
          "internalType": "uint256",
          "name": "amount",
          "type": "uint256"
        }
      ],
      "stateMutability": "view",
      "type": "function"
    },
    {
      "inputs": [
        {
          "internalType": "address",
          "name": "to",
          "type": "address"
        }
      ],
      "name": "withdraw",
      "outputs": [],
      "stateMutability": "nonpayable",
      "type": "function"
    }
  ],
  "bytecode": "0x60806040523480156200001157600080fd5b5060405162003bf738038062003bf78339818101604052810190620000379190620002b2565b6040518060400160405280601281526020017f496e697469616c436f6e7472696275746f7200000000000000000000000000008152508282600062000081620001cc60201b60201c565b9050806000806101000a81548173ffffffffffffffffffffffffffffffffffffffff021916908373ffffffffffffffffffffffffffffffffffffffff1602179055508073ffffffffffffffffffffffffffffffffffffffff16600073ffffffffffffffffffffffffffffffffffffffff167f8be0079c531659141344cd1fd0a4f28419497f9722a3daafe3b4186f6b6457e060405160405180910390a350826002908051906020019062000137929190620001d4565b5081600360006101000a81548173ffffffffffffffffffffffffffffffffffffffff021916908373ffffffffffffffffffffffffffffffffffffffff16021790555033600460006101000a81548173ffffffffffffffffffffffffffffffffffffffff021916908373ffffffffffffffffffffffffffffffffffffffff160217905550806001819055505050505050620003ca565b600033905090565b828054620001e29062000331565b90600052602060002090601f01602090048101928262000206576000855562000252565b82601f106200022157805160ff191683800117855562000252565b8280016001018555821562000252579182015b828111156200025157825182559160200191906001019062000234565b5b50905062000261919062000265565b5090565b5b808211156200028057600081600090555060010162000266565b5090565b600081519050620002958162000396565b92915050565b600081519050620002ac81620003b0565b92915050565b60008060408385031215620002c657600080fd5b6000620002d68582860162000284565b9250506020620002e9858286016200029b565b9150509250929050565b6000620003008262000307565b9050919050565b600073ffffffffffffffffffffffffffffffffffffffff82169050919050565b6000819050919050565b600060028204905060018216806200034a57607f821691505b6020821081141562000361576200036062000367565b5b50919050565b7f4e487b7100000000000000000000000000000000000000000000000000000000600052602260045260246000fd5b620003a181620002f3565b8114620003ad57600080fd5b50565b620003bb8162000327565b8114620003c757600080fd5b50565b61381d80620003da6000396000f3fe608060405234801561001057600080fd5b50600436106102115760003560e01c8063814f26fc11610125578063cdfb5832116100ad578063e63e18a81161007c578063e63e18a8146105a5578063f2fde38b146105c3578063f64f4a39146105df578063fc0c546a146105fd578063fe7354001461061b57610211565b8063cdfb583214610531578063d379be231461054d578063d99347191461056b578063dcbab6081461058957610211565b80638da5cb5b116100f45780638da5cb5b1461049e5780639661cb0d146104bc5780639bde5427146104da578063be9a6555146104f6578063cb1b782f1461050057610211565b8063814f26fc1461041557806383ff34951461043357806385d0a815146104525780638aa1e44e1461048257610211565b80634e71d92d116101a85780635fc3d52d116101775780635fc3d52d1461039557806361202e3b146103b157806368871d6e146103cf578063715018a6146103ed57806378e97925146103f757610211565b80634e71d92d1461031c578063517da7191461032657806351cff8d91461035b578063556400081461037757610211565b806335e8bcd2116101e457806335e8bcd2146102a45780633e59df35146102c25780633ef1a1aa146102e057806341c61383146102fe57610211565b806306fdde0314610216578063166cf32c1461023457806317d426f7146102685780633197cbb614610286575b600080fd5b61021e610639565b60405161022b9190612e58565b60405180910390f35b61024e60048036038101906102499190612861565b6106c7565b60405161025f959493929190612d74565b60405180910390f35b610270610717565b60405161027d919061307a565b60405180910390f35b61028e61071d565b60405161029b919061307a565b60405180910390f35b6102ac610723565b6040516102b9919061307a565b60405180910390f35b6102ca610729565b6040516102d7919061307a565b60405180910390f35b6102e861072f565b6040516102f5919061307a565b60405180910390f35b610306610735565b604051610313919061307a565b60405180910390f35b61032461073b565b005b610340600480360381019061033b9190612861565b610c06565b60405161035296959493929190612dc7565b60405180910390f35b6103756004803603810190610370919061280f565b610d86565b005b61037f610f6c565b60405161038c919061307a565b60405180910390f35b6103af60048036038101906103aa9190612861565b610f72565b005b6103b9611199565b6040516103c6919061307a565b60405180910390f35b6103d76112b2565b6040516103e4919061307a565b60405180910390f35b6103f56112d7565b005b6103ff611411565b60405161040c919061307a565b60405180910390f35b61041d611417565b60405161042a919061307a565b60405180910390f35b61043b61141d565b604051610449929190613095565b60405180910390f35b61046c60048036038101906104679190612861565b61164b565b604051610479919061307a565b60405180910390f35b61049c600480360381019061049791906128ef565b611663565b005b6104a6611a51565b6040516104b39190612d15565b60405180910390f35b6104c4611a7a565b6040516104d1919061307a565b60405180910390f35b6104f460048036038101906104ef9190612947565b611a80565b005b6104fe611cca565b005b61051a600480360381019061051591906128b3565b611eb1565b604051610528929190612e2f565b60405180910390f35b61054b6004803603810190610546919061280f565b612056565b005b610555612219565b6040516105629190612d15565b60405180910390f35b61057361223f565b604051610580919061307a565b60405180910390f35b6105a3600480360381019061059e9190612983565b612245565b005b6105ad61254e565b6040516105ba919061307a565b60405180910390f35b6105dd60048036038101906105d8919061280f565b612554565b005b6105e76126fd565b6040516105f49190612d59565b60405180910390f35b610605612710565b6040516106129190612d15565b60405180910390f35b610623612736565b604051610630919061307a565b60405180910390f35b60028054610646906132a3565b80601f0160208091040260200160405190810160405280929190818152602001828054610672906132a3565b80156106bf5780601f10610694576101008083540402835291602001916106bf565b820191906000526020600020905b8154815290600101906020018083116106a257829003601f168201915b505050505081565b600e6020528060005260406000206000915090508060000160009054906101000a900460ff16908060000160019054906101000a900460ff16908060010154908060020154908060030154905085565b600b5481565b600a5481565b600f5481565b60085481565b60015481565b60075481565b6000806000600b546009544261075191906131f4565b61075b9190613169565b9050600460009054906101000a900473ffffffffffffffffffffffffffffffffffffffff1673ffffffffffffffffffffffffffffffffffffffff163373ffffffffffffffffffffffffffffffffffffffff16141561095857600c5460085411156107df578060085410156107da57600854816107d791906131f4565b92505b6107fb565b80600c5410156107fa57600c54816107f791906131f4565b92505b5b600083111561095357600f5483610812919061319a565b915080600881905550816006600082825461082d9190613113565b9250508190555060106000815480929190610847906132d5565b9190505550426011600083815260200190815260200160002081905550600360009054906101000a900473ffffffffffffffffffffffffffffffffffffffff1673ffffffffffffffffffffffffffffffffffffffff1663a9059cbb33846040518363ffffffff1660e01b81526004016108c1929190612d30565b602060405180830381600087803b1580156108db57600080fd5b505af11580156108ef573d6000803e3d6000fd5b505050506040513d601f19601f820116820180604052508101906109139190612838565b610952576040517f08c379a000000000000000000000000000000000000000000000000000000000815260040161094990612fba565b60405180910390fd5b5b610c01565b6000600190505b600c548111610bff57600b5460018261097891906131f4565b610982919061319a565b60095461098f9190613113565b421115610bec576000600e600083815260200190815260200160002090508060000160019054906101000a900460ff1615610adc578060050160003373ffffffffffffffffffffffffffffffffffffffff1673ffffffffffffffffffffffffffffffffffffffff16815260200190815260200160002060000160009054906101000a900460ff168015610a66575060008160050160003373ffffffffffffffffffffffffffffffffffffffff1673ffffffffffffffffffffffffffffffffffffffff16815260200190815260200160002060010154145b15610adb5760008160050160003373ffffffffffffffffffffffffffffffffffffffff1673ffffffffffffffffffffffffffffffffffffffff16815260200190815260200160002090508580610abb906132d5565b965050428160010181905550816003015485610ad79190613113565b9450505b5b826008819055508360066000828254610af59190613113565b92505081905550600360009054906101000a900473ffffffffffffffffffffffffffffffffffffffff1673ffffffffffffffffffffffffffffffffffffffff1663a9059cbb33866040518363ffffffff1660e01b8152600401610b59929190612d30565b602060405180830381600087803b158015610b7357600080fd5b505af1158015610b87573d6000803e3d6000fd5b505050506040513d601f19601f82011682018060405250810190610bab9190612838565b610bea576040517f08c379a0000000000000000000000000000000000000000000000000000000008152600401610be190612fba565b60405180910390fd5b505b8080610bf7906132d5565b91505061095f565b505b505050565b600080600080600060608660008111610c54576040517f08c379a0000000000000000000000000000000000000000000000000000000008152600401610c4b90612f3a565b60405180910390fd5b600c54881115610c99576040517f08c379a0000000000000000000000000000000000000000000000000000000008152600401610c9090612eba565b60405180910390fd5b6000600e60008a815260200190815260200160002090508060000160009054906101000a900460ff168160000160019054906101000a900460ff168260010154836002015484600301548560040180805480602002602001604051908101604052809291908181526020018280548015610d6857602002820191906000526020600020905b8160009054906101000a900473ffffffffffffffffffffffffffffffffffffffff1673ffffffffffffffffffffffffffffffffffffffff1681526020019060010190808311610d1e575b50505050509050975097509750975097509750505091939550919395565b610d8e612769565b73ffffffffffffffffffffffffffffffffffffffff16610dac611a51565b73ffffffffffffffffffffffffffffffffffffffff1614610e02576040517f08c379a0000000000000000000000000000000000000000000000000000000008152600401610df990612f5a565b60405180910390fd5b80600073ffffffffffffffffffffffffffffffffffffffff168173ffffffffffffffffffffffffffffffffffffffff161415610e73576040517f08c379a0000000000000000000000000000000000000000000000000000000008152600401610e6a90612f1a565b60405180910390fd5b600360009054906101000a900473ffffffffffffffffffffffffffffffffffffffff1673ffffffffffffffffffffffffffffffffffffffff1663a9059cbb83610eba611199565b6040518363ffffffff1660e01b8152600401610ed7929190612d30565b602060405180830381600087803b158015610ef157600080fd5b505af1158015610f05573d6000803e3d6000fd5b505050506040513d601f19601f82011682018060405250810190610f299190612838565b610f68576040517f08c379a0000000000000000000000000000000000000000000000000000000008152600401610f5f90612fba565b60405180910390fd5b5050565b60055481565b610f7a612769565b73ffffffffffffffffffffffffffffffffffffffff16610f98611a51565b73ffffffffffffffffffffffffffffffffffffffff1614610fee576040517f08c379a0000000000000000000000000000000000000000000000000000000008152600401610fe590612f5a565b60405180910390fd5b8060008111611032576040517f08c379a000000000000000000000000000000000000000000000000000000000815260040161102990612f3a565b60405180910390fd5b60075460008111611078576040517f08c379a000000000000000000000000000000000000000000000000000000000815260040161106f90612f3a565b60405180910390fd5b600c548311156110bd576040517f08c379a00000000000000000000000000000000000000000000000000000000081526004016110b490612eba565b60405180910390fd5b6000600e600085815260200190815260200160002090508060000160019054906101000a900460ff1615611126576040517f08c379a000000000000000000000000000000000000000000000000000000000815260040161111d90612fda565b60405180910390fd5b60018160000160016101000a81548160ff0219169083151502179055506000816001015411156111935760008160040180549050111561118457806004018054905081600101546111779190613169565b8160030181905550611192565b806001015481600301819055505b5b50505050565b600080600360009054906101000a900473ffffffffffffffffffffffffffffffffffffffff1673ffffffffffffffffffffffffffffffffffffffff166370a08231306040518263ffffffff1660e01b81526004016111f79190612d15565b60206040518083038186803b15801561120f57600080fd5b505afa158015611223573d6000803e3d6000fd5b505050506040513d601f19601f82011682018060405250810190611247919061288a565b9050600060065460055461125b91906131f4565b905080821161129f576040517f08c379a000000000000000000000000000000000000000000000000000000000815260040161129690612f7a565b60405180910390fd5b80826112ab91906131f4565b9250505090565b600060016008546112c39190613113565b90508060075410156112d457600090505b90565b6112df612769565b73ffffffffffffffffffffffffffffffffffffffff166112fd611a51565b73ffffffffffffffffffffffffffffffffffffffff1614611353576040517f08c379a000000000000000000000000000000000000000000000000000000000815260040161134a90612f5a565b60405180910390fd5b600073ffffffffffffffffffffffffffffffffffffffff1660008054906101000a900473ffffffffffffffffffffffffffffffffffffffff1673ffffffffffffffffffffffffffffffffffffffff167f8be0079c531659141344cd1fd0a4f28419497f9722a3daafe3b4186f6b6457e060405160405180910390a360008060006101000a81548173ffffffffffffffffffffffffffffffffffffffff021916908373ffffffffffffffffffffffffffffffffffffffff160217905550565b60095481565b600d5481565b60008060009150600090506000600b546009544261143b91906131f4565b6114459190613169565b9050600460009054906101000a900473ffffffffffffffffffffffffffffffffffffffff1673ffffffffffffffffffffffffffffffffffffffff163373ffffffffffffffffffffffffffffffffffffffff16141561150457600c5460085411156114c9578060085410156114c457600854816114c191906131f4565b92505b6114e5565b80600c5410156114e457600c54816114e191906131f4565b92505b5b60008311156114ff57600f54836114fc919061319a565b91505b611646565b6000600190505b600c548111611644576000600e600083815260200190815260200160002090508060000160019054906101000a900460ff1680156115625750600b5482611552919061319a565b60095461155f9190613113565b42115b15611630578060050160003373ffffffffffffffffffffffffffffffffffffffff1673ffffffffffffffffffffffffffffffffffffffff16815260200190815260200160002060000160009054906101000a900460ff168015611609575060008160050160003373ffffffffffffffffffffffffffffffffffffffff1673ffffffffffffffffffffffffffffffffffffffff16815260200190815260200160002060010154145b1561162f578480611619906132d5565b95505080600301548461162c9190613113565b93505b5b50808061163c906132d5565b91505061150b565b505b509091565b60116020528060005260406000206000915090505481565b61166b612769565b73ffffffffffffffffffffffffffffffffffffffff16611689611a51565b73ffffffffffffffffffffffffffffffffffffffff16146116df576040517f08c379a00000000000000000000000000000000000000000000000000000000081526004016116d690612f5a565b60405180910390fd5b8260008111611723576040517f08c379a000000000000000000000000000000000000000000000000000000000815260040161171a90612f3a565b60405180910390fd5b600c54841115611768576040517f08c379a000000000000000000000000000000000000000000000000000000000815260040161175f90612eba565b60405180910390fd5b60008383905011801561178057506001548383905011155b6117bf576040517f08c379a00000000000000000000000000000000000000000000000000000000081526004016117b69061301a565b60405180910390fd5b6000600e600086815260200190815260200160002090508060000160019054906101000a900460ff1615611828576040517f08c379a000000000000000000000000000000000000000000000000000000000815260040161181f90612fda565b60405180910390fd5b60005b84849050811015611a4957816005016000868684818110611875577f4e487b7100000000000000000000000000000000000000000000000000000000600052603260045260246000fd5b905060200201602081019061188a919061280f565b73ffffffffffffffffffffffffffffffffffffffff1673ffffffffffffffffffffffffffffffffffffffff16815260200190815260200160002060000160009054906101000a900460ff16611a3657600182600501600087878581811061191a577f4e487b7100000000000000000000000000000000000000000000000000000000600052603260045260246000fd5b905060200201602081019061192f919061280f565b73ffffffffffffffffffffffffffffffffffffffff1673ffffffffffffffffffffffffffffffffffffffff16815260200190815260200160002060000160006101000a81548160ff021916908315150217905550816004018585838181106119c0577f4e487b7100000000000000000000000000000000000000000000000000000000600052603260045260246000fd5b90506020020160208101906119d5919061280f565b9080600181540180825580915050600190039060005260206000200160009091909190916101000a81548173ffffffffffffffffffffffffffffffffffffffff021916908373ffffffffffffffffffffffffffffffffffffffff1602179055505b8080611a41906132d5565b91505061182b565b505050505050565b60008060009054906101000a900473ffffffffffffffffffffffffffffffffffffffff16905090565b60065481565b611a88612769565b73ffffffffffffffffffffffffffffffffffffffff16611aa6611a51565b73ffffffffffffffffffffffffffffffffffffffff1614611afc576040517f08c379a0000000000000000000000000000000000000000000000000000000008152600401611af390612f5a565b60405180910390fd5b8160008111611b40576040517f08c379a0000000000000000000000000000000000000000000000000000000008152600401611b3790612f3a565b60405180910390fd5b8160008111611b84576040517f08c379a0000000000000000000000000000000000000000000000000000000008152600401611b7b90612f3a565b60405180910390fd5b600c54841115611bc9576040517f08c379a0000000000000000000000000000000000000000000000000000000008152600401611bc090612eba565b60405180910390fd5b60055483600d54611bda9190613113565b1115611c1b576040517f08c379a0000000000000000000000000000000000000000000000000000000008152600401611c129061305a565b60405180910390fd5b6000600e600086815260200190815260200160002090508060000160009054906101000a900460ff1615611c84576040517f08c379a0000000000000000000000000000000000000000000000000000000008152600401611c7b9061303a565b60405180910390fd5b60018160000160006101000a81548160ff02191690831515021790555083816001018190555083600d6000828254611cbc9190613113565b925050819055505050505050565b611cd2612769565b73ffffffffffffffffffffffffffffffffffffffff16611cf0611a51565b73ffffffffffffffffffffffffffffffffffffffff1614611d46576040517f08c379a0000000000000000000000000000000000000000000000000000000008152600401611d3d90612f5a565b60405180910390fd5b60075460008111611d8c576040517f08c379a0000000000000000000000000000000000000000000000000000000008152600401611d8390612f3a565b60405180910390fd5b601260009054906101000a900460ff1615611ddc576040517f08c379a0000000000000000000000000000000000000000000000000000000008152600401611dd390612efa565b60405180910390fd5b6000600190505b600c548111611e6257600e600082815260200190815260200160002060000160009054906101000a900460ff16611e4f576040517f08c379a0000000000000000000000000000000000000000000000000000000008152600401611e4690612eda565b60405180910390fd5b8080611e5a906132d5565b915050611de3565b506001601260006101000a81548160ff021916908315150217905550600c54600754611e8e91906131f4565b600d54600554611e9e91906131f4565b611ea89190613169565b600f8190555050565b6000808360008111611ef8576040517f08c379a0000000000000000000000000000000000000000000000000000000008152600401611eef90612f3a565b60405180910390fd5b600c54851115611f3d576040517f08c379a0000000000000000000000000000000000000000000000000000000008152600401611f3490612eba565b60405180910390fd5b6000600e600087815260200190815260200160002090508060050160008673ffffffffffffffffffffffffffffffffffffffff1673ffffffffffffffffffffffffffffffffffffffff16815260200190815260200160002060000160009054906101000a900460ff161561204c578060050160008673ffffffffffffffffffffffffffffffffffffffff1673ffffffffffffffffffffffffffffffffffffffff16815260200190815260200160002060000160009054906101000a900460ff168160050160008773ffffffffffffffffffffffffffffffffffffffff1673ffffffffffffffffffffffffffffffffffffffff16815260200190815260200160002060010154935093505061204e565b505b509250929050565b61205e612769565b73ffffffffffffffffffffffffffffffffffffffff1661207c611a51565b73ffffffffffffffffffffffffffffffffffffffff16146120d2576040517f08c379a00000000000000000000000000000000000000000000000000000000081526004016120c990612f5a565b60405180910390fd5b80600073ffffffffffffffffffffffffffffffffffffffff168173ffffffffffffffffffffffffffffffffffffffff161415612143576040517f08c379a000000000000000000000000000000000000000000000000000000000815260040161213a90612f1a565b60405180910390fd5b8173ffffffffffffffffffffffffffffffffffffffff16600460009054906101000a900473ffffffffffffffffffffffffffffffffffffffff1673ffffffffffffffffffffffffffffffffffffffff1614156121d4576040517f08c379a00000000000000000000000000000000000000000000000000000000081526004016121cb90612ffa565b60405180910390fd5b81600460006101000a81548173ffffffffffffffffffffffffffffffffffffffff021916908373ffffffffffffffffffffffffffffffffffffffff1602179055505050565b600460009054906101000a900473ffffffffffffffffffffffffffffffffffffffff1681565b600c5481565b61224d612769565b73ffffffffffffffffffffffffffffffffffffffff1661226b611a51565b73ffffffffffffffffffffffffffffffffffffffff16146122c1576040517f08c379a00000000000000000000000000000000000000000000000000000000081526004016122b890612f5a565b60405180910390fd5b8460008111612305576040517f08c379a00000000000000000000000000000000000000000000000000000000081526004016122fc90612f3a565b60405180910390fd5b8460008111612349576040517f08c379a000000000000000000000000000000000000000000000000000000000815260040161234090612f3a565b60405180910390fd5b836000811161238d576040517f08c379a000000000000000000000000000000000000000000000000000000000815260040161238490612f3a565b60405180910390fd5b83600081116123d1576040517f08c379a00000000000000000000000000000000000000000000000000000000081526004016123c890612f3a565b60405180910390fd5b88600360009054906101000a900473ffffffffffffffffffffffffffffffffffffffff1673ffffffffffffffffffffffffffffffffffffffff166370a08231306040518263ffffffff1660e01b815260040161242d9190612d15565b60206040518083038186803b15801561244557600080fd5b505afa158015612459573d6000803e3d6000fd5b505050506040513d601f19601f8201168201806040525081019061247d919061288a565b10156124be576040517f08c379a00000000000000000000000000000000000000000000000000000000081526004016124b590612f9a565b60405180910390fd5b600060055414612503576040517f08c379a00000000000000000000000000000000000000000000000000000000081526004016124fa90612e9a565b60405180910390fd5b886005819055508760078190555086600c819055508560098190555084600b819055508785612532919061319a565b8661253d9190613113565b600a81905550505050505050505050565b60105481565b61255c612769565b73ffffffffffffffffffffffffffffffffffffffff1661257a611a51565b73ffffffffffffffffffffffffffffffffffffffff16146125d0576040517f08c379a00000000000000000000000000000000000000000000000000000000081526004016125c790612f5a565b60405180910390fd5b600073ffffffffffffffffffffffffffffffffffffffff168173ffffffffffffffffffffffffffffffffffffffff161415612640576040517f08c379a000000000000000000000000000000000000000000000000000000000815260040161263790612e7a565b60405180910390fd5b8073ffffffffffffffffffffffffffffffffffffffff1660008054906101000a900473ffffffffffffffffffffffffffffffffffffffff1673ffffffffffffffffffffffffffffffffffffffff167f8be0079c531659141344cd1fd0a4f28419497f9722a3daafe3b4186f6b6457e060405160405180910390a3806000806101000a81548173ffffffffffffffffffffffffffffffffffffffff021916908373ffffffffffffffffffffffffffffffffffffffff16021790555050565b601260009054906101000a900460ff1681565b600360009054906101000a900473ffffffffffffffffffffffffffffffffffffffff1681565b6000600854600b54612748919061319a565b6009546127559190613113565b905080600a54101561276657600090505b90565b600033905090565b600081359050612780816137a2565b92915050565b60008083601f84011261279857600080fd5b8235905067ffffffffffffffff8111156127b157600080fd5b6020830191508360208202830111156127c957600080fd5b9250929050565b6000815190506127df816137b9565b92915050565b6000813590506127f4816137d0565b92915050565b600081519050612809816137d0565b92915050565b60006020828403121561282157600080fd5b600061282f84828501612771565b91505092915050565b60006020828403121561284a57600080fd5b6000612858848285016127d0565b91505092915050565b60006020828403121561287357600080fd5b6000612881848285016127e5565b91505092915050565b60006020828403121561289c57600080fd5b60006128aa848285016127fa565b91505092915050565b600080604083850312156128c657600080fd5b60006128d4858286016127e5565b92505060206128e585828601612771565b9150509250929050565b60008060006040848603121561290457600080fd5b6000612912868287016127e5565b935050602084013567ffffffffffffffff81111561292f57600080fd5b61293b86828701612786565b92509250509250925092565b6000806040838503121561295a57600080fd5b6000612968858286016127e5565b9250506020612979858286016127e5565b9150509250929050565b600080600080600060a0868803121561299b57600080fd5b60006129a9888289016127e5565b95505060206129ba888289016127e5565b94505060406129cb888289016127e5565b93505060606129dc888289016127e5565b92505060806129ed888289016127e5565b9150509295509295909350565b6000612a068383612a12565b60208301905092915050565b612a1b81613228565b82525050565b612a2a81613228565b82525050565b6000612a3b826130ce565b612a4581856130f1565b9350612a50836130be565b8060005b83811015612a81578151612a6888826129fa565b9750612a73836130e4565b925050600181019050612a54565b5085935050505092915050565b612a978161323a565b82525050565b6000612aa8826130d9565b612ab28185613102565b9350612ac2818560208601613270565b612acb816133ab565b840191505092915050565b6000612ae3602683613102565b9150612aee826133bc565b604082019050919050565b6000612b06602383613102565b9150612b118261340b565b604082019050919050565b6000612b29602683613102565b9150612b348261345a565b604082019050919050565b6000612b4c602f83613102565b9150612b57826134a9565b604082019050919050565b6000612b6f602a83613102565b9150612b7a826134f8565b604082019050919050565b6000612b92601c83613102565b9150612b9d82613547565b602082019050919050565b6000612bb5601a83613102565b9150612bc082613570565b602082019050919050565b6000612bd8602083613102565b9150612be382613599565b602082019050919050565b6000612bfb601b83613102565b9150612c06826135c2565b602082019050919050565b6000612c1e602783613102565b9150612c29826135eb565b604082019050919050565b6000612c41601d83613102565b9150612c4c8261363a565b602082019050919050565b6000612c64601f83613102565b9150612c6f82613663565b602082019050919050565b6000612c87601c83613102565b9150612c928261368c565b602082019050919050565b6000612caa602283613102565b9150612cb5826136b5565b604082019050919050565b6000612ccd602183613102565b9150612cd882613704565b604082019050919050565b6000612cf0602d83613102565b9150612cfb82613753565b604082019050919050565b612d0f81613266565b82525050565b6000602082019050612d2a6000830184612a21565b92915050565b6000604082019050612d456000830185612a21565b612d526020830184612d06565b9392505050565b6000602082019050612d6e6000830184612a8e565b92915050565b600060a082019050612d896000830188612a8e565b612d966020830187612a8e565b612da36040830186612d06565b612db06060830185612d06565b612dbd6080830184612d06565b9695505050505050565b600060c082019050612ddc6000830189612a8e565b612de96020830188612a8e565b612df66040830187612d06565b612e036060830186612d06565b612e106080830185612d06565b81810360a0830152612e228184612a30565b9050979650505050505050565b6000604082019050612e446000830185612a8e565b612e516020830184612d06565b9392505050565b60006020820190508181036000830152612e728184612a9d565b905092915050565b60006020820190508181036000830152612e9381612ad6565b9050919050565b60006020820190508181036000830152612eb381612af9565b9050919050565b60006020820190508181036000830152612ed381612b1c565b9050919050565b60006020820190508181036000830152612ef381612b3f565b9050919050565b60006020820190508181036000830152612f1381612b62565b9050919050565b60006020820190508181036000830152612f3381612b85565b9050919050565b60006020820190508181036000830152612f5381612ba8565b9050919050565b60006020820190508181036000830152612f7381612bcb565b9050919050565b60006020820190508181036000830152612f9381612bee565b9050919050565b60006020820190508181036000830152612fb381612c11565b9050919050565b60006020820190508181036000830152612fd381612c34565b9050919050565b60006020820190508181036000830152612ff381612c57565b9050919050565b6000602082019050818103600083015261301381612c7a565b9050919050565b6000602082019050818103600083015261303381612c9d565b9050919050565b6000602082019050818103600083015261305381612cc0565b9050919050565b6000602082019050818103600083015261307381612ce3565b9050919050565b600060208201905061308f6000830184612d06565b92915050565b60006040820190506130aa6000830185612d06565b6130b76020830184612d06565b9392505050565b6000819050602082019050919050565b600081519050919050565b600081519050919050565b6000602082019050919050565b600082825260208201905092915050565b600082825260208201905092915050565b600061311e82613266565b915061312983613266565b9250827fffffffffffffffffffffffffffffffffffffffffffffffffffffffffffffffff0382111561315e5761315d61331e565b5b828201905092915050565b600061317482613266565b915061317f83613266565b92508261318f5761318e61334d565b5b828204905092915050565b60006131a582613266565b91506131b083613266565b9250817fffffffffffffffffffffffffffffffffffffffffffffffffffffffffffffffff04831182151516156131e9576131e861331e565b5b828202905092915050565b60006131ff82613266565b915061320a83613266565b92508282101561321d5761321c61331e565b5b828203905092915050565b600061323382613246565b9050919050565b60008115159050919050565b600073ffffffffffffffffffffffffffffffffffffffff82169050919050565b6000819050919050565b60005b8381101561328e578082015181840152602081019050613273565b8381111561329d576000848401525b50505050565b600060028204905060018216806132bb57607f821691505b602082108114156132cf576132ce61337c565b5b50919050565b60006132e082613266565b91507fffffffffffffffffffffffffffffffffffffffffffffffffffffffffffffffff8214156133135761331261331e565b5b600182019050919050565b7f4e487b7100000000000000000000000000000000000000000000000000000000600052601160045260246000fd5b7f4e487b7100000000000000000000000000000000000000000000000000000000600052601260045260246000fd5b7f4e487b7100000000000000000000000000000000000000000000000000000000600052602260045260246000fd5b6000601f19601f8301169050919050565b7f4f776e61626c653a206e6577206f776e657220697320746865207a65726f206160008201527f6464726573730000000000000000000000000000000000000000000000000000602082015250565b7f44657369676e6174655661756c743a20616c726561647920696e697469616c6960008201527f7a65640000000000000000000000000000000000000000000000000000000000602082015250565b7f44657369676e6174655661756c743a2065786365656420617661696c61626c6560008201527f20726f756e640000000000000000000000000000000000000000000000000000602082015250565b7f44657369676e6174655661756c743a2070726576696f757320726f756e64206460008201527f69642774207374617274207965742e0000000000000000000000000000000000602082015250565b7f44657369676e6174655661756c743a20616c726561647920737461727465642060008201527f627920636c61696d657200000000000000000000000000000000000000000000602082015250565b7f44657369676e6174655661756c743a207a65726f206164647265737300000000600082015250565b7f44657369676e6174655661756c743a207a65726f2076616c7565000000000000600082015250565b7f4f776e61626c653a2063616c6c6572206973206e6f7420746865206f776e6572600082015250565b7f44657369676e6174655661756c743a20696e737566666963656e740000000000600082015250565b7f44657369676e6174655661756c743a2062616c616e63654f6620697320696e7360008201527f75666669656e7400000000000000000000000000000000000000000000000000602082015250565b7f44657369676e6174655661756c743a207472616e73666572206661696c000000600082015250565b7f44657369676e6174655661756c743a20616c7265616479207374617274656400600082015250565b7f44657369676e6174655661756c743a2073616d65206164647265737300000000600082015250565b7f44657369676e6174655661756c743a20636865636b2075736572277320636f7560008201527f6e74000000000000000000000000000000000000000000000000000000000000602082015250565b7f44657369676e6174655661756c743a20616c726561647920616c6c6f6361746560008201527f6400000000000000000000000000000000000000000000000000000000000000602082015250565b7f44657369676e6174655661756c743a2065786365656420746f74616c20616c6c60008201527f6f636174656420616d6f756e7400000000000000000000000000000000000000602082015250565b6137ab81613228565b81146137b657600080fd5b50565b6137c28161323a565b81146137cd57600080fd5b50565b6137d981613266565b81146137e457600080fd5b5056fea2646970667358221220b3ce8a734fb2194473385c46230ecd72ad76aaee62d75026ed79af557552e8d964736f6c63430008040033",
  "immutableReferences": {},
  "source": "//SPDX-License-Identifier: Unlicense\npragma solidity ^0.8.4;\n\nimport \"./DesignedVault.sol\";\n\ncontract InitialContributorVault is DesignedVault {\n    constructor(address _tosAddress, uint256 _maxInputOnce)\n        DesignedVault(\"InitialContributor\", _tosAddress, _maxInputOnce)\n    {}\n}\n",
  "sourcePath": "/Users/zena/tonstarter/tonstarter-token-distribution/contracts/InitialContributorVault.sol",
  "compiler": {
    "name": "solc",
    "version": "0.8.4+commit.c7e474f2.Emscripten.clang"
  },
  "schemaVersion": "3.3.4",
  "updatedAt": "2021-06-27T04:05:19.840Z",
  "devdoc": {
    "kind": "dev",
    "methods": {
      "addWhitelist(uint256,address[])": {
        "details": "Register the white list for the round.",
        "params": {
          "round": "it is the period unit can claim once",
          "users": "people who can claim in that round"
        }
      },
      "allocateAmount(uint256,uint256)": {
        "details": "allocate amount for each round",
        "params": {
          "amount": "total claimable amount",
          "round": "it is the period unit can claim once"
        }
      },
      "availableWithdrawAmount()": {
        "details": "Amount that can be withdrawn by the owner"
      },
      "claim()": {
        "details": "claim"
      },
      "getTgeInfos(uint256)": {
        "details": "get Tge infos",
        "params": {
          "round": "it is the period unit can claim once"
        }
      },
      "getWhitelistInfo(uint256,address)": {
        "details": "get the claim info of whitelist's person",
        "params": {
          "round": "it is the period unit can claim once",
          "user": "person in whitelist"
        }
      },
      "initialize(uint256,uint256,uint256,uint256,uint256)": {
        "details": "initialization function",
        "params": {
          "_periodTimesPerCliam": "period time per claim",
          "_startTime": "start time",
          "_totalAllocatedAmount": "total allocated amount",
          "_totalClaims": "total available claim count",
          "_totalTgeCount": "total tge count"
        }
      },
      "nextClaimRound()": {
        "details": "next claimable round"
      },
      "nextClaimStartTime()": {
        "details": "next claimable start time"
      },
      "owner()": {
        "details": "Returns the address of the current owner."
      },
      "renounceOwnership()": {
        "details": "Leaves the contract without owner. It will not be possible to call `onlyOwner` functions anymore. Can only be called by the current owner. NOTE: Renouncing ownership will leave the contract without an owner, thereby removing any functionality that is only available to the owner."
      },
      "setClaimer(address)": {
        "details": "set claimer",
        "params": {
          "_newClaimer": "new claimer"
        }
      },
      "start()": {
        "details": "start round for claimer , The amount charged at one time is determined."
      },
      "startRound(uint256)": {
        "details": "start round, Calculate how much the whitelisted people in the round can claim.",
        "params": {
          "round": "it is the period unit can claim once"
        }
      },
      "transferOwnership(address)": {
        "details": "Transfers ownership of the contract to a new account (`newOwner`). Can only be called by the current owner."
      },
      "unclaimedInfos()": {
        "details": "number of unclaimed"
      },
      "withdraw(address)": {
        "details": "withdraw to whom",
        "params": {
          "to": "to address to send"
        }
      }
    },
    "version": 1
  },
  "userdoc": {
    "kind": "user",
    "methods": {
      "tgeInfos(uint256)": {
        "notice": "round => TgeInfo"
      }
    },
    "version": 1
  }
}