{
  "contractName": "MarketingVault",
  "abi": [
    {
      "inputs": [
        {
          "internalType": "address",
          "name": "_tosAddress",
          "type": "address"
        },
        {
          "internalType": "uint256",
          "name": "_maxInputOnce",
          "type": "uint256"
        }
      ],
      "stateMutability": "nonpayable",
      "type": "constructor"
    },
    {
      "anonymous": false,
      "inputs": [
        {
          "indexed": false,
          "internalType": "uint256",
          "name": "round",
          "type": "uint256"
        },
        {
          "indexed": false,
          "internalType": "address[]",
          "name": "users",
          "type": "address[]"
        }
      ],
      "name": "AddedWhitelist",
      "type": "event"
    },
    {
      "anonymous": false,
      "inputs": [
        {
          "indexed": false,
          "internalType": "uint256",
          "name": "round",
          "type": "uint256"
        },
        {
          "indexed": false,
          "internalType": "uint256",
          "name": "amount",
          "type": "uint256"
        }
      ],
      "name": "AllocatedAmount",
      "type": "event"
    },
    {
      "anonymous": false,
      "inputs": [
        {
          "indexed": true,
          "internalType": "address",
          "name": "caller",
          "type": "address"
        },
        {
          "indexed": false,
          "internalType": "uint256",
          "name": "amount",
          "type": "uint256"
        },
        {
          "indexed": false,
          "internalType": "uint256",
          "name": "totalClaimedAmount",
          "type": "uint256"
        }
      ],
      "name": "Claimed",
      "type": "event"
    },
    {
      "anonymous": false,
      "inputs": [
        {
          "indexed": true,
          "internalType": "bytes32",
          "name": "role",
          "type": "bytes32"
        },
        {
          "indexed": true,
          "internalType": "bytes32",
          "name": "previousAdminRole",
          "type": "bytes32"
        },
        {
          "indexed": true,
          "internalType": "bytes32",
          "name": "newAdminRole",
          "type": "bytes32"
        }
      ],
      "name": "RoleAdminChanged",
      "type": "event"
    },
    {
      "anonymous": false,
      "inputs": [
        {
          "indexed": true,
          "internalType": "bytes32",
          "name": "role",
          "type": "bytes32"
        },
        {
          "indexed": true,
          "internalType": "address",
          "name": "account",
          "type": "address"
        },
        {
          "indexed": true,
          "internalType": "address",
          "name": "sender",
          "type": "address"
        }
      ],
      "name": "RoleGranted",
      "type": "event"
    },
    {
      "anonymous": false,
      "inputs": [
        {
          "indexed": true,
          "internalType": "bytes32",
          "name": "role",
          "type": "bytes32"
        },
        {
          "indexed": true,
          "internalType": "address",
          "name": "account",
          "type": "address"
        },
        {
          "indexed": true,
          "internalType": "address",
          "name": "sender",
          "type": "address"
        }
      ],
      "name": "RoleRevoked",
      "type": "event"
    },
    {
      "anonymous": false,
      "inputs": [
        {
          "indexed": false,
          "internalType": "address",
          "name": "newClaimer",
          "type": "address"
        }
      ],
      "name": "SetNewClaimer",
      "type": "event"
    },
    {
      "anonymous": false,
      "inputs": [],
      "name": "Started",
      "type": "event"
    },
    {
      "anonymous": false,
      "inputs": [
        {
          "indexed": false,
          "internalType": "uint256",
          "name": "round",
          "type": "uint256"
        }
      ],
      "name": "StartedRound",
      "type": "event"
    },
    {
      "anonymous": false,
      "inputs": [
        {
          "indexed": true,
          "internalType": "address",
          "name": "caller",
          "type": "address"
        },
        {
          "indexed": false,
          "internalType": "uint256",
          "name": "amount",
          "type": "uint256"
        }
      ],
      "name": "Withdrawal",
      "type": "event"
    },
    {
      "inputs": [],
      "name": "ADMIN_ROLE",
      "outputs": [
        {
          "internalType": "bytes32",
          "name": "",
          "type": "bytes32"
        }
      ],
      "stateMutability": "view",
      "type": "function"
    },
    {
      "inputs": [],
      "name": "BURNER_ROLE",
      "outputs": [
        {
          "internalType": "bytes32",
          "name": "",
          "type": "bytes32"
        }
      ],
      "stateMutability": "view",
      "type": "function"
    },
    {
      "inputs": [],
      "name": "DEFAULT_ADMIN_ROLE",
      "outputs": [
        {
          "internalType": "bytes32",
          "name": "",
          "type": "bytes32"
        }
      ],
      "stateMutability": "view",
      "type": "function"
    },
    {
      "inputs": [],
      "name": "MINTER_ROLE",
      "outputs": [
        {
          "internalType": "bytes32",
          "name": "",
          "type": "bytes32"
        }
      ],
      "stateMutability": "view",
      "type": "function"
    },
    {
      "inputs": [
        {
          "internalType": "address",
          "name": "account",
          "type": "address"
        }
      ],
      "name": "addAdmin",
      "outputs": [],
      "stateMutability": "nonpayable",
      "type": "function"
    },
    {
      "inputs": [
        {
          "internalType": "uint256",
          "name": "round",
          "type": "uint256"
        },
        {
          "internalType": "address[]",
          "name": "users",
          "type": "address[]"
        }
      ],
      "name": "addWhitelist",
      "outputs": [],
      "stateMutability": "nonpayable",
      "type": "function"
    },
    {
      "inputs": [
        {
          "internalType": "uint256",
          "name": "round",
          "type": "uint256"
        },
        {
          "internalType": "uint256",
          "name": "amount",
          "type": "uint256"
        }
      ],
      "name": "allocateAmount",
      "outputs": [],
      "stateMutability": "nonpayable",
      "type": "function"
    },
    {
      "inputs": [],
      "name": "availableWithdrawAmount",
      "outputs": [
        {
          "internalType": "uint256",
          "name": "amount",
          "type": "uint256"
        }
      ],
      "stateMutability": "view",
      "type": "function"
    },
    {
      "inputs": [],
      "name": "claim",
      "outputs": [],
      "stateMutability": "nonpayable",
      "type": "function"
    },
    {
      "inputs": [
        {
          "internalType": "uint256",
          "name": "",
          "type": "uint256"
        }
      ],
      "name": "claimedTimesOfRoundByCliamer",
      "outputs": [
        {
          "internalType": "uint256",
          "name": "",
          "type": "uint256"
        }
      ],
      "stateMutability": "view",
      "type": "function"
    },
    {
      "inputs": [],
      "name": "claimer",
      "outputs": [
        {
          "internalType": "address",
          "name": "",
          "type": "address"
        }
      ],
      "stateMutability": "view",
      "type": "function"
    },
    {
      "inputs": [],
      "name": "currentRound",
      "outputs": [
        {
          "internalType": "uint256",
          "name": "round",
          "type": "uint256"
        }
      ],
      "stateMutability": "view",
      "type": "function"
    },
    {
      "inputs": [],
      "name": "endTime",
      "outputs": [
        {
          "internalType": "uint256",
          "name": "",
          "type": "uint256"
        }
      ],
      "stateMutability": "view",
      "type": "function"
    },
    {
      "inputs": [
        {
          "internalType": "bytes32",
          "name": "role",
          "type": "bytes32"
        }
      ],
      "name": "getRoleAdmin",
      "outputs": [
        {
          "internalType": "bytes32",
          "name": "",
          "type": "bytes32"
        }
      ],
      "stateMutability": "view",
      "type": "function"
    },
    {
      "inputs": [
        {
          "internalType": "uint256",
          "name": "round",
          "type": "uint256"
        }
      ],
      "name": "getTgeInfos",
      "outputs": [
        {
          "internalType": "bool",
          "name": "allocated",
          "type": "bool"
        },
        {
          "internalType": "bool",
          "name": "started",
          "type": "bool"
        },
        {
          "internalType": "uint256",
          "name": "allocatedAmount",
          "type": "uint256"
        },
        {
          "internalType": "uint256",
          "name": "claimedCount",
          "type": "uint256"
        },
        {
          "internalType": "uint256",
          "name": "amount",
          "type": "uint256"
        },
        {
          "internalType": "address[]",
          "name": "whitelist",
          "type": "address[]"
        }
      ],
      "stateMutability": "view",
      "type": "function"
    },
    {
      "inputs": [
        {
          "internalType": "uint256",
          "name": "round",
          "type": "uint256"
        },
        {
          "internalType": "address",
          "name": "user",
          "type": "address"
        }
      ],
      "name": "getWhitelistInfo",
      "outputs": [
        {
          "internalType": "bool",
          "name": "joined",
          "type": "bool"
        },
        {
          "internalType": "uint256",
          "name": "claimedTime",
          "type": "uint256"
        }
      ],
      "stateMutability": "view",
      "type": "function"
    },
    {
      "inputs": [
        {
          "internalType": "bytes32",
          "name": "role",
          "type": "bytes32"
        },
        {
          "internalType": "address",
          "name": "account",
          "type": "address"
        }
      ],
      "name": "grantRole",
      "outputs": [],
      "stateMutability": "nonpayable",
      "type": "function"
    },
    {
      "inputs": [
        {
          "internalType": "bytes32",
          "name": "role",
          "type": "bytes32"
        },
        {
          "internalType": "address",
          "name": "account",
          "type": "address"
        }
      ],
      "name": "hasRole",
      "outputs": [
        {
          "internalType": "bool",
          "name": "",
          "type": "bool"
        }
      ],
      "stateMutability": "view",
      "type": "function"
    },
    {
      "inputs": [
        {
          "internalType": "uint256",
          "name": "_totalAllocatedAmount",
          "type": "uint256"
        },
        {
          "internalType": "uint256",
          "name": "_totalClaims",
          "type": "uint256"
        },
        {
          "internalType": "uint256",
          "name": "_totalTgeCount",
          "type": "uint256"
        },
        {
          "internalType": "uint256",
          "name": "_startTime",
          "type": "uint256"
        },
        {
          "internalType": "uint256",
          "name": "_periodTimesPerClaim",
          "type": "uint256"
        }
      ],
      "name": "initialize",
      "outputs": [],
      "stateMutability": "nonpayable",
      "type": "function"
    },
    {
      "inputs": [
        {
          "internalType": "uint256",
          "name": "_totalAllocatedAmount",
          "type": "uint256"
        },
        {
          "internalType": "uint256",
          "name": "_totalClaims",
          "type": "uint256"
        },
        {
          "internalType": "uint256",
          "name": "_totalTgeCount",
          "type": "uint256"
        },
        {
          "internalType": "uint256",
          "name": "_startTime",
          "type": "uint256"
        },
        {
          "internalType": "uint256",
          "name": "_periodTimesPerClaim",
          "type": "uint256"
        }
      ],
      "name": "initializeBase",
      "outputs": [],
      "stateMutability": "nonpayable",
      "type": "function"
    },
    {
      "inputs": [
        {
          "internalType": "address",
          "name": "account",
          "type": "address"
        }
      ],
      "name": "isAdmin",
      "outputs": [
        {
          "internalType": "bool",
          "name": "",
          "type": "bool"
        }
      ],
      "stateMutability": "view",
      "type": "function"
    },
    {
      "inputs": [],
      "name": "lastClaimedRound",
      "outputs": [
        {
          "internalType": "uint256",
          "name": "",
          "type": "uint256"
        }
      ],
      "stateMutability": "view",
      "type": "function"
    },
    {
      "inputs": [],
      "name": "maxInputOnceTime",
      "outputs": [
        {
          "internalType": "uint256",
          "name": "",
          "type": "uint256"
        }
      ],
      "stateMutability": "view",
      "type": "function"
    },
    {
      "inputs": [],
      "name": "name",
      "outputs": [
        {
          "internalType": "string",
          "name": "",
          "type": "string"
        }
      ],
      "stateMutability": "view",
      "type": "function"
    },
    {
      "inputs": [],
      "name": "nextClaimRound",
      "outputs": [
        {
          "internalType": "uint256",
          "name": "nextRound",
          "type": "uint256"
        }
      ],
      "stateMutability": "view",
      "type": "function"
    },
    {
      "inputs": [],
      "name": "nextClaimStartTime",
      "outputs": [
        {
          "internalType": "uint256",
          "name": "nextTime",
          "type": "uint256"
        }
      ],
      "stateMutability": "view",
      "type": "function"
    },
    {
      "inputs": [],
      "name": "oneClaimAmountByClaimer",
      "outputs": [
        {
          "internalType": "uint256",
          "name": "",
          "type": "uint256"
        }
      ],
      "stateMutability": "view",
      "type": "function"
    },
    {
      "inputs": [],
      "name": "periodTimesPerClaim",
      "outputs": [
        {
          "internalType": "uint256",
          "name": "",
          "type": "uint256"
        }
      ],
      "stateMutability": "view",
      "type": "function"
    },
    {
      "inputs": [
        {
          "internalType": "address",
          "name": "account",
          "type": "address"
        }
      ],
      "name": "removeAdmin",
      "outputs": [],
      "stateMutability": "nonpayable",
      "type": "function"
    },
    {
      "inputs": [
        {
          "internalType": "bytes32",
          "name": "role",
          "type": "bytes32"
        },
        {
          "internalType": "address",
          "name": "account",
          "type": "address"
        }
      ],
      "name": "renounceRole",
      "outputs": [],
      "stateMutability": "nonpayable",
      "type": "function"
    },
    {
      "inputs": [
        {
          "internalType": "bytes32",
          "name": "role",
          "type": "bytes32"
        },
        {
          "internalType": "address",
          "name": "account",
          "type": "address"
        }
      ],
      "name": "revokeRole",
      "outputs": [],
      "stateMutability": "nonpayable",
      "type": "function"
    },
    {
      "inputs": [
        {
          "internalType": "address",
          "name": "_newClaimer",
          "type": "address"
        }
      ],
      "name": "setClaimer",
      "outputs": [],
      "stateMutability": "nonpayable",
      "type": "function"
    },
    {
      "inputs": [
        {
          "internalType": "uint256",
          "name": "_maxInputOnceTime",
          "type": "uint256"
        }
      ],
      "name": "setMaxInputOnceTimeWhitelist",
      "outputs": [],
      "stateMutability": "nonpayable",
      "type": "function"
    },
    {
      "inputs": [],
      "name": "start",
      "outputs": [],
      "stateMutability": "nonpayable",
      "type": "function"
    },
    {
      "inputs": [
        {
          "internalType": "uint256",
          "name": "round",
          "type": "uint256"
        }
      ],
      "name": "startRound",
      "outputs": [],
      "stateMutability": "nonpayable",
      "type": "function"
    },
    {
      "inputs": [],
      "name": "startTime",
      "outputs": [
        {
          "internalType": "uint256",
          "name": "",
          "type": "uint256"
        }
      ],
      "stateMutability": "view",
      "type": "function"
    },
    {
      "inputs": [],
      "name": "startedByClaimer",
      "outputs": [
        {
          "internalType": "bool",
          "name": "",
          "type": "bool"
        }
      ],
      "stateMutability": "view",
      "type": "function"
    },
    {
      "inputs": [
        {
          "internalType": "bytes4",
          "name": "interfaceId",
          "type": "bytes4"
        }
      ],
      "name": "supportsInterface",
      "outputs": [
        {
          "internalType": "bool",
          "name": "",
          "type": "bool"
        }
      ],
      "stateMutability": "view",
      "type": "function"
    },
    {
      "inputs": [
        {
          "internalType": "uint256",
          "name": "",
          "type": "uint256"
        }
      ],
      "name": "tgeInfos",
      "outputs": [
        {
          "internalType": "bool",
          "name": "allocated",
          "type": "bool"
        },
        {
          "internalType": "bool",
          "name": "started",
          "type": "bool"
        },
        {
          "internalType": "uint256",
          "name": "allocatedAmount",
          "type": "uint256"
        },
        {
          "internalType": "uint256",
          "name": "claimedCount",
          "type": "uint256"
        },
        {
          "internalType": "uint256",
          "name": "amount",
          "type": "uint256"
        }
      ],
      "stateMutability": "view",
      "type": "function"
    },
    {
      "inputs": [],
      "name": "tos",
      "outputs": [
        {
          "internalType": "address",
          "name": "",
          "type": "address"
        }
      ],
      "stateMutability": "view",
      "type": "function"
    },
    {
      "inputs": [],
      "name": "totalAllocatedAmount",
      "outputs": [
        {
          "internalType": "uint256",
          "name": "",
          "type": "uint256"
        }
      ],
      "stateMutability": "view",
      "type": "function"
    },
    {
      "inputs": [],
      "name": "totalClaimedAmount",
      "outputs": [
        {
          "internalType": "uint256",
          "name": "",
          "type": "uint256"
        }
      ],
      "stateMutability": "view",
      "type": "function"
    },
    {
      "inputs": [],
      "name": "totalClaimedCountByClaimer",
      "outputs": [
        {
          "internalType": "uint256",
          "name": "",
          "type": "uint256"
        }
      ],
      "stateMutability": "view",
      "type": "function"
    },
    {
      "inputs": [],
      "name": "totalClaims",
      "outputs": [
        {
          "internalType": "uint256",
          "name": "",
          "type": "uint256"
        }
      ],
      "stateMutability": "view",
      "type": "function"
    },
    {
      "inputs": [],
      "name": "totalTgeAmount",
      "outputs": [
        {
          "internalType": "uint256",
          "name": "",
          "type": "uint256"
        }
      ],
      "stateMutability": "view",
      "type": "function"
    },
    {
      "inputs": [],
      "name": "totalTgeCount",
      "outputs": [
        {
          "internalType": "uint256",
          "name": "",
          "type": "uint256"
        }
      ],
      "stateMutability": "view",
      "type": "function"
    },
    {
      "inputs": [
        {
          "internalType": "uint256",
          "name": "round",
          "type": "uint256"
        }
      ],
      "name": "totalWhitelist",
      "outputs": [
        {
          "internalType": "uint256",
          "name": "total",
          "type": "uint256"
        }
      ],
      "stateMutability": "view",
      "type": "function"
    },
    {
      "inputs": [
        {
          "internalType": "address",
          "name": "newAdmin",
          "type": "address"
        }
      ],
      "name": "transferAdmin",
      "outputs": [],
      "stateMutability": "nonpayable",
      "type": "function"
    },
    {
      "inputs": [
        {
          "internalType": "address",
          "name": "_user",
          "type": "address"
        }
      ],
      "name": "unclaimedInfos",
      "outputs": [
        {
          "internalType": "uint256",
          "name": "count",
          "type": "uint256"
        },
        {
          "internalType": "uint256",
          "name": "amount",
          "type": "uint256"
        }
      ],
      "stateMutability": "view",
      "type": "function"
    },
    {
      "inputs": [
        {
          "internalType": "address",
          "name": "",
          "type": "address"
        }
      ],
      "name": "userClaimedAmount",
      "outputs": [
        {
          "internalType": "uint256",
          "name": "",
          "type": "uint256"
        }
      ],
      "stateMutability": "view",
      "type": "function"
    },
    {
      "inputs": [
        {
          "internalType": "address",
          "name": "to",
          "type": "address"
        }
      ],
      "name": "withdraw",
      "outputs": [],
      "stateMutability": "nonpayable",
      "type": "function"
    },
    {
      "stateMutability": "payable",
      "type": "receive"
    }
  ],
  "bytecode": "0x60806040523480156200001157600080fd5b50604051620056aa380380620056aa833981810160405281019062000037919062000457565b6040518060400160405280600e81526020017f4d61726b6574696e672046756e64000000000000000000000000000000000000815250828282600190805190602001906200008792919062000379565b5081600260006101000a81548173ffffffffffffffffffffffffffffffffffffffff021916908373ffffffffffffffffffffffffffffffffffffffff16021790555033600e60006101000a81548173ffffffffffffffffffffffffffffffffffffffff021916908373ffffffffffffffffffffffffffffffffffffffff16021790555080600081905550620001437fdf8b4c520ffe197c5343c6f5aec59570151ef9a492f2c624fd45ddde6135ec42806200018060201b60201c565b620001757fdf8b4c520ffe197c5343c6f5aec59570151ef9a492f2c624fd45ddde6135ec4233620001de60201b60201c565b50505050506200056f565b806200019283620001f460201b60201c565b837fbd79b86ffe0ab8e8776151514217cd7cacd52c909f66475c3af44e129f0b00ff60405160405180910390a480600d6000848152602001908152602001600020600101819055505050565b620001f082826200021460201b60201c565b5050565b6000600d6000838152602001908152602001600020600101549050919050565b6200022682826200030660201b60201c565b62000302576001600d600084815260200190815260200160002060000160008373ffffffffffffffffffffffffffffffffffffffff1673ffffffffffffffffffffffffffffffffffffffff16815260200190815260200160002060006101000a81548160ff021916908315150217905550620002a76200037160201b60201c565b73ffffffffffffffffffffffffffffffffffffffff168173ffffffffffffffffffffffffffffffffffffffff16837f2f8788117e7eff1d82e926ec794901d17c78024a50270940304540a733656f0d60405160405180910390a45b5050565b6000600d600084815260200190815260200160002060000160008373ffffffffffffffffffffffffffffffffffffffff1673ffffffffffffffffffffffffffffffffffffffff16815260200190815260200160002060009054906101000a900460ff16905092915050565b600033905090565b8280546200038790620004d6565b90600052602060002090601f016020900481019282620003ab5760008555620003f7565b82601f10620003c657805160ff1916838001178555620003f7565b82800160010185558215620003f7579182015b82811115620003f6578251825591602001919060010190620003d9565b5b5090506200040691906200040a565b5090565b5b80821115620004255760008160009055506001016200040b565b5090565b6000815190506200043a816200053b565b92915050565b600081519050620004518162000555565b92915050565b600080604083850312156200046b57600080fd5b60006200047b8582860162000429565b92505060206200048e8582860162000440565b9150509250929050565b6000620004a582620004ac565b9050919050565b600073ffffffffffffffffffffffffffffffffffffffff82169050919050565b6000819050919050565b60006002820490506001821680620004ef57607f821691505b602082108114156200050657620005056200050c565b5b50919050565b7f4e487b7100000000000000000000000000000000000000000000000000000000600052602260045260246000fd5b620005468162000498565b81146200055257600080fd5b50565b6200056081620004cc565b81146200056c57600080fd5b50565b61512b806200057f6000396000f3fe6080604052600436106102e85760003560e01c806375829def11610190578063ab4eb57e116100dc578063d547741f11610095578063dded14781161006f578063dded147814610b8c578063e63e18a814610bca578063f64f4a3914610bf5578063fe73540014610c2057610328565b8063d547741f14610b0f578063d993471914610b38578063dcbab60814610b6357610328565b8063ab4eb57e14610a12578063be9a655514610a3b578063cb1b782f14610a52578063cdfb583214610a90578063d379be2314610ab9578063d539139314610ae457610328565b806389f395de1161014957806391d148541161012357806391d14854146109565780639661cb0d146109935780639bde5427146109be578063a217fddf146109e757610328565b806389f395de146108d75780638a19c8bc146109025780638aa1e44e1461092d57610328565b806375829def146107c757806375b238fc146107f057806378e979251461081b578063814f26fc1461084657806385d0a81514610871578063875d741d146108ae57610328565b80633e59df351161024f578063556400081161020857806361202e3b116101e257806361202e3b1461070b57806368871d6e146107365780637048027514610761578063717048ec1461078a57610328565b8063556400081461068c5780635913ec19146106b75780635fc3d52d146106e257610328565b80633e59df35146105895780633ef1a1aa146105b457806341c61383146105df5780634e71d92d1461060a578063517da7191461062157806351cff8d91461066357610328565b8063282c51f3116102a1578063282c51f3146104795780632f2ff15d146104a45780632f926723146104cd5780633197cbb61461050a57806335e8bcd21461053557806336568abe1461056057610328565b806301ffc9a71461032d57806306fdde031461036a578063166cf32c146103955780631785f53c146103d6578063248a9ca3146103ff57806324d7806c1461043c57610328565b36610328576040517f08c379a000000000000000000000000000000000000000000000000000000000815260040161031f90614534565b60405180910390fd5b600080fd5b34801561033957600080fd5b50610354600480360381019061034f91906139f9565b610c4b565b60405161036191906141b8565b60405180910390f35b34801561037657600080fd5b5061037f610cc5565b60405161038c91906142d2565b60405180910390f35b3480156103a157600080fd5b506103bc60048036038101906103b79190613a22565b610d53565b6040516103cd9594939291906141d3565b60405180910390f35b3480156103e257600080fd5b506103fd60048036038101906103f89190613942565b610da3565b005b34801561040b57600080fd5b5061042660048036038101906104219190613994565b610e18565b60405161043391906142b7565b60405180910390f35b34801561044857600080fd5b50610463600480360381019061045e9190613942565b610e38565b60405161047091906141b8565b60405180910390f35b34801561048557600080fd5b5061048e610e6b565b60405161049b91906142b7565b60405180910390f35b3480156104b057600080fd5b506104cb60048036038101906104c691906139bd565b610e8f565b005b3480156104d957600080fd5b506104f460048036038101906104ef9190613942565b610eb8565b6040516105019190614654565b60405180910390f35b34801561051657600080fd5b5061051f610ed0565b60405161052c9190614654565b60405180910390f35b34801561054157600080fd5b5061054a610ed6565b6040516105579190614654565b60405180910390f35b34801561056c57600080fd5b50610587600480360381019061058291906139bd565b610edc565b005b34801561059557600080fd5b5061059e610f5f565b6040516105ab9190614654565b60405180910390f35b3480156105c057600080fd5b506105c9610f65565b6040516105d69190614654565b60405180910390f35b3480156105eb57600080fd5b506105f4610f6b565b6040516106019190614654565b60405180910390f35b34801561061657600080fd5b5061061f610f71565b005b34801561062d57600080fd5b5061064860048036038101906106439190613a22565b61143f565b60405161065a96959493929190614226565b60405180910390f35b34801561066f57600080fd5b5061068a60048036038101906106859190613942565b6115c1565b005b34801561069857600080fd5b506106a161180a565b6040516106ae9190614654565b60405180910390f35b3480156106c357600080fd5b506106cc611810565b6040516106d99190614654565b60405180910390f35b3480156106ee57600080fd5b5061070960048036038101906107049190613a22565b611816565b005b34801561071757600080fd5b50610720611a95565b60405161072d9190614654565b60405180910390f35b34801561074257600080fd5b5061074b611baf565b6040516107589190614654565b60405180910390f35b34801561076d57600080fd5b5061078860048036038101906107839190613942565b611bd4565b005b34801561079657600080fd5b506107b160048036038101906107ac9190613a22565b611c49565b6040516107be9190614654565b60405180910390f35b3480156107d357600080fd5b506107ee60048036038101906107e99190613942565b611cfe565b005b3480156107fc57600080fd5b50610805611e7c565b60405161081291906142b7565b60405180910390f35b34801561082757600080fd5b50610830611ea0565b60405161083d9190614654565b60405180910390f35b34801561085257600080fd5b5061085b611ea6565b6040516108689190614654565b60405180910390f35b34801561087d57600080fd5b5061089860048036038101906108939190613a22565b611eac565b6040516108a59190614654565b60405180910390f35b3480156108ba57600080fd5b506108d560048036038101906108d09190613a22565b611ec4565b005b3480156108e357600080fd5b506108ec611fa4565b6040516108f99190614174565b60405180910390f35b34801561090e57600080fd5b50610917611fca565b6040516109249190614654565b60405180910390f35b34801561093957600080fd5b50610954600480360381019061094f9190613ab0565b61200e565b005b34801561096257600080fd5b5061097d600480360381019061097891906139bd565b61248c565b60405161098a91906141b8565b60405180910390f35b34801561099f57600080fd5b506109a86124f7565b6040516109b59190614654565b60405180910390f35b3480156109ca57600080fd5b506109e560048036038101906109e09190613b08565b6124fd565b005b3480156109f357600080fd5b506109fc61274e565b604051610a0991906142b7565b60405180910390f35b348015610a1e57600080fd5b50610a396004803603810190610a349190613b44565b612755565b005b348015610a4757600080fd5b50610a50612a2a565b005b348015610a5e57600080fd5b50610a796004803603810190610a749190613a74565b612c23565b604051610a8792919061428e565b60405180910390f35b348015610a9c57600080fd5b50610ab76004803603810190610ab29190613942565b612dca565b005b348015610ac557600080fd5b50610ace612f94565b604051610adb9190614174565b60405180910390f35b348015610af057600080fd5b50610af9612fba565b604051610b0691906142b7565b60405180910390f35b348015610b1b57600080fd5b50610b366004803603810190610b3191906139bd565b612fde565b005b348015610b4457600080fd5b50610b4d613007565b604051610b5a9190614654565b60405180910390f35b348015610b6f57600080fd5b50610b8a6004803603810190610b859190613b44565b61300d565b005b348015610b9857600080fd5b50610bb36004803603810190610bae9190613942565b613069565b604051610bc19291906146a1565b60405180910390f35b348015610bd657600080fd5b50610bdf613262565b604051610bec9190614654565b60405180910390f35b348015610c0157600080fd5b50610c0a613268565b604051610c1791906141b8565b60405180910390f35b348015610c2c57600080fd5b50610c3561327b565b604051610c429190614654565b60405180910390f35b60007f7965db0b000000000000000000000000000000000000000000000000000000007bffffffffffffffffffffffffffffffffffffffffffffffffffffffff1916827bffffffffffffffffffffffffffffffffffffffffffffffffffffffff19161480610cbe5750610cbd826132ae565b5b9050919050565b60018054610cd290614948565b80601f0160208091040260200160405190810160405280929190818152602001828054610cfe90614948565b8015610d4b5780601f10610d2057610100808354040283529160200191610d4b565b820191906000526020600020905b815481529060010190602001808311610d2e57829003601f168201915b505050505081565b600b6020528060005260406000206000915090508060000160009054906101000a900460ff16908060000160019054906101000a900460ff16908060010154908060020154908060030154905085565b610dac33610e38565b610deb576040517f08c379a0000000000000000000000000000000000000000000000000000000008152600401610de2906143b4565b60405180910390fd5b610e157fdf8b4c520ffe197c5343c6f5aec59570151ef9a492f2c624fd45ddde6135ec4282610edc565b50565b6000600d6000838152602001908152602001600020600101549050919050565b6000610e647fdf8b4c520ffe197c5343c6f5aec59570151ef9a492f2c624fd45ddde6135ec428361248c565b9050919050565b7f9667e80708b6eeeb0053fa0cca44e028ff548e2a9f029edfeac87c118b08b7c881565b610e9882610e18565b610ea981610ea4613318565b613320565b610eb383836133bd565b505050565b600c6020528060005260406000206000915090505481565b60065481565b60105481565b610ee4613318565b73ffffffffffffffffffffffffffffffffffffffff168173ffffffffffffffffffffffffffffffffffffffff1614610f51576040517f08c379a0000000000000000000000000000000000000000000000000000000008152600401610f48906145f4565b60405180910390fd5b610f5b828261349e565b5050565b600f5481565b60005481565b60085481565b6000806005544211610fb8576040517f08c379a0000000000000000000000000000000000000000000000000000000008152600401610faf90614614565b60405180910390fd5b6000610fc2611fca565b90503373ffffffffffffffffffffffffffffffffffffffff16600e60009054906101000a900473ffffffffffffffffffffffffffffffffffffffff1673ffffffffffffffffffffffffffffffffffffffff1614156110ad57600954600f5411156110465780600f54101561104157600f548161103e9190614839565b92505b611062565b806009541015611061576009548161105e9190614839565b92505b5b6010548361107091906147df565b915060008211156110ac576011600081548092919061108e9061497a565b91905055504260126000838152602001908152602001600020819055505b5b6000600190505b600954811161123557808210611222576000600b600083815260200190815260200160002090508060000160019054906101000a900460ff16801561114757508060050160003373ffffffffffffffffffffffffffffffffffffffff1673ffffffffffffffffffffffffffffffffffffffff16815260200190815260200160002060000160009054906101000a900460ff165b8015611197575060008160050160003373ffffffffffffffffffffffffffffffffffffffff1673ffffffffffffffffffffffffffffffffffffffff16815260200190815260200160002060010154145b1561122057428160050160003373ffffffffffffffffffffffffffffffffffffffff1673ffffffffffffffffffffffffffffffffffffffff168152602001908152602001600020600101819055508060020160008154809291906111fa9061497a565b919050555080600301548461120f9190614758565b9350848061121c9061497a565b9550505b505b808061122d9061497a565b9150506110b4565b5060008211611279576040517f08c379a000000000000000000000000000000000000000000000000000000000815260040161127090614354565b60405180910390fd5b816004600082825461128b9190614758565b9250508190555081600c60003373ffffffffffffffffffffffffffffffffffffffff1673ffffffffffffffffffffffffffffffffffffffff16815260200190815260200160002060008282546112e19190614758565b9250508190555080600f5410156112fa5780600f819055505b600260009054906101000a900473ffffffffffffffffffffffffffffffffffffffff1673ffffffffffffffffffffffffffffffffffffffff1663a9059cbb33846040518363ffffffff1660e01b815260040161135792919061418f565b602060405180830381600087803b15801561137157600080fd5b505af1158015611385573d6000803e3d6000fd5b505050506040513d601f19601f820116820180604052508101906113a9919061396b565b6113e8576040517f08c379a00000000000000000000000000000000000000000000000000000000081526004016113df90614494565b60405180910390fd5b3373ffffffffffffffffffffffffffffffffffffffff167f987d620f307ff6b94d58743cb7a7509f24071586a77759b77c2d4e29f75a2f9a836004546040516114329291906146a1565b60405180910390a2505050565b60008060008060006060866000811161148d576040517f08c379a000000000000000000000000000000000000000000000000000000000815260040161148490614414565b60405180910390fd5b876009548111156114d3576040517f08c379a00000000000000000000000000000000000000000000000000000000081526004016114ca906145d4565b60405180910390fd5b6000600b60008b815260200190815260200160002090508060000160009054906101000a900460ff168160000160019054906101000a900460ff1682600101548360020154846003015485600401808054806020026020016040519081016040528092919081815260200182805480156115a257602002820191906000526020600020905b8160009054906101000a900473ffffffffffffffffffffffffffffffffffffffff1673ffffffffffffffffffffffffffffffffffffffff1681526020019060010190808311611558575b5050505050905098509850985098509850985050505091939550919395565b6115ca33610e38565b611609576040517f08c379a0000000000000000000000000000000000000000000000000000000008152600401611600906143b4565b60405180910390fd5b80600073ffffffffffffffffffffffffffffffffffffffff168173ffffffffffffffffffffffffffffffffffffffff16141561167a576040517f08c379a0000000000000000000000000000000000000000000000000000000008152600401611671906145b4565b60405180910390fd5b6000611684611a95565b9050600081116116c9576040517f08c379a00000000000000000000000000000000000000000000000000000000081526004016116c090614594565b60405180910390fd5b600260009054906101000a900473ffffffffffffffffffffffffffffffffffffffff1673ffffffffffffffffffffffffffffffffffffffff1663a9059cbb84836040518363ffffffff1660e01b815260040161172692919061418f565b602060405180830381600087803b15801561174057600080fd5b505af1158015611754573d6000803e3d6000fd5b505050506040513d601f19601f82011682018060405250810190611778919061396b565b6117b7576040517f08c379a00000000000000000000000000000000000000000000000000000000081526004016117ae90614474565b60405180910390fd5b3373ffffffffffffffffffffffffffffffffffffffff167f7fcf532c15f0a6db0bd6d0e038bea71d30d808c7d98cb3bf7268a95bf5081b65826040516117fd9190614654565b60405180910390a2505050565b60035481565b60075481565b61181f33610e38565b61185e576040517f08c379a0000000000000000000000000000000000000000000000000000000008152600401611855906143b4565b60405180910390fd5b80600081116118a2576040517f08c379a000000000000000000000000000000000000000000000000000000000815260040161189990614414565b60405180910390fd5b600854600081116118e8576040517f08c379a00000000000000000000000000000000000000000000000000000000081526004016118df90614414565b60405180910390fd5b8260095481111561192e576040517f08c379a0000000000000000000000000000000000000000000000000000000008152600401611925906145d4565b60405180910390fd5b6000600b600086815260200190815260200160002090508060000160009054906101000a900460ff16611996576040517f08c379a000000000000000000000000000000000000000000000000000000000815260040161198d90614434565b60405180910390fd5b8060000160019054906101000a900460ff16156119e8576040517f08c379a00000000000000000000000000000000000000000000000000000000081526004016119df90614374565b60405180910390fd5b60018160000160016101000a81548160ff02191690831515021790555060008160010154118015611a20575060008160040180549050115b15611a495780600401805490508160010154611a3c91906147ae565b8160030181905550611a57565b806001015481600301819055505b7f0ab582f1afc29efbd503feb5b4a945175eee54010e1be75f88d3e0a865f1631f85604051611a869190614654565b60405180910390a15050505050565b600080600260009054906101000a900473ffffffffffffffffffffffffffffffffffffffff1673ffffffffffffffffffffffffffffffffffffffff166370a08231306040518263ffffffff1660e01b8152600401611af39190614174565b60206040518083038186803b158015611b0b57600080fd5b505afa158015611b1f573d6000803e3d6000fd5b505050506040513d601f19601f82011682018060405250810190611b439190613a4b565b90506000600454600354611b579190614839565b905080821015611b9c576040517f08c379a0000000000000000000000000000000000000000000000000000000008152600401611b9390614454565b60405180910390fd5b8082611ba89190614839565b9250505090565b60006001600f54611bc09190614758565b9050806008541015611bd157600090505b90565b611bdd33610e38565b611c1c576040517f08c379a0000000000000000000000000000000000000000000000000000000008152600401611c13906143b4565b60405180910390fd5b611c467fdf8b4c520ffe197c5343c6f5aec59570151ef9a492f2c624fd45ddde6135ec4282610e8f565b50565b60008160008111611c8f576040517f08c379a0000000000000000000000000000000000000000000000000000000008152600401611c8690614414565b60405180910390fd5b82600954811115611cd5576040517f08c379a0000000000000000000000000000000000000000000000000000000008152600401611ccc906145d4565b60405180910390fd5b6000600b6000868152602001908152602001600020905080600401805490509350505050919050565b611d0733610e38565b611d46576040517f08c379a0000000000000000000000000000000000000000000000000000000008152600401611d3d906143b4565b60405180910390fd5b600073ffffffffffffffffffffffffffffffffffffffff168173ffffffffffffffffffffffffffffffffffffffff161415611db6576040517f08c379a0000000000000000000000000000000000000000000000000000000008152600401611dad906143f4565b60405180910390fd5b8073ffffffffffffffffffffffffffffffffffffffff163373ffffffffffffffffffffffffffffffffffffffff161415611e25576040517f08c379a0000000000000000000000000000000000000000000000000000000008152600401611e1c90614514565b60405180910390fd5b611e4f7fdf8b4c520ffe197c5343c6f5aec59570151ef9a492f2c624fd45ddde6135ec4282610e8f565b611e797fdf8b4c520ffe197c5343c6f5aec59570151ef9a492f2c624fd45ddde6135ec4233610edc565b50565b7fdf8b4c520ffe197c5343c6f5aec59570151ef9a492f2c624fd45ddde6135ec4281565b60055481565b600a5481565b60126020528060005260406000206000915090505481565b611ecd33610e38565b611f0c576040517f08c379a0000000000000000000000000000000000000000000000000000000008152600401611f03906143b4565b60405180910390fd5b8060008111611f50576040517f08c379a0000000000000000000000000000000000000000000000000000000008152600401611f4790614414565b60405180910390fd5b6000548280821415611f97576040517f08c379a0000000000000000000000000000000000000000000000000000000008152600401611f8e90614394565b60405180910390fd5b8360008190555050505050565b600260009054906101000a900473ffffffffffffffffffffffffffffffffffffffff1681565b6000600554421015611fdf576000905061200b565b60075460055442611ff09190614839565b611ffa91906147ae565b905080806120079061497a565b9150505b90565b61201733610e38565b612056576040517f08c379a000000000000000000000000000000000000000000000000000000000815260040161204d906143b4565b60405180910390fd5b826000811161209a576040517f08c379a000000000000000000000000000000000000000000000000000000000815260040161209190614414565b60405180910390fd5b836009548111156120e0576040517f08c379a00000000000000000000000000000000000000000000000000000000081526004016120d7906145d4565b60405180910390fd5b838390506000811180156120f657506000548111155b612135576040517f08c379a000000000000000000000000000000000000000000000000000000000815260040161212c90614574565b60405180910390fd5b6000600b600088815260200190815260200160002090508060000160019054906101000a900460ff161561219e576040517f08c379a0000000000000000000000000000000000000000000000000000000008152600401612195906143d4565b60405180910390fd5b60005b8686905081101561244757600073ffffffffffffffffffffffffffffffffffffffff168787838181106121fd577f4e487b7100000000000000000000000000000000000000000000000000000000600052603260045260246000fd5b90506020020160208101906122129190613942565b73ffffffffffffffffffffffffffffffffffffffff16141580156122d25750816005016000888884818110612270577f4e487b7100000000000000000000000000000000000000000000000000000000600052603260045260246000fd5b90506020020160208101906122859190613942565b73ffffffffffffffffffffffffffffffffffffffff1673ffffffffffffffffffffffffffffffffffffffff16815260200190815260200160002060000160009054906101000a900460ff16155b15612434576001826005016000898985818110612318577f4e487b7100000000000000000000000000000000000000000000000000000000600052603260045260246000fd5b905060200201602081019061232d9190613942565b73ffffffffffffffffffffffffffffffffffffffff1673ffffffffffffffffffffffffffffffffffffffff16815260200190815260200160002060000160006101000a81548160ff021916908315150217905550816004018787838181106123be577f4e487b7100000000000000000000000000000000000000000000000000000000600052603260045260246000fd5b90506020020160208101906123d39190613942565b9080600181540180825580915050600190039060005260206000200160009091909190916101000a81548173ffffffffffffffffffffffffffffffffffffffff021916908373ffffffffffffffffffffffffffffffffffffffff1602179055505b808061243f9061497a565b9150506121a1565b507f9c9ea5277c31b2732c1577550098533c5c80dda4ee8728a4f235421651856e9687878760405161247b9392919061466f565b60405180910390a150505050505050565b6000600d600084815260200190815260200160002060000160008373ffffffffffffffffffffffffffffffffffffffff1673ffffffffffffffffffffffffffffffffffffffff16815260200190815260200160002060009054906101000a900460ff16905092915050565b60045481565b61250633610e38565b612545576040517f08c379a000000000000000000000000000000000000000000000000000000000815260040161253c906143b4565b60405180910390fd5b8160008111612589576040517f08c379a000000000000000000000000000000000000000000000000000000000815260040161258090614414565b60405180910390fd5b81600081116125cd576040517f08c379a00000000000000000000000000000000000000000000000000000000081526004016125c490614414565b60405180910390fd5b83600954811115612613576040517f08c379a000000000000000000000000000000000000000000000000000000000815260040161260a906145d4565b60405180910390fd5b60035484600a546126249190614758565b1115612665576040517f08c379a000000000000000000000000000000000000000000000000000000000815260040161265c906144f4565b60405180910390fd5b6000600b600087815260200190815260200160002090508060000160009054906101000a900460ff16156126ce576040517f08c379a00000000000000000000000000000000000000000000000000000000081526004016126c590614334565b60405180910390fd5b60018160000160006101000a81548160ff02191690831515021790555084816001018190555084600a60008282546127069190614758565b925050819055507f3fd8c003d3212e0132457c2c9a85802b483554aec663e60ee92100df71c15f16868660405161273e9291906146a1565b60405180910390a1505050505050565b6000801b81565b61275e33610e38565b61279d576040517f08c379a0000000000000000000000000000000000000000000000000000000008152600401612794906143b4565b60405180910390fd5b84600081116127e1576040517f08c379a00000000000000000000000000000000000000000000000000000000081526004016127d890614414565b60405180910390fd5b8460008111612825576040517f08c379a000000000000000000000000000000000000000000000000000000000815260040161281c90614414565b60405180910390fd5b8360008111612869576040517f08c379a000000000000000000000000000000000000000000000000000000000815260040161286090614414565b60405180910390fd5b83600081116128ad576040517f08c379a00000000000000000000000000000000000000000000000000000000081526004016128a490614414565b60405180910390fd5b88600260009054906101000a900473ffffffffffffffffffffffffffffffffffffffff1673ffffffffffffffffffffffffffffffffffffffff166370a08231306040518263ffffffff1660e01b81526004016129099190614174565b60206040518083038186803b15801561292157600080fd5b505afa158015612935573d6000803e3d6000fd5b505050506040513d601f19601f820116820180604052508101906129599190613a4b565b101561299a576040517f08c379a0000000000000000000000000000000000000000000000000000000008152600401612991906144b4565b60405180910390fd5b6000600354146129df576040517f08c379a00000000000000000000000000000000000000000000000000000000081526004016129d6906144d4565b60405180910390fd5b88600381905550876008819055508660098190555085600581905550846007819055508785612a0e91906147df565b86612a199190614758565b600681905550505050505050505050565b612a3333610e38565b612a72576040517f08c379a0000000000000000000000000000000000000000000000000000000008152600401612a69906143b4565b60405180910390fd5b60085460008111612ab8576040517f08c379a0000000000000000000000000000000000000000000000000000000008152600401612aaf90614414565b60405180910390fd5b601360009054906101000a900460ff1615612b08576040517f08c379a0000000000000000000000000000000000000000000000000000000008152600401612aff90614554565b60405180910390fd5b6000600190505b6009548111612b8e57600b600082815260200190815260200160002060000160009054906101000a900460ff16612b7b576040517f08c379a0000000000000000000000000000000000000000000000000000000008152600401612b7290614634565b60405180910390fd5b8080612b869061497a565b915050612b0f565b506001601360006101000a81548160ff0219169083151502179055506009546008541115612beb57600954600854612bc69190614839565b600a54600354612bd69190614839565b612be091906147ae565b601081905550612bf4565b60006010819055505b7fd8cea0ecd56872ff072e771658b5682ffe4de16d752947f79597d600ea56f7a960405160405180910390a150565b6000808360008111612c6a576040517f08c379a0000000000000000000000000000000000000000000000000000000008152600401612c6190614414565b60405180910390fd5b84600954811115612cb0576040517f08c379a0000000000000000000000000000000000000000000000000000000008152600401612ca7906145d4565b60405180910390fd5b6000600b600088815260200190815260200160002090508060050160008773ffffffffffffffffffffffffffffffffffffffff1673ffffffffffffffffffffffffffffffffffffffff16815260200190815260200160002060000160009054906101000a900460ff1615612dbf578060050160008773ffffffffffffffffffffffffffffffffffffffff1673ffffffffffffffffffffffffffffffffffffffff16815260200190815260200160002060000160009054906101000a900460ff168160050160008873ffffffffffffffffffffffffffffffffffffffff1673ffffffffffffffffffffffffffffffffffffffff168152602001908152602001600020600101549450945050612dc1565b505b50509250929050565b612dd333610e38565b612e12576040517f08c379a0000000000000000000000000000000000000000000000000000000008152600401612e09906143b4565b60405180910390fd5b80600073ffffffffffffffffffffffffffffffffffffffff168173ffffffffffffffffffffffffffffffffffffffff161415612e83576040517f08c379a0000000000000000000000000000000000000000000000000000000008152600401612e7a906145b4565b60405180910390fd5b600e60009054906101000a900473ffffffffffffffffffffffffffffffffffffffff16828073ffffffffffffffffffffffffffffffffffffffff168273ffffffffffffffffffffffffffffffffffffffff161415612f16576040517f08c379a0000000000000000000000000000000000000000000000000000000008152600401612f0d90614314565b60405180910390fd5b83600e60006101000a81548173ffffffffffffffffffffffffffffffffffffffff021916908373ffffffffffffffffffffffffffffffffffffffff1602179055507fd8aa7b8f4725b1aeb0ddbafe541c6c63620536cef2c340dd7747b17adc653cb484604051612f869190614174565b60405180910390a150505050565b600e60009054906101000a900473ffffffffffffffffffffffffffffffffffffffff1681565b7ff0887ba65ee2024ea881d91b74c2450ef19e1557f03bed3ea9f16b037cbe2dc981565b612fe782610e18565b612ff881612ff3613318565b613320565b613002838361349e565b505050565b60095481565b61301633610e38565b613055576040517f08c379a000000000000000000000000000000000000000000000000000000000815260040161304c906143b4565b60405180910390fd5b6130628585858585612755565b5050505050565b600080600091506000905060055442111561325d576000613088611fca565b9050600e60009054906101000a900473ffffffffffffffffffffffffffffffffffffffff1673ffffffffffffffffffffffffffffffffffffffff168473ffffffffffffffffffffffffffffffffffffffff1614156131375760095481111561311c57600954600f541061310a57600f54816131039190614839565b925061311b565b600954816131189190614839565b92505b5b6000831115613136576010548361313391906147df565b91505b5b6000600190505b600954811161325a57808210613247576000600b600083815260200190815260200160002090508060000160019054906101000a900460ff1615613245578060050160008773ffffffffffffffffffffffffffffffffffffffff1673ffffffffffffffffffffffffffffffffffffffff16815260200190815260200160002060000160009054906101000a900460ff16801561321e575060008160050160008873ffffffffffffffffffffffffffffffffffffffff1673ffffffffffffffffffffffffffffffffffffffff16815260200190815260200160002060010154145b1561324457848061322e9061497a565b9550508060030154846132419190614758565b93505b5b505b80806132529061497a565b91505061313e565b50505b915091565b60115481565b601360009054906101000a900460ff1681565b6000600f5460075461328d91906147df565b60055461329a9190614758565b90508060065410156132ab57600090505b90565b60007f01ffc9a7000000000000000000000000000000000000000000000000000000007bffffffffffffffffffffffffffffffffffffffffffffffffffffffff1916827bffffffffffffffffffffffffffffffffffffffffffffffffffffffff1916149050919050565b600033905090565b61332a828261248c565b6133b95761334f8173ffffffffffffffffffffffffffffffffffffffff166014613580565b61335d8360001c6020613580565b60405160200161336e92919061413a565b6040516020818303038152906040526040517f08c379a00000000000000000000000000000000000000000000000000000000081526004016133b091906142d2565b60405180910390fd5b5050565b6133c7828261248c565b61349a576001600d600084815260200190815260200160002060000160008373ffffffffffffffffffffffffffffffffffffffff1673ffffffffffffffffffffffffffffffffffffffff16815260200190815260200160002060006101000a81548160ff02191690831515021790555061343f613318565b73ffffffffffffffffffffffffffffffffffffffff168173ffffffffffffffffffffffffffffffffffffffff16837f2f8788117e7eff1d82e926ec794901d17c78024a50270940304540a733656f0d60405160405180910390a45b5050565b6134a8828261248c565b1561357c576000600d600084815260200190815260200160002060000160008373ffffffffffffffffffffffffffffffffffffffff1673ffffffffffffffffffffffffffffffffffffffff16815260200190815260200160002060006101000a81548160ff021916908315150217905550613521613318565b73ffffffffffffffffffffffffffffffffffffffff168173ffffffffffffffffffffffffffffffffffffffff16837ff6391f5c32d9c69d2a47ea670b442974b53935d1edc7fd64eb21e047a839171b60405160405180910390a45b5050565b60606000600283600261359391906147df565b61359d9190614758565b67ffffffffffffffff8111156135dc577f4e487b7100000000000000000000000000000000000000000000000000000000600052604160045260246000fd5b6040519080825280601f01601f19166020018201604052801561360e5781602001600182028036833780820191505090505b5090507f30000000000000000000000000000000000000000000000000000000000000008160008151811061366c577f4e487b7100000000000000000000000000000000000000000000000000000000600052603260045260246000fd5b60200101907effffffffffffffffffffffffffffffffffffffffffffffffffffffffffffff1916908160001a9053507f7800000000000000000000000000000000000000000000000000000000000000816001815181106136f6577f4e487b7100000000000000000000000000000000000000000000000000000000600052603260045260246000fd5b60200101907effffffffffffffffffffffffffffffffffffffffffffffffffffffffffffff1916908160001a9053506000600184600261373691906147df565b6137409190614758565b90505b600181111561382c577f3031323334353637383961626364656600000000000000000000000000000000600f8616601081106137a8577f4e487b7100000000000000000000000000000000000000000000000000000000600052603260045260246000fd5b1a60f81b8282815181106137e5577f4e487b7100000000000000000000000000000000000000000000000000000000600052603260045260246000fd5b60200101907effffffffffffffffffffffffffffffffffffffffffffffffffffffffffffff1916908160001a905350600485901c9450806138259061491e565b9050613743565b5060008414613870576040517f08c379a0000000000000000000000000000000000000000000000000000000008152600401613867906142f4565b60405180910390fd5b8091505092915050565b60008135905061388981615082565b92915050565b60008083601f8401126138a157600080fd5b8235905067ffffffffffffffff8111156138ba57600080fd5b6020830191508360208202830111156138d257600080fd5b9250929050565b6000815190506138e881615099565b92915050565b6000813590506138fd816150b0565b92915050565b600081359050613912816150c7565b92915050565b600081359050613927816150de565b92915050565b60008151905061393c816150de565b92915050565b60006020828403121561395457600080fd5b60006139628482850161387a565b91505092915050565b60006020828403121561397d57600080fd5b600061398b848285016138d9565b91505092915050565b6000602082840312156139a657600080fd5b60006139b4848285016138ee565b91505092915050565b600080604083850312156139d057600080fd5b60006139de858286016138ee565b92505060206139ef8582860161387a565b9150509250929050565b600060208284031215613a0b57600080fd5b6000613a1984828501613903565b91505092915050565b600060208284031215613a3457600080fd5b6000613a4284828501613918565b91505092915050565b600060208284031215613a5d57600080fd5b6000613a6b8482850161392d565b91505092915050565b60008060408385031215613a8757600080fd5b6000613a9585828601613918565b9250506020613aa68582860161387a565b9150509250929050565b600080600060408486031215613ac557600080fd5b6000613ad386828701613918565b935050602084013567ffffffffffffffff811115613af057600080fd5b613afc8682870161388f565b92509250509250925092565b60008060408385031215613b1b57600080fd5b6000613b2985828601613918565b9250506020613b3a85828601613918565b9150509250929050565b600080600080600060a08688031215613b5c57600080fd5b6000613b6a88828901613918565b9550506020613b7b88828901613918565b9450506040613b8c88828901613918565b9350506060613b9d88828901613918565b9250506080613bae88828901613918565b9150509295509295909350565b6000613bc78383613bd3565b60208301905092915050565b613bdc8161486d565b82525050565b613beb8161486d565b82525050565b6000613bfd8385614714565b9350613c08826146ca565b8060005b85811015613c4157613c1e8284614741565b613c288882613bbb565b9750613c33836146fa565b925050600181019050613c0c565b5085925050509392505050565b6000613c59826146e4565b613c638185614714565b9350613c6e836146d4565b8060005b83811015613c9f578151613c868882613bbb565b9750613c9183614707565b925050600181019050613c72565b5085935050505092915050565b613cb58161487f565b82525050565b613cc48161488b565b82525050565b6000613cd5826146ef565b613cdf8185614725565b9350613cef8185602086016148eb565b613cf881614a50565b840191505092915050565b6000613d0e826146ef565b613d188185614736565b9350613d288185602086016148eb565b80840191505092915050565b6000613d41602083614725565b9150613d4c82614a61565b602082019050919050565b6000613d64601783614725565b9150613d6f82614a8a565b602082019050919050565b6000613d87602083614725565b9150613d9282614ab3565b602082019050919050565b6000613daa602283614725565b9150613db582614adc565b604082019050919050565b6000613dcd601e83614725565b9150613dd882614b2b565b602082019050919050565b6000613df0601583614725565b9150613dfb82614b54565b602082019050919050565b6000613e13602283614725565b9150613e1e82614b7d565b604082019050919050565b6000613e36601a83614725565b9150613e4182614bcc565b602082019050919050565b6000613e59601883614725565b9150613e6482614bf5565b602082019050919050565b6000613e7c601c83614725565b9150613e8782614c1e565b602082019050919050565b6000613e9f601b83614725565b9150613eaa82614c47565b602082019050919050565b6000613ec2601683614725565b9150613ecd82614c70565b602082019050919050565b6000613ee5601883614725565b9150613ef082614c99565b602082019050919050565b6000613f08601c83614725565b9150613f1382614cc2565b602082019050919050565b6000613f2b602283614725565b9150613f3682614ceb565b604082019050919050565b6000613f4e601e83614725565b9150613f5982614d3a565b602082019050919050565b6000613f71602c83614725565b9150613f7c82614d63565b604082019050919050565b6000613f94601683614725565b9150613f9f82614db2565b602082019050919050565b6000613fb7601483614725565b9150613fc282614ddb565b602082019050919050565b6000613fda602983614725565b9150613fe582614e04565b604082019050919050565b6000613ffd602983614725565b915061400882614e53565b604082019050919050565b6000614020601783614736565b915061402b82614ea2565b601782019050919050565b6000614043602183614725565b915061404e82614ecb565b604082019050919050565b6000614066601e83614725565b915061407182614f1a565b602082019050919050565b6000614089601183614736565b915061409482614f43565b601182019050919050565b60006140ac602183614725565b91506140b782614f6c565b604082019050919050565b60006140cf602f83614725565b91506140da82614fbb565b604082019050919050565b60006140f2601e83614725565b91506140fd8261500a565b602082019050919050565b6000614115603583614725565b915061412082615033565b604082019050919050565b614134816148e1565b82525050565b600061414582614013565b91506141518285613d03565b915061415c8261407c565b91506141688284613d03565b91508190509392505050565b60006020820190506141896000830184613be2565b92915050565b60006040820190506141a46000830185613be2565b6141b1602083018461412b565b9392505050565b60006020820190506141cd6000830184613cac565b92915050565b600060a0820190506141e86000830188613cac565b6141f56020830187613cac565b614202604083018661412b565b61420f606083018561412b565b61421c608083018461412b565b9695505050505050565b600060c08201905061423b6000830189613cac565b6142486020830188613cac565b614255604083018761412b565b614262606083018661412b565b61426f608083018561412b565b81810360a08301526142818184613c4e565b9050979650505050505050565b60006040820190506142a36000830185613cac565b6142b0602083018461412b565b9392505050565b60006020820190506142cc6000830184613cbb565b92915050565b600060208201905081810360008301526142ec8184613cca565b905092915050565b6000602082019050818103600083015261430d81613d34565b9050919050565b6000602082019050818103600083015261432d81613d57565b9050919050565b6000602082019050818103600083015261434d81613d7a565b9050919050565b6000602082019050818103600083015261436d81613d9d565b9050919050565b6000602082019050818103600083015261438d81613dc0565b9050919050565b600060208201905081810360008301526143ad81613de3565b9050919050565b600060208201905081810360008301526143cd81613e06565b9050919050565b600060208201905081810360008301526143ed81613e29565b9050919050565b6000602082019050818103600083015261440d81613e4c565b9050919050565b6000602082019050818103600083015261442d81613e6f565b9050919050565b6000602082019050818103600083015261444d81613e92565b9050919050565b6000602082019050818103600083015261446d81613eb5565b9050919050565b6000602082019050818103600083015261448d81613ed8565b9050919050565b600060208201905081810360008301526144ad81613efb565b9050919050565b600060208201905081810360008301526144cd81613f1e565b9050919050565b600060208201905081810360008301526144ed81613f41565b9050919050565b6000602082019050818103600083015261450d81613f64565b9050919050565b6000602082019050818103600083015261452d81613f87565b9050919050565b6000602082019050818103600083015261454d81613faa565b9050919050565b6000602082019050818103600083015261456d81613fcd565b9050919050565b6000602082019050818103600083015261458d81613ff0565b9050919050565b600060208201905081810360008301526145ad81614036565b9050919050565b600060208201905081810360008301526145cd81614059565b9050919050565b600060208201905081810360008301526145ed8161409f565b9050919050565b6000602082019050818103600083015261460d816140c2565b9050919050565b6000602082019050818103600083015261462d816140e5565b9050919050565b6000602082019050818103600083015261464d81614108565b9050919050565b6000602082019050614669600083018461412b565b92915050565b6000604082019050614684600083018661412b565b8181036020830152614697818486613bf1565b9050949350505050565b60006040820190506146b6600083018561412b565b6146c3602083018461412b565b9392505050565b6000819050919050565b6000819050602082019050919050565b600081519050919050565b600081519050919050565b6000602082019050919050565b6000602082019050919050565b600082825260208201905092915050565b600082825260208201905092915050565b600081905092915050565b6000614750602084018461387a565b905092915050565b6000614763826148e1565b915061476e836148e1565b9250827fffffffffffffffffffffffffffffffffffffffffffffffffffffffffffffffff038211156147a3576147a26149c3565b5b828201905092915050565b60006147b9826148e1565b91506147c4836148e1565b9250826147d4576147d36149f2565b5b828204905092915050565b60006147ea826148e1565b91506147f5836148e1565b9250817fffffffffffffffffffffffffffffffffffffffffffffffffffffffffffffffff048311821515161561482e5761482d6149c3565b5b828202905092915050565b6000614844826148e1565b915061484f836148e1565b925082821015614862576148616149c3565b5b828203905092915050565b6000614878826148c1565b9050919050565b60008115159050919050565b6000819050919050565b60007fffffffff0000000000000000000000000000000000000000000000000000000082169050919050565b600073ffffffffffffffffffffffffffffffffffffffff82169050919050565b6000819050919050565b60005b838110156149095780820151818401526020810190506148ee565b83811115614918576000848401525b50505050565b6000614929826148e1565b9150600082141561493d5761493c6149c3565b5b600182039050919050565b6000600282049050600182168061496057607f821691505b6020821081141561497457614973614a21565b5b50919050565b6000614985826148e1565b91507fffffffffffffffffffffffffffffffffffffffffffffffffffffffffffffffff8214156149b8576149b76149c3565b5b600182019050919050565b7f4e487b7100000000000000000000000000000000000000000000000000000000600052601160045260246000fd5b7f4e487b7100000000000000000000000000000000000000000000000000000000600052601260045260246000fd5b7f4e487b7100000000000000000000000000000000000000000000000000000000600052602260045260246000fd5b6000601f19601f8301169050919050565b7f537472696e67733a20686578206c656e67746820696e73756666696369656e74600082015250565b7f426173655661756c743a2073616d652061646472657373000000000000000000600082015250565b7f44657369676e65645661756c743a20616c726561647920616c6c6f6361746564600082015250565b7f44657369676e65645661756c743a206e6f20636c61696d61626c6520616d6f7560008201527f6e74000000000000000000000000000000000000000000000000000000000000602082015250565b7f44657369676e65645661756c743a20616c726561647920737461727465640000600082015250565b7f426173655661756c743a2073616d652076616c75650000000000000000000000600082015250565b7f41636365737369626c653a2043616c6c6572206973206e6f7420616e2061646d60008201527f696e000000000000000000000000000000000000000000000000000000000000602082015250565b7f426173655661756c743a20616c72656164792073746172746564000000000000600082015250565b7f41636365737369626c653a207a65726f20616464726573730000000000000000600082015250565b7f426173655661756c7453746f726167653a207a65726f2076616c756500000000600082015250565b7f44657369676e65645661756c743a206e6f20616c6c6f63617465640000000000600082015250565b7f426173655661756c743a20696e737566666963656e7400000000000000000000600082015250565b7f426173655661756c743a207472616e73666572206661696c0000000000000000600082015250565b7f44657369676e65645661756c743a207472616e73666572206661696c00000000600082015250565b7f426173655661756c743a2062616c616e63654f6620697320696e73756666696560008201527f6e74000000000000000000000000000000000000000000000000000000000000602082015250565b7f426173655661756c743a20616c726561647920696e697469616c697a65640000600082015250565b7f44657369676e65645661756c743a2065786365656420746f74616c20616c6c6f60008201527f636174656420616d6f756e740000000000000000000000000000000000000000602082015250565b7f41636365737369626c653a2073616d652061646d696e00000000000000000000600082015250565b7f63616e6e6f742072656365697665204574686572000000000000000000000000600082015250565b7f44657369676e65645661756c743a20616c72656164792073746172746564206260008201527f7920636c61696d65720000000000000000000000000000000000000000000000602082015250565b7f426173655661756c743a20636865636b20696e70757420636f756e742061742060008201527f6f6e63652074696d650000000000000000000000000000000000000000000000602082015250565b7f416363657373436f6e74726f6c3a206163636f756e7420000000000000000000600082015250565b7f426173655661756c743a206e6f20776974686472617761626c6520616d6f756e60008201527f7400000000000000000000000000000000000000000000000000000000000000602082015250565b7f426173655661756c7453746f726167653a207a65726f20616464726573730000600082015250565b7f206973206d697373696e6720726f6c6520000000000000000000000000000000600082015250565b7f426173655661756c743a2065786365656420617661696c61626c6520726f756e60008201527f6400000000000000000000000000000000000000000000000000000000000000602082015250565b7f416363657373436f6e74726f6c3a2063616e206f6e6c792072656e6f756e636560008201527f20726f6c657320666f722073656c660000000000000000000000000000000000602082015250565b7f44657369676e65645661756c743a206e6f742073746172746564207965740000600082015250565b7f44657369676e65645661756c743a2070726576696f757320726f756e6420646960008201527f64277420626520616c6c6f6361746564207965742e0000000000000000000000602082015250565b61508b8161486d565b811461509657600080fd5b50565b6150a28161487f565b81146150ad57600080fd5b50565b6150b98161488b565b81146150c457600080fd5b50565b6150d081614895565b81146150db57600080fd5b50565b6150e7816148e1565b81146150f257600080fd5b5056fea26469706673582212206dd5faa739c90fa47424daed9fe3cfb28df36093d889eca8a47bf2c04624b33c64736f6c63430008040033",
  "immutableReferences": {},
  "source": "//SPDX-License-Identifier: Unlicense\npragma solidity ^0.8.4;\n\nimport \"./vaults/DesignedVault.sol\";\n\ncontract MarketingVault is DesignedVault {\n    constructor(address _tosAddress, uint256 _maxInputOnce)\n        DesignedVault(\"Marketing Fund\", _tosAddress, _maxInputOnce)\n    {}\n}\n",
  "sourcePath": "/Users/zena/tonstarter/tonstarter-token-distribution/contracts/MarketingVault.sol",
  "compiler": {
    "name": "solc",
    "version": "0.8.4+commit.c7e474f2.Emscripten.clang"
  },
  "schemaVersion": "3.4.4",
  "updatedAt": "2023-11-27T04:24:12.927Z",
  "devdoc": {
    "kind": "dev",
    "methods": {
      "addAdmin(address)": {
        "details": "add admin",
        "params": {
          "account": "address to add"
        }
      },
      "addWhitelist(uint256,address[])": {
        "details": "Register the white list for the round.",
        "params": {
          "round": "it is the period unit can claim once",
          "users": "people who can claim in that round"
        }
      },
      "allocateAmount(uint256,uint256)": {
        "details": "allocate amount for each round",
        "params": {
          "amount": "total claimable amount",
          "round": "it is the period unit can claim once"
        }
      },
      "availableWithdrawAmount()": {
        "details": "Amount that can be withdrawn by the owner"
      },
      "claim()": {
        "details": "claim"
      },
      "getRoleAdmin(bytes32)": {
        "details": "Returns the admin role that controls `role`. See {grantRole} and {revokeRole}. To change a role's admin, use {_setRoleAdmin}."
      },
      "getTgeInfos(uint256)": {
        "details": "get Tge infos",
        "params": {
          "round": "it is the period unit can claim once"
        },
        "returns": {
          "allocated": "whether allocated",
          "allocatedAmount": "allocated amount",
          "amount": "the claimeable amount by person in TGE period",
          "claimedCount": "claimed  count",
          "started": "whether started",
          "whitelist": "who can claim in TGE period"
        }
      },
      "getWhitelistInfo(uint256,address)": {
        "details": "get the claim info of whitelist's person",
        "params": {
          "round": "it is the period unit can claim once",
          "user": "person in whitelist"
        },
        "returns": {
          "claimedTime": "the claimed time",
          "joined": "whether joined"
        }
      },
      "grantRole(bytes32,address)": {
        "details": "Grants `role` to `account`. If `account` had not been already granted `role`, emits a {RoleGranted} event. Requirements: - the caller must have ``role``'s admin role."
      },
      "hasRole(bytes32,address)": {
        "details": "Returns `true` if `account` has been granted `role`."
      },
      "initialize(uint256,uint256,uint256,uint256,uint256)": {
        "details": "initialization function",
        "params": {
          "_periodTimesPerClaim": "period time per claim",
          "_startTime": "start time",
          "_totalAllocatedAmount": "total allocated amount",
          "_totalClaims": "total available claim count",
          "_totalTgeCount": "total tge count"
        }
      },
      "initializeBase(uint256,uint256,uint256,uint256,uint256)": {
        "details": "initialization function",
        "params": {
          "_periodTimesPerClaim": "period time per claim",
          "_startTime": "start time",
          "_totalAllocatedAmount": "total allocated amount",
          "_totalTgeCount": "total tge count"
        }
      },
      "isAdmin(address)": {
        "details": "whether admin",
        "params": {
          "account": "address to check"
        }
      },
      "nextClaimRound()": {
        "details": "next claimable round"
      },
      "nextClaimStartTime()": {
        "details": "next claimable start time"
      },
      "removeAdmin(address)": {
        "details": "remove admin",
        "params": {
          "account": "address to remove"
        }
      },
      "renounceRole(bytes32,address)": {
        "details": "Revokes `role` from the calling account. Roles are often managed via {grantRole} and {revokeRole}: this function's purpose is to provide a mechanism for accounts to lose their privileges if they are compromised (such as when a trusted device is misplaced). If the calling account had been granted `role`, emits a {RoleRevoked} event. Requirements: - the caller must be `account`."
      },
      "revokeRole(bytes32,address)": {
        "details": "Revokes `role` from `account`. If `account` had been granted `role`, emits a {RoleRevoked} event. Requirements: - the caller must have ``role``'s admin role."
      },
      "setClaimer(address)": {
        "details": "set claimer",
        "params": {
          "_newClaimer": "new claimer"
        }
      },
      "setMaxInputOnceTimeWhitelist(uint256)": {
        "details": "set max input at once time of whitelist",
        "params": {
          "_maxInputOnceTime": "max input at once time"
        }
      },
      "start()": {
        "details": "start round for claimer , The amount charged at one time is determined."
      },
      "startRound(uint256)": {
        "details": "start round, Calculate how much the whitelisted people in the round can claim.",
        "params": {
          "round": "it is the period unit can claim once"
        }
      },
      "supportsInterface(bytes4)": {
        "details": "See {IERC165-supportsInterface}."
      },
      "totalWhitelist(uint256)": {
        "details": "get the total count of whitelist in round",
        "params": {
          "round": "it is the period unit can claim once"
        },
        "returns": {
          "total": "the total count of whitelist in round"
        }
      },
      "transferAdmin(address)": {
        "details": "transfer admin",
        "params": {
          "newAdmin": "new admin address"
        }
      },
      "unclaimedInfos(address)": {
        "details": "number of unclaimed"
      },
      "withdraw(address)": {
        "details": "withdraw to whom",
        "params": {
          "to": "to address to send"
        }
      }
    },
    "version": 1
  },
  "userdoc": {
    "kind": "user",
    "methods": {
      "tgeInfos(uint256)": {
        "notice": "round => TgeInfo"
      }
    },
    "version": 1
  }
}