{
  "contractName": "MarketingVault",
  "abi": [
    {
      "inputs": [
        {
          "internalType": "address",
          "name": "_tosAddress",
          "type": "address"
        },
        {
          "internalType": "uint256",
          "name": "_maxInputOnce",
          "type": "uint256"
        }
      ],
      "stateMutability": "nonpayable",
      "type": "constructor"
    },
    {
      "anonymous": false,
      "inputs": [
        {
          "indexed": false,
          "internalType": "uint256",
          "name": "round",
          "type": "uint256"
        },
        {
          "indexed": false,
          "internalType": "address[]",
          "name": "users",
          "type": "address[]"
        }
      ],
      "name": "AddedWhitelist",
      "type": "event"
    },
    {
      "anonymous": false,
      "inputs": [
        {
          "indexed": false,
          "internalType": "uint256",
          "name": "round",
          "type": "uint256"
        },
        {
          "indexed": false,
          "internalType": "uint256",
          "name": "amount",
          "type": "uint256"
        }
      ],
      "name": "AllocatedAmount",
      "type": "event"
    },
    {
      "anonymous": false,
      "inputs": [
        {
          "indexed": true,
          "internalType": "address",
          "name": "caller",
          "type": "address"
        },
        {
          "indexed": false,
          "internalType": "uint256",
          "name": "amount",
          "type": "uint256"
        },
        {
          "indexed": false,
          "internalType": "uint256",
          "name": "totalClaimedAmount",
          "type": "uint256"
        }
      ],
      "name": "Claimed",
      "type": "event"
    },
    {
      "anonymous": false,
      "inputs": [
        {
          "indexed": true,
          "internalType": "address",
          "name": "previousOwner",
          "type": "address"
        },
        {
          "indexed": true,
          "internalType": "address",
          "name": "newOwner",
          "type": "address"
        }
      ],
      "name": "OwnershipTransferred",
      "type": "event"
    },
    {
      "anonymous": false,
      "inputs": [
        {
          "indexed": false,
          "internalType": "address",
          "name": "newClaimer",
          "type": "address"
        }
      ],
      "name": "SetNewClaimer",
      "type": "event"
    },
    {
      "anonymous": false,
      "inputs": [],
      "name": "Started",
      "type": "event"
    },
    {
      "anonymous": false,
      "inputs": [
        {
          "indexed": false,
          "internalType": "uint256",
          "name": "round",
          "type": "uint256"
        }
      ],
      "name": "StartedRound",
      "type": "event"
    },
    {
      "anonymous": false,
      "inputs": [
        {
          "indexed": true,
          "internalType": "address",
          "name": "caller",
          "type": "address"
        },
        {
          "indexed": false,
          "internalType": "uint256",
          "name": "amount",
          "type": "uint256"
        }
      ],
      "name": "Withdrawal",
      "type": "event"
    },
    {
      "inputs": [
        {
          "internalType": "uint256",
          "name": "round",
          "type": "uint256"
        },
        {
          "internalType": "address[]",
          "name": "users",
          "type": "address[]"
        }
      ],
      "name": "addWhitelist",
      "outputs": [],
      "stateMutability": "nonpayable",
      "type": "function"
    },
    {
      "inputs": [
        {
          "internalType": "uint256",
          "name": "round",
          "type": "uint256"
        },
        {
          "internalType": "uint256",
          "name": "amount",
          "type": "uint256"
        }
      ],
      "name": "allocateAmount",
      "outputs": [],
      "stateMutability": "nonpayable",
      "type": "function"
    },
    {
      "inputs": [],
      "name": "availableWithdrawAmount",
      "outputs": [
        {
          "internalType": "uint256",
          "name": "amount",
          "type": "uint256"
        }
      ],
      "stateMutability": "view",
      "type": "function"
    },
    {
      "inputs": [],
      "name": "claim",
      "outputs": [],
      "stateMutability": "nonpayable",
      "type": "function"
    },
    {
      "inputs": [
        {
          "internalType": "uint256",
          "name": "",
          "type": "uint256"
        }
      ],
      "name": "claimedTimesOfRoundByCliamer",
      "outputs": [
        {
          "internalType": "uint256",
          "name": "",
          "type": "uint256"
        }
      ],
      "stateMutability": "view",
      "type": "function"
    },
    {
      "inputs": [],
      "name": "claimer",
      "outputs": [
        {
          "internalType": "address",
          "name": "",
          "type": "address"
        }
      ],
      "stateMutability": "view",
      "type": "function"
    },
    {
      "inputs": [],
      "name": "currentRound",
      "outputs": [
        {
          "internalType": "uint256",
          "name": "round",
          "type": "uint256"
        }
      ],
      "stateMutability": "view",
      "type": "function"
    },
    {
      "inputs": [],
      "name": "endTime",
      "outputs": [
        {
          "internalType": "uint256",
          "name": "",
          "type": "uint256"
        }
      ],
      "stateMutability": "view",
      "type": "function"
    },
    {
      "inputs": [
        {
          "internalType": "uint256",
          "name": "round",
          "type": "uint256"
        }
      ],
      "name": "getTgeInfos",
      "outputs": [
        {
          "internalType": "bool",
          "name": "allocated",
          "type": "bool"
        },
        {
          "internalType": "bool",
          "name": "started",
          "type": "bool"
        },
        {
          "internalType": "uint256",
          "name": "allocatedAmount",
          "type": "uint256"
        },
        {
          "internalType": "uint256",
          "name": "claimedCount",
          "type": "uint256"
        },
        {
          "internalType": "uint256",
          "name": "amount",
          "type": "uint256"
        },
        {
          "internalType": "address[]",
          "name": "whitelist",
          "type": "address[]"
        }
      ],
      "stateMutability": "view",
      "type": "function"
    },
    {
      "inputs": [
        {
          "internalType": "uint256",
          "name": "round",
          "type": "uint256"
        },
        {
          "internalType": "address",
          "name": "user",
          "type": "address"
        }
      ],
      "name": "getWhitelistInfo",
      "outputs": [
        {
          "internalType": "bool",
          "name": "joined",
          "type": "bool"
        },
        {
          "internalType": "uint256",
          "name": "claimedTime",
          "type": "uint256"
        }
      ],
      "stateMutability": "view",
      "type": "function"
    },
    {
      "inputs": [
        {
          "internalType": "uint256",
          "name": "_totalAllocatedAmount",
          "type": "uint256"
        },
        {
          "internalType": "uint256",
          "name": "_totalClaims",
          "type": "uint256"
        },
        {
          "internalType": "uint256",
          "name": "_totalTgeCount",
          "type": "uint256"
        },
        {
          "internalType": "uint256",
          "name": "_startTime",
          "type": "uint256"
        },
        {
          "internalType": "uint256",
          "name": "_periodTimesPerCliam",
          "type": "uint256"
        }
      ],
      "name": "initialize",
      "outputs": [],
      "stateMutability": "nonpayable",
      "type": "function"
    },
    {
      "inputs": [],
      "name": "lastClaimedRound",
      "outputs": [
        {
          "internalType": "uint256",
          "name": "",
          "type": "uint256"
        }
      ],
      "stateMutability": "view",
      "type": "function"
    },
    {
      "inputs": [],
      "name": "maxInputOnceTime",
      "outputs": [
        {
          "internalType": "uint256",
          "name": "",
          "type": "uint256"
        }
      ],
      "stateMutability": "view",
      "type": "function"
    },
    {
      "inputs": [],
      "name": "name",
      "outputs": [
        {
          "internalType": "string",
          "name": "",
          "type": "string"
        }
      ],
      "stateMutability": "view",
      "type": "function"
    },
    {
      "inputs": [],
      "name": "nextClaimRound",
      "outputs": [
        {
          "internalType": "uint256",
          "name": "nextRound",
          "type": "uint256"
        }
      ],
      "stateMutability": "view",
      "type": "function"
    },
    {
      "inputs": [],
      "name": "nextClaimStartTime",
      "outputs": [
        {
          "internalType": "uint256",
          "name": "nextTime",
          "type": "uint256"
        }
      ],
      "stateMutability": "view",
      "type": "function"
    },
    {
      "inputs": [],
      "name": "oneClaimAmountByClaimer",
      "outputs": [
        {
          "internalType": "uint256",
          "name": "",
          "type": "uint256"
        }
      ],
      "stateMutability": "view",
      "type": "function"
    },
    {
      "inputs": [],
      "name": "owner",
      "outputs": [
        {
          "internalType": "address",
          "name": "",
          "type": "address"
        }
      ],
      "stateMutability": "view",
      "type": "function"
    },
    {
      "inputs": [],
      "name": "periodTimesPerCliam",
      "outputs": [
        {
          "internalType": "uint256",
          "name": "",
          "type": "uint256"
        }
      ],
      "stateMutability": "view",
      "type": "function"
    },
    {
      "inputs": [],
      "name": "renounceOwnership",
      "outputs": [],
      "stateMutability": "nonpayable",
      "type": "function"
    },
    {
      "inputs": [
        {
          "internalType": "address",
          "name": "_newClaimer",
          "type": "address"
        }
      ],
      "name": "setClaimer",
      "outputs": [],
      "stateMutability": "nonpayable",
      "type": "function"
    },
    {
      "inputs": [],
      "name": "start",
      "outputs": [],
      "stateMutability": "nonpayable",
      "type": "function"
    },
    {
      "inputs": [
        {
          "internalType": "uint256",
          "name": "round",
          "type": "uint256"
        }
      ],
      "name": "startRound",
      "outputs": [],
      "stateMutability": "nonpayable",
      "type": "function"
    },
    {
      "inputs": [],
      "name": "startTime",
      "outputs": [
        {
          "internalType": "uint256",
          "name": "",
          "type": "uint256"
        }
      ],
      "stateMutability": "view",
      "type": "function"
    },
    {
      "inputs": [],
      "name": "startedByClaimer",
      "outputs": [
        {
          "internalType": "bool",
          "name": "",
          "type": "bool"
        }
      ],
      "stateMutability": "view",
      "type": "function"
    },
    {
      "inputs": [
        {
          "internalType": "uint256",
          "name": "",
          "type": "uint256"
        }
      ],
      "name": "tgeInfos",
      "outputs": [
        {
          "internalType": "bool",
          "name": "allocated",
          "type": "bool"
        },
        {
          "internalType": "bool",
          "name": "started",
          "type": "bool"
        },
        {
          "internalType": "uint256",
          "name": "allocatedAmount",
          "type": "uint256"
        },
        {
          "internalType": "uint256",
          "name": "claimedCount",
          "type": "uint256"
        },
        {
          "internalType": "uint256",
          "name": "amount",
          "type": "uint256"
        }
      ],
      "stateMutability": "view",
      "type": "function"
    },
    {
      "inputs": [],
      "name": "token",
      "outputs": [
        {
          "internalType": "address",
          "name": "",
          "type": "address"
        }
      ],
      "stateMutability": "view",
      "type": "function"
    },
    {
      "inputs": [],
      "name": "totalAllocatedAmount",
      "outputs": [
        {
          "internalType": "uint256",
          "name": "",
          "type": "uint256"
        }
      ],
      "stateMutability": "view",
      "type": "function"
    },
    {
      "inputs": [],
      "name": "totalClaimedAmount",
      "outputs": [
        {
          "internalType": "uint256",
          "name": "",
          "type": "uint256"
        }
      ],
      "stateMutability": "view",
      "type": "function"
    },
    {
      "inputs": [],
      "name": "totalClaimedCountByClaimer",
      "outputs": [
        {
          "internalType": "uint256",
          "name": "",
          "type": "uint256"
        }
      ],
      "stateMutability": "view",
      "type": "function"
    },
    {
      "inputs": [],
      "name": "totalClaims",
      "outputs": [
        {
          "internalType": "uint256",
          "name": "",
          "type": "uint256"
        }
      ],
      "stateMutability": "view",
      "type": "function"
    },
    {
      "inputs": [],
      "name": "totalTgeAmount",
      "outputs": [
        {
          "internalType": "uint256",
          "name": "",
          "type": "uint256"
        }
      ],
      "stateMutability": "view",
      "type": "function"
    },
    {
      "inputs": [],
      "name": "totalTgeCount",
      "outputs": [
        {
          "internalType": "uint256",
          "name": "",
          "type": "uint256"
        }
      ],
      "stateMutability": "view",
      "type": "function"
    },
    {
      "inputs": [
        {
          "internalType": "address",
          "name": "newOwner",
          "type": "address"
        }
      ],
      "name": "transferOwnership",
      "outputs": [],
      "stateMutability": "nonpayable",
      "type": "function"
    },
    {
      "inputs": [],
      "name": "unclaimedInfos",
      "outputs": [
        {
          "internalType": "uint256",
          "name": "count",
          "type": "uint256"
        },
        {
          "internalType": "uint256",
          "name": "amount",
          "type": "uint256"
        }
      ],
      "stateMutability": "view",
      "type": "function"
    },
    {
      "inputs": [
        {
          "internalType": "address",
          "name": "to",
          "type": "address"
        }
      ],
      "name": "withdraw",
      "outputs": [],
      "stateMutability": "nonpayable",
      "type": "function"
    }
  ],
  "bytecode": "0x60806040523480156200001157600080fd5b5060405162004266380380620042668339818101604052810190620000379190620002b2565b6040518060400160405280600981526020017f4d61726b6574696e6700000000000000000000000000000000000000000000008152508282600062000081620001cc60201b60201c565b9050806000806101000a81548173ffffffffffffffffffffffffffffffffffffffff021916908373ffffffffffffffffffffffffffffffffffffffff1602179055508073ffffffffffffffffffffffffffffffffffffffff16600073ffffffffffffffffffffffffffffffffffffffff167f8be0079c531659141344cd1fd0a4f28419497f9722a3daafe3b4186f6b6457e060405160405180910390a350826002908051906020019062000137929190620001d4565b5081600360006101000a81548173ffffffffffffffffffffffffffffffffffffffff021916908373ffffffffffffffffffffffffffffffffffffffff16021790555033600460006101000a81548173ffffffffffffffffffffffffffffffffffffffff021916908373ffffffffffffffffffffffffffffffffffffffff160217905550806001819055505050505050620003ca565b600033905090565b828054620001e29062000331565b90600052602060002090601f01602090048101928262000206576000855562000252565b82601f106200022157805160ff191683800117855562000252565b8280016001018555821562000252579182015b828111156200025157825182559160200191906001019062000234565b5b50905062000261919062000265565b5090565b5b808211156200028057600081600090555060010162000266565b5090565b600081519050620002958162000396565b92915050565b600081519050620002ac81620003b0565b92915050565b60008060408385031215620002c657600080fd5b6000620002d68582860162000284565b9250506020620002e9858286016200029b565b9150509250929050565b6000620003008262000307565b9050919050565b600073ffffffffffffffffffffffffffffffffffffffff82169050919050565b6000819050919050565b600060028204905060018216806200034a57607f821691505b6020821081141562000361576200036062000367565b5b50919050565b7f4e487b7100000000000000000000000000000000000000000000000000000000600052602260045260246000fd5b620003a181620002f3565b8114620003ad57600080fd5b50565b620003bb8162000327565b8114620003c757600080fd5b50565b613e8c80620003da6000396000f3fe608060405234801561001057600080fd5b506004361061021c5760003560e01c806383ff349511610125578063cdfb5832116100ad578063e63e18a81161007c578063e63e18a8146105ce578063f2fde38b146105ec578063f64f4a3914610608578063fc0c546a14610626578063fe735400146106445761021c565b8063cdfb58321461055a578063d379be2314610576578063d993471914610594578063dcbab608146105b25761021c565b80638da5cb5b116100f45780638da5cb5b146104c75780639661cb0d146104e55780639bde542714610503578063be9a65551461051f578063cb1b782f146105295761021c565b806383ff34951461043e57806385d0a8151461045d5780638a19c8bc1461048d5780638aa1e44e146104ab5761021c565b8063517da719116101a857806361202e3b1161017757806361202e3b146103bc57806368871d6e146103da578063715018a6146103f857806378e9792514610402578063814f26fc146104205761021c565b8063517da7191461033157806351cff8d91461036657806355640008146103825780635fc3d52d146103a05761021c565b806335e8bcd2116101ef57806335e8bcd2146102af5780633e59df35146102cd5780633ef1a1aa146102eb57806341c61383146103095780634e71d92d146103275761021c565b806306fdde0314610221578063166cf32c1461023f57806317d426f7146102735780633197cbb614610291575b600080fd5b610229610662565b60405161023691906132f7565b60405180910390f35b61025960048036038101906102549190612c17565b6106f0565b60405161026a959493929190613213565b60405180910390f35b61027b610740565b6040516102889190613599565b60405180910390f35b610299610746565b6040516102a69190613599565b60405180910390f35b6102b761074c565b6040516102c49190613599565b60405180910390f35b6102d5610752565b6040516102e29190613599565b60405180910390f35b6102f3610758565b6040516103009190613599565b60405180910390f35b61031161075e565b60405161031e9190613599565b60405180910390f35b61032f610764565b005b61034b60048036038101906103469190612c17565b610d21565b60405161035d96959493929190613266565b60405180910390f35b610380600480360381019061037b9190612bc5565b610ea1565b005b61038a611125565b6040516103979190613599565b60405180910390f35b6103ba60048036038101906103b59190612c17565b61112b565b005b6103c46113dc565b6040516103d19190613599565b60405180910390f35b6103e26114f6565b6040516103ef9190613599565b60405180910390f35b61040061151b565b005b61040a611655565b6040516104179190613599565b60405180910390f35b61042861165b565b6040516104359190613599565b60405180910390f35b610446611661565b6040516104549291906135e6565b60405180910390f35b61047760048036038101906104729190612c17565b61185e565b6040516104849190613599565b60405180910390f35b610495611876565b6040516104a29190613599565b60405180910390f35b6104c560048036038101906104c09190612ca5565b6118ba565b005b6104cf611d6b565b6040516104dc91906131b4565b60405180910390f35b6104ed611d94565b6040516104fa9190613599565b60405180910390f35b61051d60048036038101906105189190612cfd565b611d9a565b005b61052761201d565b005b610543600480360381019061053e9190612c69565b612230565b6040516105519291906132ce565b60405180910390f35b610574600480360381019061056f9190612bc5565b6123d5565b005b61057e6125cf565b60405161058b91906131b4565b60405180910390f35b61059c6125f5565b6040516105a99190613599565b60405180910390f35b6105cc60048036038101906105c79190612d39565b6125fb565b005b6105d6612904565b6040516105e39190613599565b60405180910390f35b61060660048036038101906106019190612bc5565b61290a565b005b610610612ab3565b60405161061d91906131f8565b60405180910390f35b61062e612ac6565b60405161063b91906131b4565b60405180910390f35b61064c612aec565b6040516106599190613599565b60405180910390f35b6002805461066f90613822565b80601f016020809104026020016040519081016040528092919081815260200182805461069b90613822565b80156106e85780601f106106bd576101008083540402835291602001916106e8565b820191906000526020600020905b8154815290600101906020018083116106cb57829003601f168201915b505050505081565b600e6020528060005260406000206000915090508060000160009054906101000a900460ff16908060000160019054906101000a900460ff16908060010154908060020154908060030154905085565b600b5481565b600a5481565b600f5481565b60085481565b60015481565b60075481565b60008060095442116107ab576040517f08c379a00000000000000000000000000000000000000000000000000000000081526004016107a290613319565b60405180910390fd5b60006107b5611876565b9050600460009054906101000a900473ffffffffffffffffffffffffffffffffffffffff1673ffffffffffffffffffffffffffffffffffffffff163373ffffffffffffffffffffffffffffffffffffffff1614156109eb57600c5460085411156108395780600854101561083457600854816108319190613773565b92505b610855565b80600c54101561085457600c54816108519190613773565b92505b5b600f54836108639190613719565b9150600082116108a8576040517f08c379a000000000000000000000000000000000000000000000000000000000815260040161089f90613559565b60405180910390fd5b8060088190555081600660008282546108c19190613692565b92505081905550601060008154809291906108db90613854565b9190505550426011600083815260200190815260200160002081905550600360009054906101000a900473ffffffffffffffffffffffffffffffffffffffff1673ffffffffffffffffffffffffffffffffffffffff1663a9059cbb33846040518363ffffffff1660e01b81526004016109559291906131cf565b602060405180830381600087803b15801561096f57600080fd5b505af1158015610983573d6000803e3d6000fd5b505050506040513d601f19601f820116820180604052508101906109a79190612bee565b6109e6576040517f08c379a00000000000000000000000000000000000000000000000000000000081526004016109dd90613479565b60405180910390fd5b610cca565b6000600190505b600c548111610b5d57808210610b4a576000600e600083815260200190815260200160002090508060000160019054906101000a900460ff1615610b48578060050160003373ffffffffffffffffffffffffffffffffffffffff1673ffffffffffffffffffffffffffffffffffffffff16815260200190815260200160002060000160009054906101000a900460ff168015610ad2575060008160050160003373ffffffffffffffffffffffffffffffffffffffff1673ffffffffffffffffffffffffffffffffffffffff16815260200190815260200160002060010154145b15610b475760008160050160003373ffffffffffffffffffffffffffffffffffffffff1673ffffffffffffffffffffffffffffffffffffffff16815260200190815260200160002090508580610b2790613854565b965050428160010181905550816003015485610b439190613692565b9450505b5b505b8080610b5590613854565b9150506109f2565b5060008211610ba1576040517f08c379a0000000000000000000000000000000000000000000000000000000008152600401610b9890613559565b60405180910390fd5b8160066000828254610bb39190613692565b92505081905550600c54600854108015610bce5750600c5481105b15610bdb57806008819055505b600360009054906101000a900473ffffffffffffffffffffffffffffffffffffffff1673ffffffffffffffffffffffffffffffffffffffff1663a9059cbb33846040518363ffffffff1660e01b8152600401610c389291906131cf565b602060405180830381600087803b158015610c5257600080fd5b505af1158015610c66573d6000803e3d6000fd5b505050506040513d601f19601f82011682018060405250810190610c8a9190612bee565b610cc9576040517f08c379a0000000000000000000000000000000000000000000000000000000008152600401610cc090613479565b60405180910390fd5b5b3373ffffffffffffffffffffffffffffffffffffffff167f987d620f307ff6b94d58743cb7a7509f24071586a77759b77c2d4e29f75a2f9a83600654604051610d149291906135e6565b60405180910390a2505050565b600080600080600060608660008111610d6f576040517f08c379a0000000000000000000000000000000000000000000000000000000008152600401610d66906133f9565b60405180910390fd5b600c54881115610db4576040517f08c379a0000000000000000000000000000000000000000000000000000000008152600401610dab90613399565b60405180910390fd5b6000600e60008a815260200190815260200160002090508060000160009054906101000a900460ff168160000160019054906101000a900460ff168260010154836002015484600301548560040180805480602002602001604051908101604052809291908181526020018280548015610e8357602002820191906000526020600020905b8160009054906101000a900473ffffffffffffffffffffffffffffffffffffffff1673ffffffffffffffffffffffffffffffffffffffff1681526020019060010190808311610e39575b50505050509050975097509750975097509750505091939550919395565b610ea9612b1f565b73ffffffffffffffffffffffffffffffffffffffff16610ec7611d6b565b73ffffffffffffffffffffffffffffffffffffffff1614610f1d576040517f08c379a0000000000000000000000000000000000000000000000000000000008152600401610f1490613419565b60405180910390fd5b80600073ffffffffffffffffffffffffffffffffffffffff168173ffffffffffffffffffffffffffffffffffffffff161415610f8e576040517f08c379a0000000000000000000000000000000000000000000000000000000008152600401610f85906133d9565b60405180910390fd5b6000610f986113dc565b905060008111610fdd576040517f08c379a0000000000000000000000000000000000000000000000000000000008152600401610fd490613519565b60405180910390fd5b600360009054906101000a900473ffffffffffffffffffffffffffffffffffffffff1673ffffffffffffffffffffffffffffffffffffffff1663a9059cbb846110246113dc565b6040518363ffffffff1660e01b81526004016110419291906131cf565b602060405180830381600087803b15801561105b57600080fd5b505af115801561106f573d6000803e3d6000fd5b505050506040513d601f19601f820116820180604052508101906110939190612bee565b6110d2576040517f08c379a00000000000000000000000000000000000000000000000000000000081526004016110c990613479565b60405180910390fd5b3373ffffffffffffffffffffffffffffffffffffffff167f7fcf532c15f0a6db0bd6d0e038bea71d30d808c7d98cb3bf7268a95bf5081b65826040516111189190613599565b60405180910390a2505050565b60055481565b611133612b1f565b73ffffffffffffffffffffffffffffffffffffffff16611151611d6b565b73ffffffffffffffffffffffffffffffffffffffff16146111a7576040517f08c379a000000000000000000000000000000000000000000000000000000000815260040161119e90613419565b60405180910390fd5b80600081116111eb576040517f08c379a00000000000000000000000000000000000000000000000000000000081526004016111e2906133f9565b60405180910390fd5b60075460008111611231576040517f08c379a0000000000000000000000000000000000000000000000000000000008152600401611228906133f9565b60405180910390fd5b600c54831115611276576040517f08c379a000000000000000000000000000000000000000000000000000000000815260040161126d90613399565b60405180910390fd5b6000600e600085815260200190815260200160002090508060000160009054906101000a900460ff166112de576040517f08c379a00000000000000000000000000000000000000000000000000000000081526004016112d590613579565b60405180910390fd5b8060000160019054906101000a900460ff1615611330576040517f08c379a000000000000000000000000000000000000000000000000000000000815260040161132790613499565b60405180910390fd5b60018160000160016101000a81548160ff02191690831515021790555060008160010154118015611368575060008160040180549050115b15611391578060040180549050816001015461138491906136e8565b816003018190555061139f565b806001015481600301819055505b7f0ab582f1afc29efbd503feb5b4a945175eee54010e1be75f88d3e0a865f1631f846040516113ce9190613599565b60405180910390a150505050565b600080600360009054906101000a900473ffffffffffffffffffffffffffffffffffffffff1673ffffffffffffffffffffffffffffffffffffffff166370a08231306040518263ffffffff1660e01b815260040161143a91906131b4565b60206040518083038186803b15801561145257600080fd5b505afa158015611466573d6000803e3d6000fd5b505050506040513d601f19601f8201168201806040525081019061148a9190612c40565b9050600060065460055461149e9190613773565b9050808210156114e3576040517f08c379a00000000000000000000000000000000000000000000000000000000081526004016114da90613439565b60405180910390fd5b80826114ef9190613773565b9250505090565b600060016008546115079190613692565b905080600754101561151857600090505b90565b611523612b1f565b73ffffffffffffffffffffffffffffffffffffffff16611541611d6b565b73ffffffffffffffffffffffffffffffffffffffff1614611597576040517f08c379a000000000000000000000000000000000000000000000000000000000815260040161158e90613419565b60405180910390fd5b600073ffffffffffffffffffffffffffffffffffffffff1660008054906101000a900473ffffffffffffffffffffffffffffffffffffffff1673ffffffffffffffffffffffffffffffffffffffff167f8be0079c531659141344cd1fd0a4f28419497f9722a3daafe3b4186f6b6457e060405160405180910390a360008060006101000a81548173ffffffffffffffffffffffffffffffffffffffff021916908373ffffffffffffffffffffffffffffffffffffffff160217905550565b60095481565b600d5481565b600080600091506000905060095442111561185a576000611680611876565b9050600460009054906101000a900473ffffffffffffffffffffffffffffffffffffffff1673ffffffffffffffffffffffffffffffffffffffff163373ffffffffffffffffffffffffffffffffffffffff16141561173357600c5481111561171457600c546008541061170257600854816116fb9190613773565b9250611713565b600c54816117109190613773565b92505b5b600083111561172e57600f548361172b9190613719565b91505b611858565b6000600190505b600c54811161185657808210611843576000600e600083815260200190815260200160002090508060000160019054906101000a900460ff1615611841578060050160003373ffffffffffffffffffffffffffffffffffffffff1673ffffffffffffffffffffffffffffffffffffffff16815260200190815260200160002060000160009054906101000a900460ff16801561181a575060008160050160003373ffffffffffffffffffffffffffffffffffffffff1673ffffffffffffffffffffffffffffffffffffffff16815260200190815260200160002060010154145b1561184057848061182a90613854565b95505080600301548461183d9190613692565b93505b5b505b808061184e90613854565b91505061173a565b505b505b9091565b60116020528060005260406000206000915090505481565b600060095442101561188b57600090506118b7565b600b546009544261189c9190613773565b6118a691906136e8565b905080806118b390613854565b9150505b90565b6118c2612b1f565b73ffffffffffffffffffffffffffffffffffffffff166118e0611d6b565b73ffffffffffffffffffffffffffffffffffffffff1614611936576040517f08c379a000000000000000000000000000000000000000000000000000000000815260040161192d90613419565b60405180910390fd5b826000811161197a576040517f08c379a0000000000000000000000000000000000000000000000000000000008152600401611971906133f9565b60405180910390fd5b600c548411156119bf576040517f08c379a00000000000000000000000000000000000000000000000000000000081526004016119b690613399565b60405180910390fd5b6000838390501180156119d757506001548383905011155b611a16576040517f08c379a0000000000000000000000000000000000000000000000000000000008152600401611a0d906134d9565b60405180910390fd5b6000600e600086815260200190815260200160002090508060000160019054906101000a900460ff1615611a7f576040517f08c379a0000000000000000000000000000000000000000000000000000000008152600401611a7690613499565b60405180910390fd5b60005b84849050811015611d2857600073ffffffffffffffffffffffffffffffffffffffff16858583818110611ade577f4e487b7100000000000000000000000000000000000000000000000000000000600052603260045260246000fd5b9050602002016020810190611af39190612bc5565b73ffffffffffffffffffffffffffffffffffffffff1614158015611bb35750816005016000868684818110611b51577f4e487b7100000000000000000000000000000000000000000000000000000000600052603260045260246000fd5b9050602002016020810190611b669190612bc5565b73ffffffffffffffffffffffffffffffffffffffff1673ffffffffffffffffffffffffffffffffffffffff16815260200190815260200160002060000160009054906101000a900460ff16155b15611d15576001826005016000878785818110611bf9577f4e487b7100000000000000000000000000000000000000000000000000000000600052603260045260246000fd5b9050602002016020810190611c0e9190612bc5565b73ffffffffffffffffffffffffffffffffffffffff1673ffffffffffffffffffffffffffffffffffffffff16815260200190815260200160002060000160006101000a81548160ff02191690831515021790555081600401858583818110611c9f577f4e487b7100000000000000000000000000000000000000000000000000000000600052603260045260246000fd5b9050602002016020810190611cb49190612bc5565b9080600181540180825580915050600190039060005260206000200160009091909190916101000a81548173ffffffffffffffffffffffffffffffffffffffff021916908373ffffffffffffffffffffffffffffffffffffffff1602179055505b8080611d2090613854565b915050611a82565b507f9c9ea5277c31b2732c1577550098533c5c80dda4ee8728a4f235421651856e96858585604051611d5c939291906135b4565b60405180910390a15050505050565b60008060009054906101000a900473ffffffffffffffffffffffffffffffffffffffff16905090565b60065481565b611da2612b1f565b73ffffffffffffffffffffffffffffffffffffffff16611dc0611d6b565b73ffffffffffffffffffffffffffffffffffffffff1614611e16576040517f08c379a0000000000000000000000000000000000000000000000000000000008152600401611e0d90613419565b60405180910390fd5b8160008111611e5a576040517f08c379a0000000000000000000000000000000000000000000000000000000008152600401611e51906133f9565b60405180910390fd5b8160008111611e9e576040517f08c379a0000000000000000000000000000000000000000000000000000000008152600401611e95906133f9565b60405180910390fd5b600c54841115611ee3576040517f08c379a0000000000000000000000000000000000000000000000000000000008152600401611eda90613399565b60405180910390fd5b60055483600d54611ef49190613692565b1115611f35576040517f08c379a0000000000000000000000000000000000000000000000000000000008152600401611f2c90613539565b60405180910390fd5b6000600e600086815260200190815260200160002090508060000160009054906101000a900460ff1615611f9e576040517f08c379a0000000000000000000000000000000000000000000000000000000008152600401611f95906134f9565b60405180910390fd5b60018160000160006101000a81548160ff02191690831515021790555083816001018190555083600d6000828254611fd69190613692565b925050819055507f3fd8c003d3212e0132457c2c9a85802b483554aec663e60ee92100df71c15f16858560405161200e9291906135e6565b60405180910390a15050505050565b612025612b1f565b73ffffffffffffffffffffffffffffffffffffffff16612043611d6b565b73ffffffffffffffffffffffffffffffffffffffff1614612099576040517f08c379a000000000000000000000000000000000000000000000000000000000815260040161209090613419565b60405180910390fd5b600754600081116120df576040517f08c379a00000000000000000000000000000000000000000000000000000000081526004016120d6906133f9565b60405180910390fd5b601260009054906101000a900460ff161561212f576040517f08c379a0000000000000000000000000000000000000000000000000000000008152600401612126906133b9565b60405180910390fd5b6000600190505b600c5481116121b557600e600082815260200190815260200160002060000160009054906101000a900460ff166121a2576040517f08c379a000000000000000000000000000000000000000000000000000000000815260040161219990613379565b60405180910390fd5b80806121ad90613854565b915050612136565b506001601260006101000a81548160ff021916908315150217905550600c546007546121e19190613773565b600d546005546121f19190613773565b6121fb91906136e8565b600f819055507fd8cea0ecd56872ff072e771658b5682ffe4de16d752947f79597d600ea56f7a960405160405180910390a150565b6000808360008111612277576040517f08c379a000000000000000000000000000000000000000000000000000000000815260040161226e906133f9565b60405180910390fd5b600c548511156122bc576040517f08c379a00000000000000000000000000000000000000000000000000000000081526004016122b390613399565b60405180910390fd5b6000600e600087815260200190815260200160002090508060050160008673ffffffffffffffffffffffffffffffffffffffff1673ffffffffffffffffffffffffffffffffffffffff16815260200190815260200160002060000160009054906101000a900460ff16156123cb578060050160008673ffffffffffffffffffffffffffffffffffffffff1673ffffffffffffffffffffffffffffffffffffffff16815260200190815260200160002060000160009054906101000a900460ff168160050160008773ffffffffffffffffffffffffffffffffffffffff1673ffffffffffffffffffffffffffffffffffffffff1681526020019081526020016000206001015493509350506123cd565b505b509250929050565b6123dd612b1f565b73ffffffffffffffffffffffffffffffffffffffff166123fb611d6b565b73ffffffffffffffffffffffffffffffffffffffff1614612451576040517f08c379a000000000000000000000000000000000000000000000000000000000815260040161244890613419565b60405180910390fd5b80600073ffffffffffffffffffffffffffffffffffffffff168173ffffffffffffffffffffffffffffffffffffffff1614156124c2576040517f08c379a00000000000000000000000000000000000000000000000000000000081526004016124b9906133d9565b60405180910390fd5b8173ffffffffffffffffffffffffffffffffffffffff16600460009054906101000a900473ffffffffffffffffffffffffffffffffffffffff1673ffffffffffffffffffffffffffffffffffffffff161415612553576040517f08c379a000000000000000000000000000000000000000000000000000000000815260040161254a906134b9565b60405180910390fd5b81600460006101000a81548173ffffffffffffffffffffffffffffffffffffffff021916908373ffffffffffffffffffffffffffffffffffffffff1602179055507fd8aa7b8f4725b1aeb0ddbafe541c6c63620536cef2c340dd7747b17adc653cb4826040516125c391906131b4565b60405180910390a15050565b600460009054906101000a900473ffffffffffffffffffffffffffffffffffffffff1681565b600c5481565b612603612b1f565b73ffffffffffffffffffffffffffffffffffffffff16612621611d6b565b73ffffffffffffffffffffffffffffffffffffffff1614612677576040517f08c379a000000000000000000000000000000000000000000000000000000000815260040161266e90613419565b60405180910390fd5b84600081116126bb576040517f08c379a00000000000000000000000000000000000000000000000000000000081526004016126b2906133f9565b60405180910390fd5b84600081116126ff576040517f08c379a00000000000000000000000000000000000000000000000000000000081526004016126f6906133f9565b60405180910390fd5b8360008111612743576040517f08c379a000000000000000000000000000000000000000000000000000000000815260040161273a906133f9565b60405180910390fd5b8360008111612787576040517f08c379a000000000000000000000000000000000000000000000000000000000815260040161277e906133f9565b60405180910390fd5b88600360009054906101000a900473ffffffffffffffffffffffffffffffffffffffff1673ffffffffffffffffffffffffffffffffffffffff166370a08231306040518263ffffffff1660e01b81526004016127e391906131b4565b60206040518083038186803b1580156127fb57600080fd5b505afa15801561280f573d6000803e3d6000fd5b505050506040513d601f19601f820116820180604052508101906128339190612c40565b1015612874576040517f08c379a000000000000000000000000000000000000000000000000000000000815260040161286b90613459565b60405180910390fd5b6000600554146128b9576040517f08c379a00000000000000000000000000000000000000000000000000000000081526004016128b090613359565b60405180910390fd5b886005819055508760078190555086600c819055508560098190555084600b8190555087856128e89190613719565b866128f39190613692565b600a81905550505050505050505050565b60105481565b612912612b1f565b73ffffffffffffffffffffffffffffffffffffffff16612930611d6b565b73ffffffffffffffffffffffffffffffffffffffff1614612986576040517f08c379a000000000000000000000000000000000000000000000000000000000815260040161297d90613419565b60405180910390fd5b600073ffffffffffffffffffffffffffffffffffffffff168173ffffffffffffffffffffffffffffffffffffffff1614156129f6576040517f08c379a00000000000000000000000000000000000000000000000000000000081526004016129ed90613339565b60405180910390fd5b8073ffffffffffffffffffffffffffffffffffffffff1660008054906101000a900473ffffffffffffffffffffffffffffffffffffffff1673ffffffffffffffffffffffffffffffffffffffff167f8be0079c531659141344cd1fd0a4f28419497f9722a3daafe3b4186f6b6457e060405160405180910390a3806000806101000a81548173ffffffffffffffffffffffffffffffffffffffff021916908373ffffffffffffffffffffffffffffffffffffffff16021790555050565b601260009054906101000a900460ff1681565b600360009054906101000a900473ffffffffffffffffffffffffffffffffffffffff1681565b6000600854600b54612afe9190613719565b600954612b0b9190613692565b905080600a541015612b1c57600090505b90565b600033905090565b600081359050612b3681613e11565b92915050565b60008083601f840112612b4e57600080fd5b8235905067ffffffffffffffff811115612b6757600080fd5b602083019150836020820283011115612b7f57600080fd5b9250929050565b600081519050612b9581613e28565b92915050565b600081359050612baa81613e3f565b92915050565b600081519050612bbf81613e3f565b92915050565b600060208284031215612bd757600080fd5b6000612be584828501612b27565b91505092915050565b600060208284031215612c0057600080fd5b6000612c0e84828501612b86565b91505092915050565b600060208284031215612c2957600080fd5b6000612c3784828501612b9b565b91505092915050565b600060208284031215612c5257600080fd5b6000612c6084828501612bb0565b91505092915050565b60008060408385031215612c7c57600080fd5b6000612c8a85828601612b9b565b9250506020612c9b85828601612b27565b9150509250929050565b600080600060408486031215612cba57600080fd5b6000612cc886828701612b9b565b935050602084013567ffffffffffffffff811115612ce557600080fd5b612cf186828701612b3c565b92509250509250925092565b60008060408385031215612d1057600080fd5b6000612d1e85828601612b9b565b9250506020612d2f85828601612b9b565b9150509250929050565b600080600080600060a08688031215612d5157600080fd5b6000612d5f88828901612b9b565b9550506020612d7088828901612b9b565b9450506040612d8188828901612b9b565b9350506060612d9288828901612b9b565b9250506080612da388828901612b9b565b9150509295509295909350565b6000612dbc8383612dc8565b60208301905092915050565b612dd1816137a7565b82525050565b612de0816137a7565b82525050565b6000612df28385613659565b9350612dfd8261360f565b8060005b85811015612e3657612e13828461367b565b612e1d8882612db0565b9750612e288361363f565b925050600181019050612e01565b5085925050509392505050565b6000612e4e82613629565b612e588185613659565b9350612e6383613619565b8060005b83811015612e94578151612e7b8882612db0565b9750612e868361364c565b925050600181019050612e67565b5085935050505092915050565b612eaa816137b9565b82525050565b6000612ebb82613634565b612ec5818561366a565b9350612ed58185602086016137ef565b612ede8161392a565b840191505092915050565b6000612ef6601f8361366a565b9150612f018261393b565b602082019050919050565b6000612f1960268361366a565b9150612f2482613964565b604082019050919050565b6000612f3c60238361366a565b9150612f47826139b3565b604082019050919050565b6000612f5f60368361366a565b9150612f6a82613a02565b604082019050919050565b6000612f8260268361366a565b9150612f8d82613a51565b604082019050919050565b6000612fa5602a8361366a565b9150612fb082613aa0565b604082019050919050565b6000612fc8601c8361366a565b9150612fd382613aef565b602082019050919050565b6000612feb601a8361366a565b9150612ff682613b18565b602082019050919050565b600061300e60208361366a565b915061301982613b41565b602082019050919050565b6000613031601b8361366a565b915061303c82613b6a565b602082019050919050565b600061305460278361366a565b915061305f82613b93565b604082019050919050565b6000613077601d8361366a565b915061308282613be2565b602082019050919050565b600061309a601f8361366a565b91506130a582613c0b565b602082019050919050565b60006130bd601c8361366a565b91506130c882613c34565b602082019050919050565b60006130e060228361366a565b91506130eb82613c5d565b604082019050919050565b600061310360218361366a565b915061310e82613cac565b604082019050919050565b600061312660268361366a565b915061313182613cfb565b604082019050919050565b6000613149602d8361366a565b915061315482613d4a565b604082019050919050565b600061316c60238361366a565b915061317782613d99565b604082019050919050565b600061318f601c8361366a565b915061319a82613de8565b602082019050919050565b6131ae816137e5565b82525050565b60006020820190506131c96000830184612dd7565b92915050565b60006040820190506131e46000830185612dd7565b6131f160208301846131a5565b9392505050565b600060208201905061320d6000830184612ea1565b92915050565b600060a0820190506132286000830188612ea1565b6132356020830187612ea1565b61324260408301866131a5565b61324f60608301856131a5565b61325c60808301846131a5565b9695505050505050565b600060c08201905061327b6000830189612ea1565b6132886020830188612ea1565b61329560408301876131a5565b6132a260608301866131a5565b6132af60808301856131a5565b81810360a08301526132c18184612e43565b9050979650505050505050565b60006040820190506132e36000830185612ea1565b6132f060208301846131a5565b9392505050565b600060208201905081810360008301526133118184612eb0565b905092915050565b6000602082019050818103600083015261333281612ee9565b9050919050565b6000602082019050818103600083015261335281612f0c565b9050919050565b6000602082019050818103600083015261337281612f2f565b9050919050565b6000602082019050818103600083015261339281612f52565b9050919050565b600060208201905081810360008301526133b281612f75565b9050919050565b600060208201905081810360008301526133d281612f98565b9050919050565b600060208201905081810360008301526133f281612fbb565b9050919050565b6000602082019050818103600083015261341281612fde565b9050919050565b6000602082019050818103600083015261343281613001565b9050919050565b6000602082019050818103600083015261345281613024565b9050919050565b6000602082019050818103600083015261347281613047565b9050919050565b600060208201905081810360008301526134928161306a565b9050919050565b600060208201905081810360008301526134b28161308d565b9050919050565b600060208201905081810360008301526134d2816130b0565b9050919050565b600060208201905081810360008301526134f2816130d3565b9050919050565b60006020820190508181036000830152613512816130f6565b9050919050565b6000602082019050818103600083015261353281613119565b9050919050565b600060208201905081810360008301526135528161313c565b9050919050565b600060208201905081810360008301526135728161315f565b9050919050565b6000602082019050818103600083015261359281613182565b9050919050565b60006020820190506135ae60008301846131a5565b92915050565b60006040820190506135c960008301866131a5565b81810360208301526135dc818486612de6565b9050949350505050565b60006040820190506135fb60008301856131a5565b61360860208301846131a5565b9392505050565b6000819050919050565b6000819050602082019050919050565b600081519050919050565b600081519050919050565b6000602082019050919050565b6000602082019050919050565b600082825260208201905092915050565b600082825260208201905092915050565b600061368a6020840184612b27565b905092915050565b600061369d826137e5565b91506136a8836137e5565b9250827fffffffffffffffffffffffffffffffffffffffffffffffffffffffffffffffff038211156136dd576136dc61389d565b5b828201905092915050565b60006136f3826137e5565b91506136fe836137e5565b92508261370e5761370d6138cc565b5b828204905092915050565b6000613724826137e5565b915061372f836137e5565b9250817fffffffffffffffffffffffffffffffffffffffffffffffffffffffffffffffff04831182151516156137685761376761389d565b5b828202905092915050565b600061377e826137e5565b9150613789836137e5565b92508282101561379c5761379b61389d565b5b828203905092915050565b60006137b2826137c5565b9050919050565b60008115159050919050565b600073ffffffffffffffffffffffffffffffffffffffff82169050919050565b6000819050919050565b60005b8381101561380d5780820151818401526020810190506137f2565b8381111561381c576000848401525b50505050565b6000600282049050600182168061383a57607f821691505b6020821081141561384e5761384d6138fb565b5b50919050565b600061385f826137e5565b91507fffffffffffffffffffffffffffffffffffffffffffffffffffffffffffffffff8214156138925761389161389d565b5b600182019050919050565b7f4e487b7100000000000000000000000000000000000000000000000000000000600052601160045260246000fd5b7f4e487b7100000000000000000000000000000000000000000000000000000000600052601260045260246000fd5b7f4e487b7100000000000000000000000000000000000000000000000000000000600052602260045260246000fd5b6000601f19601f8301169050919050565b7f44657369676e6174655661756c743a206e6f7420737461727465642079657400600082015250565b7f4f776e61626c653a206e6577206f776e657220697320746865207a65726f206160008201527f6464726573730000000000000000000000000000000000000000000000000000602082015250565b7f44657369676e6174655661756c743a20616c726561647920696e697469616c6960008201527f7a65640000000000000000000000000000000000000000000000000000000000602082015250565b7f44657369676e6174655661756c743a2070726576696f757320726f756e64206460008201527f6964277420626520616c6c6f6361746564207965742e00000000000000000000602082015250565b7f44657369676e6174655661756c743a2065786365656420617661696c61626c6560008201527f20726f756e640000000000000000000000000000000000000000000000000000602082015250565b7f44657369676e6174655661756c743a20616c726561647920737461727465642060008201527f627920636c61696d657200000000000000000000000000000000000000000000602082015250565b7f44657369676e6174655661756c743a207a65726f206164647265737300000000600082015250565b7f44657369676e6174655661756c743a207a65726f2076616c7565000000000000600082015250565b7f4f776e61626c653a2063616c6c6572206973206e6f7420746865206f776e6572600082015250565b7f44657369676e6174655661756c743a20696e737566666963656e740000000000600082015250565b7f44657369676e6174655661756c743a2062616c616e63654f6620697320696e7360008201527f75666669656e7400000000000000000000000000000000000000000000000000602082015250565b7f44657369676e6174655661756c743a207472616e73666572206661696c000000600082015250565b7f44657369676e6174655661756c743a20616c7265616479207374617274656400600082015250565b7f44657369676e6174655661756c743a2073616d65206164647265737300000000600082015250565b7f44657369676e6174655661756c743a20636865636b2075736572277320636f7560008201527f6e74000000000000000000000000000000000000000000000000000000000000602082015250565b7f44657369676e6174655661756c743a20616c726561647920616c6c6f6361746560008201527f6400000000000000000000000000000000000000000000000000000000000000602082015250565b7f44657369676e6174655661756c743a206e6f20776974686472617761626c652060008201527f616d6f756e740000000000000000000000000000000000000000000000000000602082015250565b7f44657369676e6174655661756c743a2065786365656420746f74616c20616c6c60008201527f6f636174656420616d6f756e7400000000000000000000000000000000000000602082015250565b7f44657369676e6174655661756c743a206e6f20636c61696d61626c6520616d6f60008201527f756e740000000000000000000000000000000000000000000000000000000000602082015250565b7f44657369676e6174655661756c743a206e6f20616c6c6f636174656400000000600082015250565b613e1a816137a7565b8114613e2557600080fd5b50565b613e31816137b9565b8114613e3c57600080fd5b50565b613e48816137e5565b8114613e5357600080fd5b5056fea26469706673582212207f220b3127b14ddb07605bd9e0184086c617f8686a3a437cd5105ea9cf17821c64736f6c63430008040033",
  "immutableReferences": {},
  "source": "//SPDX-License-Identifier: Unlicense\npragma solidity ^0.8.4;\n\nimport \"./DesignedVault.sol\";\n\ncontract MarketingVault is DesignedVault {\n    constructor(address _tosAddress, uint256 _maxInputOnce)\n        DesignedVault(\"Marketing\", _tosAddress, _maxInputOnce)\n    {}\n}\n",
  "sourcePath": "/Users/zena/tonstarter/tonstarter-token-distribution/contracts/MarketingVault.sol",
  "compiler": {
    "name": "solc",
    "version": "0.8.4+commit.c7e474f2.Emscripten.clang"
  },
  "schemaVersion": "3.3.4",
  "updatedAt": "2021-06-28T01:20:33.497Z",
  "devdoc": {
    "kind": "dev",
    "methods": {
      "addWhitelist(uint256,address[])": {
        "details": "Register the white list for the round.",
        "params": {
          "round": "it is the period unit can claim once",
          "users": "people who can claim in that round"
        }
      },
      "allocateAmount(uint256,uint256)": {
        "details": "allocate amount for each round",
        "params": {
          "amount": "total claimable amount",
          "round": "it is the period unit can claim once"
        }
      },
      "availableWithdrawAmount()": {
        "details": "Amount that can be withdrawn by the owner"
      },
      "claim()": {
        "details": "claim"
      },
      "getTgeInfos(uint256)": {
        "details": "get Tge infos",
        "params": {
          "round": "it is the period unit can claim once"
        }
      },
      "getWhitelistInfo(uint256,address)": {
        "details": "get the claim info of whitelist's person",
        "params": {
          "round": "it is the period unit can claim once",
          "user": "person in whitelist"
        }
      },
      "initialize(uint256,uint256,uint256,uint256,uint256)": {
        "details": "initialization function",
        "params": {
          "_periodTimesPerCliam": "period time per claim",
          "_startTime": "start time",
          "_totalAllocatedAmount": "total allocated amount",
          "_totalClaims": "total available claim count",
          "_totalTgeCount": "total tge count"
        }
      },
      "nextClaimRound()": {
        "details": "next claimable round"
      },
      "nextClaimStartTime()": {
        "details": "next claimable start time"
      },
      "owner()": {
        "details": "Returns the address of the current owner."
      },
      "renounceOwnership()": {
        "details": "Leaves the contract without owner. It will not be possible to call `onlyOwner` functions anymore. Can only be called by the current owner. NOTE: Renouncing ownership will leave the contract without an owner, thereby removing any functionality that is only available to the owner."
      },
      "setClaimer(address)": {
        "details": "set claimer",
        "params": {
          "_newClaimer": "new claimer"
        }
      },
      "start()": {
        "details": "start round for claimer , The amount charged at one time is determined."
      },
      "startRound(uint256)": {
        "details": "start round, Calculate how much the whitelisted people in the round can claim.",
        "params": {
          "round": "it is the period unit can claim once"
        }
      },
      "transferOwnership(address)": {
        "details": "Transfers ownership of the contract to a new account (`newOwner`). Can only be called by the current owner."
      },
      "unclaimedInfos()": {
        "details": "number of unclaimed"
      },
      "withdraw(address)": {
        "details": "withdraw to whom",
        "params": {
          "to": "to address to send"
        }
      }
    },
    "version": 1
  },
  "userdoc": {
    "kind": "user",
    "methods": {
      "tgeInfos(uint256)": {
        "notice": "round => TgeInfo"
      }
    },
    "version": 1
  }
}