{
  "contractName": "SimpleVault",
  "abi": [
    {
      "inputs": [
        {
          "internalType": "address",
          "name": "tosAddress",
          "type": "address"
        },
        {
          "internalType": "string",
          "name": "_name",
          "type": "string"
        }
      ],
      "stateMutability": "nonpayable",
      "type": "constructor"
    },
    {
      "anonymous": false,
      "inputs": [
        {
          "indexed": true,
          "internalType": "bytes32",
          "name": "role",
          "type": "bytes32"
        },
        {
          "indexed": true,
          "internalType": "bytes32",
          "name": "previousAdminRole",
          "type": "bytes32"
        },
        {
          "indexed": true,
          "internalType": "bytes32",
          "name": "newAdminRole",
          "type": "bytes32"
        }
      ],
      "name": "RoleAdminChanged",
      "type": "event"
    },
    {
      "anonymous": false,
      "inputs": [
        {
          "indexed": true,
          "internalType": "bytes32",
          "name": "role",
          "type": "bytes32"
        },
        {
          "indexed": true,
          "internalType": "address",
          "name": "account",
          "type": "address"
        },
        {
          "indexed": true,
          "internalType": "address",
          "name": "sender",
          "type": "address"
        }
      ],
      "name": "RoleGranted",
      "type": "event"
    },
    {
      "anonymous": false,
      "inputs": [
        {
          "indexed": true,
          "internalType": "bytes32",
          "name": "role",
          "type": "bytes32"
        },
        {
          "indexed": true,
          "internalType": "address",
          "name": "account",
          "type": "address"
        },
        {
          "indexed": true,
          "internalType": "address",
          "name": "sender",
          "type": "address"
        }
      ],
      "name": "RoleRevoked",
      "type": "event"
    },
    {
      "inputs": [],
      "name": "ADMIN_ROLE",
      "outputs": [
        {
          "internalType": "bytes32",
          "name": "",
          "type": "bytes32"
        }
      ],
      "stateMutability": "view",
      "type": "function"
    },
    {
      "inputs": [],
      "name": "BURNER_ROLE",
      "outputs": [
        {
          "internalType": "bytes32",
          "name": "",
          "type": "bytes32"
        }
      ],
      "stateMutability": "view",
      "type": "function"
    },
    {
      "inputs": [],
      "name": "DEFAULT_ADMIN_ROLE",
      "outputs": [
        {
          "internalType": "bytes32",
          "name": "",
          "type": "bytes32"
        }
      ],
      "stateMutability": "view",
      "type": "function"
    },
    {
      "inputs": [],
      "name": "MINTER_ROLE",
      "outputs": [
        {
          "internalType": "bytes32",
          "name": "",
          "type": "bytes32"
        }
      ],
      "stateMutability": "view",
      "type": "function"
    },
    {
      "inputs": [
        {
          "internalType": "address",
          "name": "account",
          "type": "address"
        }
      ],
      "name": "addAdmin",
      "outputs": [],
      "stateMutability": "nonpayable",
      "type": "function"
    },
    {
      "inputs": [
        {
          "internalType": "bytes32",
          "name": "role",
          "type": "bytes32"
        }
      ],
      "name": "getRoleAdmin",
      "outputs": [
        {
          "internalType": "bytes32",
          "name": "",
          "type": "bytes32"
        }
      ],
      "stateMutability": "view",
      "type": "function"
    },
    {
      "inputs": [
        {
          "internalType": "bytes32",
          "name": "role",
          "type": "bytes32"
        },
        {
          "internalType": "address",
          "name": "account",
          "type": "address"
        }
      ],
      "name": "grantRole",
      "outputs": [],
      "stateMutability": "nonpayable",
      "type": "function"
    },
    {
      "inputs": [
        {
          "internalType": "bytes32",
          "name": "role",
          "type": "bytes32"
        },
        {
          "internalType": "address",
          "name": "account",
          "type": "address"
        }
      ],
      "name": "hasRole",
      "outputs": [
        {
          "internalType": "bool",
          "name": "",
          "type": "bool"
        }
      ],
      "stateMutability": "view",
      "type": "function"
    },
    {
      "inputs": [
        {
          "internalType": "address",
          "name": "account",
          "type": "address"
        }
      ],
      "name": "isAdmin",
      "outputs": [
        {
          "internalType": "bool",
          "name": "",
          "type": "bool"
        }
      ],
      "stateMutability": "view",
      "type": "function"
    },
    {
      "inputs": [],
      "name": "name",
      "outputs": [
        {
          "internalType": "string",
          "name": "",
          "type": "string"
        }
      ],
      "stateMutability": "view",
      "type": "function"
    },
    {
      "inputs": [
        {
          "internalType": "address",
          "name": "account",
          "type": "address"
        }
      ],
      "name": "removeAdmin",
      "outputs": [],
      "stateMutability": "nonpayable",
      "type": "function"
    },
    {
      "inputs": [
        {
          "internalType": "bytes32",
          "name": "role",
          "type": "bytes32"
        },
        {
          "internalType": "address",
          "name": "account",
          "type": "address"
        }
      ],
      "name": "renounceRole",
      "outputs": [],
      "stateMutability": "nonpayable",
      "type": "function"
    },
    {
      "inputs": [
        {
          "internalType": "bytes32",
          "name": "role",
          "type": "bytes32"
        },
        {
          "internalType": "address",
          "name": "account",
          "type": "address"
        }
      ],
      "name": "revokeRole",
      "outputs": [],
      "stateMutability": "nonpayable",
      "type": "function"
    },
    {
      "inputs": [
        {
          "internalType": "bytes4",
          "name": "interfaceId",
          "type": "bytes4"
        }
      ],
      "name": "supportsInterface",
      "outputs": [
        {
          "internalType": "bool",
          "name": "",
          "type": "bool"
        }
      ],
      "stateMutability": "view",
      "type": "function"
    },
    {
      "inputs": [],
      "name": "tos",
      "outputs": [
        {
          "internalType": "address",
          "name": "",
          "type": "address"
        }
      ],
      "stateMutability": "view",
      "type": "function"
    },
    {
      "inputs": [
        {
          "internalType": "address",
          "name": "newAdmin",
          "type": "address"
        }
      ],
      "name": "transferAdmin",
      "outputs": [],
      "stateMutability": "nonpayable",
      "type": "function"
    },
    {
      "inputs": [
        {
          "internalType": "address",
          "name": "to",
          "type": "address"
        },
        {
          "internalType": "uint256",
          "name": "amount",
          "type": "uint256"
        }
      ],
      "name": "claimTOS",
      "outputs": [],
      "stateMutability": "nonpayable",
      "type": "function"
    },
    {
      "inputs": [
        {
          "internalType": "address",
          "name": "_token",
          "type": "address"
        },
        {
          "internalType": "address",
          "name": "to",
          "type": "address"
        },
        {
          "internalType": "uint256",
          "name": "amount",
          "type": "uint256"
        }
      ],
      "name": "claimERC20",
      "outputs": [],
      "stateMutability": "nonpayable",
      "type": "function"
    },
    {
      "inputs": [],
      "name": "balanceTOS",
      "outputs": [
        {
          "internalType": "uint256",
          "name": "",
          "type": "uint256"
        }
      ],
      "stateMutability": "view",
      "type": "function"
    },
    {
      "inputs": [
        {
          "internalType": "address",
          "name": "_token",
          "type": "address"
        }
      ],
      "name": "balanceERC20",
      "outputs": [
        {
          "internalType": "uint256",
          "name": "",
          "type": "uint256"
        }
      ],
      "stateMutability": "view",
      "type": "function"
    }
  ],
  "bytecode": "0x60806040523480156200001157600080fd5b50604051620029e2380380620029e283398181016040528101906200003791906200049e565b600073ffffffffffffffffffffffffffffffffffffffff168273ffffffffffffffffffffffffffffffffffffffff161415620000aa576040517f08c379a0000000000000000000000000000000000000000000000000000000008152600401620000a1906200051f565b60405180910390fd5b81600160006101000a81548173ffffffffffffffffffffffffffffffffffffffff021916908373ffffffffffffffffffffffffffffffffffffffff16021790555080600290805190602001906200010392919062000365565b50620001367fdf8b4c520ffe197c5343c6f5aec59570151ef9a492f2c624fd45ddde6135ec42806200017060201b60201c565b620001687fdf8b4c520ffe197c5343c6f5aec59570151ef9a492f2c624fd45ddde6135ec4233620001cd60201b60201c565b505062000739565b806200018283620001e360201b60201c565b837fbd79b86ffe0ab8e8776151514217cd7cacd52c909f66475c3af44e129f0b00ff60405160405180910390a480600080848152602001908152602001600020600101819055505050565b620001df82826200020260201b60201c565b5050565b6000806000838152602001908152602001600020600101549050919050565b620002148282620002f360201b60201c565b620002ef57600160008084815260200190815260200160002060000160008373ffffffffffffffffffffffffffffffffffffffff1673ffffffffffffffffffffffffffffffffffffffff16815260200190815260200160002060006101000a81548160ff021916908315150217905550620002946200035d60201b60201c565b73ffffffffffffffffffffffffffffffffffffffff168173ffffffffffffffffffffffffffffffffffffffff16837f2f8788117e7eff1d82e926ec794901d17c78024a50270940304540a733656f0d60405160405180910390a45b5050565b600080600084815260200190815260200160002060000160008373ffffffffffffffffffffffffffffffffffffffff1673ffffffffffffffffffffffffffffffffffffffff16815260200190815260200160002060009054906101000a900460ff16905092915050565b600033905090565b82805462000373906200061b565b90600052602060002090601f016020900481019282620003975760008555620003e3565b82601f10620003b257805160ff1916838001178555620003e3565b82800160010185558215620003e3579182015b82811115620003e2578251825591602001919060010190620003c5565b5b509050620003f29190620003f6565b5090565b5b8082111562000411576000816000905550600101620003f7565b5090565b60006200042c62000426846200056a565b62000541565b9050828152602081018484840111156200044557600080fd5b62000452848285620005e5565b509392505050565b6000815190506200046b816200071f565b92915050565b600082601f8301126200048357600080fd5b81516200049584826020860162000415565b91505092915050565b60008060408385031215620004b257600080fd5b6000620004c2858286016200045a565b925050602083015167ffffffffffffffff811115620004e057600080fd5b620004ee8582860162000471565b9150509250929050565b600062000507601983620005a0565b91506200051482620006f6565b602082019050919050565b600060208201905081810360008301526200053a81620004f8565b9050919050565b60006200054d62000560565b90506200055b828262000651565b919050565b6000604051905090565b600067ffffffffffffffff821115620005885762000587620006b6565b5b6200059382620006e5565b9050602081019050919050565b600082825260208201905092915050565b6000620005be82620005c5565b9050919050565b600073ffffffffffffffffffffffffffffffffffffffff82169050919050565b60005b8381101562000605578082015181840152602081019050620005e8565b8381111562000615576000848401525b50505050565b600060028204905060018216806200063457607f821691505b602082108114156200064b576200064a62000687565b5b50919050565b6200065c82620006e5565b810181811067ffffffffffffffff821117156200067e576200067d620006b6565b5b80604052505050565b7f4e487b7100000000000000000000000000000000000000000000000000000000600052602260045260246000fd5b7f4e487b7100000000000000000000000000000000000000000000000000000000600052604160045260246000fd5b6000601f19601f8301169050919050565b7f53696d706c655661756c743a207a65726f206164647265737300000000000000600082015250565b6200072a81620005b1565b81146200073657600080fd5b50565b61229980620007496000396000f3fe608060405234801561001057600080fd5b506004361061012c5760003560e01c806375829def116100ad578063d539139311610071578063d539139314610343578063d547741f14610361578063e69f69831461037d578063ec55377214610399578063f848091a146103b75761012c565b806375829def1461029d57806375b238fc146102b957806389f395de146102d757806391d14854146102f5578063a217fddf146103255761012c565b806324d7806c116100f457806324d7806c146101fb578063282c51f31461022b5780632f2ff15d1461024957806336568abe1461026557806370480275146102815761012c565b806301ffc9a71461013157806306fdde03146101615780630f4ac71a1461017f5780631785f53c146101af578063248a9ca3146101cb575b600080fd5b61014b6004803603810190610146919061185a565b6103d3565b6040516101589190611b99565b60405180910390f35b61016961044d565b6040516101769190611bcf565b60405180910390f35b61019960048036038101906101949190611718565b6104db565b6040516101a69190611d11565b60405180910390f35b6101c960048036038101906101c49190611718565b61056d565b005b6101e560048036038101906101e091906117f5565b6105e2565b6040516101f29190611bb4565b60405180910390f35b61021560048036038101906102109190611718565b610601565b6040516102229190611b99565b60405180910390f35b610233610634565b6040516102409190611bb4565b60405180910390f35b610263600480360381019061025e919061181e565b610658565b005b61027f600480360381019061027a919061181e565b610681565b005b61029b60048036038101906102969190611718565b610704565b005b6102b760048036038101906102b29190611718565b610779565b005b6102c16108f7565b6040516102ce9190611bb4565b60405180910390f35b6102df61091b565b6040516102ec9190611b55565b60405180910390f35b61030f600480360381019061030a919061181e565b610941565b60405161031c9190611b99565b60405180910390f35b61032d6109ab565b60405161033a9190611bb4565b60405180910390f35b61034b6109b2565b6040516103589190611bb4565b60405180910390f35b61037b6004803603810190610376919061181e565b6109d6565b005b61039760048036038101906103929190611790565b6109ff565b005b6103a1610be8565b6040516103ae9190611d11565b60405180910390f35b6103d160048036038101906103cc9190611741565b610c9a565b005b60007f7965db0b000000000000000000000000000000000000000000000000000000007bffffffffffffffffffffffffffffffffffffffffffffffffffffffff1916827bffffffffffffffffffffffffffffffffffffffffffffffffffffffff19161480610446575061044582610ddd565b5b9050919050565b6002805461045a90611ef4565b80601f016020809104026020016040519081016040528092919081815260200182805461048690611ef4565b80156104d35780601f106104a8576101008083540402835291602001916104d3565b820191906000526020600020905b8154815290600101906020018083116104b657829003601f168201915b505050505081565b60008173ffffffffffffffffffffffffffffffffffffffff166370a08231306040518263ffffffff1660e01b81526004016105169190611b55565b60206040518083038186803b15801561052e57600080fd5b505afa158015610542573d6000803e3d6000fd5b505050506040513d601f19601f820116820180604052508101906105669190611883565b9050919050565b61057633610601565b6105b5576040517f08c379a00000000000000000000000000000000000000000000000000000000081526004016105ac90611c11565b60405180910390fd5b6105df7fdf8b4c520ffe197c5343c6f5aec59570151ef9a492f2c624fd45ddde6135ec4282610681565b50565b6000806000838152602001908152602001600020600101549050919050565b600061062d7fdf8b4c520ffe197c5343c6f5aec59570151ef9a492f2c624fd45ddde6135ec4283610941565b9050919050565b7f9667e80708b6eeeb0053fa0cca44e028ff548e2a9f029edfeac87c118b08b7c881565b610661826105e2565b6106728161066d610e47565b610e4f565b61067c8383610eec565b505050565b610689610e47565b73ffffffffffffffffffffffffffffffffffffffff168173ffffffffffffffffffffffffffffffffffffffff16146106f6576040517f08c379a00000000000000000000000000000000000000000000000000000000081526004016106ed90611cf1565b60405180910390fd5b6107008282610fcc565b5050565b61070d33610601565b61074c576040517f08c379a000000000000000000000000000000000000000000000000000000000815260040161074390611c11565b60405180910390fd5b6107767fdf8b4c520ffe197c5343c6f5aec59570151ef9a492f2c624fd45ddde6135ec4282610658565b50565b61078233610601565b6107c1576040517f08c379a00000000000000000000000000000000000000000000000000000000081526004016107b890611c11565b60405180910390fd5b600073ffffffffffffffffffffffffffffffffffffffff168173ffffffffffffffffffffffffffffffffffffffff161415610831576040517f08c379a000000000000000000000000000000000000000000000000000000000815260040161082890611c31565b60405180910390fd5b8073ffffffffffffffffffffffffffffffffffffffff163373ffffffffffffffffffffffffffffffffffffffff1614156108a0576040517f08c379a000000000000000000000000000000000000000000000000000000000815260040161089790611c71565b60405180910390fd5b6108ca7fdf8b4c520ffe197c5343c6f5aec59570151ef9a492f2c624fd45ddde6135ec4282610658565b6108f47fdf8b4c520ffe197c5343c6f5aec59570151ef9a492f2c624fd45ddde6135ec4233610681565b50565b7fdf8b4c520ffe197c5343c6f5aec59570151ef9a492f2c624fd45ddde6135ec4281565b600160009054906101000a900473ffffffffffffffffffffffffffffffffffffffff1681565b600080600084815260200190815260200160002060000160008373ffffffffffffffffffffffffffffffffffffffff1673ffffffffffffffffffffffffffffffffffffffff16815260200190815260200160002060009054906101000a900460ff16905092915050565b6000801b81565b7ff0887ba65ee2024ea881d91b74c2450ef19e1557f03bed3ea9f16b037cbe2dc981565b6109df826105e2565b6109f0816109eb610e47565b610e4f565b6109fa8383610fcc565b505050565b610a0833610601565b610a47576040517f08c379a0000000000000000000000000000000000000000000000000000000008152600401610a3e90611c11565b60405180910390fd5b80600160009054906101000a900473ffffffffffffffffffffffffffffffffffffffff1673ffffffffffffffffffffffffffffffffffffffff166370a08231306040518263ffffffff1660e01b8152600401610aa39190611b55565b60206040518083038186803b158015610abb57600080fd5b505afa158015610acf573d6000803e3d6000fd5b505050506040513d601f19601f82011682018060405250810190610af39190611883565b1015610b34576040517f08c379a0000000000000000000000000000000000000000000000000000000008152600401610b2b90611cb1565b60405180910390fd5b600160009054906101000a900473ffffffffffffffffffffffffffffffffffffffff1673ffffffffffffffffffffffffffffffffffffffff1663a9059cbb83836040518363ffffffff1660e01b8152600401610b91929190611b70565b602060405180830381600087803b158015610bab57600080fd5b505af1158015610bbf573d6000803e3d6000fd5b505050506040513d601f19601f82011682018060405250810190610be391906117cc565b505050565b6000600160009054906101000a900473ffffffffffffffffffffffffffffffffffffffff1673ffffffffffffffffffffffffffffffffffffffff166370a08231306040518263ffffffff1660e01b8152600401610c459190611b55565b60206040518083038186803b158015610c5d57600080fd5b505afa158015610c71573d6000803e3d6000fd5b505050506040513d601f19601f82011682018060405250810190610c959190611883565b905090565b610ca333610601565b610ce2576040517f08c379a0000000000000000000000000000000000000000000000000000000008152600401610cd990611c11565b60405180910390fd5b808373ffffffffffffffffffffffffffffffffffffffff166370a08231306040518263ffffffff1660e01b8152600401610d1c9190611b55565b60206040518083038186803b158015610d3457600080fd5b505afa158015610d48573d6000803e3d6000fd5b505050506040513d601f19601f82011682018060405250810190610d6c9190611883565b1015610dad576040517f08c379a0000000000000000000000000000000000000000000000000000000008152600401610da490611cb1565b60405180910390fd5b610dd882828573ffffffffffffffffffffffffffffffffffffffff166110ad9092919063ffffffff16565b505050565b60007f01ffc9a7000000000000000000000000000000000000000000000000000000007bffffffffffffffffffffffffffffffffffffffffffffffffffffffff1916827bffffffffffffffffffffffffffffffffffffffffffffffffffffffff1916149050919050565b600033905090565b610e598282610941565b610ee857610e7e8173ffffffffffffffffffffffffffffffffffffffff166014611133565b610e8c8360001c6020611133565b604051602001610e9d929190611b1b565b6040516020818303038152906040526040517f08c379a0000000000000000000000000000000000000000000000000000000008152600401610edf9190611bcf565b60405180910390fd5b5050565b610ef68282610941565b610fc857600160008084815260200190815260200160002060000160008373ffffffffffffffffffffffffffffffffffffffff1673ffffffffffffffffffffffffffffffffffffffff16815260200190815260200160002060006101000a81548160ff021916908315150217905550610f6d610e47565b73ffffffffffffffffffffffffffffffffffffffff168173ffffffffffffffffffffffffffffffffffffffff16837f2f8788117e7eff1d82e926ec794901d17c78024a50270940304540a733656f0d60405160405180910390a45b5050565b610fd68282610941565b156110a957600080600084815260200190815260200160002060000160008373ffffffffffffffffffffffffffffffffffffffff1673ffffffffffffffffffffffffffffffffffffffff16815260200190815260200160002060006101000a81548160ff02191690831515021790555061104e610e47565b73ffffffffffffffffffffffffffffffffffffffff168173ffffffffffffffffffffffffffffffffffffffff16837ff6391f5c32d9c69d2a47ea670b442974b53935d1edc7fd64eb21e047a839171b60405160405180910390a45b5050565b61112e8363a9059cbb60e01b84846040516024016110cc929190611b70565b604051602081830303815290604052907bffffffffffffffffffffffffffffffffffffffffffffffffffffffff19166020820180517bffffffffffffffffffffffffffffffffffffffffffffffffffffffff838183161783525050505061142d565b505050565b6060600060028360026111469190611dbf565b6111509190611d69565b67ffffffffffffffff81111561118f577f4e487b7100000000000000000000000000000000000000000000000000000000600052604160045260246000fd5b6040519080825280601f01601f1916602001820160405280156111c15781602001600182028036833780820191505090505b5090507f30000000000000000000000000000000000000000000000000000000000000008160008151811061121f577f4e487b7100000000000000000000000000000000000000000000000000000000600052603260045260246000fd5b60200101907effffffffffffffffffffffffffffffffffffffffffffffffffffffffffffff1916908160001a9053507f7800000000000000000000000000000000000000000000000000000000000000816001815181106112a9577f4e487b7100000000000000000000000000000000000000000000000000000000600052603260045260246000fd5b60200101907effffffffffffffffffffffffffffffffffffffffffffffffffffffffffffff1916908160001a905350600060018460026112e99190611dbf565b6112f39190611d69565b90505b60018111156113df577f3031323334353637383961626364656600000000000000000000000000000000600f86166010811061135b577f4e487b7100000000000000000000000000000000000000000000000000000000600052603260045260246000fd5b1a60f81b828281518110611398577f4e487b7100000000000000000000000000000000000000000000000000000000600052603260045260246000fd5b60200101907effffffffffffffffffffffffffffffffffffffffffffffffffffffffffffff1916908160001a905350600485901c9450806113d890611eca565b90506112f6565b5060008414611423576040517f08c379a000000000000000000000000000000000000000000000000000000000815260040161141a90611bf1565b60405180910390fd5b8091505092915050565b600061148f826040518060400160405280602081526020017f5361666545524332303a206c6f772d6c6576656c2063616c6c206661696c65648152508573ffffffffffffffffffffffffffffffffffffffff166114f49092919063ffffffff16565b90506000815111156114ef57808060200190518101906114af91906117cc565b6114ee576040517f08c379a00000000000000000000000000000000000000000000000000000000081526004016114e590611cd1565b60405180910390fd5b5b505050565b6060611503848460008561150c565b90509392505050565b606082471015611551576040517f08c379a000000000000000000000000000000000000000000000000000000000815260040161154890611c51565b60405180910390fd5b61155a85611620565b611599576040517f08c379a000000000000000000000000000000000000000000000000000000000815260040161159090611c91565b60405180910390fd5b6000808673ffffffffffffffffffffffffffffffffffffffff1685876040516115c29190611b04565b60006040518083038185875af1925050503d80600081146115ff576040519150601f19603f3d011682016040523d82523d6000602084013e611604565b606091505b5091509150611614828286611633565b92505050949350505050565b600080823b905060008111915050919050565b6060831561164357829050611693565b6000835111156116565782518084602001fd5b816040517f08c379a000000000000000000000000000000000000000000000000000000000815260040161168a9190611bcf565b60405180910390fd5b9392505050565b6000813590506116a9816121f0565b92915050565b6000815190506116be81612207565b92915050565b6000813590506116d38161221e565b92915050565b6000813590506116e881612235565b92915050565b6000813590506116fd8161224c565b92915050565b6000815190506117128161224c565b92915050565b60006020828403121561172a57600080fd5b60006117388482850161169a565b91505092915050565b60008060006060848603121561175657600080fd5b60006117648682870161169a565b93505060206117758682870161169a565b9250506040611786868287016116ee565b9150509250925092565b600080604083850312156117a357600080fd5b60006117b18582860161169a565b92505060206117c2858286016116ee565b9150509250929050565b6000602082840312156117de57600080fd5b60006117ec848285016116af565b91505092915050565b60006020828403121561180757600080fd5b6000611815848285016116c4565b91505092915050565b6000806040838503121561183157600080fd5b600061183f858286016116c4565b92505060206118508582860161169a565b9150509250929050565b60006020828403121561186c57600080fd5b600061187a848285016116d9565b91505092915050565b60006020828403121561189557600080fd5b60006118a384828501611703565b91505092915050565b6118b581611e19565b82525050565b6118c481611e2b565b82525050565b6118d381611e37565b82525050565b60006118e482611d2c565b6118ee8185611d42565b93506118fe818560208601611e97565b80840191505092915050565b600061191582611d37565b61191f8185611d4d565b935061192f818560208601611e97565b61193881611f84565b840191505092915050565b600061194e82611d37565b6119588185611d5e565b9350611968818560208601611e97565b80840191505092915050565b6000611981602083611d4d565b915061198c82611f95565b602082019050919050565b60006119a4602283611d4d565b91506119af82611fbe565b604082019050919050565b60006119c7601883611d4d565b91506119d28261200d565b602082019050919050565b60006119ea602683611d4d565b91506119f582612036565b604082019050919050565b6000611a0d601683611d4d565b9150611a1882612085565b602082019050919050565b6000611a30601d83611d4d565b9150611a3b826120ae565b602082019050919050565b6000611a53601883611d4d565b9150611a5e826120d7565b602082019050919050565b6000611a76601783611d5e565b9150611a8182612100565b601782019050919050565b6000611a99602a83611d4d565b9150611aa482612129565b604082019050919050565b6000611abc601183611d5e565b9150611ac782612178565b601182019050919050565b6000611adf602f83611d4d565b9150611aea826121a1565b604082019050919050565b611afe81611e8d565b82525050565b6000611b1082846118d9565b915081905092915050565b6000611b2682611a69565b9150611b328285611943565b9150611b3d82611aaf565b9150611b498284611943565b91508190509392505050565b6000602082019050611b6a60008301846118ac565b92915050565b6000604082019050611b8560008301856118ac565b611b926020830184611af5565b9392505050565b6000602082019050611bae60008301846118bb565b92915050565b6000602082019050611bc960008301846118ca565b92915050565b60006020820190508181036000830152611be9818461190a565b905092915050565b60006020820190508181036000830152611c0a81611974565b9050919050565b60006020820190508181036000830152611c2a81611997565b9050919050565b60006020820190508181036000830152611c4a816119ba565b9050919050565b60006020820190508181036000830152611c6a816119dd565b9050919050565b60006020820190508181036000830152611c8a81611a00565b9050919050565b60006020820190508181036000830152611caa81611a23565b9050919050565b60006020820190508181036000830152611cca81611a46565b9050919050565b60006020820190508181036000830152611cea81611a8c565b9050919050565b60006020820190508181036000830152611d0a81611ad2565b9050919050565b6000602082019050611d266000830184611af5565b92915050565b600081519050919050565b600081519050919050565b600081905092915050565b600082825260208201905092915050565b600081905092915050565b6000611d7482611e8d565b9150611d7f83611e8d565b9250827fffffffffffffffffffffffffffffffffffffffffffffffffffffffffffffffff03821115611db457611db3611f26565b5b828201905092915050565b6000611dca82611e8d565b9150611dd583611e8d565b9250817fffffffffffffffffffffffffffffffffffffffffffffffffffffffffffffffff0483118215151615611e0e57611e0d611f26565b5b828202905092915050565b6000611e2482611e6d565b9050919050565b60008115159050919050565b6000819050919050565b60007fffffffff0000000000000000000000000000000000000000000000000000000082169050919050565b600073ffffffffffffffffffffffffffffffffffffffff82169050919050565b6000819050919050565b60005b83811015611eb5578082015181840152602081019050611e9a565b83811115611ec4576000848401525b50505050565b6000611ed582611e8d565b91506000821415611ee957611ee8611f26565b5b600182039050919050565b60006002820490506001821680611f0c57607f821691505b60208210811415611f2057611f1f611f55565b5b50919050565b7f4e487b7100000000000000000000000000000000000000000000000000000000600052601160045260246000fd5b7f4e487b7100000000000000000000000000000000000000000000000000000000600052602260045260246000fd5b6000601f19601f8301169050919050565b7f537472696e67733a20686578206c656e67746820696e73756666696369656e74600082015250565b7f41636365737369626c653a2043616c6c6572206973206e6f7420616e2061646d60008201527f696e000000000000000000000000000000000000000000000000000000000000602082015250565b7f41636365737369626c653a207a65726f20616464726573730000000000000000600082015250565b7f416464726573733a20696e73756666696369656e742062616c616e636520666f60008201527f722063616c6c0000000000000000000000000000000000000000000000000000602082015250565b7f41636365737369626c653a2073616d652061646d696e00000000000000000000600082015250565b7f416464726573733a2063616c6c20746f206e6f6e2d636f6e7472616374000000600082015250565b7f53696d706c655661756c743a20696e737566666963656e740000000000000000600082015250565b7f416363657373436f6e74726f6c3a206163636f756e7420000000000000000000600082015250565b7f5361666545524332303a204552433230206f7065726174696f6e20646964206e60008201527f6f74207375636365656400000000000000000000000000000000000000000000602082015250565b7f206973206d697373696e6720726f6c6520000000000000000000000000000000600082015250565b7f416363657373436f6e74726f6c3a2063616e206f6e6c792072656e6f756e636560008201527f20726f6c657320666f722073656c660000000000000000000000000000000000602082015250565b6121f981611e19565b811461220457600080fd5b50565b61221081611e2b565b811461221b57600080fd5b50565b61222781611e37565b811461223257600080fd5b50565b61223e81611e41565b811461224957600080fd5b50565b61225581611e8d565b811461226057600080fd5b5056fea2646970667358221220b556b8f86d95f030138066f9618bfda869a0166cdeeb85685b4557f09ba1739864736f6c63430008040033",
  "immutableReferences": {},
  "source": "//SPDX-License-Identifier: Unlicense\npragma solidity ^0.8.4;\n\nimport \"@openzeppelin/contracts/token/ERC20/IERC20.sol\";\nimport \"@openzeppelin/contracts/token/ERC20/utils/SafeERC20.sol\";\n//import \"@openzeppelin/contracts/access/Ownable.sol\";\nimport \"../common/AccessibleCommon.sol\";\n\n//import \"hardhat/console.sol\";\n\ncontract SimpleVault is AccessibleCommon {\n    using SafeERC20 for IERC20;\n\n    address public tos;\n    string public name;\n\n    constructor(address tosAddress, string memory _name) {\n        require(tosAddress != address(0), \"SimpleVault: zero address\");\n        tos = tosAddress;\n        name = _name;\n        _setRoleAdmin(ADMIN_ROLE, ADMIN_ROLE);\n        _setupRole(ADMIN_ROLE, msg.sender);\n    }\n\n    function claimTOS(address to, uint256 amount) external onlyOwner {\n        require(\n            IERC20(tos).balanceOf(address(this)) >= amount,\n            \"SimpleVault: insufficent\"\n        );\n        IERC20(tos).transfer(to, amount);\n    }\n\n    function claimERC20(\n        address _token,\n        address to,\n        uint256 amount\n    ) external onlyOwner {\n        require(\n            IERC20(_token).balanceOf(address(this)) >= amount,\n            \"SimpleVault: insufficent\"\n        );\n        IERC20(_token).safeTransfer(to, amount);\n    }\n\n    function balanceTOS() external view returns (uint256) {\n        return IERC20(tos).balanceOf(address(this));\n    }\n\n    function balanceERC20(address _token) external view returns (uint256) {\n        return IERC20(_token).balanceOf(address(this));\n    }\n}\n",
  "sourcePath": "/Users/zena/tonstarter/tonstarter-token-distribution/contracts/vaults/SimpleVault.sol",
  "compiler": {
    "name": "solc",
    "version": "0.8.4+commit.c7e474f2.Emscripten.clang"
  },
  "schemaVersion": "3.4.4",
  "updatedAt": "2023-11-27T04:24:13.027Z",
  "devdoc": {
    "kind": "dev",
    "methods": {
      "addAdmin(address)": {
        "details": "add admin",
        "params": {
          "account": "address to add"
        }
      },
      "getRoleAdmin(bytes32)": {
        "details": "Returns the admin role that controls `role`. See {grantRole} and {revokeRole}. To change a role's admin, use {_setRoleAdmin}."
      },
      "grantRole(bytes32,address)": {
        "details": "Grants `role` to `account`. If `account` had not been already granted `role`, emits a {RoleGranted} event. Requirements: - the caller must have ``role``'s admin role."
      },
      "hasRole(bytes32,address)": {
        "details": "Returns `true` if `account` has been granted `role`."
      },
      "isAdmin(address)": {
        "details": "whether admin",
        "params": {
          "account": "address to check"
        }
      },
      "removeAdmin(address)": {
        "details": "remove admin",
        "params": {
          "account": "address to remove"
        }
      },
      "renounceRole(bytes32,address)": {
        "details": "Revokes `role` from the calling account. Roles are often managed via {grantRole} and {revokeRole}: this function's purpose is to provide a mechanism for accounts to lose their privileges if they are compromised (such as when a trusted device is misplaced). If the calling account had been granted `role`, emits a {RoleRevoked} event. Requirements: - the caller must be `account`."
      },
      "revokeRole(bytes32,address)": {
        "details": "Revokes `role` from `account`. If `account` had been granted `role`, emits a {RoleRevoked} event. Requirements: - the caller must have ``role``'s admin role."
      },
      "supportsInterface(bytes4)": {
        "details": "See {IERC165-supportsInterface}."
      },
      "transferAdmin(address)": {
        "details": "transfer admin",
        "params": {
          "newAdmin": "new admin address"
        }
      }
    },
    "version": 1
  },
  "userdoc": {
    "kind": "user",
    "methods": {},
    "version": 1
  }
}