{
  "contractName": "TOS",
  "abi": [
    {
      "inputs": [
        {
          "internalType": "string",
          "name": "name_",
          "type": "string"
        },
        {
          "internalType": "string",
          "name": "symbol_",
          "type": "string"
        },
        {
          "internalType": "string",
          "name": "version_",
          "type": "string"
        }
      ],
      "stateMutability": "nonpayable",
      "type": "constructor"
    },
    {
      "anonymous": false,
      "inputs": [
        {
          "indexed": true,
          "internalType": "address",
          "name": "owner",
          "type": "address"
        },
        {
          "indexed": true,
          "internalType": "address",
          "name": "spender",
          "type": "address"
        },
        {
          "indexed": false,
          "internalType": "uint256",
          "name": "value",
          "type": "uint256"
        }
      ],
      "name": "Approval",
      "type": "event"
    },
    {
      "anonymous": false,
      "inputs": [
        {
          "indexed": true,
          "internalType": "bytes32",
          "name": "role",
          "type": "bytes32"
        },
        {
          "indexed": true,
          "internalType": "bytes32",
          "name": "previousAdminRole",
          "type": "bytes32"
        },
        {
          "indexed": true,
          "internalType": "bytes32",
          "name": "newAdminRole",
          "type": "bytes32"
        }
      ],
      "name": "RoleAdminChanged",
      "type": "event"
    },
    {
      "anonymous": false,
      "inputs": [
        {
          "indexed": true,
          "internalType": "bytes32",
          "name": "role",
          "type": "bytes32"
        },
        {
          "indexed": true,
          "internalType": "address",
          "name": "account",
          "type": "address"
        },
        {
          "indexed": true,
          "internalType": "address",
          "name": "sender",
          "type": "address"
        }
      ],
      "name": "RoleGranted",
      "type": "event"
    },
    {
      "anonymous": false,
      "inputs": [
        {
          "indexed": true,
          "internalType": "bytes32",
          "name": "role",
          "type": "bytes32"
        },
        {
          "indexed": true,
          "internalType": "address",
          "name": "account",
          "type": "address"
        },
        {
          "indexed": true,
          "internalType": "address",
          "name": "sender",
          "type": "address"
        }
      ],
      "name": "RoleRevoked",
      "type": "event"
    },
    {
      "anonymous": false,
      "inputs": [
        {
          "indexed": true,
          "internalType": "address",
          "name": "from",
          "type": "address"
        },
        {
          "indexed": true,
          "internalType": "address",
          "name": "to",
          "type": "address"
        },
        {
          "indexed": false,
          "internalType": "uint256",
          "name": "value",
          "type": "uint256"
        }
      ],
      "name": "Transfer",
      "type": "event"
    },
    {
      "inputs": [],
      "name": "ADMIN_ROLE",
      "outputs": [
        {
          "internalType": "bytes32",
          "name": "",
          "type": "bytes32"
        }
      ],
      "stateMutability": "view",
      "type": "function"
    },
    {
      "inputs": [],
      "name": "BURNER_ROLE",
      "outputs": [
        {
          "internalType": "bytes32",
          "name": "",
          "type": "bytes32"
        }
      ],
      "stateMutability": "view",
      "type": "function"
    },
    {
      "inputs": [],
      "name": "DEFAULT_ADMIN_ROLE",
      "outputs": [
        {
          "internalType": "bytes32",
          "name": "",
          "type": "bytes32"
        }
      ],
      "stateMutability": "view",
      "type": "function"
    },
    {
      "inputs": [],
      "name": "DOMAIN_SEPARATOR",
      "outputs": [
        {
          "internalType": "bytes32",
          "name": "",
          "type": "bytes32"
        }
      ],
      "stateMutability": "view",
      "type": "function"
    },
    {
      "inputs": [],
      "name": "MINTER_ROLE",
      "outputs": [
        {
          "internalType": "bytes32",
          "name": "",
          "type": "bytes32"
        }
      ],
      "stateMutability": "view",
      "type": "function"
    },
    {
      "inputs": [],
      "name": "PERMIT_TYPEHASH",
      "outputs": [
        {
          "internalType": "bytes32",
          "name": "",
          "type": "bytes32"
        }
      ],
      "stateMutability": "view",
      "type": "function"
    },
    {
      "inputs": [
        {
          "internalType": "address",
          "name": "account",
          "type": "address"
        }
      ],
      "name": "addAdmin",
      "outputs": [],
      "stateMutability": "nonpayable",
      "type": "function"
    },
    {
      "inputs": [
        {
          "internalType": "address",
          "name": "account",
          "type": "address"
        }
      ],
      "name": "addBurner",
      "outputs": [],
      "stateMutability": "nonpayable",
      "type": "function"
    },
    {
      "inputs": [
        {
          "internalType": "address",
          "name": "account",
          "type": "address"
        }
      ],
      "name": "addMinter",
      "outputs": [],
      "stateMutability": "nonpayable",
      "type": "function"
    },
    {
      "inputs": [
        {
          "internalType": "address",
          "name": "owner",
          "type": "address"
        },
        {
          "internalType": "address",
          "name": "spender",
          "type": "address"
        }
      ],
      "name": "allowance",
      "outputs": [
        {
          "internalType": "uint256",
          "name": "",
          "type": "uint256"
        }
      ],
      "stateMutability": "view",
      "type": "function"
    },
    {
      "inputs": [
        {
          "internalType": "address",
          "name": "spender",
          "type": "address"
        },
        {
          "internalType": "uint256",
          "name": "amount",
          "type": "uint256"
        }
      ],
      "name": "approve",
      "outputs": [
        {
          "internalType": "bool",
          "name": "",
          "type": "bool"
        }
      ],
      "stateMutability": "nonpayable",
      "type": "function"
    },
    {
      "inputs": [
        {
          "internalType": "address",
          "name": "account",
          "type": "address"
        }
      ],
      "name": "balanceOf",
      "outputs": [
        {
          "internalType": "uint256",
          "name": "",
          "type": "uint256"
        }
      ],
      "stateMutability": "view",
      "type": "function"
    },
    {
      "inputs": [],
      "name": "decimals",
      "outputs": [
        {
          "internalType": "uint8",
          "name": "",
          "type": "uint8"
        }
      ],
      "stateMutability": "view",
      "type": "function"
    },
    {
      "inputs": [
        {
          "internalType": "address",
          "name": "spender",
          "type": "address"
        },
        {
          "internalType": "uint256",
          "name": "subtractedValue",
          "type": "uint256"
        }
      ],
      "name": "decreaseAllowance",
      "outputs": [
        {
          "internalType": "bool",
          "name": "",
          "type": "bool"
        }
      ],
      "stateMutability": "nonpayable",
      "type": "function"
    },
    {
      "inputs": [
        {
          "internalType": "bytes32",
          "name": "role",
          "type": "bytes32"
        }
      ],
      "name": "getRoleAdmin",
      "outputs": [
        {
          "internalType": "bytes32",
          "name": "",
          "type": "bytes32"
        }
      ],
      "stateMutability": "view",
      "type": "function"
    },
    {
      "inputs": [
        {
          "internalType": "bytes32",
          "name": "role",
          "type": "bytes32"
        },
        {
          "internalType": "address",
          "name": "account",
          "type": "address"
        }
      ],
      "name": "grantRole",
      "outputs": [],
      "stateMutability": "nonpayable",
      "type": "function"
    },
    {
      "inputs": [
        {
          "internalType": "bytes32",
          "name": "role",
          "type": "bytes32"
        },
        {
          "internalType": "address",
          "name": "account",
          "type": "address"
        }
      ],
      "name": "hasRole",
      "outputs": [
        {
          "internalType": "bool",
          "name": "",
          "type": "bool"
        }
      ],
      "stateMutability": "view",
      "type": "function"
    },
    {
      "inputs": [
        {
          "internalType": "address",
          "name": "spender",
          "type": "address"
        },
        {
          "internalType": "uint256",
          "name": "addedValue",
          "type": "uint256"
        }
      ],
      "name": "increaseAllowance",
      "outputs": [
        {
          "internalType": "bool",
          "name": "",
          "type": "bool"
        }
      ],
      "stateMutability": "nonpayable",
      "type": "function"
    },
    {
      "inputs": [
        {
          "internalType": "address",
          "name": "account",
          "type": "address"
        }
      ],
      "name": "isAdmin",
      "outputs": [
        {
          "internalType": "bool",
          "name": "",
          "type": "bool"
        }
      ],
      "stateMutability": "view",
      "type": "function"
    },
    {
      "inputs": [
        {
          "internalType": "address",
          "name": "account",
          "type": "address"
        }
      ],
      "name": "isBurner",
      "outputs": [
        {
          "internalType": "bool",
          "name": "",
          "type": "bool"
        }
      ],
      "stateMutability": "view",
      "type": "function"
    },
    {
      "inputs": [
        {
          "internalType": "address",
          "name": "account",
          "type": "address"
        }
      ],
      "name": "isMinter",
      "outputs": [
        {
          "internalType": "bool",
          "name": "",
          "type": "bool"
        }
      ],
      "stateMutability": "view",
      "type": "function"
    },
    {
      "inputs": [],
      "name": "name",
      "outputs": [
        {
          "internalType": "string",
          "name": "",
          "type": "string"
        }
      ],
      "stateMutability": "view",
      "type": "function"
    },
    {
      "inputs": [
        {
          "internalType": "address",
          "name": "",
          "type": "address"
        }
      ],
      "name": "nonces",
      "outputs": [
        {
          "internalType": "uint256",
          "name": "",
          "type": "uint256"
        }
      ],
      "stateMutability": "view",
      "type": "function"
    },
    {
      "inputs": [
        {
          "internalType": "address",
          "name": "account",
          "type": "address"
        }
      ],
      "name": "removeAdmin",
      "outputs": [],
      "stateMutability": "nonpayable",
      "type": "function"
    },
    {
      "inputs": [
        {
          "internalType": "address",
          "name": "account",
          "type": "address"
        }
      ],
      "name": "removeBurner",
      "outputs": [],
      "stateMutability": "nonpayable",
      "type": "function"
    },
    {
      "inputs": [
        {
          "internalType": "address",
          "name": "account",
          "type": "address"
        }
      ],
      "name": "removeMinter",
      "outputs": [],
      "stateMutability": "nonpayable",
      "type": "function"
    },
    {
      "inputs": [
        {
          "internalType": "bytes32",
          "name": "role",
          "type": "bytes32"
        },
        {
          "internalType": "address",
          "name": "account",
          "type": "address"
        }
      ],
      "name": "renounceRole",
      "outputs": [],
      "stateMutability": "nonpayable",
      "type": "function"
    },
    {
      "inputs": [
        {
          "internalType": "bytes32",
          "name": "role",
          "type": "bytes32"
        },
        {
          "internalType": "address",
          "name": "account",
          "type": "address"
        }
      ],
      "name": "revokeRole",
      "outputs": [],
      "stateMutability": "nonpayable",
      "type": "function"
    },
    {
      "inputs": [
        {
          "internalType": "bytes4",
          "name": "interfaceId",
          "type": "bytes4"
        }
      ],
      "name": "supportsInterface",
      "outputs": [
        {
          "internalType": "bool",
          "name": "",
          "type": "bool"
        }
      ],
      "stateMutability": "view",
      "type": "function"
    },
    {
      "inputs": [],
      "name": "symbol",
      "outputs": [
        {
          "internalType": "string",
          "name": "",
          "type": "string"
        }
      ],
      "stateMutability": "view",
      "type": "function"
    },
    {
      "inputs": [],
      "name": "totalSupply",
      "outputs": [
        {
          "internalType": "uint256",
          "name": "",
          "type": "uint256"
        }
      ],
      "stateMutability": "view",
      "type": "function"
    },
    {
      "inputs": [
        {
          "internalType": "address",
          "name": "recipient",
          "type": "address"
        },
        {
          "internalType": "uint256",
          "name": "amount",
          "type": "uint256"
        }
      ],
      "name": "transfer",
      "outputs": [
        {
          "internalType": "bool",
          "name": "",
          "type": "bool"
        }
      ],
      "stateMutability": "nonpayable",
      "type": "function"
    },
    {
      "inputs": [
        {
          "internalType": "address",
          "name": "newAdmin",
          "type": "address"
        }
      ],
      "name": "transferAdmin",
      "outputs": [],
      "stateMutability": "nonpayable",
      "type": "function"
    },
    {
      "inputs": [
        {
          "internalType": "address",
          "name": "sender",
          "type": "address"
        },
        {
          "internalType": "address",
          "name": "recipient",
          "type": "address"
        },
        {
          "internalType": "uint256",
          "name": "amount",
          "type": "uint256"
        }
      ],
      "name": "transferFrom",
      "outputs": [
        {
          "internalType": "bool",
          "name": "",
          "type": "bool"
        }
      ],
      "stateMutability": "nonpayable",
      "type": "function"
    },
    {
      "inputs": [
        {
          "internalType": "address",
          "name": "to",
          "type": "address"
        },
        {
          "internalType": "uint256",
          "name": "amount",
          "type": "uint256"
        }
      ],
      "name": "mint",
      "outputs": [
        {
          "internalType": "bool",
          "name": "",
          "type": "bool"
        }
      ],
      "stateMutability": "nonpayable",
      "type": "function"
    },
    {
      "inputs": [
        {
          "internalType": "address",
          "name": "from",
          "type": "address"
        },
        {
          "internalType": "uint256",
          "name": "amount",
          "type": "uint256"
        }
      ],
      "name": "burn",
      "outputs": [
        {
          "internalType": "bool",
          "name": "",
          "type": "bool"
        }
      ],
      "stateMutability": "nonpayable",
      "type": "function"
    },
    {
      "inputs": [
        {
          "internalType": "address",
          "name": "owner",
          "type": "address"
        },
        {
          "internalType": "address",
          "name": "spender",
          "type": "address"
        },
        {
          "internalType": "uint256",
          "name": "value",
          "type": "uint256"
        },
        {
          "internalType": "uint256",
          "name": "deadline",
          "type": "uint256"
        },
        {
          "internalType": "uint8",
          "name": "v",
          "type": "uint8"
        },
        {
          "internalType": "bytes32",
          "name": "r",
          "type": "bytes32"
        },
        {
          "internalType": "bytes32",
          "name": "s",
          "type": "bytes32"
        }
      ],
      "name": "permit",
      "outputs": [],
      "stateMutability": "nonpayable",
      "type": "function"
    },
    {
      "inputs": [
        {
          "internalType": "address",
          "name": "owner",
          "type": "address"
        },
        {
          "internalType": "address",
          "name": "spender",
          "type": "address"
        },
        {
          "internalType": "uint256",
          "name": "value",
          "type": "uint256"
        },
        {
          "internalType": "uint256",
          "name": "deadline",
          "type": "uint256"
        },
        {
          "internalType": "uint256",
          "name": "_nounce",
          "type": "uint256"
        },
        {
          "internalType": "bytes32",
          "name": "sigR",
          "type": "bytes32"
        },
        {
          "internalType": "bytes32",
          "name": "sigS",
          "type": "bytes32"
        },
        {
          "internalType": "uint8",
          "name": "sigV",
          "type": "uint8"
        }
      ],
      "name": "verify",
      "outputs": [
        {
          "internalType": "bool",
          "name": "",
          "type": "bool"
        }
      ],
      "stateMutability": "view",
      "type": "function"
    },
    {
      "inputs": [
        {
          "internalType": "address",
          "name": "owner",
          "type": "address"
        },
        {
          "internalType": "address",
          "name": "spender",
          "type": "address"
        },
        {
          "internalType": "uint256",
          "name": "value",
          "type": "uint256"
        },
        {
          "internalType": "uint256",
          "name": "deadline",
          "type": "uint256"
        },
        {
          "internalType": "uint256",
          "name": "_nounce",
          "type": "uint256"
        }
      ],
      "name": "hashPermit",
      "outputs": [
        {
          "internalType": "bytes32",
          "name": "",
          "type": "bytes32"
        }
      ],
      "stateMutability": "view",
      "type": "function"
    }
  ],
  "bytecode": "0x60806040523480156200001157600080fd5b50604051620043af380380620043af833981810160405281019062000037919062000568565b828281600390805190602001906200005192919062000446565b5080600490805190602001906200006a92919062000446565b50505060004690507f8b73c3c69bb8fe3d512ecc4cf759cc79239f7b179b0ffacaa9a75d522b39400f848051906020012083805190602001208330604051602001620000bb9594939291906200064d565b60405160208183030381529060405280519060200120600681905550620001097fdf8b4c520ffe197c5343c6f5aec59570151ef9a492f2c624fd45ddde6135ec42806200024d60201b60201c565b6200015b7f9667e80708b6eeeb0053fa0cca44e028ff548e2a9f029edfeac87c118b08b7c87fdf8b4c520ffe197c5343c6f5aec59570151ef9a492f2c624fd45ddde6135ec426200024d60201b60201c565b620001ad7ff0887ba65ee2024ea881d91b74c2450ef19e1557f03bed3ea9f16b037cbe2dc97fdf8b4c520ffe197c5343c6f5aec59570151ef9a492f2c624fd45ddde6135ec426200024d60201b60201c565b620001df7fdf8b4c520ffe197c5343c6f5aec59570151ef9a492f2c624fd45ddde6135ec4233620002ab60201b60201c565b620002117f9667e80708b6eeeb0053fa0cca44e028ff548e2a9f029edfeac87c118b08b7c833620002ab60201b60201c565b620002437ff0887ba65ee2024ea881d91b74c2450ef19e1557f03bed3ea9f16b037cbe2dc933620002ab60201b60201c565b5050505062000876565b806200025f83620002c160201b60201c565b837fbd79b86ffe0ab8e8776151514217cd7cacd52c909f66475c3af44e129f0b00ff60405160405180910390a48060056000848152602001908152602001600020600101819055505050565b620002bd8282620002e160201b60201c565b5050565b600060056000838152602001908152602001600020600101549050919050565b620002f38282620003d360201b60201c565b620003cf5760016005600084815260200190815260200160002060000160008373ffffffffffffffffffffffffffffffffffffffff1673ffffffffffffffffffffffffffffffffffffffff16815260200190815260200160002060006101000a81548160ff021916908315150217905550620003746200043e60201b60201c565b73ffffffffffffffffffffffffffffffffffffffff168173ffffffffffffffffffffffffffffffffffffffff16837f2f8788117e7eff1d82e926ec794901d17c78024a50270940304540a733656f0d60405160405180910390a45b5050565b60006005600084815260200190815260200160002060000160008373ffffffffffffffffffffffffffffffffffffffff1673ffffffffffffffffffffffffffffffffffffffff16815260200190815260200160002060009054906101000a900460ff16905092915050565b600033905090565b82805462000454906200079b565b90600052602060002090601f016020900481019282620004785760008555620004c4565b82601f106200049357805160ff1916838001178555620004c4565b82800160010185558215620004c4579182015b82811115620004c3578251825591602001919060010190620004a6565b5b509050620004d39190620004d7565b5090565b5b80821115620004f2576000816000905550600101620004d8565b5090565b60006200050d6200050784620006d3565b620006aa565b9050828152602081018484840111156200052657600080fd5b6200053384828562000765565b509392505050565b600082601f8301126200054d57600080fd5b81516200055f848260208601620004f6565b91505092915050565b6000806000606084860312156200057e57600080fd5b600084015167ffffffffffffffff8111156200059957600080fd5b620005a7868287016200053b565b935050602084015167ffffffffffffffff811115620005c557600080fd5b620005d3868287016200053b565b925050604084015167ffffffffffffffff811115620005f157600080fd5b620005ff868287016200053b565b9150509250925092565b620006148162000709565b82525050565b62000625816200071d565b82525050565b620006368162000751565b82525050565b620006478162000747565b82525050565b600060a0820190506200066460008301886200062b565b6200067360208301876200061a565b6200068260408301866200061a565b6200069160608301856200063c565b620006a0608083018462000609565b9695505050505050565b6000620006b6620006c9565b9050620006c48282620007d1565b919050565b6000604051905090565b600067ffffffffffffffff821115620006f157620006f062000836565b5b620006fc8262000865565b9050602081019050919050565b6000620007168262000727565b9050919050565b6000819050919050565b600073ffffffffffffffffffffffffffffffffffffffff82169050919050565b6000819050919050565b60006200075e8262000747565b9050919050565b60005b838110156200078557808201518184015260208101905062000768565b8381111562000795576000848401525b50505050565b60006002820490506001821680620007b457607f821691505b60208210811415620007cb57620007ca62000807565b5b50919050565b620007dc8262000865565b810181811067ffffffffffffffff82111715620007fe57620007fd62000836565b5b80604052505050565b7f4e487b7100000000000000000000000000000000000000000000000000000000600052602260045260246000fd5b7f4e487b7100000000000000000000000000000000000000000000000000000000600052604160045260246000fd5b6000601f19601f8301169050919050565b613b2980620008866000396000f3fe608060405234801561001057600080fd5b506004361061023d5760003560e01c80635025d1dd1161013b578063a217fddf116100b8578063d53913931161007c578063d53913931461074c578063d547741f1461076a578063dcdd8a0414610786578063dd62ed3e146107b6578063f44637ba146107e65761023d565b8063a217fddf14610682578063a457c2d7146106a0578063a9059cbb146106d0578063aa271e1a14610700578063d505accf146107305761023d565b80637ecebe00116100ff5780637ecebe00146105b857806391d14854146105e857806395d89b4114610618578063983b2d56146106365780639dc29fac146106525761023d565b80635025d1dd14610502578063704802751461053257806370a082311461054e57806375829def1461057e57806375b238fc1461059a5761023d565b8063282c51f3116101c95780633644e5151161018d5780633644e5151461043857806336568abe14610456578063395093511461047257806340c10f19146104a25780634334614a146104d25761023d565b8063282c51f3146103a65780632f2ff15d146103c45780633092afd5146103e057806330adf81f146103fc578063313ce5671461041a5761023d565b80631785f53c116102105780631785f53c146102dc57806318160ddd146102f857806323b872dd14610316578063248a9ca31461034657806324d7806c146103765761023d565b806301ffc9a714610242578063028468581461027257806306fdde031461028e578063095ea7b3146102ac575b600080fd5b61025c60048036038101906102579190612951565b610802565b6040516102699190612dff565b60405180910390f35b61028c60048036038101906102879190612635565b61087c565b005b6102966108f1565b6040516102a39190612edb565b60405180910390f35b6102c660048036038101906102c191906128b0565b610983565b6040516102d39190612dff565b60405180910390f35b6102f660048036038101906102f19190612635565b6109a1565b005b610300610a16565b60405161030d919061319d565b60405180910390f35b610330600480360381019061032b919061269a565b610a20565b60405161033d9190612dff565b60405180910390f35b610360600480360381019061035b91906128ec565b610b21565b60405161036d9190612e1a565b60405180910390f35b610390600480360381019061038b9190612635565b610b41565b60405161039d9190612dff565b60405180910390f35b6103ae610b74565b6040516103bb9190612e1a565b60405180910390f35b6103de60048036038101906103d99190612915565b610b98565b005b6103fa60048036038101906103f59190612635565b610bc1565b005b610404610c36565b6040516104119190612e1a565b60405180910390f35b610422610c5d565b60405161042f91906131b8565b60405180910390f35b610440610c66565b60405161044d9190612e1a565b60405180910390f35b610470600480360381019061046b9190612915565b610c6c565b005b61048c600480360381019061048791906128b0565b610cef565b6040516104999190612dff565b60405180910390f35b6104bc60048036038101906104b791906128b0565b610d9b565b6040516104c99190612dff565b60405180910390f35b6104ec60048036038101906104e79190612635565b610df9565b6040516104f99190612dff565b60405180910390f35b61051c60048036038101906105179190612760565b610e2c565b6040516105299190612dff565b60405180910390f35b61054c60048036038101906105479190612635565b610ec5565b005b61056860048036038101906105639190612635565b610f3a565b604051610575919061319d565b60405180910390f35b61059860048036038101906105939190612635565b610f82565b005b6105a2611100565b6040516105af9190612e1a565b60405180910390f35b6105d260048036038101906105cd9190612635565b611124565b6040516105df919061319d565b60405180910390f35b61060260048036038101906105fd9190612915565b61113c565b60405161060f9190612dff565b60405180910390f35b6106206111a7565b60405161062d9190612edb565b60405180910390f35b610650600480360381019061064b9190612635565b611239565b005b61066c600480360381019061066791906128b0565b6112ae565b6040516106799190612dff565b60405180910390f35b61068a61130c565b6040516106979190612e1a565b60405180910390f35b6106ba60048036038101906106b591906128b0565b611313565b6040516106c79190612dff565b60405180910390f35b6106ea60048036038101906106e591906128b0565b611407565b6040516106f79190612dff565b60405180910390f35b61071a60048036038101906107159190612635565b611425565b6040516107279190612dff565b60405180910390f35b61074a60048036038101906107459190612812565b611458565b005b6107546116b5565b6040516107619190612e1a565b60405180910390f35b610784600480360381019061077f9190612915565b6116d9565b005b6107a0600480360381019061079b91906126e9565b611702565b6040516107ad9190612e1a565b60405180910390f35b6107d060048036038101906107cb919061265e565b61178d565b6040516107dd919061319d565b60405180910390f35b61080060048036038101906107fb9190612635565b611814565b005b60007f7965db0b000000000000000000000000000000000000000000000000000000007bffffffffffffffffffffffffffffffffffffffffffffffffffffffff1916827bffffffffffffffffffffffffffffffffffffffffffffffffffffffff19161480610875575061087482611889565b5b9050919050565b61088533610b41565b6108c4576040517f08c379a00000000000000000000000000000000000000000000000000000000081526004016108bb90612fbd565b60405180910390fd5b6108ee7f9667e80708b6eeeb0053fa0cca44e028ff548e2a9f029edfeac87c118b08b7c8826116d9565b50565b606060038054610900906133c6565b80601f016020809104026020016040519081016040528092919081815260200182805461092c906133c6565b80156109795780601f1061094e57610100808354040283529160200191610979565b820191906000526020600020905b81548152906001019060200180831161095c57829003601f168201915b5050505050905090565b60006109976109906118f3565b84846118fb565b6001905092915050565b6109aa33610b41565b6109e9576040517f08c379a00000000000000000000000000000000000000000000000000000000081526004016109e090612fbd565b60405180910390fd5b610a137fdf8b4c520ffe197c5343c6f5aec59570151ef9a492f2c624fd45ddde6135ec4282610c6c565b50565b6000600254905090565b6000610a2d848484611ac6565b6000600160008673ffffffffffffffffffffffffffffffffffffffff1673ffffffffffffffffffffffffffffffffffffffff1681526020019081526020016000206000610a786118f3565b73ffffffffffffffffffffffffffffffffffffffff1673ffffffffffffffffffffffffffffffffffffffff16815260200190815260200160002054905082811015610af8576040517f08c379a0000000000000000000000000000000000000000000000000000000008152600401610aef9061307d565b60405180910390fd5b610b1585610b046118f3565b8584610b1091906132aa565b6118fb565b60019150509392505050565b600060056000838152602001908152602001600020600101549050919050565b6000610b6d7fdf8b4c520ffe197c5343c6f5aec59570151ef9a492f2c624fd45ddde6135ec428361113c565b9050919050565b7f9667e80708b6eeeb0053fa0cca44e028ff548e2a9f029edfeac87c118b08b7c881565b610ba182610b21565b610bb281610bad6118f3565b611d45565b610bbc8383611de2565b505050565b610bca33610b41565b610c09576040517f08c379a0000000000000000000000000000000000000000000000000000000008152600401610c0090612fbd565b60405180910390fd5b610c337ff0887ba65ee2024ea881d91b74c2450ef19e1557f03bed3ea9f16b037cbe2dc9826116d9565b50565b7f6e71edae12b1b97f4d1f60370fef10105fa2faae0126114a169c64845d6126c960001b81565b60006012905090565b60065481565b610c746118f3565b73ffffffffffffffffffffffffffffffffffffffff168173ffffffffffffffffffffffffffffffffffffffff1614610ce1576040517f08c379a0000000000000000000000000000000000000000000000000000000008152600401610cd89061315d565b60405180910390fd5b610ceb8282611ec3565b5050565b6000610d91610cfc6118f3565b848460016000610d0a6118f3565b73ffffffffffffffffffffffffffffffffffffffff1673ffffffffffffffffffffffffffffffffffffffff16815260200190815260200160002060008873ffffffffffffffffffffffffffffffffffffffff1673ffffffffffffffffffffffffffffffffffffffff16815260200190815260200160002054610d8c91906131fa565b6118fb565b6001905092915050565b6000610da633611425565b610de5576040517f08c379a0000000000000000000000000000000000000000000000000000000008152600401610ddc9061311d565b60405180910390fd5b610def8383611fa5565b6001905092915050565b6000610e257f9667e80708b6eeeb0053fa0cca44e028ff548e2a9f029edfeac87c118b08b7c88361113c565b9050919050565b60006001610e3d8a8a8a8a8a611702565b83868660405160008152602001604052604051610e5d9493929190612e96565b6020604051602081039080840390855afa158015610e7f573d6000803e3d6000fd5b5050506020604051035173ffffffffffffffffffffffffffffffffffffffff168973ffffffffffffffffffffffffffffffffffffffff1614905098975050505050505050565b610ece33610b41565b610f0d576040517f08c379a0000000000000000000000000000000000000000000000000000000008152600401610f0490612fbd565b60405180910390fd5b610f377fdf8b4c520ffe197c5343c6f5aec59570151ef9a492f2c624fd45ddde6135ec4282610b98565b50565b60008060008373ffffffffffffffffffffffffffffffffffffffff1673ffffffffffffffffffffffffffffffffffffffff168152602001908152602001600020549050919050565b610f8b33610b41565b610fca576040517f08c379a0000000000000000000000000000000000000000000000000000000008152600401610fc190612fbd565b60405180910390fd5b600073ffffffffffffffffffffffffffffffffffffffff168173ffffffffffffffffffffffffffffffffffffffff16141561103a576040517f08c379a000000000000000000000000000000000000000000000000000000000815260040161103190612fdd565b60405180910390fd5b8073ffffffffffffffffffffffffffffffffffffffff163373ffffffffffffffffffffffffffffffffffffffff1614156110a9576040517f08c379a00000000000000000000000000000000000000000000000000000000081526004016110a09061305d565b60405180910390fd5b6110d37fdf8b4c520ffe197c5343c6f5aec59570151ef9a492f2c624fd45ddde6135ec4282610b98565b6110fd7fdf8b4c520ffe197c5343c6f5aec59570151ef9a492f2c624fd45ddde6135ec4233610c6c565b50565b7fdf8b4c520ffe197c5343c6f5aec59570151ef9a492f2c624fd45ddde6135ec4281565b60076020528060005260406000206000915090505481565b60006005600084815260200190815260200160002060000160008373ffffffffffffffffffffffffffffffffffffffff1673ffffffffffffffffffffffffffffffffffffffff16815260200190815260200160002060009054906101000a900460ff16905092915050565b6060600480546111b6906133c6565b80601f01602080910402602001604051908101604052809291908181526020018280546111e2906133c6565b801561122f5780601f106112045761010080835404028352916020019161122f565b820191906000526020600020905b81548152906001019060200180831161121257829003601f168201915b5050505050905090565b61124233610b41565b611281576040517f08c379a000000000000000000000000000000000000000000000000000000000815260040161127890612fbd565b60405180910390fd5b6112ab7ff0887ba65ee2024ea881d91b74c2450ef19e1557f03bed3ea9f16b037cbe2dc982610b98565b50565b60006112b933610df9565b6112f8576040517f08c379a00000000000000000000000000000000000000000000000000000000081526004016112ef9061301d565b60405180910390fd5b61130283836120f9565b6001905092915050565b6000801b81565b600080600160006113226118f3565b73ffffffffffffffffffffffffffffffffffffffff1673ffffffffffffffffffffffffffffffffffffffff16815260200190815260200160002060008573ffffffffffffffffffffffffffffffffffffffff1673ffffffffffffffffffffffffffffffffffffffff168152602001908152602001600020549050828110156113df576040517f08c379a00000000000000000000000000000000000000000000000000000000081526004016113d69061313d565b60405180910390fd5b6113fc6113ea6118f3565b8585846113f791906132aa565b6118fb565b600191505092915050565b600061141b6114146118f3565b8484611ac6565b6001905092915050565b60006114517ff0887ba65ee2024ea881d91b74c2450ef19e1557f03bed3ea9f16b037cbe2dc98361113c565b9050919050565b4284101561149b576040517f08c379a00000000000000000000000000000000000000000000000000000000081526004016114929061303d565b60405180910390fd5b60006114fd88888888600760008e73ffffffffffffffffffffffffffffffffffffffff1673ffffffffffffffffffffffffffffffffffffffff16815260200190815260200160002060008154809291906114f4906133f8565b91905055611702565b90508673ffffffffffffffffffffffffffffffffffffffff168873ffffffffffffffffffffffffffffffffffffffff16141561156e576040517f08c379a000000000000000000000000000000000000000000000000000000000815260040161156590612efd565b60405180910390fd5b6000600182868686604051600081526020016040526040516115939493929190612e96565b6020604051602081039080840390855afa1580156115b5573d6000803e3d6000fd5b505050602060405103519050600073ffffffffffffffffffffffffffffffffffffffff168173ffffffffffffffffffffffffffffffffffffffff161415611631576040517f08c379a0000000000000000000000000000000000000000000000000000000008152600401611628906130bd565b60405180910390fd5b8873ffffffffffffffffffffffffffffffffffffffff168173ffffffffffffffffffffffffffffffffffffffff161461169f576040517f08c379a000000000000000000000000000000000000000000000000000000000815260040161169690612f7d565b60405180910390fd5b6116aa8989896118fb565b505050505050505050565b7ff0887ba65ee2024ea881d91b74c2450ef19e1557f03bed3ea9f16b037cbe2dc981565b6116e282610b21565b6116f3816116ee6118f3565b611d45565b6116fd8383611ec3565b505050565b60006006547f6e71edae12b1b97f4d1f60370fef10105fa2faae0126114a169c64845d6126c960001b878787868860405160200161174596959493929190612e35565b6040516020818303038152906040528051906020012060405160200161176c929190612d8e565b60405160208183030381529060405280519060200120905095945050505050565b6000600160008473ffffffffffffffffffffffffffffffffffffffff1673ffffffffffffffffffffffffffffffffffffffff16815260200190815260200160002060008373ffffffffffffffffffffffffffffffffffffffff1673ffffffffffffffffffffffffffffffffffffffff16815260200190815260200160002054905092915050565b61181d33610b41565b61185c576040517f08c379a000000000000000000000000000000000000000000000000000000000815260040161185390612fbd565b60405180910390fd5b6118867f9667e80708b6eeeb0053fa0cca44e028ff548e2a9f029edfeac87c118b08b7c882610b98565b50565b60007f01ffc9a7000000000000000000000000000000000000000000000000000000007bffffffffffffffffffffffffffffffffffffffffffffffffffffffff1916827bffffffffffffffffffffffffffffffffffffffffffffffffffffffff1916149050919050565b600033905090565b600073ffffffffffffffffffffffffffffffffffffffff168373ffffffffffffffffffffffffffffffffffffffff16141561196b576040517f08c379a0000000000000000000000000000000000000000000000000000000008152600401611962906130fd565b60405180910390fd5b600073ffffffffffffffffffffffffffffffffffffffff168273ffffffffffffffffffffffffffffffffffffffff1614156119db576040517f08c379a00000000000000000000000000000000000000000000000000000000081526004016119d290612f9d565b60405180910390fd5b80600160008573ffffffffffffffffffffffffffffffffffffffff1673ffffffffffffffffffffffffffffffffffffffff16815260200190815260200160002060008473ffffffffffffffffffffffffffffffffffffffff1673ffffffffffffffffffffffffffffffffffffffff168152602001908152602001600020819055508173ffffffffffffffffffffffffffffffffffffffff168373ffffffffffffffffffffffffffffffffffffffff167f8c5be1e5ebec7d5bd14f71427d1e84f3dd0314c0f7b2291e5b200ac8c7c3b92583604051611ab9919061319d565b60405180910390a3505050565b600073ffffffffffffffffffffffffffffffffffffffff168373ffffffffffffffffffffffffffffffffffffffff161415611b36576040517f08c379a0000000000000000000000000000000000000000000000000000000008152600401611b2d906130dd565b60405180910390fd5b600073ffffffffffffffffffffffffffffffffffffffff168273ffffffffffffffffffffffffffffffffffffffff161415611ba6576040517f08c379a0000000000000000000000000000000000000000000000000000000008152600401611b9d90612f3d565b60405180910390fd5b611bb18383836122cd565b60008060008573ffffffffffffffffffffffffffffffffffffffff1673ffffffffffffffffffffffffffffffffffffffff16815260200190815260200160002054905081811015611c37576040517f08c379a0000000000000000000000000000000000000000000000000000000008152600401611c2e90612ffd565b60405180910390fd5b8181611c4391906132aa565b6000808673ffffffffffffffffffffffffffffffffffffffff1673ffffffffffffffffffffffffffffffffffffffff16815260200190815260200160002081905550816000808573ffffffffffffffffffffffffffffffffffffffff1673ffffffffffffffffffffffffffffffffffffffff1681526020019081526020016000206000828254611cd391906131fa565b925050819055508273ffffffffffffffffffffffffffffffffffffffff168473ffffffffffffffffffffffffffffffffffffffff167fddf252ad1be2c89b69c2b068fc378daa952ba7f163c4a11628f55a4df523b3ef84604051611d37919061319d565b60405180910390a350505050565b611d4f828261113c565b611dde57611d748173ffffffffffffffffffffffffffffffffffffffff1660146122d2565b611d828360001c60206122d2565b604051602001611d93929190612dc5565b6040516020818303038152906040526040517f08c379a0000000000000000000000000000000000000000000000000000000008152600401611dd59190612edb565b60405180910390fd5b5050565b611dec828261113c565b611ebf5760016005600084815260200190815260200160002060000160008373ffffffffffffffffffffffffffffffffffffffff1673ffffffffffffffffffffffffffffffffffffffff16815260200190815260200160002060006101000a81548160ff021916908315150217905550611e646118f3565b73ffffffffffffffffffffffffffffffffffffffff168173ffffffffffffffffffffffffffffffffffffffff16837f2f8788117e7eff1d82e926ec794901d17c78024a50270940304540a733656f0d60405160405180910390a45b5050565b611ecd828261113c565b15611fa15760006005600084815260200190815260200160002060000160008373ffffffffffffffffffffffffffffffffffffffff1673ffffffffffffffffffffffffffffffffffffffff16815260200190815260200160002060006101000a81548160ff021916908315150217905550611f466118f3565b73ffffffffffffffffffffffffffffffffffffffff168173ffffffffffffffffffffffffffffffffffffffff16837ff6391f5c32d9c69d2a47ea670b442974b53935d1edc7fd64eb21e047a839171b60405160405180910390a45b5050565b600073ffffffffffffffffffffffffffffffffffffffff168273ffffffffffffffffffffffffffffffffffffffff161415612015576040517f08c379a000000000000000000000000000000000000000000000000000000000815260040161200c9061317d565b60405180910390fd5b612021600083836122cd565b806002600082825461203391906131fa565b92505081905550806000808473ffffffffffffffffffffffffffffffffffffffff1673ffffffffffffffffffffffffffffffffffffffff168152602001908152602001600020600082825461208891906131fa565b925050819055508173ffffffffffffffffffffffffffffffffffffffff16600073ffffffffffffffffffffffffffffffffffffffff167fddf252ad1be2c89b69c2b068fc378daa952ba7f163c4a11628f55a4df523b3ef836040516120ed919061319d565b60405180910390a35050565b600073ffffffffffffffffffffffffffffffffffffffff168273ffffffffffffffffffffffffffffffffffffffff161415612169576040517f08c379a00000000000000000000000000000000000000000000000000000000081526004016121609061309d565b60405180910390fd5b612175826000836122cd565b60008060008473ffffffffffffffffffffffffffffffffffffffff1673ffffffffffffffffffffffffffffffffffffffff168152602001908152602001600020549050818110156121fb576040517f08c379a00000000000000000000000000000000000000000000000000000000081526004016121f290612f5d565b60405180910390fd5b818161220791906132aa565b6000808573ffffffffffffffffffffffffffffffffffffffff1673ffffffffffffffffffffffffffffffffffffffff16815260200190815260200160002081905550816002600082825461225b91906132aa565b92505081905550600073ffffffffffffffffffffffffffffffffffffffff168373ffffffffffffffffffffffffffffffffffffffff167fddf252ad1be2c89b69c2b068fc378daa952ba7f163c4a11628f55a4df523b3ef846040516122c0919061319d565b60405180910390a3505050565b505050565b6060600060028360026122e59190613250565b6122ef91906131fa565b67ffffffffffffffff81111561232e577f4e487b7100000000000000000000000000000000000000000000000000000000600052604160045260246000fd5b6040519080825280601f01601f1916602001820160405280156123605781602001600182028036833780820191505090505b5090507f3000000000000000000000000000000000000000000000000000000000000000816000815181106123be577f4e487b7100000000000000000000000000000000000000000000000000000000600052603260045260246000fd5b60200101907effffffffffffffffffffffffffffffffffffffffffffffffffffffffffffff1916908160001a9053507f780000000000000000000000000000000000000000000000000000000000000081600181518110612448577f4e487b7100000000000000000000000000000000000000000000000000000000600052603260045260246000fd5b60200101907effffffffffffffffffffffffffffffffffffffffffffffffffffffffffffff1916908160001a905350600060018460026124889190613250565b61249291906131fa565b90505b600181111561257e577f3031323334353637383961626364656600000000000000000000000000000000600f8616601081106124fa577f4e487b7100000000000000000000000000000000000000000000000000000000600052603260045260246000fd5b1a60f81b828281518110612537577f4e487b7100000000000000000000000000000000000000000000000000000000600052603260045260246000fd5b60200101907effffffffffffffffffffffffffffffffffffffffffffffffffffffffffffff1916908160001a905350600485901c9450806125779061339c565b9050612495565b50600084146125c2576040517f08c379a00000000000000000000000000000000000000000000000000000000081526004016125b990612f1d565b60405180910390fd5b8091505092915050565b6000813590506125db81613a80565b92915050565b6000813590506125f081613a97565b92915050565b60008135905061260581613aae565b92915050565b60008135905061261a81613ac5565b92915050565b60008135905061262f81613adc565b92915050565b60006020828403121561264757600080fd5b6000612655848285016125cc565b91505092915050565b6000806040838503121561267157600080fd5b600061267f858286016125cc565b9250506020612690858286016125cc565b9150509250929050565b6000806000606084860312156126af57600080fd5b60006126bd868287016125cc565b93505060206126ce868287016125cc565b92505060406126df8682870161260b565b9150509250925092565b600080600080600060a0868803121561270157600080fd5b600061270f888289016125cc565b9550506020612720888289016125cc565b94505060406127318882890161260b565b93505060606127428882890161260b565b92505060806127538882890161260b565b9150509295509295909350565b600080600080600080600080610100898b03121561277d57600080fd5b600061278b8b828c016125cc565b985050602061279c8b828c016125cc565b97505060406127ad8b828c0161260b565b96505060606127be8b828c0161260b565b95505060806127cf8b828c0161260b565b94505060a06127e08b828c016125e1565b93505060c06127f18b828c016125e1565b92505060e06128028b828c01612620565b9150509295985092959890939650565b600080600080600080600060e0888a03121561282d57600080fd5b600061283b8a828b016125cc565b975050602061284c8a828b016125cc565b965050604061285d8a828b0161260b565b955050606061286e8a828b0161260b565b945050608061287f8a828b01612620565b93505060a06128908a828b016125e1565b92505060c06128a18a828b016125e1565b91505092959891949750929550565b600080604083850312156128c357600080fd5b60006128d1858286016125cc565b92505060206128e28582860161260b565b9150509250929050565b6000602082840312156128fe57600080fd5b600061290c848285016125e1565b91505092915050565b6000806040838503121561292857600080fd5b6000612936858286016125e1565b9250506020612947858286016125cc565b9150509250929050565b60006020828403121561296357600080fd5b6000612971848285016125f6565b91505092915050565b612983816132de565b82525050565b612992816132f0565b82525050565b6129a1816132fc565b82525050565b6129b86129b3826132fc565b613441565b82525050565b60006129c9826131d3565b6129d381856131de565b93506129e3818560208601613369565b6129ec816134a9565b840191505092915050565b6000612a02826131d3565b612a0c81856131ef565b9350612a1c818560208601613369565b80840191505092915050565b6000612a35601e836131de565b9150612a40826134ba565b602082019050919050565b6000612a586020836131de565b9150612a63826134e3565b602082019050919050565b6000612a7b6023836131de565b9150612a868261350c565b604082019050919050565b6000612a9e6022836131de565b9150612aa98261355b565b604082019050919050565b6000612ac16011836131de565b9150612acc826135aa565b602082019050919050565b6000612ae46022836131de565b9150612aef826135d3565b604082019050919050565b6000612b076022836131de565b9150612b1282613622565b604082019050919050565b6000612b2a6002836131ef565b9150612b3582613671565b600282019050919050565b6000612b4d6018836131de565b9150612b588261369a565b602082019050919050565b6000612b706026836131de565b9150612b7b826136c3565b604082019050919050565b6000612b93602c836131de565b9150612b9e82613712565b604082019050919050565b6000612bb66013836131de565b9150612bc182613761565b602082019050919050565b6000612bd96016836131de565b9150612be48261378a565b602082019050919050565b6000612bfc6028836131de565b9150612c07826137b3565b604082019050919050565b6000612c1f6021836131de565b9150612c2a82613802565b604082019050919050565b6000612c426016836131de565b9150612c4d82613851565b602082019050919050565b6000612c656025836131de565b9150612c708261387a565b604082019050919050565b6000612c886024836131de565b9150612c93826138c9565b604082019050919050565b6000612cab6017836131ef565b9150612cb682613918565b601782019050919050565b6000612cce602c836131de565b9150612cd982613941565b604082019050919050565b6000612cf16025836131de565b9150612cfc82613990565b604082019050919050565b6000612d146011836131ef565b9150612d1f826139df565b601182019050919050565b6000612d37602f836131de565b9150612d4282613a08565b604082019050919050565b6000612d5a601f836131de565b9150612d6582613a57565b602082019050919050565b612d7981613352565b82525050565b612d888161335c565b82525050565b6000612d9982612b1d565b9150612da582856129a7565b602082019150612db582846129a7565b6020820191508190509392505050565b6000612dd082612c9e565b9150612ddc82856129f7565b9150612de782612d07565b9150612df382846129f7565b91508190509392505050565b6000602082019050612e146000830184612989565b92915050565b6000602082019050612e2f6000830184612998565b92915050565b600060c082019050612e4a6000830189612998565b612e57602083018861297a565b612e64604083018761297a565b612e716060830186612d70565b612e7e6080830185612d70565b612e8b60a0830184612d70565b979650505050505050565b6000608082019050612eab6000830187612998565b612eb86020830186612d7f565b612ec56040830185612998565b612ed26060830184612998565b95945050505050565b60006020820190508181036000830152612ef581846129be565b905092915050565b60006020820190508181036000830152612f1681612a28565b9050919050565b60006020820190508181036000830152612f3681612a4b565b9050919050565b60006020820190508181036000830152612f5681612a6e565b9050919050565b60006020820190508181036000830152612f7681612a91565b9050919050565b60006020820190508181036000830152612f9681612ab4565b9050919050565b60006020820190508181036000830152612fb681612ad7565b9050919050565b60006020820190508181036000830152612fd681612afa565b9050919050565b60006020820190508181036000830152612ff681612b40565b9050919050565b6000602082019050818103600083015261301681612b63565b9050919050565b6000602082019050818103600083015261303681612b86565b9050919050565b6000602082019050818103600083015261305681612ba9565b9050919050565b6000602082019050818103600083015261307681612bcc565b9050919050565b6000602082019050818103600083015261309681612bef565b9050919050565b600060208201905081810360008301526130b681612c12565b9050919050565b600060208201905081810360008301526130d681612c35565b9050919050565b600060208201905081810360008301526130f681612c58565b9050919050565b6000602082019050818103600083015261311681612c7b565b9050919050565b6000602082019050818103600083015261313681612cc1565b9050919050565b6000602082019050818103600083015261315681612ce4565b9050919050565b6000602082019050818103600083015261317681612d2a565b9050919050565b6000602082019050818103600083015261319681612d4d565b9050919050565b60006020820190506131b26000830184612d70565b92915050565b60006020820190506131cd6000830184612d7f565b92915050565b600081519050919050565b600082825260208201905092915050565b600081905092915050565b600061320582613352565b915061321083613352565b9250827fffffffffffffffffffffffffffffffffffffffffffffffffffffffffffffffff038211156132455761324461344b565b5b828201905092915050565b600061325b82613352565b915061326683613352565b9250817fffffffffffffffffffffffffffffffffffffffffffffffffffffffffffffffff048311821515161561329f5761329e61344b565b5b828202905092915050565b60006132b582613352565b91506132c083613352565b9250828210156132d3576132d261344b565b5b828203905092915050565b60006132e982613332565b9050919050565b60008115159050919050565b6000819050919050565b60007fffffffff0000000000000000000000000000000000000000000000000000000082169050919050565b600073ffffffffffffffffffffffffffffffffffffffff82169050919050565b6000819050919050565b600060ff82169050919050565b60005b8381101561338757808201518184015260208101905061336c565b83811115613396576000848401525b50505050565b60006133a782613352565b915060008214156133bb576133ba61344b565b5b600182039050919050565b600060028204905060018216806133de57607f821691505b602082108114156133f2576133f161347a565b5b50919050565b600061340382613352565b91507fffffffffffffffffffffffffffffffffffffffffffffffffffffffffffffffff8214156134365761343561344b565b5b600182019050919050565b6000819050919050565b7f4e487b7100000000000000000000000000000000000000000000000000000000600052601160045260246000fd5b7f4e487b7100000000000000000000000000000000000000000000000000000000600052602260045260246000fd5b6000601f19601f8301169050919050565b7f544f533a20617070726f76616c20746f2063757272656e74206f776e65720000600082015250565b7f537472696e67733a20686578206c656e67746820696e73756666696369656e74600082015250565b7f45524332303a207472616e7366657220746f20746865207a65726f206164647260008201527f6573730000000000000000000000000000000000000000000000000000000000602082015250565b7f45524332303a206275726e20616d6f756e7420657863656564732062616c616e60008201527f6365000000000000000000000000000000000000000000000000000000000000602082015250565b7f544f533a20556e617574686f72697a6564000000000000000000000000000000600082015250565b7f45524332303a20617070726f766520746f20746865207a65726f20616464726560008201527f7373000000000000000000000000000000000000000000000000000000000000602082015250565b7f41636365737369626c653a2043616c6c6572206973206e6f7420616e2061646d60008201527f696e000000000000000000000000000000000000000000000000000000000000602082015250565b7f1901000000000000000000000000000000000000000000000000000000000000600082015250565b7f41636365737369626c653a207a65726f20616464726573730000000000000000600082015250565b7f45524332303a207472616e7366657220616d6f756e742065786365656473206260008201527f616c616e63650000000000000000000000000000000000000000000000000000602082015250565b7f41636365737369626c65506c7573436f6d6d6f6e3a2043616c6c65722069732060008201527f6e6f742061206275726e65720000000000000000000000000000000000000000602082015250565b7f544f533a207065726d6974204558504952454400000000000000000000000000600082015250565b7f41636365737369626c653a2073616d652061646d696e00000000000000000000600082015250565b7f45524332303a207472616e7366657220616d6f756e742065786365656473206160008201527f6c6c6f77616e6365000000000000000000000000000000000000000000000000602082015250565b7f45524332303a206275726e2066726f6d20746865207a65726f2061646472657360008201527f7300000000000000000000000000000000000000000000000000000000000000602082015250565b7f544f533a20496e76616c6964207369676e617475726500000000000000000000600082015250565b7f45524332303a207472616e736665722066726f6d20746865207a65726f20616460008201527f6472657373000000000000000000000000000000000000000000000000000000602082015250565b7f45524332303a20617070726f76652066726f6d20746865207a65726f2061646460008201527f7265737300000000000000000000000000000000000000000000000000000000602082015250565b7f416363657373436f6e74726f6c3a206163636f756e7420000000000000000000600082015250565b7f41636365737369626c65506c7573436f6d6d6f6e3a2043616c6c65722069732060008201527f6e6f742061206d696e7465720000000000000000000000000000000000000000602082015250565b7f45524332303a2064656372656173656420616c6c6f77616e63652062656c6f7760008201527f207a65726f000000000000000000000000000000000000000000000000000000602082015250565b7f206973206d697373696e6720726f6c6520000000000000000000000000000000600082015250565b7f416363657373436f6e74726f6c3a2063616e206f6e6c792072656e6f756e636560008201527f20726f6c657320666f722073656c660000000000000000000000000000000000602082015250565b7f45524332303a206d696e7420746f20746865207a65726f206164647265737300600082015250565b613a89816132de565b8114613a9457600080fd5b50565b613aa0816132fc565b8114613aab57600080fd5b50565b613ab781613306565b8114613ac257600080fd5b50565b613ace81613352565b8114613ad957600080fd5b50565b613ae58161335c565b8114613af057600080fd5b5056fea26469706673582212201db4842d60cc832348fde7ab7a0e38c6adb4a31d13fddc0593a8b27a3051f3b164736f6c63430008040033",
  "immutableReferences": {},
  "source": "// SPDX-License-Identifier: MIT\npragma solidity ^0.8.4;\n\nimport \"../interfaces/ITOS.sol\";\nimport {ERC20} from \"@openzeppelin/contracts/token/ERC20/ERC20.sol\";\nimport \"../common/AccessiblePlusCommon.sol\";\n\n/// @title the platform token. TOS token\ncontract TOS is ERC20, AccessiblePlusCommon, ITOS {\n    bytes32 public override DOMAIN_SEPARATOR;\n    mapping(address => uint256) public override nonces;\n\n    /// @dev Value is equal to keccak256(\"Permit(address owner,address spender,uint256 value,uint256 nonce,uint256 deadline)\");\n    bytes32 public constant PERMIT_TYPEHASH =\n        0x6e71edae12b1b97f4d1f60370fef10105fa2faae0126114a169c64845d6126c9;\n\n    /// @dev constructor of TOS, ERC20 Token\n    constructor(\n        string memory name_,\n        string memory symbol_,\n        string memory version_\n    ) ERC20(name_, symbol_) {\n        uint256 chainId;\n        assembly {\n            chainId := chainid()\n        }\n\n        DOMAIN_SEPARATOR = keccak256(\n            abi.encode(\n                // keccak256('EIP712Domain(string name,string version,uint256 chainId,address verifyingContract)')\n                0x8b73c3c69bb8fe3d512ecc4cf759cc79239f7b179b0ffacaa9a75d522b39400f,\n                keccak256(bytes(name_)),\n                keccak256(bytes(version_)),\n                chainId,\n                address(this)\n            )\n        );\n\n        _setRoleAdmin(ADMIN_ROLE, ADMIN_ROLE);\n        _setRoleAdmin(BURNER_ROLE, ADMIN_ROLE);\n        _setRoleAdmin(MINTER_ROLE, ADMIN_ROLE);\n\n        _setupRole(ADMIN_ROLE, msg.sender);\n        _setupRole(BURNER_ROLE, msg.sender);\n        _setupRole(MINTER_ROLE, msg.sender);\n    }\n\n    /// @dev Issue a token.\n    /// @param to  who takes the issue\n    /// @param amount the amount to issue\n    function mint(address to, uint256 amount)\n        external\n        override\n        onlyMinter\n        returns (bool)\n    {\n        _mint(to, amount);\n        return true;\n    }\n\n    /// @dev burn a token.\n    /// @param from Whose tokens are burned\n    /// @param amount the amount to burn\n    function burn(address from, uint256 amount)\n        external\n        override\n        onlyBurner\n        returns (bool)\n    {\n        _burn(from, amount);\n        return true;\n    }\n\n    /// @dev Authorizes the owner's token to be used by the spender as much as the value.\n    /// @dev The signature must have the owner's signature.\n    /// @param owner the token's owner\n    /// @param spender the account that spend owner's token\n    /// @param value the amount to be approve to spend\n    /// @param deadline the deadline that valid the owner's signature\n    /// @param v the owner's signature - v\n    /// @param r the owner's signature - r\n    /// @param s the owner's signature - s\n    function permit(\n        address owner,\n        address spender,\n        uint256 value,\n        uint256 deadline,\n        uint8 v,\n        bytes32 r,\n        bytes32 s\n    ) external override {\n        require(deadline >= block.timestamp, \"TOS: permit EXPIRED\");\n\n        bytes32 digest = hashPermit(owner, spender, value, deadline, nonces[owner]++);\n\n        require(owner != spender, \"TOS: approval to current owner\");\n\n        // if (Address.isContract(owner)) {\n        //     require(IERC1271(owner).isValidSignature(digest, abi.encodePacked(r, s, v)) == 0x1626ba7e, 'Unauthorized');\n        // } else {\n        address recoveredAddress = ecrecover(digest, v, r, s);\n        require(recoveredAddress != address(0), \"TOS: Invalid signature\");\n        require(recoveredAddress == owner, \"TOS: Unauthorized\");\n        // }\n        _approve(owner, spender, value);\n    }\n\n    /// @dev verify the signature\n    /// @param owner the token's owner\n    /// @param spender the account that spend owner's token\n    /// @param value the amount to be approve to spend\n    /// @param deadline the deadline that valid the owner's signature\n    /// @param _nounce the _nounce\n    /// @param sigR the owner's signature - r\n    /// @param sigS the owner's signature - s\n    /// @param sigV the owner's signature - v\n    function verify(\n        address owner,\n        address spender,\n        uint256 value,\n        uint256 deadline,\n        uint256 _nounce,\n        bytes32 sigR,\n        bytes32 sigS,\n        uint8 sigV\n    ) external view override returns (bool) {\n        return\n            owner ==\n            ecrecover(\n                hashPermit(owner, spender, value, deadline, _nounce),\n                sigV,\n                sigR,\n                sigS\n            );\n    }\n\n    /// @dev the hash of Permit\n    /// @param owner the token's owner\n    /// @param spender the account that spend owner's token\n    /// @param value the amount to be approve to spend\n    /// @param deadline the deadline that valid the owner's signature\n    /// @param _nounce the _nounce\n    function hashPermit(\n        address owner,\n        address spender,\n        uint256 value,\n        uint256 deadline,\n        uint256 _nounce\n    ) public view override returns (bytes32) {\n        return\n            keccak256(\n                abi.encodePacked(\n                    \"\\x19\\x01\",\n                    DOMAIN_SEPARATOR,\n                    keccak256(\n                        abi.encode(\n                            PERMIT_TYPEHASH,\n                            owner,\n                            spender,\n                            value,\n                            _nounce,\n                            deadline\n                        )\n                    )\n                )\n            );\n    }\n}\n",
  "sourcePath": "/Users/zena/tonstarter/tonstarter-token-distribution/contracts/tokens/TOS.sol",
  "compiler": {
    "name": "solc",
    "version": "0.8.4+commit.c7e474f2.Emscripten.clang"
  },
  "schemaVersion": "3.4.4",
  "updatedAt": "2023-11-27T04:24:12.965Z",
  "devdoc": {
    "kind": "dev",
    "methods": {
      "addAdmin(address)": {
        "details": "add admin",
        "params": {
          "account": "address to add"
        }
      },
      "allowance(address,address)": {
        "details": "See {IERC20-allowance}."
      },
      "approve(address,uint256)": {
        "details": "See {IERC20-approve}. Requirements: - `spender` cannot be the zero address."
      },
      "balanceOf(address)": {
        "details": "See {IERC20-balanceOf}."
      },
      "burn(address,uint256)": {
        "details": "burn a token.",
        "params": {
          "amount": "the amount to burn",
          "from": "Whose tokens are burned"
        }
      },
      "constructor": {
        "details": "constructor of TOS, ERC20 Token"
      },
      "decimals()": {
        "details": "Returns the number of decimals used to get its user representation. For example, if `decimals` equals `2`, a balance of `505` tokens should be displayed to a user as `5,05` (`505 / 10 ** 2`). Tokens usually opt for a value of 18, imitating the relationship between Ether and Wei. This is the value {ERC20} uses, unless this function is overridden; NOTE: This information is only used for _display_ purposes: it in no way affects any of the arithmetic of the contract, including {IERC20-balanceOf} and {IERC20-transfer}."
      },
      "decreaseAllowance(address,uint256)": {
        "details": "Atomically decreases the allowance granted to `spender` by the caller. This is an alternative to {approve} that can be used as a mitigation for problems described in {IERC20-approve}. Emits an {Approval} event indicating the updated allowance. Requirements: - `spender` cannot be the zero address. - `spender` must have allowance for the caller of at least `subtractedValue`."
      },
      "getRoleAdmin(bytes32)": {
        "details": "Returns the admin role that controls `role`. See {grantRole} and {revokeRole}. To change a role's admin, use {_setRoleAdmin}."
      },
      "grantRole(bytes32,address)": {
        "details": "Grants `role` to `account`. If `account` had not been already granted `role`, emits a {RoleGranted} event. Requirements: - the caller must have ``role``'s admin role."
      },
      "hasRole(bytes32,address)": {
        "details": "Returns `true` if `account` has been granted `role`."
      },
      "hashPermit(address,address,uint256,uint256,uint256)": {
        "details": "the hash of Permit",
        "params": {
          "_nounce": "the _nounce",
          "deadline": "the deadline that valid the owner's signature",
          "owner": "the token's owner",
          "spender": "the account that spend owner's token",
          "value": "the amount to be approve to spend"
        }
      },
      "increaseAllowance(address,uint256)": {
        "details": "Atomically increases the allowance granted to `spender` by the caller. This is an alternative to {approve} that can be used as a mitigation for problems described in {IERC20-approve}. Emits an {Approval} event indicating the updated allowance. Requirements: - `spender` cannot be the zero address."
      },
      "isAdmin(address)": {
        "details": "whether admin",
        "params": {
          "account": "address to check"
        }
      },
      "mint(address,uint256)": {
        "details": "Issue a token.",
        "params": {
          "amount": "the amount to issue",
          "to": "who takes the issue"
        }
      },
      "name()": {
        "details": "Returns the name of the token."
      },
      "permit(address,address,uint256,uint256,uint8,bytes32,bytes32)": {
        "details": "Authorizes the owner's token to be used by the spender as much as the value.The signature must have the owner's signature.",
        "params": {
          "deadline": "the deadline that valid the owner's signature",
          "owner": "the token's owner",
          "r": "the owner's signature - r",
          "s": "the owner's signature - s",
          "spender": "the account that spend owner's token",
          "v": "the owner's signature - v",
          "value": "the amount to be approve to spend"
        }
      },
      "removeAdmin(address)": {
        "details": "remove admin",
        "params": {
          "account": "address to remove"
        }
      },
      "renounceRole(bytes32,address)": {
        "details": "Revokes `role` from the calling account. Roles are often managed via {grantRole} and {revokeRole}: this function's purpose is to provide a mechanism for accounts to lose their privileges if they are compromised (such as when a trusted device is misplaced). If the calling account had been granted `role`, emits a {RoleRevoked} event. Requirements: - the caller must be `account`."
      },
      "revokeRole(bytes32,address)": {
        "details": "Revokes `role` from `account`. If `account` had been granted `role`, emits a {RoleRevoked} event. Requirements: - the caller must have ``role``'s admin role."
      },
      "supportsInterface(bytes4)": {
        "details": "See {IERC165-supportsInterface}."
      },
      "symbol()": {
        "details": "Returns the symbol of the token, usually a shorter version of the name."
      },
      "totalSupply()": {
        "details": "See {IERC20-totalSupply}."
      },
      "transfer(address,uint256)": {
        "details": "See {IERC20-transfer}. Requirements: - `recipient` cannot be the zero address. - the caller must have a balance of at least `amount`."
      },
      "transferAdmin(address)": {
        "details": "transfer admin",
        "params": {
          "newAdmin": "new admin address"
        }
      },
      "transferFrom(address,address,uint256)": {
        "details": "See {IERC20-transferFrom}. Emits an {Approval} event indicating the updated allowance. This is not required by the EIP. See the note at the beginning of {ERC20}. Requirements: - `sender` and `recipient` cannot be the zero address. - `sender` must have a balance of at least `amount`. - the caller must have allowance for ``sender``'s tokens of at least `amount`."
      },
      "verify(address,address,uint256,uint256,uint256,bytes32,bytes32,uint8)": {
        "details": "verify the signature",
        "params": {
          "_nounce": "the _nounce",
          "deadline": "the deadline that valid the owner's signature",
          "owner": "the token's owner",
          "sigR": "the owner's signature - r",
          "sigS": "the owner's signature - s",
          "sigV": "the owner's signature - v",
          "spender": "the account that spend owner's token",
          "value": "the amount to be approve to spend"
        }
      }
    },
    "stateVariables": {
      "PERMIT_TYPEHASH": {
        "details": "Value is equal to keccak256(\"Permit(address owner,address spender,uint256 value,uint256 nonce,uint256 deadline)\");"
      }
    },
    "title": "the platform token. TOS token",
    "version": 1
  },
  "userdoc": {
    "kind": "user",
    "methods": {},
    "version": 1
  }
}