{
  "contractName": "TOS",
  "abi": [
    {
      "inputs": [
        {
          "internalType": "string",
          "name": "name_",
          "type": "string"
        },
        {
          "internalType": "string",
          "name": "symbol_",
          "type": "string"
        },
        {
          "internalType": "string",
          "name": "version_",
          "type": "string"
        }
      ],
      "stateMutability": "nonpayable",
      "type": "constructor"
    },
    {
      "anonymous": false,
      "inputs": [
        {
          "indexed": true,
          "internalType": "address",
          "name": "owner",
          "type": "address"
        },
        {
          "indexed": true,
          "internalType": "address",
          "name": "spender",
          "type": "address"
        },
        {
          "indexed": false,
          "internalType": "uint256",
          "name": "value",
          "type": "uint256"
        }
      ],
      "name": "Approval",
      "type": "event"
    },
    {
      "anonymous": false,
      "inputs": [
        {
          "indexed": true,
          "internalType": "bytes32",
          "name": "role",
          "type": "bytes32"
        },
        {
          "indexed": true,
          "internalType": "bytes32",
          "name": "previousAdminRole",
          "type": "bytes32"
        },
        {
          "indexed": true,
          "internalType": "bytes32",
          "name": "newAdminRole",
          "type": "bytes32"
        }
      ],
      "name": "RoleAdminChanged",
      "type": "event"
    },
    {
      "anonymous": false,
      "inputs": [
        {
          "indexed": true,
          "internalType": "bytes32",
          "name": "role",
          "type": "bytes32"
        },
        {
          "indexed": true,
          "internalType": "address",
          "name": "account",
          "type": "address"
        },
        {
          "indexed": true,
          "internalType": "address",
          "name": "sender",
          "type": "address"
        }
      ],
      "name": "RoleGranted",
      "type": "event"
    },
    {
      "anonymous": false,
      "inputs": [
        {
          "indexed": true,
          "internalType": "bytes32",
          "name": "role",
          "type": "bytes32"
        },
        {
          "indexed": true,
          "internalType": "address",
          "name": "account",
          "type": "address"
        },
        {
          "indexed": true,
          "internalType": "address",
          "name": "sender",
          "type": "address"
        }
      ],
      "name": "RoleRevoked",
      "type": "event"
    },
    {
      "anonymous": false,
      "inputs": [
        {
          "indexed": true,
          "internalType": "address",
          "name": "from",
          "type": "address"
        },
        {
          "indexed": true,
          "internalType": "address",
          "name": "to",
          "type": "address"
        },
        {
          "indexed": false,
          "internalType": "uint256",
          "name": "value",
          "type": "uint256"
        }
      ],
      "name": "Transfer",
      "type": "event"
    },
    {
      "inputs": [],
      "name": "ADMIN_ROLE",
      "outputs": [
        {
          "internalType": "bytes32",
          "name": "",
          "type": "bytes32"
        }
      ],
      "stateMutability": "view",
      "type": "function"
    },
    {
      "inputs": [],
      "name": "BURNER_ROLE",
      "outputs": [
        {
          "internalType": "bytes32",
          "name": "",
          "type": "bytes32"
        }
      ],
      "stateMutability": "view",
      "type": "function"
    },
    {
      "inputs": [],
      "name": "DEFAULT_ADMIN_ROLE",
      "outputs": [
        {
          "internalType": "bytes32",
          "name": "",
          "type": "bytes32"
        }
      ],
      "stateMutability": "view",
      "type": "function"
    },
    {
      "inputs": [],
      "name": "MINTER_ROLE",
      "outputs": [
        {
          "internalType": "bytes32",
          "name": "",
          "type": "bytes32"
        }
      ],
      "stateMutability": "view",
      "type": "function"
    },
    {
      "inputs": [],
      "name": "PERMIT_TYPEHASH",
      "outputs": [
        {
          "internalType": "bytes32",
          "name": "",
          "type": "bytes32"
        }
      ],
      "stateMutability": "view",
      "type": "function"
    },
    {
      "inputs": [
        {
          "internalType": "address",
          "name": "owner",
          "type": "address"
        },
        {
          "internalType": "address",
          "name": "spender",
          "type": "address"
        }
      ],
      "name": "allowance",
      "outputs": [
        {
          "internalType": "uint256",
          "name": "",
          "type": "uint256"
        }
      ],
      "stateMutability": "view",
      "type": "function"
    },
    {
      "inputs": [
        {
          "internalType": "address",
          "name": "spender",
          "type": "address"
        },
        {
          "internalType": "uint256",
          "name": "amount",
          "type": "uint256"
        }
      ],
      "name": "approve",
      "outputs": [
        {
          "internalType": "bool",
          "name": "",
          "type": "bool"
        }
      ],
      "stateMutability": "nonpayable",
      "type": "function"
    },
    {
      "inputs": [
        {
          "internalType": "address",
          "name": "account",
          "type": "address"
        }
      ],
      "name": "balanceOf",
      "outputs": [
        {
          "internalType": "uint256",
          "name": "",
          "type": "uint256"
        }
      ],
      "stateMutability": "view",
      "type": "function"
    },
    {
      "inputs": [],
      "name": "decimals",
      "outputs": [
        {
          "internalType": "uint8",
          "name": "",
          "type": "uint8"
        }
      ],
      "stateMutability": "view",
      "type": "function"
    },
    {
      "inputs": [
        {
          "internalType": "address",
          "name": "spender",
          "type": "address"
        },
        {
          "internalType": "uint256",
          "name": "subtractedValue",
          "type": "uint256"
        }
      ],
      "name": "decreaseAllowance",
      "outputs": [
        {
          "internalType": "bool",
          "name": "",
          "type": "bool"
        }
      ],
      "stateMutability": "nonpayable",
      "type": "function"
    },
    {
      "inputs": [
        {
          "internalType": "bytes32",
          "name": "role",
          "type": "bytes32"
        }
      ],
      "name": "getRoleAdmin",
      "outputs": [
        {
          "internalType": "bytes32",
          "name": "",
          "type": "bytes32"
        }
      ],
      "stateMutability": "view",
      "type": "function"
    },
    {
      "inputs": [
        {
          "internalType": "bytes32",
          "name": "role",
          "type": "bytes32"
        },
        {
          "internalType": "address",
          "name": "account",
          "type": "address"
        }
      ],
      "name": "grantRole",
      "outputs": [],
      "stateMutability": "nonpayable",
      "type": "function"
    },
    {
      "inputs": [
        {
          "internalType": "bytes32",
          "name": "role",
          "type": "bytes32"
        },
        {
          "internalType": "address",
          "name": "account",
          "type": "address"
        }
      ],
      "name": "hasRole",
      "outputs": [
        {
          "internalType": "bool",
          "name": "",
          "type": "bool"
        }
      ],
      "stateMutability": "view",
      "type": "function"
    },
    {
      "inputs": [
        {
          "internalType": "address",
          "name": "spender",
          "type": "address"
        },
        {
          "internalType": "uint256",
          "name": "addedValue",
          "type": "uint256"
        }
      ],
      "name": "increaseAllowance",
      "outputs": [
        {
          "internalType": "bool",
          "name": "",
          "type": "bool"
        }
      ],
      "stateMutability": "nonpayable",
      "type": "function"
    },
    {
      "inputs": [],
      "name": "name",
      "outputs": [
        {
          "internalType": "string",
          "name": "",
          "type": "string"
        }
      ],
      "stateMutability": "view",
      "type": "function"
    },
    {
      "inputs": [
        {
          "internalType": "address",
          "name": "",
          "type": "address"
        }
      ],
      "name": "nonces",
      "outputs": [
        {
          "internalType": "uint256",
          "name": "",
          "type": "uint256"
        }
      ],
      "stateMutability": "view",
      "type": "function"
    },
    {
      "inputs": [
        {
          "internalType": "bytes32",
          "name": "role",
          "type": "bytes32"
        },
        {
          "internalType": "address",
          "name": "account",
          "type": "address"
        }
      ],
      "name": "renounceRole",
      "outputs": [],
      "stateMutability": "nonpayable",
      "type": "function"
    },
    {
      "inputs": [
        {
          "internalType": "bytes32",
          "name": "role",
          "type": "bytes32"
        },
        {
          "internalType": "address",
          "name": "account",
          "type": "address"
        }
      ],
      "name": "revokeRole",
      "outputs": [],
      "stateMutability": "nonpayable",
      "type": "function"
    },
    {
      "inputs": [
        {
          "internalType": "bytes4",
          "name": "interfaceId",
          "type": "bytes4"
        }
      ],
      "name": "supportsInterface",
      "outputs": [
        {
          "internalType": "bool",
          "name": "",
          "type": "bool"
        }
      ],
      "stateMutability": "view",
      "type": "function"
    },
    {
      "inputs": [],
      "name": "symbol",
      "outputs": [
        {
          "internalType": "string",
          "name": "",
          "type": "string"
        }
      ],
      "stateMutability": "view",
      "type": "function"
    },
    {
      "inputs": [],
      "name": "totalSupply",
      "outputs": [
        {
          "internalType": "uint256",
          "name": "",
          "type": "uint256"
        }
      ],
      "stateMutability": "view",
      "type": "function"
    },
    {
      "inputs": [
        {
          "internalType": "address",
          "name": "recipient",
          "type": "address"
        },
        {
          "internalType": "uint256",
          "name": "amount",
          "type": "uint256"
        }
      ],
      "name": "transfer",
      "outputs": [
        {
          "internalType": "bool",
          "name": "",
          "type": "bool"
        }
      ],
      "stateMutability": "nonpayable",
      "type": "function"
    },
    {
      "inputs": [
        {
          "internalType": "address",
          "name": "sender",
          "type": "address"
        },
        {
          "internalType": "address",
          "name": "recipient",
          "type": "address"
        },
        {
          "internalType": "uint256",
          "name": "amount",
          "type": "uint256"
        }
      ],
      "name": "transferFrom",
      "outputs": [
        {
          "internalType": "bool",
          "name": "",
          "type": "bool"
        }
      ],
      "stateMutability": "nonpayable",
      "type": "function"
    },
    {
      "inputs": [],
      "name": "DOMAIN_SEPARATOR",
      "outputs": [
        {
          "internalType": "bytes32",
          "name": "",
          "type": "bytes32"
        }
      ],
      "stateMutability": "view",
      "type": "function"
    },
    {
      "inputs": [
        {
          "internalType": "address",
          "name": "newOwner",
          "type": "address"
        }
      ],
      "name": "transferOwnership",
      "outputs": [],
      "stateMutability": "nonpayable",
      "type": "function"
    },
    {
      "inputs": [
        {
          "internalType": "address",
          "name": "to",
          "type": "address"
        },
        {
          "internalType": "uint256",
          "name": "amount",
          "type": "uint256"
        }
      ],
      "name": "mint",
      "outputs": [
        {
          "internalType": "bool",
          "name": "",
          "type": "bool"
        }
      ],
      "stateMutability": "nonpayable",
      "type": "function"
    },
    {
      "inputs": [
        {
          "internalType": "address",
          "name": "from",
          "type": "address"
        },
        {
          "internalType": "uint256",
          "name": "amount",
          "type": "uint256"
        }
      ],
      "name": "burn",
      "outputs": [
        {
          "internalType": "bool",
          "name": "",
          "type": "bool"
        }
      ],
      "stateMutability": "nonpayable",
      "type": "function"
    },
    {
      "inputs": [
        {
          "internalType": "address",
          "name": "owner",
          "type": "address"
        },
        {
          "internalType": "address",
          "name": "spender",
          "type": "address"
        },
        {
          "internalType": "uint256",
          "name": "value",
          "type": "uint256"
        },
        {
          "internalType": "uint256",
          "name": "deadline",
          "type": "uint256"
        },
        {
          "internalType": "uint8",
          "name": "v",
          "type": "uint8"
        },
        {
          "internalType": "bytes32",
          "name": "r",
          "type": "bytes32"
        },
        {
          "internalType": "bytes32",
          "name": "s",
          "type": "bytes32"
        }
      ],
      "name": "permit",
      "outputs": [],
      "stateMutability": "nonpayable",
      "type": "function"
    },
    {
      "inputs": [
        {
          "internalType": "address",
          "name": "signer",
          "type": "address"
        },
        {
          "internalType": "address",
          "name": "owner",
          "type": "address"
        },
        {
          "internalType": "address",
          "name": "spender",
          "type": "address"
        },
        {
          "internalType": "uint256",
          "name": "value",
          "type": "uint256"
        },
        {
          "internalType": "uint256",
          "name": "deadline",
          "type": "uint256"
        },
        {
          "internalType": "uint256",
          "name": "_nounce",
          "type": "uint256"
        },
        {
          "internalType": "bytes32",
          "name": "sigR",
          "type": "bytes32"
        },
        {
          "internalType": "bytes32",
          "name": "sigS",
          "type": "bytes32"
        },
        {
          "internalType": "uint8",
          "name": "sigV",
          "type": "uint8"
        }
      ],
      "name": "verify",
      "outputs": [
        {
          "internalType": "bool",
          "name": "",
          "type": "bool"
        }
      ],
      "stateMutability": "view",
      "type": "function"
    },
    {
      "inputs": [
        {
          "internalType": "address",
          "name": "owner",
          "type": "address"
        },
        {
          "internalType": "address",
          "name": "spender",
          "type": "address"
        },
        {
          "internalType": "uint256",
          "name": "value",
          "type": "uint256"
        },
        {
          "internalType": "uint256",
          "name": "deadline",
          "type": "uint256"
        },
        {
          "internalType": "uint256",
          "name": "_nounce",
          "type": "uint256"
        }
      ],
      "name": "hashPermit",
      "outputs": [
        {
          "internalType": "bytes32",
          "name": "",
          "type": "bytes32"
        }
      ],
      "stateMutability": "view",
      "type": "function"
    }
  ],
  "bytecode": "0x60c06040523480156200001157600080fd5b5060405162003e3738038062003e3783398181016040528101906200003791906200051b565b8282816003908051906020019062000051929190620003f9565b5080600490805190602001906200006a929190620003f9565b505050828051906020012060808181525050808051906020012060a08181525050620000bd7fdf8b4c520ffe197c5343c6f5aec59570151ef9a492f2c624fd45ddde6135ec42806200020060201b60201c565b6200010f7f9667e80708b6eeeb0053fa0cca44e028ff548e2a9f029edfeac87c118b08b7c87fdf8b4c520ffe197c5343c6f5aec59570151ef9a492f2c624fd45ddde6135ec426200020060201b60201c565b620001617ff0887ba65ee2024ea881d91b74c2450ef19e1557f03bed3ea9f16b037cbe2dc97fdf8b4c520ffe197c5343c6f5aec59570151ef9a492f2c624fd45ddde6135ec426200020060201b60201c565b620001937fdf8b4c520ffe197c5343c6f5aec59570151ef9a492f2c624fd45ddde6135ec42336200025e60201b60201c565b620001c57f9667e80708b6eeeb0053fa0cca44e028ff548e2a9f029edfeac87c118b08b7c8336200025e60201b60201c565b620001f77ff0887ba65ee2024ea881d91b74c2450ef19e1557f03bed3ea9f16b037cbe2dc9336200025e60201b60201c565b5050506200072c565b8062000212836200027460201b60201c565b837fbd79b86ffe0ab8e8776151514217cd7cacd52c909f66475c3af44e129f0b00ff60405160405180910390a48060056000848152602001908152602001600020600101819055505050565b6200027082826200029460201b60201c565b5050565b600060056000838152602001908152602001600020600101549050919050565b620002a682826200038660201b60201c565b620003825760016005600084815260200190815260200160002060000160008373ffffffffffffffffffffffffffffffffffffffff1673ffffffffffffffffffffffffffffffffffffffff16815260200190815260200160002060006101000a81548160ff02191690831515021790555062000327620003f160201b60201c565b73ffffffffffffffffffffffffffffffffffffffff168173ffffffffffffffffffffffffffffffffffffffff16837f2f8788117e7eff1d82e926ec794901d17c78024a50270940304540a733656f0d60405160405180910390a45b5050565b60006005600084815260200190815260200160002060000160008373ffffffffffffffffffffffffffffffffffffffff1673ffffffffffffffffffffffffffffffffffffffff16815260200190815260200160002060009054906101000a900460ff16905092915050565b600033905090565b828054620004079062000651565b90600052602060002090601f0160209004810192826200042b576000855562000477565b82601f106200044657805160ff191683800117855562000477565b8280016001018555821562000477579182015b828111156200047657825182559160200191906001019062000459565b5b5090506200048691906200048a565b5090565b5b80821115620004a55760008160009055506001016200048b565b5090565b6000620004c0620004ba84620005e5565b620005bc565b905082815260208101848484011115620004d957600080fd5b620004e68482856200061b565b509392505050565b600082601f8301126200050057600080fd5b815162000512848260208601620004a9565b91505092915050565b6000806000606084860312156200053157600080fd5b600084015167ffffffffffffffff8111156200054c57600080fd5b6200055a86828701620004ee565b935050602084015167ffffffffffffffff8111156200057857600080fd5b6200058686828701620004ee565b925050604084015167ffffffffffffffff811115620005a457600080fd5b620005b286828701620004ee565b9150509250925092565b6000620005c8620005db565b9050620005d6828262000687565b919050565b6000604051905090565b600067ffffffffffffffff821115620006035762000602620006ec565b5b6200060e826200071b565b9050602081019050919050565b60005b838110156200063b5780820151818401526020810190506200061e565b838111156200064b576000848401525b50505050565b600060028204905060018216806200066a57607f821691505b60208210811415620006815762000680620006bd565b5b50919050565b62000692826200071b565b810181811067ffffffffffffffff82111715620006b457620006b3620006ec565b5b80604052505050565b7f4e487b7100000000000000000000000000000000000000000000000000000000600052602260045260246000fd5b7f4e487b7100000000000000000000000000000000000000000000000000000000600052604160045260246000fd5b6000601f19601f8301169050919050565b60805160a0516136e56200075260003960006109830152600061096201526136e56000f3fe608060405234801561001057600080fd5b50600436106101da5760003560e01c806375b238fc11610104578063a9059cbb116100a2578063d547741f11610071578063d547741f146105cf578063dcdd8a04146105eb578063dd62ed3e1461061b578063f2fde38b1461064b576101da565b8063a9059cbb14610535578063b77c6c2a14610565578063d505accf14610595578063d5391393146105b1576101da565b806395d89b41116100de57806395d89b41146104995780639dc29fac146104b7578063a217fddf146104e7578063a457c2d714610505576101da565b806375b238fc1461041b5780637ecebe001461043957806391d1485414610469576101da565b80632f2ff15d1161017c57806336568abe1161014b57806336568abe1461036f578063395093511461038b57806340c10f19146103bb57806370a08231146103eb576101da565b80632f2ff15d146102f957806330adf81f14610315578063313ce567146103335780633644e51514610351576101da565b806318160ddd116101b857806318160ddd1461025d57806323b872dd1461027b578063248a9ca3146102ab578063282c51f3146102db576101da565b806301ffc9a7146101df57806306fdde031461020f578063095ea7b31461022d575b600080fd5b6101f960048036038101906101f49190612577565b610667565b6040516102069190612a11565b60405180910390f35b6102176106e1565b6040516102249190612b40565b60405180910390f35b610247600480360381019061024291906124d6565b610773565b6040516102549190612a11565b60405180910390f35b610265610791565b6040516102729190612de2565b60405180910390f35b61029560048036038101906102909190612372565b61079b565b6040516102a29190612a11565b60405180910390f35b6102c560048036038101906102c09190612512565b61089c565b6040516102d29190612a2c565b60405180910390f35b6102e36108bc565b6040516102f09190612a2c565b60405180910390f35b610313600480360381019061030e919061253b565b6108e0565b005b61031d610909565b60405161032a9190612a2c565b60405180910390f35b61033b610930565b6040516103489190612dfd565b60405180910390f35b610359610939565b6040516103669190612a2c565b60405180910390f35b6103896004803603810190610384919061253b565b6109d4565b005b6103a560048036038101906103a091906124d6565b610a57565b6040516103b29190612a11565b60405180910390f35b6103d560048036038101906103d091906124d6565b610b03565b6040516103e29190612a11565b60405180910390f35b61040560048036038101906104009190612247565b610b82565b6040516104129190612de2565b60405180910390f35b610423610bca565b6040516104309190612a2c565b60405180910390f35b610453600480360381019061044e9190612247565b610bee565b6040516104609190612de2565b60405180910390f35b610483600480360381019061047e919061253b565b610c06565b6040516104909190612a11565b60405180910390f35b6104a1610c71565b6040516104ae9190612b40565b60405180910390f35b6104d160048036038101906104cc91906124d6565b610d03565b6040516104de9190612a11565b60405180910390f35b6104ef610d82565b6040516104fc9190612a2c565b60405180910390f35b61051f600480360381019061051a91906124d6565b610d89565b60405161052c9190612a11565b60405180910390f35b61054f600480360381019061054a91906124d6565b610e7d565b60405161055c9190612a11565b60405180910390f35b61057f600480360381019061057a91906122ac565b610e9b565b60405161058c9190612a11565b60405180910390f35b6105af60048036038101906105aa9190612438565b610f35565b005b6105b9611208565b6040516105c69190612a2c565b60405180910390f35b6105e960048036038101906105e4919061253b565b61122c565b005b610605600480360381019061060091906123c1565b611255565b6040516106129190612a2c565b60405180910390f35b61063560048036038101906106309190612270565b6112e5565b6040516106429190612de2565b60405180910390f35b61066560048036038101906106609190612247565b61136c565b005b60007f7965db0b000000000000000000000000000000000000000000000000000000007bffffffffffffffffffffffffffffffffffffffffffffffffffffffff1916827bffffffffffffffffffffffffffffffffffffffffffffffffffffffff191614806106da57506106d98261149b565b5b9050919050565b6060600380546106f09061301d565b80601f016020809104026020016040519081016040528092919081815260200182805461071c9061301d565b80156107695780601f1061073e57610100808354040283529160200191610769565b820191906000526020600020905b81548152906001019060200180831161074c57829003601f168201915b5050505050905090565b6000610787610780611505565b848461150d565b6001905092915050565b6000600254905090565b60006107a88484846116d8565b6000600160008673ffffffffffffffffffffffffffffffffffffffff1673ffffffffffffffffffffffffffffffffffffffff16815260200190815260200160002060006107f3611505565b73ffffffffffffffffffffffffffffffffffffffff1673ffffffffffffffffffffffffffffffffffffffff16815260200190815260200160002054905082811015610873576040517f08c379a000000000000000000000000000000000000000000000000000000000815260040161086a90612c82565b60405180910390fd5b6108908561087f611505565b858461088b9190612eef565b61150d565b60019150509392505050565b600060056000838152602001908152602001600020600101549050919050565b7f9667e80708b6eeeb0053fa0cca44e028ff548e2a9f029edfeac87c118b08b7c881565b6108e98261089c565b6108fa816108f5611505565b611957565b61090483836119f4565b505050565b7f6e71edae12b1b97f4d1f60370fef10105fa2faae0126114a169c64845d6126c960001b81565b60006012905090565b6000804690507f8b73c3c69bb8fe3d512ecc4cf759cc79239f7b179b0ffacaa9a75d522b39400f7f00000000000000000000000000000000000000000000000000000000000000007f000000000000000000000000000000000000000000000000000000000000000083306040516020016109b8959493929190612aed565b6040516020818303038152906040528051906020012091505090565b6109dc611505565b73ffffffffffffffffffffffffffffffffffffffff168173ffffffffffffffffffffffffffffffffffffffff1614610a49576040517f08c379a0000000000000000000000000000000000000000000000000000000008152600401610a4090612da2565b60405180910390fd5b610a538282611ad5565b5050565b6000610af9610a64611505565b848460016000610a72611505565b73ffffffffffffffffffffffffffffffffffffffff1673ffffffffffffffffffffffffffffffffffffffff16815260200190815260200160002060008873ffffffffffffffffffffffffffffffffffffffff1673ffffffffffffffffffffffffffffffffffffffff16815260200190815260200160002054610af49190612e3f565b61150d565b6001905092915050565b6000610b2f7ff0887ba65ee2024ea881d91b74c2450ef19e1557f03bed3ea9f16b037cbe2dc933610c06565b610b6e576040517f08c379a0000000000000000000000000000000000000000000000000000000008152600401610b6590612cc2565b60405180910390fd5b610b788383611bb7565b6001905092915050565b60008060008373ffffffffffffffffffffffffffffffffffffffff1673ffffffffffffffffffffffffffffffffffffffff168152602001908152602001600020549050919050565b7fdf8b4c520ffe197c5343c6f5aec59570151ef9a492f2c624fd45ddde6135ec4281565b60066020528060005260406000206000915090505481565b60006005600084815260200190815260200160002060000160008373ffffffffffffffffffffffffffffffffffffffff1673ffffffffffffffffffffffffffffffffffffffff16815260200190815260200160002060009054906101000a900460ff16905092915050565b606060048054610c809061301d565b80601f0160208091040260200160405190810160405280929190818152602001828054610cac9061301d565b8015610cf95780601f10610cce57610100808354040283529160200191610cf9565b820191906000526020600020905b815481529060010190602001808311610cdc57829003601f168201915b5050505050905090565b6000610d2f7f9667e80708b6eeeb0053fa0cca44e028ff548e2a9f029edfeac87c118b08b7c833610c06565b610d6e576040517f08c379a0000000000000000000000000000000000000000000000000000000008152600401610d6590612ca2565b60405180910390fd5b610d788383611d0b565b6001905092915050565b6000801b81565b60008060016000610d98611505565b73ffffffffffffffffffffffffffffffffffffffff1673ffffffffffffffffffffffffffffffffffffffff16815260200190815260200160002060008573ffffffffffffffffffffffffffffffffffffffff1673ffffffffffffffffffffffffffffffffffffffff16815260200190815260200160002054905082811015610e55576040517f08c379a0000000000000000000000000000000000000000000000000000000008152600401610e4c90612d82565b60405180910390fd5b610e72610e60611505565b858584610e6d9190612eef565b61150d565b600191505092915050565b6000610e91610e8a611505565b84846116d8565b6001905092915050565b60006001610eac8a8a8a8a8a611255565b83868660405160008152602001604052604051610ecc9493929190612aa8565b6020604051602081039080840390855afa158015610eee573d6000803e3d6000fd5b5050506020604051035173ffffffffffffffffffffffffffffffffffffffff168a73ffffffffffffffffffffffffffffffffffffffff161490509998505050505050505050565b42841015610f78576040517f08c379a0000000000000000000000000000000000000000000000000000000008152600401610f6f90612c42565b60405180910390fd5b6000610f82610939565b7f6e71edae12b1b97f4d1f60370fef10105fa2faae0126114a169c64845d6126c960001b898989600660008e73ffffffffffffffffffffffffffffffffffffffff1673ffffffffffffffffffffffffffffffffffffffff1681526020019081526020016000206000815480929190610ff99061304f565b919050558a60405160200161101396959493929190612a47565b6040516020818303038152906040528051906020012060405160200161103a9291906129a0565b6040516020818303038152906040528051906020012090508673ffffffffffffffffffffffffffffffffffffffff168873ffffffffffffffffffffffffffffffffffffffff1614156110c1576040517f08c379a00000000000000000000000000000000000000000000000000000000081526004016110b890612b62565b60405180910390fd5b6000600182868686604051600081526020016040526040516110e69493929190612aa8565b6020604051602081039080840390855afa158015611108573d6000803e3d6000fd5b505050602060405103519050600073ffffffffffffffffffffffffffffffffffffffff168173ffffffffffffffffffffffffffffffffffffffff161415611184576040517f08c379a000000000000000000000000000000000000000000000000000000000815260040161117b90612d02565b60405180910390fd5b8873ffffffffffffffffffffffffffffffffffffffff168173ffffffffffffffffffffffffffffffffffffffff16146111f2576040517f08c379a00000000000000000000000000000000000000000000000000000000081526004016111e990612be2565b60405180910390fd5b6111fd89898961150d565b505050505050505050565b7ff0887ba65ee2024ea881d91b74c2450ef19e1557f03bed3ea9f16b037cbe2dc981565b6112358261089c565b61124681611241611505565b611957565b6112508383611ad5565b505050565b600061125f610939565b7f6e71edae12b1b97f4d1f60370fef10105fa2faae0126114a169c64845d6126c960001b878787868860405160200161129d96959493929190612a47565b604051602081830303815290604052805190602001206040516020016112c49291906129a0565b60405160208183030381529060405280519060200120905095945050505050565b6000600160008473ffffffffffffffffffffffffffffffffffffffff1673ffffffffffffffffffffffffffffffffffffffff16815260200190815260200160002060008373ffffffffffffffffffffffffffffffffffffffff1673ffffffffffffffffffffffffffffffffffffffff16815260200190815260200160002054905092915050565b6113967fdf8b4c520ffe197c5343c6f5aec59570151ef9a492f2c624fd45ddde6135ec4233610c06565b6113d5576040517f08c379a00000000000000000000000000000000000000000000000000000000081526004016113cc90612c62565b60405180910390fd5b8073ffffffffffffffffffffffffffffffffffffffff163373ffffffffffffffffffffffffffffffffffffffff161415611444576040517f08c379a000000000000000000000000000000000000000000000000000000000815260040161143b90612d62565b60405180910390fd5b61146e7fdf8b4c520ffe197c5343c6f5aec59570151ef9a492f2c624fd45ddde6135ec42826108e0565b6114987fdf8b4c520ffe197c5343c6f5aec59570151ef9a492f2c624fd45ddde6135ec423361122c565b50565b60007f01ffc9a7000000000000000000000000000000000000000000000000000000007bffffffffffffffffffffffffffffffffffffffffffffffffffffffff1916827bffffffffffffffffffffffffffffffffffffffffffffffffffffffff1916149050919050565b600033905090565b600073ffffffffffffffffffffffffffffffffffffffff168373ffffffffffffffffffffffffffffffffffffffff16141561157d576040517f08c379a000000000000000000000000000000000000000000000000000000000815260040161157490612d42565b60405180910390fd5b600073ffffffffffffffffffffffffffffffffffffffff168273ffffffffffffffffffffffffffffffffffffffff1614156115ed576040517f08c379a00000000000000000000000000000000000000000000000000000000081526004016115e490612c02565b60405180910390fd5b80600160008573ffffffffffffffffffffffffffffffffffffffff1673ffffffffffffffffffffffffffffffffffffffff16815260200190815260200160002060008473ffffffffffffffffffffffffffffffffffffffff1673ffffffffffffffffffffffffffffffffffffffff168152602001908152602001600020819055508173ffffffffffffffffffffffffffffffffffffffff168373ffffffffffffffffffffffffffffffffffffffff167f8c5be1e5ebec7d5bd14f71427d1e84f3dd0314c0f7b2291e5b200ac8c7c3b925836040516116cb9190612de2565b60405180910390a3505050565b600073ffffffffffffffffffffffffffffffffffffffff168373ffffffffffffffffffffffffffffffffffffffff161415611748576040517f08c379a000000000000000000000000000000000000000000000000000000000815260040161173f90612d22565b60405180910390fd5b600073ffffffffffffffffffffffffffffffffffffffff168273ffffffffffffffffffffffffffffffffffffffff1614156117b8576040517f08c379a00000000000000000000000000000000000000000000000000000000081526004016117af90612ba2565b60405180910390fd5b6117c3838383611edf565b60008060008573ffffffffffffffffffffffffffffffffffffffff1673ffffffffffffffffffffffffffffffffffffffff16815260200190815260200160002054905081811015611849576040517f08c379a000000000000000000000000000000000000000000000000000000000815260040161184090612c22565b60405180910390fd5b81816118559190612eef565b6000808673ffffffffffffffffffffffffffffffffffffffff1673ffffffffffffffffffffffffffffffffffffffff16815260200190815260200160002081905550816000808573ffffffffffffffffffffffffffffffffffffffff1673ffffffffffffffffffffffffffffffffffffffff16815260200190815260200160002060008282546118e59190612e3f565b925050819055508273ffffffffffffffffffffffffffffffffffffffff168473ffffffffffffffffffffffffffffffffffffffff167fddf252ad1be2c89b69c2b068fc378daa952ba7f163c4a11628f55a4df523b3ef846040516119499190612de2565b60405180910390a350505050565b6119618282610c06565b6119f0576119868173ffffffffffffffffffffffffffffffffffffffff166014611ee4565b6119948360001c6020611ee4565b6040516020016119a59291906129d7565b6040516020818303038152906040526040517f08c379a00000000000000000000000000000000000000000000000000000000081526004016119e79190612b40565b60405180910390fd5b5050565b6119fe8282610c06565b611ad15760016005600084815260200190815260200160002060000160008373ffffffffffffffffffffffffffffffffffffffff1673ffffffffffffffffffffffffffffffffffffffff16815260200190815260200160002060006101000a81548160ff021916908315150217905550611a76611505565b73ffffffffffffffffffffffffffffffffffffffff168173ffffffffffffffffffffffffffffffffffffffff16837f2f8788117e7eff1d82e926ec794901d17c78024a50270940304540a733656f0d60405160405180910390a45b5050565b611adf8282610c06565b15611bb35760006005600084815260200190815260200160002060000160008373ffffffffffffffffffffffffffffffffffffffff1673ffffffffffffffffffffffffffffffffffffffff16815260200190815260200160002060006101000a81548160ff021916908315150217905550611b58611505565b73ffffffffffffffffffffffffffffffffffffffff168173ffffffffffffffffffffffffffffffffffffffff16837ff6391f5c32d9c69d2a47ea670b442974b53935d1edc7fd64eb21e047a839171b60405160405180910390a45b5050565b600073ffffffffffffffffffffffffffffffffffffffff168273ffffffffffffffffffffffffffffffffffffffff161415611c27576040517f08c379a0000000000000000000000000000000000000000000000000000000008152600401611c1e90612dc2565b60405180910390fd5b611c3360008383611edf565b8060026000828254611c459190612e3f565b92505081905550806000808473ffffffffffffffffffffffffffffffffffffffff1673ffffffffffffffffffffffffffffffffffffffff1681526020019081526020016000206000828254611c9a9190612e3f565b925050819055508173ffffffffffffffffffffffffffffffffffffffff16600073ffffffffffffffffffffffffffffffffffffffff167fddf252ad1be2c89b69c2b068fc378daa952ba7f163c4a11628f55a4df523b3ef83604051611cff9190612de2565b60405180910390a35050565b600073ffffffffffffffffffffffffffffffffffffffff168273ffffffffffffffffffffffffffffffffffffffff161415611d7b576040517f08c379a0000000000000000000000000000000000000000000000000000000008152600401611d7290612ce2565b60405180910390fd5b611d8782600083611edf565b60008060008473ffffffffffffffffffffffffffffffffffffffff1673ffffffffffffffffffffffffffffffffffffffff16815260200190815260200160002054905081811015611e0d576040517f08c379a0000000000000000000000000000000000000000000000000000000008152600401611e0490612bc2565b60405180910390fd5b8181611e199190612eef565b6000808573ffffffffffffffffffffffffffffffffffffffff1673ffffffffffffffffffffffffffffffffffffffff168152602001908152602001600020819055508160026000828254611e6d9190612eef565b92505081905550600073ffffffffffffffffffffffffffffffffffffffff168373ffffffffffffffffffffffffffffffffffffffff167fddf252ad1be2c89b69c2b068fc378daa952ba7f163c4a11628f55a4df523b3ef84604051611ed29190612de2565b60405180910390a3505050565b505050565b606060006002836002611ef79190612e95565b611f019190612e3f565b67ffffffffffffffff811115611f40577f4e487b7100000000000000000000000000000000000000000000000000000000600052604160045260246000fd5b6040519080825280601f01601f191660200182016040528015611f725781602001600182028036833780820191505090505b5090507f300000000000000000000000000000000000000000000000000000000000000081600081518110611fd0577f4e487b7100000000000000000000000000000000000000000000000000000000600052603260045260246000fd5b60200101907effffffffffffffffffffffffffffffffffffffffffffffffffffffffffffff1916908160001a9053507f78000000000000000000000000000000000000000000000000000000000000008160018151811061205a577f4e487b7100000000000000000000000000000000000000000000000000000000600052603260045260246000fd5b60200101907effffffffffffffffffffffffffffffffffffffffffffffffffffffffffffff1916908160001a9053506000600184600261209a9190612e95565b6120a49190612e3f565b90505b6001811115612190577f3031323334353637383961626364656600000000000000000000000000000000600f86166010811061210c577f4e487b7100000000000000000000000000000000000000000000000000000000600052603260045260246000fd5b1a60f81b828281518110612149577f4e487b7100000000000000000000000000000000000000000000000000000000600052603260045260246000fd5b60200101907effffffffffffffffffffffffffffffffffffffffffffffffffffffffffffff1916908160001a905350600485901c94508061218990612ff3565b90506120a7565b50600084146121d4576040517f08c379a00000000000000000000000000000000000000000000000000000000081526004016121cb90612b82565b60405180910390fd5b8091505092915050565b6000813590506121ed8161363c565b92915050565b60008135905061220281613653565b92915050565b6000813590506122178161366a565b92915050565b60008135905061222c81613681565b92915050565b60008135905061224181613698565b92915050565b60006020828403121561225957600080fd5b6000612267848285016121de565b91505092915050565b6000806040838503121561228357600080fd5b6000612291858286016121de565b92505060206122a2858286016121de565b9150509250929050565b60008060008060008060008060006101208a8c0312156122cb57600080fd5b60006122d98c828d016121de565b99505060206122ea8c828d016121de565b98505060406122fb8c828d016121de565b975050606061230c8c828d0161221d565b965050608061231d8c828d0161221d565b95505060a061232e8c828d0161221d565b94505060c061233f8c828d016121f3565b93505060e06123508c828d016121f3565b9250506101006123628c828d01612232565b9150509295985092959850929598565b60008060006060848603121561238757600080fd5b6000612395868287016121de565b93505060206123a6868287016121de565b92505060406123b78682870161221d565b9150509250925092565b600080600080600060a086880312156123d957600080fd5b60006123e7888289016121de565b95505060206123f8888289016121de565b94505060406124098882890161221d565b935050606061241a8882890161221d565b925050608061242b8882890161221d565b9150509295509295909350565b600080600080600080600060e0888a03121561245357600080fd5b60006124618a828b016121de565b97505060206124728a828b016121de565b96505060406124838a828b0161221d565b95505060606124948a828b0161221d565b94505060806124a58a828b01612232565b93505060a06124b68a828b016121f3565b92505060c06124c78a828b016121f3565b91505092959891949750929550565b600080604083850312156124e957600080fd5b60006124f7858286016121de565b92505060206125088582860161221d565b9150509250929050565b60006020828403121561252457600080fd5b6000612532848285016121f3565b91505092915050565b6000806040838503121561254e57600080fd5b600061255c858286016121f3565b925050602061256d858286016121de565b9150509250929050565b60006020828403121561258957600080fd5b600061259784828501612208565b91505092915050565b6125a981612f23565b82525050565b6125b881612f35565b82525050565b6125c781612f41565b82525050565b6125de6125d982612f41565b613098565b82525050565b6125ed81612fae565b82525050565b60006125fe82612e18565b6126088185612e23565b9350612618818560208601612fc0565b61262181613100565b840191505092915050565b600061263782612e18565b6126418185612e34565b9350612651818560208601612fc0565b80840191505092915050565b600061266a601e83612e23565b915061267582613111565b602082019050919050565b600061268d602083612e23565b91506126988261313a565b602082019050919050565b60006126b0602383612e23565b91506126bb82613163565b604082019050919050565b60006126d3602283612e23565b91506126de826131b2565b604082019050919050565b60006126f6601183612e23565b915061270182613201565b602082019050919050565b6000612719602283612e23565b91506127248261322a565b604082019050919050565b600061273c600283612e34565b915061274782613279565b600282019050919050565b600061275f602683612e23565b915061276a826132a2565b604082019050919050565b6000612782601383612e23565b915061278d826132f1565b602082019050919050565b60006127a5601b83612e23565b91506127b08261331a565b602082019050919050565b60006127c8602883612e23565b91506127d382613343565b604082019050919050565b60006127eb601b83612e23565b91506127f682613392565b602082019050919050565b600061280e601b83612e23565b9150612819826133bb565b602082019050919050565b6000612831602183612e23565b915061283c826133e4565b604082019050919050565b6000612854601683612e23565b915061285f82613433565b602082019050919050565b6000612877602583612e23565b91506128828261345c565b604082019050919050565b600061289a602483612e23565b91506128a5826134ab565b604082019050919050565b60006128bd600e83612e23565b91506128c8826134fa565b602082019050919050565b60006128e0601783612e34565b91506128eb82613523565b601782019050919050565b6000612903602583612e23565b915061290e8261354c565b604082019050919050565b6000612926601183612e34565b91506129318261359b565b601182019050919050565b6000612949602f83612e23565b9150612954826135c4565b604082019050919050565b600061296c601f83612e23565b915061297782613613565b602082019050919050565b61298b81612f97565b82525050565b61299a81612fa1565b82525050565b60006129ab8261272f565b91506129b782856125cd565b6020820191506129c782846125cd565b6020820191508190509392505050565b60006129e2826128d3565b91506129ee828561262c565b91506129f982612919565b9150612a05828461262c565b91508190509392505050565b6000602082019050612a2660008301846125af565b92915050565b6000602082019050612a4160008301846125be565b92915050565b600060c082019050612a5c60008301896125be565b612a6960208301886125a0565b612a7660408301876125a0565b612a836060830186612982565b612a906080830185612982565b612a9d60a0830184612982565b979650505050505050565b6000608082019050612abd60008301876125be565b612aca6020830186612991565b612ad760408301856125be565b612ae460608301846125be565b95945050505050565b600060a082019050612b0260008301886125e4565b612b0f60208301876125be565b612b1c60408301866125be565b612b296060830185612982565b612b3660808301846125a0565b9695505050505050565b60006020820190508181036000830152612b5a81846125f3565b905092915050565b60006020820190508181036000830152612b7b8161265d565b9050919050565b60006020820190508181036000830152612b9b81612680565b9050919050565b60006020820190508181036000830152612bbb816126a3565b9050919050565b60006020820190508181036000830152612bdb816126c6565b9050919050565b60006020820190508181036000830152612bfb816126e9565b9050919050565b60006020820190508181036000830152612c1b8161270c565b9050919050565b60006020820190508181036000830152612c3b81612752565b9050919050565b60006020820190508181036000830152612c5b81612775565b9050919050565b60006020820190508181036000830152612c7b81612798565b9050919050565b60006020820190508181036000830152612c9b816127bb565b9050919050565b60006020820190508181036000830152612cbb816127de565b9050919050565b60006020820190508181036000830152612cdb81612801565b9050919050565b60006020820190508181036000830152612cfb81612824565b9050919050565b60006020820190508181036000830152612d1b81612847565b9050919050565b60006020820190508181036000830152612d3b8161286a565b9050919050565b60006020820190508181036000830152612d5b8161288d565b9050919050565b60006020820190508181036000830152612d7b816128b0565b9050919050565b60006020820190508181036000830152612d9b816128f6565b9050919050565b60006020820190508181036000830152612dbb8161293c565b9050919050565b60006020820190508181036000830152612ddb8161295f565b9050919050565b6000602082019050612df76000830184612982565b92915050565b6000602082019050612e126000830184612991565b92915050565b600081519050919050565b600082825260208201905092915050565b600081905092915050565b6000612e4a82612f97565b9150612e5583612f97565b9250827fffffffffffffffffffffffffffffffffffffffffffffffffffffffffffffffff03821115612e8a57612e896130a2565b5b828201905092915050565b6000612ea082612f97565b9150612eab83612f97565b9250817fffffffffffffffffffffffffffffffffffffffffffffffffffffffffffffffff0483118215151615612ee457612ee36130a2565b5b828202905092915050565b6000612efa82612f97565b9150612f0583612f97565b925082821015612f1857612f176130a2565b5b828203905092915050565b6000612f2e82612f77565b9050919050565b60008115159050919050565b6000819050919050565b60007fffffffff0000000000000000000000000000000000000000000000000000000082169050919050565b600073ffffffffffffffffffffffffffffffffffffffff82169050919050565b6000819050919050565b600060ff82169050919050565b6000612fb982612f97565b9050919050565b60005b83811015612fde578082015181840152602081019050612fc3565b83811115612fed576000848401525b50505050565b6000612ffe82612f97565b91506000821415613012576130116130a2565b5b600182039050919050565b6000600282049050600182168061303557607f821691505b60208210811415613049576130486130d1565b5b50919050565b600061305a82612f97565b91507fffffffffffffffffffffffffffffffffffffffffffffffffffffffffffffffff82141561308d5761308c6130a2565b5b600182019050919050565b6000819050919050565b7f4e487b7100000000000000000000000000000000000000000000000000000000600052601160045260246000fd5b7f4e487b7100000000000000000000000000000000000000000000000000000000600052602260045260246000fd5b6000601f19601f8301169050919050565b7f544f533a20617070726f76616c20746f2063757272656e74206f776e65720000600082015250565b7f537472696e67733a20686578206c656e67746820696e73756666696369656e74600082015250565b7f45524332303a207472616e7366657220746f20746865207a65726f206164647260008201527f6573730000000000000000000000000000000000000000000000000000000000602082015250565b7f45524332303a206275726e20616d6f756e7420657863656564732062616c616e60008201527f6365000000000000000000000000000000000000000000000000000000000000602082015250565b7f544f533a20556e617574686f72697a6564000000000000000000000000000000600082015250565b7f45524332303a20617070726f766520746f20746865207a65726f20616464726560008201527f7373000000000000000000000000000000000000000000000000000000000000602082015250565b7f1901000000000000000000000000000000000000000000000000000000000000600082015250565b7f45524332303a207472616e7366657220616d6f756e742065786365656473206260008201527f616c616e63650000000000000000000000000000000000000000000000000000602082015250565b7f544f533a207065726d6974204558504952454400000000000000000000000000600082015250565b7f544f533a2043616c6c6572206973206e6f7420616e2061646d696e0000000000600082015250565b7f45524332303a207472616e7366657220616d6f756e742065786365656473206160008201527f6c6c6f77616e6365000000000000000000000000000000000000000000000000602082015250565b7f544f533a2043616c6c6572206973206e6f742061206275726e65720000000000600082015250565b7f544f533a2043616c6c6572206973206e6f742061206d696e7465720000000000600082015250565b7f45524332303a206275726e2066726f6d20746865207a65726f2061646472657360008201527f7300000000000000000000000000000000000000000000000000000000000000602082015250565b7f544f533a20496e76616c6964207369676e617475726500000000000000000000600082015250565b7f45524332303a207472616e736665722066726f6d20746865207a65726f20616460008201527f6472657373000000000000000000000000000000000000000000000000000000602082015250565b7f45524332303a20617070726f76652066726f6d20746865207a65726f2061646460008201527f7265737300000000000000000000000000000000000000000000000000000000602082015250565b7f544f533a73616d65206f776e6572000000000000000000000000000000000000600082015250565b7f416363657373436f6e74726f6c3a206163636f756e7420000000000000000000600082015250565b7f45524332303a2064656372656173656420616c6c6f77616e63652062656c6f7760008201527f207a65726f000000000000000000000000000000000000000000000000000000602082015250565b7f206973206d697373696e6720726f6c6520000000000000000000000000000000600082015250565b7f416363657373436f6e74726f6c3a2063616e206f6e6c792072656e6f756e636560008201527f20726f6c657320666f722073656c660000000000000000000000000000000000602082015250565b7f45524332303a206d696e7420746f20746865207a65726f206164647265737300600082015250565b61364581612f23565b811461365057600080fd5b50565b61365c81612f41565b811461366757600080fd5b50565b61367381612f4b565b811461367e57600080fd5b50565b61368a81612f97565b811461369557600080fd5b50565b6136a181612fa1565b81146136ac57600080fd5b5056fea2646970667358221220f9a4de0d748482cc635047154d5c40d6bc35bb1a89efd23a4184f49931ce478f64736f6c63430008040033",
  "immutableReferences": {
    "1702": [
      {
        "length": 32,
        "start": 2402
      }
    ],
    "1705": [
      {
        "length": 32,
        "start": 2435
      }
    ]
  },
  "source": "//SPDX-License-Identifier: Unlicense\npragma solidity ^0.8.4;\n\nimport \"../interfaces/ITOS.sol\";\nimport \"../libraries/ChainId.sol\";\nimport {ERC20} from \"@openzeppelin/contracts/token/ERC20/ERC20.sol\";\nimport \"@openzeppelin/contracts/access/AccessControl.sol\";\n\n/// @title the platform token. TOS token\ncontract TOS is ERC20, AccessControl, ITOS {\n    bytes32 public constant ADMIN_ROLE = keccak256(\"ADMIN\");\n    bytes32 public constant MINTER_ROLE = keccak256(\"MINTER\");\n    bytes32 public constant BURNER_ROLE = keccak256(\"BURNER\");\n\n    /// @dev The hash of the name used in the permit signature verification\n    bytes32 private immutable nameHash;\n\n    /// @dev The hash of the version string used in the permit signature verification\n    bytes32 private immutable versionHash;\n\n    //bytes32 public override DOMAIN_SEPARATOR;\n    mapping(address => uint256) public override nonces;\n\n    /// @dev Value is equal to keccak256(\"Permit(address owner,address spender,uint256 value,uint256 nonce,uint256 deadline)\");\n    bytes32 public constant PERMIT_TYPEHASH =\n        0x6e71edae12b1b97f4d1f60370fef10105fa2faae0126114a169c64845d6126c9;\n\n    struct Permit {\n        address owner;\n        address spender;\n        address value;\n        address nonce;\n        address deadline;\n    }\n\n    modifier onlyOwner() {\n        require(hasRole(ADMIN_ROLE, msg.sender), \"TOS: Caller is not an admin\");\n        _;\n    }\n\n    /// @dev constructor of TOS, ERC20 Token\n    constructor(\n        string memory name_,\n        string memory symbol_,\n        string memory version_\n    ) ERC20(name_, symbol_) {\n        nameHash = keccak256(bytes(name_));\n        versionHash = keccak256(bytes(version_));\n\n        _setRoleAdmin(ADMIN_ROLE, ADMIN_ROLE);\n        _setRoleAdmin(BURNER_ROLE, ADMIN_ROLE);\n        _setRoleAdmin(MINTER_ROLE, ADMIN_ROLE);\n\n        _setupRole(ADMIN_ROLE, msg.sender);\n        _setupRole(BURNER_ROLE, msg.sender);\n        _setupRole(MINTER_ROLE, msg.sender);\n    }\n\n    function DOMAIN_SEPARATOR() public view override returns (bytes32) {\n        uint256 chainId;\n        assembly {\n            chainId := chainid()\n        }\n\n        return\n            keccak256(\n                abi.encode(\n                    // keccak256('EIP712Domain(string name,string version,uint256 chainId,address verifyingContract)')\n                    0x8b73c3c69bb8fe3d512ecc4cf759cc79239f7b179b0ffacaa9a75d522b39400f,\n                    nameHash,\n                    versionHash,\n                    chainId,\n                    address(this)\n                )\n            );\n    }\n\n    /// @dev transfer Ownership\n    /// @param newOwner new owner address\n    function transferOwnership(address newOwner) external onlyOwner {\n        require(msg.sender != newOwner, \"TOS:same owner\");\n        grantRole(ADMIN_ROLE, newOwner);\n        revokeRole(ADMIN_ROLE, msg.sender);\n    }\n\n    /// @dev Issue a token.\n    /// @param to  who takes the issue\n    /// @param amount the amount to issue\n    function mint(address to, uint256 amount) external override returns (bool) {\n        require(\n            hasRole(MINTER_ROLE, msg.sender),\n            \"TOS: Caller is not a minter\"\n        );\n        _mint(to, amount);\n        return true;\n    }\n\n    /// @dev burn a token.\n    /// @param from Whose tokens are burned\n    /// @param amount the amount to burn\n    function burn(address from, uint256 amount)\n        external\n        override\n        returns (bool)\n    {\n        require(\n            hasRole(BURNER_ROLE, msg.sender),\n            \"TOS: Caller is not a burner\"\n        );\n        _burn(from, amount);\n        return true;\n    }\n\n    /// @dev Authorizes the owner's token to be used by the spender as much as the value.\n    /// @dev The signature must have the owner's signature.\n    /// @param owner the token's owner\n    /// @param spender the account that spend owner's token\n    /// @param value the amount to be approve to spend\n    /// @param deadline the deadline that vaild the owner's signature\n    /// @param v the owner's signature - v\n    /// @param r the owner's signature - r\n    /// @param s the owner's signature - s\n    function permit(\n        address owner,\n        address spender,\n        uint256 value,\n        uint256 deadline,\n        uint8 v,\n        bytes32 r,\n        bytes32 s\n    ) external override {\n        require(deadline >= block.timestamp, \"TOS: permit EXPIRED\");\n\n        bytes32 digest = keccak256(\n            abi.encodePacked(\n                \"\\x19\\x01\",\n                DOMAIN_SEPARATOR(),\n                keccak256(\n                    abi.encode(\n                        PERMIT_TYPEHASH,\n                        owner,\n                        spender,\n                        value,\n                        nonces[owner]++,\n                        deadline\n                    )\n                )\n            )\n        );\n\n        require(owner != spender, \"TOS: approval to current owner\");\n\n        // if (Address.isContract(owner)) {\n        //     require(IERC1271(owner).isValidSignature(digest, abi.encodePacked(r, s, v)) == 0x1626ba7e, 'Unauthorized');\n        // } else {\n        address recoveredAddress = ecrecover(digest, v, r, s);\n        require(recoveredAddress != address(0), \"TOS: Invalid signature\");\n        require(recoveredAddress == owner, \"TOS: Unauthorized\");\n        // }\n        _approve(owner, spender, value);\n    }\n\n    /// @dev verify the signature\n    /// @param signer the signer address\n    /// @param owner the token's owner\n    /// @param spender the account that spend owner's token\n    /// @param value the amount to be approve to spend\n    /// @param deadline the deadline that vaild the owner's signature\n    /// @param _nounce the _nounce\n    /// @param sigR the owner's signature - r\n    /// @param sigS the owner's signature - s\n    /// @param sigV the owner's signature - v\n    function verify(\n        address signer,\n        address owner,\n        address spender,\n        uint256 value,\n        uint256 deadline,\n        uint256 _nounce,\n        bytes32 sigR,\n        bytes32 sigS,\n        uint8 sigV\n    ) public view override returns (bool) {\n        return\n            signer ==\n            ecrecover(\n                hashPermit(owner, spender, value, deadline, _nounce),\n                sigV,\n                sigR,\n                sigS\n            );\n    }\n\n    /// @dev the hash of Permit\n    /// @param owner the token's owner\n    /// @param spender the account that spend owner's token\n    /// @param value the amount to be approve to spend\n    /// @param deadline the deadline that vaild the owner's signature\n    /// @param _nounce the _nounce\n    function hashPermit(\n        address owner,\n        address spender,\n        uint256 value,\n        uint256 deadline,\n        uint256 _nounce\n    ) public view override returns (bytes32) {\n        return\n            keccak256(\n                abi.encodePacked(\n                    \"\\x19\\x01\",\n                    DOMAIN_SEPARATOR(),\n                    keccak256(\n                        abi.encode(\n                            PERMIT_TYPEHASH,\n                            owner,\n                            spender,\n                            value,\n                            _nounce,\n                            deadline\n                        )\n                    )\n                )\n            );\n    }\n}\n",
  "sourcePath": "/Users/zena/tonstarter/tonstarter-token-distribution/contracts/tokens/TOS.sol",
  "compiler": {
    "name": "solc",
    "version": "0.8.4+commit.c7e474f2.Emscripten.clang"
  },
  "schemaVersion": "3.3.4",
  "updatedAt": "2021-06-28T01:20:33.534Z",
  "devdoc": {
    "kind": "dev",
    "methods": {
      "allowance(address,address)": {
        "details": "See {IERC20-allowance}."
      },
      "approve(address,uint256)": {
        "details": "See {IERC20-approve}. Requirements: - `spender` cannot be the zero address."
      },
      "balanceOf(address)": {
        "details": "See {IERC20-balanceOf}."
      },
      "burn(address,uint256)": {
        "details": "burn a token.",
        "params": {
          "amount": "the amount to burn",
          "from": "Whose tokens are burned"
        }
      },
      "constructor": {
        "details": "constructor of TOS, ERC20 Token"
      },
      "decimals()": {
        "details": "Returns the number of decimals used to get its user representation. For example, if `decimals` equals `2`, a balance of `505` tokens should be displayed to a user as `5,05` (`505 / 10 ** 2`). Tokens usually opt for a value of 18, imitating the relationship between Ether and Wei. This is the value {ERC20} uses, unless this function is overridden; NOTE: This information is only used for _display_ purposes: it in no way affects any of the arithmetic of the contract, including {IERC20-balanceOf} and {IERC20-transfer}."
      },
      "decreaseAllowance(address,uint256)": {
        "details": "Atomically decreases the allowance granted to `spender` by the caller. This is an alternative to {approve} that can be used as a mitigation for problems described in {IERC20-approve}. Emits an {Approval} event indicating the updated allowance. Requirements: - `spender` cannot be the zero address. - `spender` must have allowance for the caller of at least `subtractedValue`."
      },
      "getRoleAdmin(bytes32)": {
        "details": "Returns the admin role that controls `role`. See {grantRole} and {revokeRole}. To change a role's admin, use {_setRoleAdmin}."
      },
      "grantRole(bytes32,address)": {
        "details": "Grants `role` to `account`. If `account` had not been already granted `role`, emits a {RoleGranted} event. Requirements: - the caller must have ``role``'s admin role."
      },
      "hasRole(bytes32,address)": {
        "details": "Returns `true` if `account` has been granted `role`."
      },
      "hashPermit(address,address,uint256,uint256,uint256)": {
        "details": "the hash of Permit",
        "params": {
          "_nounce": "the _nounce",
          "deadline": "the deadline that vaild the owner's signature",
          "owner": "the token's owner",
          "spender": "the account that spend owner's token",
          "value": "the amount to be approve to spend"
        }
      },
      "increaseAllowance(address,uint256)": {
        "details": "Atomically increases the allowance granted to `spender` by the caller. This is an alternative to {approve} that can be used as a mitigation for problems described in {IERC20-approve}. Emits an {Approval} event indicating the updated allowance. Requirements: - `spender` cannot be the zero address."
      },
      "mint(address,uint256)": {
        "details": "Issue a token.",
        "params": {
          "amount": "the amount to issue",
          "to": "who takes the issue"
        }
      },
      "name()": {
        "details": "Returns the name of the token."
      },
      "permit(address,address,uint256,uint256,uint8,bytes32,bytes32)": {
        "details": "Authorizes the owner's token to be used by the spender as much as the value.The signature must have the owner's signature.",
        "params": {
          "deadline": "the deadline that vaild the owner's signature",
          "owner": "the token's owner",
          "r": "the owner's signature - r",
          "s": "the owner's signature - s",
          "spender": "the account that spend owner's token",
          "v": "the owner's signature - v",
          "value": "the amount to be approve to spend"
        }
      },
      "renounceRole(bytes32,address)": {
        "details": "Revokes `role` from the calling account. Roles are often managed via {grantRole} and {revokeRole}: this function's purpose is to provide a mechanism for accounts to lose their privileges if they are compromised (such as when a trusted device is misplaced). If the calling account had been granted `role`, emits a {RoleRevoked} event. Requirements: - the caller must be `account`."
      },
      "revokeRole(bytes32,address)": {
        "details": "Revokes `role` from `account`. If `account` had been granted `role`, emits a {RoleRevoked} event. Requirements: - the caller must have ``role``'s admin role."
      },
      "supportsInterface(bytes4)": {
        "details": "See {IERC165-supportsInterface}."
      },
      "symbol()": {
        "details": "Returns the symbol of the token, usually a shorter version of the name."
      },
      "totalSupply()": {
        "details": "See {IERC20-totalSupply}."
      },
      "transfer(address,uint256)": {
        "details": "See {IERC20-transfer}. Requirements: - `recipient` cannot be the zero address. - the caller must have a balance of at least `amount`."
      },
      "transferFrom(address,address,uint256)": {
        "details": "See {IERC20-transferFrom}. Emits an {Approval} event indicating the updated allowance. This is not required by the EIP. See the note at the beginning of {ERC20}. Requirements: - `sender` and `recipient` cannot be the zero address. - `sender` must have a balance of at least `amount`. - the caller must have allowance for ``sender``'s tokens of at least `amount`."
      },
      "transferOwnership(address)": {
        "details": "transfer Ownership",
        "params": {
          "newOwner": "new owner address"
        }
      },
      "verify(address,address,address,uint256,uint256,uint256,bytes32,bytes32,uint8)": {
        "details": "verify the signature",
        "params": {
          "_nounce": "the _nounce",
          "deadline": "the deadline that vaild the owner's signature",
          "owner": "the token's owner",
          "sigR": "the owner's signature - r",
          "sigS": "the owner's signature - s",
          "sigV": "the owner's signature - v",
          "signer": "the signer address",
          "spender": "the account that spend owner's token",
          "value": "the amount to be approve to spend"
        }
      }
    },
    "stateVariables": {
      "PERMIT_TYPEHASH": {
        "details": "Value is equal to keccak256(\"Permit(address owner,address spender,uint256 value,uint256 nonce,uint256 deadline)\");"
      },
      "nameHash": {
        "details": "The hash of the name used in the permit signature verification"
      },
      "versionHash": {
        "details": "The hash of the version string used in the permit signature verification"
      }
    },
    "title": "the platform token. TOS token",
    "version": 1
  },
  "userdoc": {
    "kind": "user",
    "methods": {},
    "version": 1
  }
}