{
  "contractName": "VaultClaimStorage",
  "abi": [
    {
      "inputs": [
        {
          "internalType": "uint256",
          "name": "",
          "type": "uint256"
        }
      ],
      "name": "claimedTimesOfRoundByCliamer",
      "outputs": [
        {
          "internalType": "uint256",
          "name": "",
          "type": "uint256"
        }
      ],
      "stateMutability": "view",
      "type": "function"
    },
    {
      "inputs": [],
      "name": "claimer",
      "outputs": [
        {
          "internalType": "address",
          "name": "",
          "type": "address"
        }
      ],
      "stateMutability": "view",
      "type": "function"
    },
    {
      "inputs": [],
      "name": "lastClaimedRound",
      "outputs": [
        {
          "internalType": "uint256",
          "name": "",
          "type": "uint256"
        }
      ],
      "stateMutability": "view",
      "type": "function"
    },
    {
      "inputs": [],
      "name": "oneClaimAmountByClaimer",
      "outputs": [
        {
          "internalType": "uint256",
          "name": "",
          "type": "uint256"
        }
      ],
      "stateMutability": "view",
      "type": "function"
    },
    {
      "inputs": [],
      "name": "startedByClaimer",
      "outputs": [
        {
          "internalType": "bool",
          "name": "",
          "type": "bool"
        }
      ],
      "stateMutability": "view",
      "type": "function"
    },
    {
      "inputs": [],
      "name": "totalClaimedCountByClaimer",
      "outputs": [
        {
          "internalType": "uint256",
          "name": "",
          "type": "uint256"
        }
      ],
      "stateMutability": "view",
      "type": "function"
    }
  ],
  "bytecode": "0x608060405234801561001057600080fd5b506102df806100206000396000f3fe608060405234801561001057600080fd5b50600436106100625760003560e01c806335e8bcd2146100675780633e59df351461008557806385d0a815146100a3578063d379be23146100d3578063e63e18a8146100f1578063f64f4a391461010f575b600080fd5b61006f61012d565b60405161007c919061022f565b60405180910390f35b61008d610133565b60405161009a919061022f565b60405180910390f35b6100bd60048036038101906100b891906101a3565b610139565b6040516100ca919061022f565b60405180910390f35b6100db610151565b6040516100e891906101f9565b60405180910390f35b6100f9610175565b604051610106919061022f565b60405180910390f35b61011761017b565b6040516101249190610214565b60405180910390f35b60025481565b60015481565b60046020528060005260406000206000915090505481565b60008054906101000a900473ffffffffffffffffffffffffffffffffffffffff1681565b60035481565b600560009054906101000a900460ff1681565b60008135905061019d81610292565b92915050565b6000602082840312156101b557600080fd5b60006101c38482850161018e565b91505092915050565b6101d58161024a565b82525050565b6101e48161025c565b82525050565b6101f381610288565b82525050565b600060208201905061020e60008301846101cc565b92915050565b600060208201905061022960008301846101db565b92915050565b600060208201905061024460008301846101ea565b92915050565b600061025582610268565b9050919050565b60008115159050919050565b600073ffffffffffffffffffffffffffffffffffffffff82169050919050565b6000819050919050565b61029b81610288565b81146102a657600080fd5b5056fea2646970667358221220d0c78343a9586230df3954c7fe31995d89a7cdf6d9306653da2d78705971ecde64736f6c63430008040033",
  "immutableReferences": {},
  "source": "//SPDX-License-Identifier: Unlicense\npragma solidity ^0.8.4;\n\nimport \"../libraries/ClaimVaultLib.sol\";\n\ncontract VaultClaimStorage {\n    address public claimer;\n\n    uint256 public lastClaimedRound;\n\n    // for claimer\n    uint256 public oneClaimAmountByClaimer;\n    uint256 public totalClaimedCountByClaimer;\n\n    // round = time\n    mapping(uint256 => uint256) public claimedTimesOfRoundByCliamer;\n    bool public startedByClaimer;\n}\n",
  "sourcePath": "/Users/zena/tonstarter/tonstarter-token-distribution/contracts/vaults/VaultClaimStorage.sol",
  "compiler": {
    "name": "solc",
    "version": "0.8.4+commit.c7e474f2.Emscripten.clang"
  },
  "schemaVersion": "3.4.4",
  "updatedAt": "2023-11-27T04:24:13.039Z",
  "devdoc": {
    "kind": "dev",
    "methods": {},
    "version": 1
  },
  "userdoc": {
    "kind": "user",
    "methods": {},
    "version": 1
  }
}