{
  "contractName": "VaultWhitelistStorage",
  "abi": [
    {
      "inputs": [],
      "name": "allocatedAmountForRound",
      "outputs": [
        {
          "internalType": "uint256",
          "name": "",
          "type": "uint256"
        }
      ],
      "stateMutability": "view",
      "type": "function"
    },
    {
      "inputs": [],
      "name": "lastClaimedRound",
      "outputs": [
        {
          "internalType": "uint256",
          "name": "",
          "type": "uint256"
        }
      ],
      "stateMutability": "view",
      "type": "function"
    }
  ],
  "bytecode": "0x608060405234801561001057600080fd5b5060dd8061001f6000396000f3fe6080604052348015600f57600080fd5b506004361060325760003560e01c80633e59df351460375780634117cfb7146051575b600080fd5b603d606b565b604051604891906084565b60405180910390f35b60576071565b604051606291906084565b60405180910390f35b60015481565b60005481565b607e81609d565b82525050565b6000602082019050609760008301846077565b92915050565b600081905091905056fea264697066735822122012772f8227c6220c04877bfe06da84c0f1e50e59adaa6e29d31e1db09ca834be64736f6c63430008040033",
  "immutableReferences": {},
  "source": "//SPDX-License-Identifier: Unlicense\npragma solidity ^0.8.4;\n\ncontract VaultWhitelistStorage {\n\n    uint256 public allocatedAmountForRound;\n    uint256 public lastClaimedRound;\n}",
  "sourcePath": "/Users/zena/tonstarter/tonstarter-token-distribution/contracts/vaults/VaultWhitelistStorage.sol",
  "compiler": {
    "name": "solc",
    "version": "0.8.4+commit.c7e474f2.Emscripten.clang"
  },
  "schemaVersion": "3.4.4",
  "updatedAt": "2023-11-27T04:24:13.042Z",
  "devdoc": {
    "kind": "dev",
    "methods": {},
    "version": 1
  },
  "userdoc": {
    "kind": "user",
    "methods": {},
    "version": 1
  }
}