{
  "contractName": "WhitelistVault",
  "abi": [
    {
      "inputs": [
        {
          "internalType": "string",
          "name": "_name",
          "type": "string"
        },
        {
          "internalType": "address",
          "name": "_tos",
          "type": "address"
        },
        {
          "internalType": "uint256",
          "name": "_inputMaxOnce",
          "type": "uint256"
        }
      ],
      "stateMutability": "nonpayable",
      "type": "constructor"
    },
    {
      "anonymous": false,
      "inputs": [
        {
          "indexed": false,
          "internalType": "uint256",
          "name": "round",
          "type": "uint256"
        },
        {
          "indexed": false,
          "internalType": "address[]",
          "name": "users",
          "type": "address[]"
        }
      ],
      "name": "AddedWhitelist",
      "type": "event"
    },
    {
      "anonymous": false,
      "inputs": [
        {
          "indexed": false,
          "internalType": "uint256",
          "name": "round",
          "type": "uint256"
        },
        {
          "indexed": false,
          "internalType": "uint256",
          "name": "amount",
          "type": "uint256"
        }
      ],
      "name": "AllocatedAmount",
      "type": "event"
    },
    {
      "anonymous": false,
      "inputs": [
        {
          "indexed": true,
          "internalType": "address",
          "name": "caller",
          "type": "address"
        },
        {
          "indexed": false,
          "internalType": "uint256",
          "name": "amount",
          "type": "uint256"
        },
        {
          "indexed": false,
          "internalType": "uint256",
          "name": "totalClaimedAmount",
          "type": "uint256"
        }
      ],
      "name": "Claimed",
      "type": "event"
    },
    {
      "anonymous": false,
      "inputs": [
        {
          "indexed": true,
          "internalType": "bytes32",
          "name": "role",
          "type": "bytes32"
        },
        {
          "indexed": true,
          "internalType": "bytes32",
          "name": "previousAdminRole",
          "type": "bytes32"
        },
        {
          "indexed": true,
          "internalType": "bytes32",
          "name": "newAdminRole",
          "type": "bytes32"
        }
      ],
      "name": "RoleAdminChanged",
      "type": "event"
    },
    {
      "anonymous": false,
      "inputs": [
        {
          "indexed": true,
          "internalType": "bytes32",
          "name": "role",
          "type": "bytes32"
        },
        {
          "indexed": true,
          "internalType": "address",
          "name": "account",
          "type": "address"
        },
        {
          "indexed": true,
          "internalType": "address",
          "name": "sender",
          "type": "address"
        }
      ],
      "name": "RoleGranted",
      "type": "event"
    },
    {
      "anonymous": false,
      "inputs": [
        {
          "indexed": true,
          "internalType": "bytes32",
          "name": "role",
          "type": "bytes32"
        },
        {
          "indexed": true,
          "internalType": "address",
          "name": "account",
          "type": "address"
        },
        {
          "indexed": true,
          "internalType": "address",
          "name": "sender",
          "type": "address"
        }
      ],
      "name": "RoleRevoked",
      "type": "event"
    },
    {
      "anonymous": false,
      "inputs": [
        {
          "indexed": false,
          "internalType": "address",
          "name": "newClaimer",
          "type": "address"
        }
      ],
      "name": "SetNewClaimer",
      "type": "event"
    },
    {
      "anonymous": false,
      "inputs": [],
      "name": "Started",
      "type": "event"
    },
    {
      "anonymous": false,
      "inputs": [
        {
          "indexed": false,
          "internalType": "uint256",
          "name": "round",
          "type": "uint256"
        }
      ],
      "name": "StartedRound",
      "type": "event"
    },
    {
      "anonymous": false,
      "inputs": [
        {
          "indexed": true,
          "internalType": "address",
          "name": "caller",
          "type": "address"
        },
        {
          "indexed": false,
          "internalType": "uint256",
          "name": "amount",
          "type": "uint256"
        }
      ],
      "name": "Withdrawal",
      "type": "event"
    },
    {
      "inputs": [],
      "name": "ADMIN_ROLE",
      "outputs": [
        {
          "internalType": "bytes32",
          "name": "",
          "type": "bytes32"
        }
      ],
      "stateMutability": "view",
      "type": "function"
    },
    {
      "inputs": [],
      "name": "BURNER_ROLE",
      "outputs": [
        {
          "internalType": "bytes32",
          "name": "",
          "type": "bytes32"
        }
      ],
      "stateMutability": "view",
      "type": "function"
    },
    {
      "inputs": [],
      "name": "DEFAULT_ADMIN_ROLE",
      "outputs": [
        {
          "internalType": "bytes32",
          "name": "",
          "type": "bytes32"
        }
      ],
      "stateMutability": "view",
      "type": "function"
    },
    {
      "inputs": [],
      "name": "MINTER_ROLE",
      "outputs": [
        {
          "internalType": "bytes32",
          "name": "",
          "type": "bytes32"
        }
      ],
      "stateMutability": "view",
      "type": "function"
    },
    {
      "inputs": [
        {
          "internalType": "address",
          "name": "account",
          "type": "address"
        }
      ],
      "name": "addAdmin",
      "outputs": [],
      "stateMutability": "nonpayable",
      "type": "function"
    },
    {
      "inputs": [
        {
          "internalType": "uint256",
          "name": "round",
          "type": "uint256"
        },
        {
          "internalType": "address[]",
          "name": "users",
          "type": "address[]"
        }
      ],
      "name": "addWhitelist",
      "outputs": [],
      "stateMutability": "nonpayable",
      "type": "function"
    },
    {
      "inputs": [],
      "name": "allocatedAmountForRound",
      "outputs": [
        {
          "internalType": "uint256",
          "name": "",
          "type": "uint256"
        }
      ],
      "stateMutability": "view",
      "type": "function"
    },
    {
      "inputs": [],
      "name": "availableWithdrawAmount",
      "outputs": [
        {
          "internalType": "uint256",
          "name": "amount",
          "type": "uint256"
        }
      ],
      "stateMutability": "view",
      "type": "function"
    },
    {
      "inputs": [],
      "name": "currentRound",
      "outputs": [
        {
          "internalType": "uint256",
          "name": "round",
          "type": "uint256"
        }
      ],
      "stateMutability": "view",
      "type": "function"
    },
    {
      "inputs": [],
      "name": "endTime",
      "outputs": [
        {
          "internalType": "uint256",
          "name": "",
          "type": "uint256"
        }
      ],
      "stateMutability": "view",
      "type": "function"
    },
    {
      "inputs": [
        {
          "internalType": "bytes32",
          "name": "role",
          "type": "bytes32"
        }
      ],
      "name": "getRoleAdmin",
      "outputs": [
        {
          "internalType": "bytes32",
          "name": "",
          "type": "bytes32"
        }
      ],
      "stateMutability": "view",
      "type": "function"
    },
    {
      "inputs": [
        {
          "internalType": "uint256",
          "name": "round",
          "type": "uint256"
        }
      ],
      "name": "getTgeInfos",
      "outputs": [
        {
          "internalType": "bool",
          "name": "allocated",
          "type": "bool"
        },
        {
          "internalType": "bool",
          "name": "started",
          "type": "bool"
        },
        {
          "internalType": "uint256",
          "name": "allocatedAmount",
          "type": "uint256"
        },
        {
          "internalType": "uint256",
          "name": "claimedCount",
          "type": "uint256"
        },
        {
          "internalType": "uint256",
          "name": "amount",
          "type": "uint256"
        },
        {
          "internalType": "address[]",
          "name": "whitelist",
          "type": "address[]"
        }
      ],
      "stateMutability": "view",
      "type": "function"
    },
    {
      "inputs": [
        {
          "internalType": "uint256",
          "name": "round",
          "type": "uint256"
        },
        {
          "internalType": "address",
          "name": "user",
          "type": "address"
        }
      ],
      "name": "getWhitelistInfo",
      "outputs": [
        {
          "internalType": "bool",
          "name": "joined",
          "type": "bool"
        },
        {
          "internalType": "uint256",
          "name": "claimedTime",
          "type": "uint256"
        }
      ],
      "stateMutability": "view",
      "type": "function"
    },
    {
      "inputs": [
        {
          "internalType": "bytes32",
          "name": "role",
          "type": "bytes32"
        },
        {
          "internalType": "address",
          "name": "account",
          "type": "address"
        }
      ],
      "name": "grantRole",
      "outputs": [],
      "stateMutability": "nonpayable",
      "type": "function"
    },
    {
      "inputs": [
        {
          "internalType": "bytes32",
          "name": "role",
          "type": "bytes32"
        },
        {
          "internalType": "address",
          "name": "account",
          "type": "address"
        }
      ],
      "name": "hasRole",
      "outputs": [
        {
          "internalType": "bool",
          "name": "",
          "type": "bool"
        }
      ],
      "stateMutability": "view",
      "type": "function"
    },
    {
      "inputs": [
        {
          "internalType": "uint256",
          "name": "_totalAllocatedAmount",
          "type": "uint256"
        },
        {
          "internalType": "uint256",
          "name": "_totalClaims",
          "type": "uint256"
        },
        {
          "internalType": "uint256",
          "name": "_totalTgeCount",
          "type": "uint256"
        },
        {
          "internalType": "uint256",
          "name": "_startTime",
          "type": "uint256"
        },
        {
          "internalType": "uint256",
          "name": "_periodTimesPerClaim",
          "type": "uint256"
        }
      ],
      "name": "initializeBase",
      "outputs": [],
      "stateMutability": "nonpayable",
      "type": "function"
    },
    {
      "inputs": [
        {
          "internalType": "address",
          "name": "account",
          "type": "address"
        }
      ],
      "name": "isAdmin",
      "outputs": [
        {
          "internalType": "bool",
          "name": "",
          "type": "bool"
        }
      ],
      "stateMutability": "view",
      "type": "function"
    },
    {
      "inputs": [],
      "name": "lastClaimedRound",
      "outputs": [
        {
          "internalType": "uint256",
          "name": "",
          "type": "uint256"
        }
      ],
      "stateMutability": "view",
      "type": "function"
    },
    {
      "inputs": [],
      "name": "maxInputOnceTime",
      "outputs": [
        {
          "internalType": "uint256",
          "name": "",
          "type": "uint256"
        }
      ],
      "stateMutability": "view",
      "type": "function"
    },
    {
      "inputs": [],
      "name": "name",
      "outputs": [
        {
          "internalType": "string",
          "name": "",
          "type": "string"
        }
      ],
      "stateMutability": "view",
      "type": "function"
    },
    {
      "inputs": [],
      "name": "periodTimesPerClaim",
      "outputs": [
        {
          "internalType": "uint256",
          "name": "",
          "type": "uint256"
        }
      ],
      "stateMutability": "view",
      "type": "function"
    },
    {
      "inputs": [
        {
          "internalType": "address",
          "name": "account",
          "type": "address"
        }
      ],
      "name": "removeAdmin",
      "outputs": [],
      "stateMutability": "nonpayable",
      "type": "function"
    },
    {
      "inputs": [
        {
          "internalType": "bytes32",
          "name": "role",
          "type": "bytes32"
        },
        {
          "internalType": "address",
          "name": "account",
          "type": "address"
        }
      ],
      "name": "renounceRole",
      "outputs": [],
      "stateMutability": "nonpayable",
      "type": "function"
    },
    {
      "inputs": [
        {
          "internalType": "bytes32",
          "name": "role",
          "type": "bytes32"
        },
        {
          "internalType": "address",
          "name": "account",
          "type": "address"
        }
      ],
      "name": "revokeRole",
      "outputs": [],
      "stateMutability": "nonpayable",
      "type": "function"
    },
    {
      "inputs": [
        {
          "internalType": "uint256",
          "name": "_maxInputOnceTime",
          "type": "uint256"
        }
      ],
      "name": "setMaxInputOnceTimeWhitelist",
      "outputs": [],
      "stateMutability": "nonpayable",
      "type": "function"
    },
    {
      "inputs": [],
      "name": "startTime",
      "outputs": [
        {
          "internalType": "uint256",
          "name": "",
          "type": "uint256"
        }
      ],
      "stateMutability": "view",
      "type": "function"
    },
    {
      "inputs": [
        {
          "internalType": "bytes4",
          "name": "interfaceId",
          "type": "bytes4"
        }
      ],
      "name": "supportsInterface",
      "outputs": [
        {
          "internalType": "bool",
          "name": "",
          "type": "bool"
        }
      ],
      "stateMutability": "view",
      "type": "function"
    },
    {
      "inputs": [
        {
          "internalType": "uint256",
          "name": "",
          "type": "uint256"
        }
      ],
      "name": "tgeInfos",
      "outputs": [
        {
          "internalType": "bool",
          "name": "allocated",
          "type": "bool"
        },
        {
          "internalType": "bool",
          "name": "started",
          "type": "bool"
        },
        {
          "internalType": "uint256",
          "name": "allocatedAmount",
          "type": "uint256"
        },
        {
          "internalType": "uint256",
          "name": "claimedCount",
          "type": "uint256"
        },
        {
          "internalType": "uint256",
          "name": "amount",
          "type": "uint256"
        }
      ],
      "stateMutability": "view",
      "type": "function"
    },
    {
      "inputs": [],
      "name": "tos",
      "outputs": [
        {
          "internalType": "address",
          "name": "",
          "type": "address"
        }
      ],
      "stateMutability": "view",
      "type": "function"
    },
    {
      "inputs": [],
      "name": "totalAllocatedAmount",
      "outputs": [
        {
          "internalType": "uint256",
          "name": "",
          "type": "uint256"
        }
      ],
      "stateMutability": "view",
      "type": "function"
    },
    {
      "inputs": [],
      "name": "totalClaimedAmount",
      "outputs": [
        {
          "internalType": "uint256",
          "name": "",
          "type": "uint256"
        }
      ],
      "stateMutability": "view",
      "type": "function"
    },
    {
      "inputs": [],
      "name": "totalClaims",
      "outputs": [
        {
          "internalType": "uint256",
          "name": "",
          "type": "uint256"
        }
      ],
      "stateMutability": "view",
      "type": "function"
    },
    {
      "inputs": [],
      "name": "totalTgeAmount",
      "outputs": [
        {
          "internalType": "uint256",
          "name": "",
          "type": "uint256"
        }
      ],
      "stateMutability": "view",
      "type": "function"
    },
    {
      "inputs": [],
      "name": "totalTgeCount",
      "outputs": [
        {
          "internalType": "uint256",
          "name": "",
          "type": "uint256"
        }
      ],
      "stateMutability": "view",
      "type": "function"
    },
    {
      "inputs": [
        {
          "internalType": "uint256",
          "name": "round",
          "type": "uint256"
        }
      ],
      "name": "totalWhitelist",
      "outputs": [
        {
          "internalType": "uint256",
          "name": "total",
          "type": "uint256"
        }
      ],
      "stateMutability": "view",
      "type": "function"
    },
    {
      "inputs": [
        {
          "internalType": "address",
          "name": "newAdmin",
          "type": "address"
        }
      ],
      "name": "transferAdmin",
      "outputs": [],
      "stateMutability": "nonpayable",
      "type": "function"
    },
    {
      "inputs": [
        {
          "internalType": "address",
          "name": "",
          "type": "address"
        }
      ],
      "name": "userClaimedAmount",
      "outputs": [
        {
          "internalType": "uint256",
          "name": "",
          "type": "uint256"
        }
      ],
      "stateMutability": "view",
      "type": "function"
    },
    {
      "inputs": [
        {
          "internalType": "address",
          "name": "to",
          "type": "address"
        }
      ],
      "name": "withdraw",
      "outputs": [],
      "stateMutability": "nonpayable",
      "type": "function"
    },
    {
      "stateMutability": "payable",
      "type": "receive"
    },
    {
      "inputs": [
        {
          "internalType": "uint256",
          "name": "_totalAllocatedAmount",
          "type": "uint256"
        },
        {
          "internalType": "uint256",
          "name": "_totalTgeCount",
          "type": "uint256"
        },
        {
          "internalType": "uint256",
          "name": "_startTime",
          "type": "uint256"
        },
        {
          "internalType": "uint256",
          "name": "_periodTimesPerClaim",
          "type": "uint256"
        }
      ],
      "name": "initialize",
      "outputs": [],
      "stateMutability": "nonpayable",
      "type": "function"
    },
    {
      "inputs": [
        {
          "internalType": "uint256",
          "name": "amount",
          "type": "uint256"
        }
      ],
      "name": "allocateAmountTGE",
      "outputs": [],
      "stateMutability": "nonpayable",
      "type": "function"
    },
    {
      "inputs": [],
      "name": "startRound",
      "outputs": [],
      "stateMutability": "nonpayable",
      "type": "function"
    },
    {
      "inputs": [
        {
          "internalType": "uint256",
          "name": "round",
          "type": "uint256"
        }
      ],
      "name": "startRoundTime",
      "outputs": [
        {
          "internalType": "uint256",
          "name": "start",
          "type": "uint256"
        }
      ],
      "stateMutability": "view",
      "type": "function"
    },
    {
      "inputs": [
        {
          "internalType": "address",
          "name": "_user",
          "type": "address"
        }
      ],
      "name": "unclaimedInfos",
      "outputs": [
        {
          "internalType": "uint256",
          "name": "count",
          "type": "uint256"
        },
        {
          "internalType": "uint256",
          "name": "amount",
          "type": "uint256"
        }
      ],
      "stateMutability": "view",
      "type": "function"
    },
    {
      "inputs": [
        {
          "internalType": "address",
          "name": "_user",
          "type": "address"
        }
      ],
      "name": "unclaimedInfosDetails",
      "outputs": [
        {
          "internalType": "uint256[]",
          "name": "_rounds",
          "type": "uint256[]"
        },
        {
          "internalType": "uint256[]",
          "name": "_amounts",
          "type": "uint256[]"
        }
      ],
      "stateMutability": "view",
      "type": "function"
    },
    {
      "inputs": [],
      "name": "claim",
      "outputs": [],
      "stateMutability": "nonpayable",
      "type": "function"
    }
  ],
  "bytecode": "0x60806040523480156200001157600080fd5b50604051620057773803806200577783398181016040528101906200003791906200044e565b82600190805190602001906200004f929190620002fe565b5081600260006101000a81548173ffffffffffffffffffffffffffffffffffffffff021916908373ffffffffffffffffffffffffffffffffffffffff16021790555080600081905550620000ca7fdf8b4c520ffe197c5343c6f5aec59570151ef9a492f2c624fd45ddde6135ec42806200010560201b60201c565b620000fc7fdf8b4c520ffe197c5343c6f5aec59570151ef9a492f2c624fd45ddde6135ec42336200016360201b60201c565b5050506200069f565b8062000117836200017960201b60201c565b837fbd79b86ffe0ab8e8776151514217cd7cacd52c909f66475c3af44e129f0b00ff60405160405180910390a480600d6000848152602001908152602001600020600101819055505050565b6200017582826200019960201b60201c565b5050565b6000600d6000838152602001908152602001600020600101549050919050565b620001ab82826200028b60201b60201c565b62000287576001600d600084815260200190815260200160002060000160008373ffffffffffffffffffffffffffffffffffffffff1673ffffffffffffffffffffffffffffffffffffffff16815260200190815260200160002060006101000a81548160ff0219169083151502179055506200022c620002f660201b60201c565b73ffffffffffffffffffffffffffffffffffffffff168173ffffffffffffffffffffffffffffffffffffffff16837f2f8788117e7eff1d82e926ec794901d17c78024a50270940304540a733656f0d60405160405180910390a45b5050565b6000600d600084815260200190815260200160002060000160008373ffffffffffffffffffffffffffffffffffffffff1673ffffffffffffffffffffffffffffffffffffffff16815260200190815260200160002060009054906101000a900460ff16905092915050565b600033905090565b8280546200030c9062000590565b90600052602060002090601f0160209004810192826200033057600085556200037c565b82601f106200034b57805160ff19168380011785556200037c565b828001600101855582156200037c579182015b828111156200037b5782518255916020019190600101906200035e565b5b5090506200038b91906200038f565b5090565b5b80821115620003aa57600081600090555060010162000390565b5090565b6000620003c5620003bf84620004e6565b620004bd565b905082815260208101848484011115620003de57600080fd5b620003eb8482856200055a565b509392505050565b60008151905062000404816200066b565b92915050565b600082601f8301126200041c57600080fd5b81516200042e848260208601620003ae565b91505092915050565b600081519050620004488162000685565b92915050565b6000806000606084860312156200046457600080fd5b600084015167ffffffffffffffff8111156200047f57600080fd5b6200048d868287016200040a565b9350506020620004a086828701620003f3565b9250506040620004b38682870162000437565b9150509250925092565b6000620004c9620004dc565b9050620004d78282620005c6565b919050565b6000604051905090565b600067ffffffffffffffff8211156200050457620005036200062b565b5b6200050f826200065a565b9050602081019050919050565b6000620005298262000530565b9050919050565b600073ffffffffffffffffffffffffffffffffffffffff82169050919050565b6000819050919050565b60005b838110156200057a5780820151818401526020810190506200055d565b838111156200058a576000848401525b50505050565b60006002820490506001821680620005a957607f821691505b60208210811415620005c057620005bf620005fc565b5b50919050565b620005d1826200065a565b810181811067ffffffffffffffff82111715620005f357620005f26200062b565b5b80604052505050565b7f4e487b7100000000000000000000000000000000000000000000000000000000600052602260045260246000fd5b7f4e487b7100000000000000000000000000000000000000000000000000000000600052604160045260246000fd5b6000601f19601f8301169050919050565b62000676816200051c565b81146200068257600080fd5b50565b620006908162000550565b81146200069c57600080fd5b50565b6150c880620006af6000396000f3fe6080604052600436106102765760003560e01c806360a2da441161014f5780638aa1e44e116100c1578063cb1b782f1161007a578063cb1b782f146109ca578063d539139314610a08578063d547741f14610a33578063d81fb38714610a5c578063d993471914610a85578063dded147814610ab0576102b6565b80638aa1e44e146108a85780638fcb7d8c146108d157806391d148541461090e5780639661cb0d1461094b578063a217fddf14610976578063ab4eb57e146109a1576102b6565b806375b238fc1161011357806375b238fc146107a857806378e97925146107d3578063814f26fc146107fe578063875d741d1461082957806389f395de146108525780638a19c8bc1461087d576102b6565b806360a2da44146106c557806361202e3b146106ee5780637048027514610719578063717048ec1461074257806375829def1461077f576102b6565b806336568abe116101e85780634e71d92d116101ac5780634e71d92d146105d6578063517da719146105ed57806351cff8d91461062f578063556400081461065857806355e3f086146106835780635913ec191461069a576102b6565b806336568abe146105015780633e59df351461052a5780633ef1a1aa146105555780634117cfb71461058057806341c61383146105ab576102b6565b8063248a9ca31161023a578063248a9ca3146103cb57806324d7806c14610408578063282c51f3146104455780632f2ff15d146104705780632f926723146104995780633197cbb6146104d6576102b6565b806301ffc9a7146102bb57806306fdde03146102f8578063166cf32c146103235780631785f53c146103645780631925b54b1461038d576102b6565b366102b6576040517f08c379a00000000000000000000000000000000000000000000000000000000081526004016102ad906143a9565b60405180910390fd5b600080fd5b3480156102c757600080fd5b506102e260048036038101906102dd91906137e8565b610aee565b6040516102ef91906140ad565b60405180910390f35b34801561030457600080fd5b5061030d610b68565b60405161031a91906141c7565b60405180910390f35b34801561032f57600080fd5b5061034a60048036038101906103459190613811565b610bf6565b60405161035b9594939291906140c8565b60405180910390f35b34801561037057600080fd5b5061038b60048036038101906103869190613731565b610c46565b005b34801561039957600080fd5b506103b460048036038101906103af9190613731565b610cbb565b6040516103c2929190614076565b60405180910390f35b3480156103d757600080fd5b506103f260048036038101906103ed9190613783565b610f87565b6040516103ff91906141ac565b60405180910390f35b34801561041457600080fd5b5061042f600480360381019061042a9190613731565b610fa7565b60405161043c91906140ad565b60405180910390f35b34801561045157600080fd5b5061045a610fda565b60405161046791906141ac565b60405180910390f35b34801561047c57600080fd5b50610497600480360381019061049291906137ac565b610ffe565b005b3480156104a557600080fd5b506104c060048036038101906104bb9190613731565b611027565b6040516104cd9190614569565b60405180910390f35b3480156104e257600080fd5b506104eb61103f565b6040516104f89190614569565b60405180910390f35b34801561050d57600080fd5b50610528600480360381019061052391906137ac565b611045565b005b34801561053657600080fd5b5061053f6110c8565b60405161054c9190614569565b60405180910390f35b34801561056157600080fd5b5061056a6110ce565b6040516105779190614569565b60405180910390f35b34801561058c57600080fd5b506105956110d4565b6040516105a29190614569565b60405180910390f35b3480156105b757600080fd5b506105c06110da565b6040516105cd9190614569565b60405180910390f35b3480156105e257600080fd5b506105eb6110e0565b005b3480156105f957600080fd5b50610614600480360381019061060f9190613811565b6114a1565b6040516106269695949392919061411b565b60405180910390f35b34801561063b57600080fd5b5061065660048036038101906106519190613731565b611623565b005b34801561066457600080fd5b5061066d61186c565b60405161067a9190614569565b60405180910390f35b34801561068f57600080fd5b50610698611872565b005b3480156106a657600080fd5b506106af611afc565b6040516106bc9190614569565b60405180910390f35b3480156106d157600080fd5b506106ec60048036038101906106e791906138f7565b611b02565b005b3480156106fa57600080fd5b50610703611b5d565b6040516107109190614569565b60405180910390f35b34801561072557600080fd5b50610740600480360381019061073b9190613731565b611c77565b005b34801561074e57600080fd5b5061076960048036038101906107649190613811565b611cec565b6040516107769190614569565b60405180910390f35b34801561078b57600080fd5b506107a660048036038101906107a19190613731565b611da1565b005b3480156107b457600080fd5b506107bd611f1f565b6040516107ca91906141ac565b60405180910390f35b3480156107df57600080fd5b506107e8611f43565b6040516107f59190614569565b60405180910390f35b34801561080a57600080fd5b50610813611f49565b6040516108209190614569565b60405180910390f35b34801561083557600080fd5b50610850600480360381019061084b9190613811565b611f4f565b005b34801561085e57600080fd5b5061086761202f565b6040516108749190614032565b60405180910390f35b34801561088957600080fd5b50610892612055565b60405161089f9190614569565b60405180910390f35b3480156108b457600080fd5b506108cf60048036038101906108ca919061389f565b612099565b005b3480156108dd57600080fd5b506108f860048036038101906108f39190613811565b612517565b6040516109059190614569565b60405180910390f35b34801561091a57600080fd5b50610935600480360381019061093091906137ac565b61255e565b60405161094291906140ad565b60405180910390f35b34801561095757600080fd5b506109606125c9565b60405161096d9190614569565b60405180910390f35b34801561098257600080fd5b5061098b6125cf565b60405161099891906141ac565b60405180910390f35b3480156109ad57600080fd5b506109c860048036038101906109c3919061395a565b6125d6565b005b3480156109d657600080fd5b506109f160048036038101906109ec9190613863565b6128ab565b6040516109ff929190614183565b60405180910390f35b348015610a1457600080fd5b50610a1d612a52565b604051610a2a91906141ac565b60405180910390f35b348015610a3f57600080fd5b50610a5a6004803603810190610a5591906137ac565b612a76565b005b348015610a6857600080fd5b50610a836004803603810190610a7e9190613811565b612a9f565b005b348015610a9157600080fd5b50610a9a612cf2565b604051610aa79190614569565b60405180910390f35b348015610abc57600080fd5b50610ad76004803603810190610ad29190613731565b612cf8565b604051610ae59291906145b6565b60405180910390f35b60007f7965db0b000000000000000000000000000000000000000000000000000000007bffffffffffffffffffffffffffffffffffffffffffffffffffffffff1916827bffffffffffffffffffffffffffffffffffffffffffffffffffffffff19161480610b615750610b6082612e44565b5b9050919050565b60018054610b7590614896565b80601f0160208091040260200160405190810160405280929190818152602001828054610ba190614896565b8015610bee5780601f10610bc357610100808354040283529160200191610bee565b820191906000526020600020905b815481529060010190602001808311610bd157829003601f168201915b505050505081565b600b6020528060005260406000206000915090508060000160009054906101000a900460ff16908060000160019054906101000a900460ff16908060010154908060020154908060030154905085565b610c4f33610fa7565b610c8e576040517f08c379a0000000000000000000000000000000000000000000000000000000008152600401610c8590614249565b60405180910390fd5b610cb87fdf8b4c520ffe197c5343c6f5aec59570151ef9a492f2c624fd45ddde6135ec4282611045565b50565b6060806000610cc984612cf8565b50905060008167ffffffffffffffff811115610d0e577f4e487b7100000000000000000000000000000000000000000000000000000000600052604160045260246000fd5b604051908082528060200260200182016040528015610d3c5781602001602082028036833780820191505090505b50905060008267ffffffffffffffff811115610d81577f4e487b7100000000000000000000000000000000000000000000000000000000600052604160045260246000fd5b604051908082528060200260200182016040528015610daf5781602001602082028036833780820191505090505b5090506000831115610f79576000600554421115610f77576000610dd1612055565b90506000600190505b818111610f7457808210610f61576000600b600083815260200190815260200160002090508060000160019054906101000a900460ff168015610e6b57508060050160008b73ffffffffffffffffffffffffffffffffffffffff1673ffffffffffffffffffffffffffffffffffffffff16815260200190815260200160002060000160009054906101000a900460ff165b8015610ebb575060008160050160008c73ffffffffffffffffffffffffffffffffffffffff1673ffffffffffffffffffffffffffffffffffffffff16815260200190815260200160002060010154145b15610f5f5781868581518110610efa577f4e487b7100000000000000000000000000000000000000000000000000000000600052603260045260246000fd5b6020026020010181815250508060030154858581518110610f44577f4e487b7100000000000000000000000000000000000000000000000000000000600052603260045260246000fd5b6020026020010181815250508380610f5b906148c8565b9450505b505b8080610f6c906148c8565b915050610dda565b50505b505b818194509450505050915091565b6000600d6000838152602001908152602001600020600101549050919050565b6000610fd37fdf8b4c520ffe197c5343c6f5aec59570151ef9a492f2c624fd45ddde6135ec428361255e565b9050919050565b7f9667e80708b6eeeb0053fa0cca44e028ff548e2a9f029edfeac87c118b08b7c881565b61100782610f87565b61101881611013612eae565b612eb6565b6110228383612f53565b505050565b600c6020528060005260406000206000915090505481565b60065481565b61104d612eae565b73ffffffffffffffffffffffffffffffffffffffff168173ffffffffffffffffffffffffffffffffffffffff16146110ba576040517f08c379a00000000000000000000000000000000000000000000000000000000081526004016110b190614549565b60405180910390fd5b6110c48282613034565b5050565b600f5481565b60005481565b600e5481565b60085481565b60006005544211611126576040517f08c379a000000000000000000000000000000000000000000000000000000000815260040161111d906143e9565b60405180910390fd5b6000611130612055565b90506000600190505b8181116112aa57808210611297576000600b600083815260200190815260200160002090508060000160019054906101000a900460ff1680156111ca57508060050160003373ffffffffffffffffffffffffffffffffffffffff1673ffffffffffffffffffffffffffffffffffffffff16815260200190815260200160002060000160009054906101000a900460ff165b801561121a575060008160050160003373ffffffffffffffffffffffffffffffffffffffff1673ffffffffffffffffffffffffffffffffffffffff16815260200190815260200160002060010154145b1561129557428160050160003373ffffffffffffffffffffffffffffffffffffffff1673ffffffffffffffffffffffffffffffffffffffff1681526020019081526020016000206001018190555080600201600081548092919061127d906148c8565b919050555080600301548461129291906146a6565b93505b505b80806112a2906148c8565b915050611139565b50600082116112ee576040517f08c379a00000000000000000000000000000000000000000000000000000000081526004016112e590614349565b60405180910390fd5b816004600082825461130091906146a6565b9250508190555081600c60003373ffffffffffffffffffffffffffffffffffffffff1673ffffffffffffffffffffffffffffffffffffffff168152602001908152602001600020600082825461135691906146a6565b92505081905550600260009054906101000a900473ffffffffffffffffffffffffffffffffffffffff1673ffffffffffffffffffffffffffffffffffffffff1663a9059cbb33846040518363ffffffff1660e01b81526004016113ba92919061404d565b602060405180830381600087803b1580156113d457600080fd5b505af11580156113e8573d6000803e3d6000fd5b505050506040513d601f19601f8201168201806040525081019061140c919061375a565b61144b576040517f08c379a0000000000000000000000000000000000000000000000000000000008152600401611442906144e9565b60405180910390fd5b3373ffffffffffffffffffffffffffffffffffffffff167f987d620f307ff6b94d58743cb7a7509f24071586a77759b77c2d4e29f75a2f9a836004546040516114959291906145b6565b60405180910390a25050565b6000806000806000606086600081116114ef576040517f08c379a00000000000000000000000000000000000000000000000000000000081526004016114e6906142a9565b60405180910390fd5b87600954811115611535576040517f08c379a000000000000000000000000000000000000000000000000000000000815260040161152c90614529565b60405180910390fd5b6000600b60008b815260200190815260200160002090508060000160009054906101000a900460ff168160000160019054906101000a900460ff16826001015483600201548460030154856004018080548060200260200160405190810160405280929190818152602001828054801561160457602002820191906000526020600020905b8160009054906101000a900473ffffffffffffffffffffffffffffffffffffffff1673ffffffffffffffffffffffffffffffffffffffff16815260200190600101908083116115ba575b5050505050905098509850985098509850985050505091939550919395565b61162c33610fa7565b61166b576040517f08c379a000000000000000000000000000000000000000000000000000000000815260040161166290614249565b60405180910390fd5b80600073ffffffffffffffffffffffffffffffffffffffff168173ffffffffffffffffffffffffffffffffffffffff1614156116dc576040517f08c379a00000000000000000000000000000000000000000000000000000000081526004016116d390614509565b60405180910390fd5b60006116e6611b5d565b90506000811161172b576040517f08c379a0000000000000000000000000000000000000000000000000000000008152600401611722906144c9565b60405180910390fd5b600260009054906101000a900473ffffffffffffffffffffffffffffffffffffffff1673ffffffffffffffffffffffffffffffffffffffff1663a9059cbb84836040518363ffffffff1660e01b815260040161178892919061404d565b602060405180830381600087803b1580156117a257600080fd5b505af11580156117b6573d6000803e3d6000fd5b505050506040513d601f19601f820116820180604052508101906117da919061375a565b611819576040517f08c379a000000000000000000000000000000000000000000000000000000000815260040161181090614309565b60405180910390fd5b3373ffffffffffffffffffffffffffffffffffffffff167f7fcf532c15f0a6db0bd6d0e038bea71d30d808c7d98cb3bf7268a95bf5081b658260405161185f9190614569565b60405180910390a2505050565b60035481565b61187b33610fa7565b6118ba576040517f08c379a00000000000000000000000000000000000000000000000000000000081526004016118b190614249565b60405180910390fd5b60095460008111611900576040517f08c379a00000000000000000000000000000000000000000000000000000000081526004016118f7906142a9565b60405180910390fd5b600061190a612055565b905060008111801561191e57506009548111155b61195d576040517f08c379a000000000000000000000000000000000000000000000000000000000815260040161195490614469565b60405180910390fd5b60018111156119705761196f81613116565b5b6000600b600083815260200190815260200160002090508060000160009054906101000a900460ff1680156119a9575060008160010154115b6119e8576040517f08c379a00000000000000000000000000000000000000000000000000000000081526004016119df906143c9565b60405180910390fd5b8060000160019054906101000a900460ff1615611a3a576040517f08c379a0000000000000000000000000000000000000000000000000000000008152600401611a3190614449565b60405180910390fd5b6000816004018054905011611a84576040517f08c379a0000000000000000000000000000000000000000000000000000000008152600401611a7b906144a9565b60405180910390fd5b60018160000160016101000a81548160ff02191690831515021790555080600401805490508160010154611ab891906146fc565b81600301819055507f0ab582f1afc29efbd503feb5b4a945175eee54010e1be75f88d3e0a865f1631f82604051611aef9190614569565b60405180910390a1505050565b60075481565b611b0b33610fa7565b611b4a576040517f08c379a0000000000000000000000000000000000000000000000000000000008152600401611b4190614249565b60405180910390fd5b611b5784848585856125d6565b50505050565b600080600260009054906101000a900473ffffffffffffffffffffffffffffffffffffffff1673ffffffffffffffffffffffffffffffffffffffff166370a08231306040518263ffffffff1660e01b8152600401611bbb9190614032565b60206040518083038186803b158015611bd357600080fd5b505afa158015611be7573d6000803e3d6000fd5b505050506040513d601f19601f82011682018060405250810190611c0b919061383a565b90506000600454600354611c1f9190614787565b905080821015611c64576040517f08c379a0000000000000000000000000000000000000000000000000000000008152600401611c5b906142c9565b60405180910390fd5b8082611c709190614787565b9250505090565b611c8033610fa7565b611cbf576040517f08c379a0000000000000000000000000000000000000000000000000000000008152600401611cb690614249565b60405180910390fd5b611ce97fdf8b4c520ffe197c5343c6f5aec59570151ef9a492f2c624fd45ddde6135ec4282610ffe565b50565b60008160008111611d32576040517f08c379a0000000000000000000000000000000000000000000000000000000008152600401611d29906142a9565b60405180910390fd5b82600954811115611d78576040517f08c379a0000000000000000000000000000000000000000000000000000000008152600401611d6f90614529565b60405180910390fd5b6000600b6000868152602001908152602001600020905080600401805490509350505050919050565b611daa33610fa7565b611de9576040517f08c379a0000000000000000000000000000000000000000000000000000000008152600401611de090614249565b60405180910390fd5b600073ffffffffffffffffffffffffffffffffffffffff168173ffffffffffffffffffffffffffffffffffffffff161415611e59576040517f08c379a0000000000000000000000000000000000000000000000000000000008152600401611e5090614289565b60405180910390fd5b8073ffffffffffffffffffffffffffffffffffffffff163373ffffffffffffffffffffffffffffffffffffffff161415611ec8576040517f08c379a0000000000000000000000000000000000000000000000000000000008152600401611ebf90614389565b60405180910390fd5b611ef27fdf8b4c520ffe197c5343c6f5aec59570151ef9a492f2c624fd45ddde6135ec4282610ffe565b611f1c7fdf8b4c520ffe197c5343c6f5aec59570151ef9a492f2c624fd45ddde6135ec4233611045565b50565b7fdf8b4c520ffe197c5343c6f5aec59570151ef9a492f2c624fd45ddde6135ec4281565b60055481565b600a5481565b611f5833610fa7565b611f97576040517f08c379a0000000000000000000000000000000000000000000000000000000008152600401611f8e90614249565b60405180910390fd5b8060008111611fdb576040517f08c379a0000000000000000000000000000000000000000000000000000000008152600401611fd2906142a9565b60405180910390fd5b6000548280821415612022576040517f08c379a000000000000000000000000000000000000000000000000000000000815260040161201990614229565b60405180910390fd5b8360008190555050505050565b600260009054906101000a900473ffffffffffffffffffffffffffffffffffffffff1681565b600060055442101561206a5760009050612096565b6007546005544261207b9190614787565b61208591906146fc565b90508080612092906148c8565b9150505b90565b6120a233610fa7565b6120e1576040517f08c379a00000000000000000000000000000000000000000000000000000000081526004016120d890614249565b60405180910390fd5b8260008111612125576040517f08c379a000000000000000000000000000000000000000000000000000000000815260040161211c906142a9565b60405180910390fd5b8360095481111561216b576040517f08c379a000000000000000000000000000000000000000000000000000000000815260040161216290614529565b60405180910390fd5b8383905060008111801561218157506000548111155b6121c0576040517f08c379a00000000000000000000000000000000000000000000000000000000081526004016121b790614409565b60405180910390fd5b6000600b600088815260200190815260200160002090508060000160019054906101000a900460ff1615612229576040517f08c379a000000000000000000000000000000000000000000000000000000000815260040161222090614269565b60405180910390fd5b60005b868690508110156124d257600073ffffffffffffffffffffffffffffffffffffffff16878783818110612288577f4e487b7100000000000000000000000000000000000000000000000000000000600052603260045260246000fd5b905060200201602081019061229d9190613731565b73ffffffffffffffffffffffffffffffffffffffff161415801561235d57508160050160008888848181106122fb577f4e487b7100000000000000000000000000000000000000000000000000000000600052603260045260246000fd5b90506020020160208101906123109190613731565b73ffffffffffffffffffffffffffffffffffffffff1673ffffffffffffffffffffffffffffffffffffffff16815260200190815260200160002060000160009054906101000a900460ff16155b156124bf5760018260050160008989858181106123a3577f4e487b7100000000000000000000000000000000000000000000000000000000600052603260045260246000fd5b90506020020160208101906123b89190613731565b73ffffffffffffffffffffffffffffffffffffffff1673ffffffffffffffffffffffffffffffffffffffff16815260200190815260200160002060000160006101000a81548160ff02191690831515021790555081600401878783818110612449577f4e487b7100000000000000000000000000000000000000000000000000000000600052603260045260246000fd5b905060200201602081019061245e9190613731565b9080600181540180825580915050600190039060005260206000200160009091909190916101000a81548173ffffffffffffffffffffffffffffffffffffffff021916908373ffffffffffffffffffffffffffffffffffffffff1602179055505b80806124ca906148c8565b91505061222c565b507f9c9ea5277c31b2732c1577550098533c5c80dda4ee8728a4f235421651856e9687878760405161250693929190614584565b60405180910390a150505050505050565b6000808211801561252a57506009548211155b156125595760018261253c9190614787565b600754612549919061472d565b60055461255691906146a6565b90505b919050565b6000600d600084815260200190815260200160002060000160008373ffffffffffffffffffffffffffffffffffffffff1673ffffffffffffffffffffffffffffffffffffffff16815260200190815260200160002060009054906101000a900460ff16905092915050565b60045481565b6000801b81565b6125df33610fa7565b61261e576040517f08c379a000000000000000000000000000000000000000000000000000000000815260040161261590614249565b60405180910390fd5b8460008111612662576040517f08c379a0000000000000000000000000000000000000000000000000000000008152600401612659906142a9565b60405180910390fd5b84600081116126a6576040517f08c379a000000000000000000000000000000000000000000000000000000000815260040161269d906142a9565b60405180910390fd5b83600081116126ea576040517f08c379a00000000000000000000000000000000000000000000000000000000081526004016126e1906142a9565b60405180910390fd5b836000811161272e576040517f08c379a0000000000000000000000000000000000000000000000000000000008152600401612725906142a9565b60405180910390fd5b88600260009054906101000a900473ffffffffffffffffffffffffffffffffffffffff1673ffffffffffffffffffffffffffffffffffffffff166370a08231306040518263ffffffff1660e01b815260040161278a9190614032565b60206040518083038186803b1580156127a257600080fd5b505afa1580156127b6573d6000803e3d6000fd5b505050506040513d601f19601f820116820180604052508101906127da919061383a565b101561281b576040517f08c379a000000000000000000000000000000000000000000000000000000000815260040161281290614329565b60405180910390fd5b600060035414612860576040517f08c379a000000000000000000000000000000000000000000000000000000000815260040161285790614369565b60405180910390fd5b8860038190555087600881905550866009819055508560058190555084600781905550878561288f919061472d565b8661289a91906146a6565b600681905550505050505050505050565b60008083600081116128f2576040517f08c379a00000000000000000000000000000000000000000000000000000000081526004016128e9906142a9565b60405180910390fd5b84600954811115612938576040517f08c379a000000000000000000000000000000000000000000000000000000000815260040161292f90614529565b60405180910390fd5b6000600b600088815260200190815260200160002090508060050160008773ffffffffffffffffffffffffffffffffffffffff1673ffffffffffffffffffffffffffffffffffffffff16815260200190815260200160002060000160009054906101000a900460ff1615612a47578060050160008773ffffffffffffffffffffffffffffffffffffffff1673ffffffffffffffffffffffffffffffffffffffff16815260200190815260200160002060000160009054906101000a900460ff168160050160008873ffffffffffffffffffffffffffffffffffffffff1673ffffffffffffffffffffffffffffffffffffffff168152602001908152602001600020600101549450945050612a49565b505b50509250929050565b7ff0887ba65ee2024ea881d91b74c2450ef19e1557f03bed3ea9f16b037cbe2dc981565b612a7f82610f87565b612a9081612a8b612eae565b612eb6565b612a9a8383613034565b505050565b612aa833610fa7565b612ae7576040517f08c379a0000000000000000000000000000000000000000000000000000000008152600401612ade90614249565b60405180910390fd5b8060008111612b2b576040517f08c379a0000000000000000000000000000000000000000000000000000000008152600401612b22906142a9565b60405180910390fd5b6001600954811115612b72576040517f08c379a0000000000000000000000000000000000000000000000000000000008152600401612b6990614529565b60405180910390fd5b60035483600a54612b8391906146a6565b1115612bc4576040517f08c379a0000000000000000000000000000000000000000000000000000000008152600401612bbb90614209565b60405180910390fd5b6000600190506000600b600083815260200190815260200160002090508060000160009054906101000a900460ff1615612c33576040517f08c379a0000000000000000000000000000000000000000000000000000000008152600401612c2a90614429565b60405180910390fd5b60018160000160006101000a81548160ff02191690831515021790555084816001018190555084600a6000828254612c6b91906146a6565b9250508190555081600f8190555060016009541115612cb2576001600954612c939190614787565b85600354612ca19190614787565b612cab91906146fc565b600e819055505b7f3fd8c003d3212e0132457c2c9a85802b483554aec663e60ee92100df71c15f168286604051612ce39291906145b6565b60405180910390a15050505050565b60095481565b6000806000915060009050600554421115612e3f576000612d17612055565b90506000600190505b818111612e3c57808210612e29576000600b600083815260200190815260200160002090508060000160019054906101000a900460ff168015612db157508060050160008773ffffffffffffffffffffffffffffffffffffffff1673ffffffffffffffffffffffffffffffffffffffff16815260200190815260200160002060000160009054906101000a900460ff165b8015612e01575060008160050160008873ffffffffffffffffffffffffffffffffffffffff1673ffffffffffffffffffffffffffffffffffffffff16815260200190815260200160002060010154145b15612e27578480612e11906148c8565b955050806003015484612e2491906146a6565b93505b505b8080612e34906148c8565b915050612d20565b50505b915091565b60007f01ffc9a7000000000000000000000000000000000000000000000000000000007bffffffffffffffffffffffffffffffffffffffffffffffffffffffff1916827bffffffffffffffffffffffffffffffffffffffffffffffffffffffff1916149050919050565b600033905090565b612ec0828261255e565b612f4f57612ee58173ffffffffffffffffffffffffffffffffffffffff16601461336f565b612ef38360001c602061336f565b604051602001612f04929190613ff8565b6040516020818303038152906040526040517f08c379a0000000000000000000000000000000000000000000000000000000008152600401612f4691906141c7565b60405180910390fd5b5050565b612f5d828261255e565b613030576001600d600084815260200190815260200160002060000160008373ffffffffffffffffffffffffffffffffffffffff1673ffffffffffffffffffffffffffffffffffffffff16815260200190815260200160002060006101000a81548160ff021916908315150217905550612fd5612eae565b73ffffffffffffffffffffffffffffffffffffffff168173ffffffffffffffffffffffffffffffffffffffff16837f2f8788117e7eff1d82e926ec794901d17c78024a50270940304540a733656f0d60405160405180910390a45b5050565b61303e828261255e565b15613112576000600d600084815260200190815260200160002060000160008373ffffffffffffffffffffffffffffffffffffffff1673ffffffffffffffffffffffffffffffffffffffff16815260200190815260200160002060006101000a81548160ff0219169083151502179055506130b7612eae565b73ffffffffffffffffffffffffffffffffffffffff168173ffffffffffffffffffffffffffffffffffffffff16837ff6391f5c32d9c69d2a47ea670b442974b53935d1edc7fd64eb21e047a839171b60405160405180910390a45b5050565b600f546000811161315c576040517f08c379a0000000000000000000000000000000000000000000000000000000008152600401613153906142a9565b60405180910390fd5b600e54600081116131a2576040517f08c379a0000000000000000000000000000000000000000000000000000000008152600401613199906142a9565b60405180910390fd5b6001831180156131b457506009548311155b6131f3576040517f08c379a00000000000000000000000000000000000000000000000000000000081526004016131ea906142e9565b60405180910390fd5b6000600754600554426132069190614787565b61321091906146fc565b905060018161321f91906146a6565b8414613260576040517f08c379a000000000000000000000000000000000000000000000000000000000815260040161325790614489565b60405180910390fd5b6000600b600086815260200190815260200160002090508060000160009054906101000a900460ff16156132c9576040517f08c379a00000000000000000000000000000000000000000000000000000000081526004016132c090614429565b60405180910390fd5b6000600e54600f54876132dc9190614787565b6132e6919061472d565b905060018260000160006101000a81548160ff02191690831515021790555080826001018190555080600a600082825461332091906146a6565b9250508190555085600f819055507f3fd8c003d3212e0132457c2c9a85802b483554aec663e60ee92100df71c15f16868260405161335f9291906145b6565b60405180910390a1505050505050565b606060006002836002613382919061472d565b61338c91906146a6565b67ffffffffffffffff8111156133cb577f4e487b7100000000000000000000000000000000000000000000000000000000600052604160045260246000fd5b6040519080825280601f01601f1916602001820160405280156133fd5781602001600182028036833780820191505090505b5090507f30000000000000000000000000000000000000000000000000000000000000008160008151811061345b577f4e487b7100000000000000000000000000000000000000000000000000000000600052603260045260246000fd5b60200101907effffffffffffffffffffffffffffffffffffffffffffffffffffffffffffff1916908160001a9053507f7800000000000000000000000000000000000000000000000000000000000000816001815181106134e5577f4e487b7100000000000000000000000000000000000000000000000000000000600052603260045260246000fd5b60200101907effffffffffffffffffffffffffffffffffffffffffffffffffffffffffffff1916908160001a90535060006001846002613525919061472d565b61352f91906146a6565b90505b600181111561361b577f3031323334353637383961626364656600000000000000000000000000000000600f861660108110613597577f4e487b7100000000000000000000000000000000000000000000000000000000600052603260045260246000fd5b1a60f81b8282815181106135d4577f4e487b7100000000000000000000000000000000000000000000000000000000600052603260045260246000fd5b60200101907effffffffffffffffffffffffffffffffffffffffffffffffffffffffffffff1916908160001a905350600485901c9450806136149061486c565b9050613532565b506000841461365f576040517f08c379a0000000000000000000000000000000000000000000000000000000008152600401613656906141e9565b60405180910390fd5b8091505092915050565b6000813590506136788161501f565b92915050565b60008083601f84011261369057600080fd5b8235905067ffffffffffffffff8111156136a957600080fd5b6020830191508360208202830111156136c157600080fd5b9250929050565b6000815190506136d781615036565b92915050565b6000813590506136ec8161504d565b92915050565b60008135905061370181615064565b92915050565b6000813590506137168161507b565b92915050565b60008151905061372b8161507b565b92915050565b60006020828403121561374357600080fd5b600061375184828501613669565b91505092915050565b60006020828403121561376c57600080fd5b600061377a848285016136c8565b91505092915050565b60006020828403121561379557600080fd5b60006137a3848285016136dd565b91505092915050565b600080604083850312156137bf57600080fd5b60006137cd858286016136dd565b92505060206137de85828601613669565b9150509250929050565b6000602082840312156137fa57600080fd5b6000613808848285016136f2565b91505092915050565b60006020828403121561382357600080fd5b600061383184828501613707565b91505092915050565b60006020828403121561384c57600080fd5b600061385a8482850161371c565b91505092915050565b6000806040838503121561387657600080fd5b600061388485828601613707565b925050602061389585828601613669565b9150509250929050565b6000806000604084860312156138b457600080fd5b60006138c286828701613707565b935050602084013567ffffffffffffffff8111156138df57600080fd5b6138eb8682870161367e565b92509250509250925092565b6000806000806080858703121561390d57600080fd5b600061391b87828801613707565b945050602061392c87828801613707565b935050604061393d87828801613707565b925050606061394e87828801613707565b91505092959194509250565b600080600080600060a0868803121561397257600080fd5b600061398088828901613707565b955050602061399188828901613707565b94505060406139a288828901613707565b93505060606139b388828901613707565b92505060806139c488828901613707565b9150509295509295909350565b60006139dd8383613a01565b60208301905092915050565b60006139f58383613fda565b60208301905092915050565b613a0a816147bb565b82525050565b613a19816147bb565b82525050565b6000613a2b8385614651565b9350613a36826145df565b8060005b85811015613a6f57613a4c828461468f565b613a5688826139d1565b9750613a618361462a565b925050600181019050613a3a565b5085925050509392505050565b6000613a8782614609565b613a918185614651565b9350613a9c836145e9565b8060005b83811015613acd578151613ab488826139d1565b9750613abf83614637565b925050600181019050613aa0565b5085935050505092915050565b6000613ae582614614565b613aef8185614662565b9350613afa836145f9565b8060005b83811015613b2b578151613b1288826139e9565b9750613b1d83614644565b925050600181019050613afe565b5085935050505092915050565b613b41816147cd565b82525050565b613b50816147d9565b82525050565b6000613b618261461f565b613b6b8185614673565b9350613b7b818560208601614839565b613b848161499e565b840191505092915050565b6000613b9a8261461f565b613ba48185614684565b9350613bb4818560208601614839565b80840191505092915050565b6000613bcd602083614673565b9150613bd8826149af565b602082019050919050565b6000613bf0602d83614673565b9150613bfb826149d8565b604082019050919050565b6000613c13601583614673565b9150613c1e82614a27565b602082019050919050565b6000613c36602283614673565b9150613c4182614a50565b604082019050919050565b6000613c59601a83614673565b9150613c6482614a9f565b602082019050919050565b6000613c7c601883614673565b9150613c8782614ac8565b602082019050919050565b6000613c9f601c83614673565b9150613caa82614af1565b602082019050919050565b6000613cc2601683614673565b9150613ccd82614b1a565b602082019050919050565b6000613ce5602283614673565b9150613cf082614b43565b604082019050919050565b6000613d08601883614673565b9150613d1382614b92565b602082019050919050565b6000613d2b602283614673565b9150613d3682614bbb565b604082019050919050565b6000613d4e602383614673565b9150613d5982614c0a565b604082019050919050565b6000613d71601e83614673565b9150613d7c82614c59565b602082019050919050565b6000613d94601683614673565b9150613d9f82614c82565b602082019050919050565b6000613db7601483614673565b9150613dc282614cab565b602082019050919050565b6000613dda601c83614673565b9150613de582614cd4565b602082019050919050565b6000613dfd601f83614673565b9150613e0882614cfd565b602082019050919050565b6000613e20602983614673565b9150613e2b82614d26565b604082019050919050565b6000613e43602183614673565b9150613e4e82614d75565b604082019050919050565b6000613e66601f83614673565b9150613e7182614dc4565b602082019050919050565b6000613e89601f83614673565b9150613e9482614ded565b602082019050919050565b6000613eac602783614673565b9150613eb782614e16565b604082019050919050565b6000613ecf601c83614673565b9150613eda82614e65565b602082019050919050565b6000613ef2601783614684565b9150613efd82614e8e565b601782019050919050565b6000613f15602183614673565b9150613f2082614eb7565b604082019050919050565b6000613f38601d83614673565b9150613f4382614f06565b602082019050919050565b6000613f5b601e83614673565b9150613f6682614f2f565b602082019050919050565b6000613f7e601183614684565b9150613f8982614f58565b601182019050919050565b6000613fa1602183614673565b9150613fac82614f81565b604082019050919050565b6000613fc4602f83614673565b9150613fcf82614fd0565b604082019050919050565b613fe38161482f565b82525050565b613ff28161482f565b82525050565b600061400382613ee5565b915061400f8285613b8f565b915061401a82613f71565b91506140268284613b8f565b91508190509392505050565b60006020820190506140476000830184613a10565b92915050565b60006040820190506140626000830185613a10565b61406f6020830184613fe9565b9392505050565b600060408201905081810360008301526140908185613ada565b905081810360208301526140a48184613ada565b90509392505050565b60006020820190506140c26000830184613b38565b92915050565b600060a0820190506140dd6000830188613b38565b6140ea6020830187613b38565b6140f76040830186613fe9565b6141046060830185613fe9565b6141116080830184613fe9565b9695505050505050565b600060c0820190506141306000830189613b38565b61413d6020830188613b38565b61414a6040830187613fe9565b6141576060830186613fe9565b6141646080830185613fe9565b81810360a08301526141768184613a7c565b9050979650505050505050565b60006040820190506141986000830185613b38565b6141a56020830184613fe9565b9392505050565b60006020820190506141c16000830184613b47565b92915050565b600060208201905081810360008301526141e18184613b56565b905092915050565b6000602082019050818103600083015261420281613bc0565b9050919050565b6000602082019050818103600083015261422281613be3565b9050919050565b6000602082019050818103600083015261424281613c06565b9050919050565b6000602082019050818103600083015261426281613c29565b9050919050565b6000602082019050818103600083015261428281613c4c565b9050919050565b600060208201905081810360008301526142a281613c6f565b9050919050565b600060208201905081810360008301526142c281613c92565b9050919050565b600060208201905081810360008301526142e281613cb5565b9050919050565b6000602082019050818103600083015261430281613cd8565b9050919050565b6000602082019050818103600083015261432281613cfb565b9050919050565b6000602082019050818103600083015261434281613d1e565b9050919050565b6000602082019050818103600083015261436281613d41565b9050919050565b6000602082019050818103600083015261438281613d64565b9050919050565b600060208201905081810360008301526143a281613d87565b9050919050565b600060208201905081810360008301526143c281613daa565b9050919050565b600060208201905081810360008301526143e281613dcd565b9050919050565b6000602082019050818103600083015261440281613df0565b9050919050565b6000602082019050818103600083015261442281613e13565b9050919050565b6000602082019050818103600083015261444281613e36565b9050919050565b6000602082019050818103600083015261446281613e59565b9050919050565b6000602082019050818103600083015261448281613e7c565b9050919050565b600060208201905081810360008301526144a281613e9f565b9050919050565b600060208201905081810360008301526144c281613ec2565b9050919050565b600060208201905081810360008301526144e281613f08565b9050919050565b6000602082019050818103600083015261450281613f2b565b9050919050565b6000602082019050818103600083015261452281613f4e565b9050919050565b6000602082019050818103600083015261454281613f94565b9050919050565b6000602082019050818103600083015261456281613fb7565b9050919050565b600060208201905061457e6000830184613fe9565b92915050565b60006040820190506145996000830186613fe9565b81810360208301526145ac818486613a1f565b9050949350505050565b60006040820190506145cb6000830185613fe9565b6145d86020830184613fe9565b9392505050565b6000819050919050565b6000819050602082019050919050565b6000819050602082019050919050565b600081519050919050565b600081519050919050565b600081519050919050565b6000602082019050919050565b6000602082019050919050565b6000602082019050919050565b600082825260208201905092915050565b600082825260208201905092915050565b600082825260208201905092915050565b600081905092915050565b600061469e6020840184613669565b905092915050565b60006146b18261482f565b91506146bc8361482f565b9250827fffffffffffffffffffffffffffffffffffffffffffffffffffffffffffffffff038211156146f1576146f0614911565b5b828201905092915050565b60006147078261482f565b91506147128361482f565b92508261472257614721614940565b5b828204905092915050565b60006147388261482f565b91506147438361482f565b9250817fffffffffffffffffffffffffffffffffffffffffffffffffffffffffffffffff048311821515161561477c5761477b614911565b5b828202905092915050565b60006147928261482f565b915061479d8361482f565b9250828210156147b0576147af614911565b5b828203905092915050565b60006147c68261480f565b9050919050565b60008115159050919050565b6000819050919050565b60007fffffffff0000000000000000000000000000000000000000000000000000000082169050919050565b600073ffffffffffffffffffffffffffffffffffffffff82169050919050565b6000819050919050565b60005b8381101561485757808201518184015260208101905061483c565b83811115614866576000848401525b50505050565b60006148778261482f565b9150600082141561488b5761488a614911565b5b600182039050919050565b600060028204905060018216806148ae57607f821691505b602082108114156148c2576148c161496f565b5b50919050565b60006148d38261482f565b91507fffffffffffffffffffffffffffffffffffffffffffffffffffffffffffffffff82141561490657614905614911565b5b600182019050919050565b7f4e487b7100000000000000000000000000000000000000000000000000000000600052601160045260246000fd5b7f4e487b7100000000000000000000000000000000000000000000000000000000600052601260045260246000fd5b7f4e487b7100000000000000000000000000000000000000000000000000000000600052602260045260246000fd5b6000601f19601f8301169050919050565b7f537472696e67733a20686578206c656e67746820696e73756666696369656e74600082015250565b7f57686974656c6973745661756c743a2065786365656420746f74616c20616c6c60008201527f6f636174656420616d6f756e7400000000000000000000000000000000000000602082015250565b7f426173655661756c743a2073616d652076616c75650000000000000000000000600082015250565b7f41636365737369626c653a2043616c6c6572206973206e6f7420616e2061646d60008201527f696e000000000000000000000000000000000000000000000000000000000000602082015250565b7f426173655661756c743a20616c72656164792073746172746564000000000000600082015250565b7f41636365737369626c653a207a65726f20616464726573730000000000000000600082015250565b7f426173655661756c7453746f726167653a207a65726f2076616c756500000000600082015250565b7f426173655661756c743a20696e737566666963656e7400000000000000000000600082015250565b7f57686974656c6973745661756c743a206e6f20617661696c61626c6520726f7560008201527f6e64000000000000000000000000000000000000000000000000000000000000602082015250565b7f426173655661756c743a207472616e73666572206661696c0000000000000000600082015250565b7f426173655661756c743a2062616c616e63654f6620697320696e73756666696560008201527f6e74000000000000000000000000000000000000000000000000000000000000602082015250565b7f57686974656c6973745661756c743a206e6f20636c61696d61626c6520616d6f60008201527f756e740000000000000000000000000000000000000000000000000000000000602082015250565b7f426173655661756c743a20616c726561647920696e697469616c697a65640000600082015250565b7f41636365737369626c653a2073616d652061646d696e00000000000000000000600082015250565b7f63616e6e6f742072656365697665204574686572000000000000000000000000600082015250565b7f57686974656c6973745661756c743a206e6f20616c6c6f636174656400000000600082015250565b7f57686974656c6973745661756c743a206e6f7420737461727465642079657400600082015250565b7f426173655661756c743a20636865636b20696e70757420636f756e742061742060008201527f6f6e63652074696d650000000000000000000000000000000000000000000000602082015250565b7f57686974656c6973745661756c743a20616c726561647920616c6c6f6361746560008201527f6400000000000000000000000000000000000000000000000000000000000000602082015250565b7f57686974656c6973745661756c743a20616c7265616479207374617274656400600082015250565b7f57686974656c6973745661756c743a206e6f6e2d76616c696420726f756e6400600082015250565b7f57686974656c6973745661756c743a206e6f2063757272656e7420726f756e6460008201527f20706572696f6400000000000000000000000000000000000000000000000000602082015250565b7f57686974656c6973745661756c743a206e6f2077686974656c69737400000000600082015250565b7f416363657373436f6e74726f6c3a206163636f756e7420000000000000000000600082015250565b7f426173655661756c743a206e6f20776974686472617761626c6520616d6f756e60008201527f7400000000000000000000000000000000000000000000000000000000000000602082015250565b7f57686974656c6973745661756c743a207472616e73666572206661696c000000600082015250565b7f426173655661756c7453746f726167653a207a65726f20616464726573730000600082015250565b7f206973206d697373696e6720726f6c6520000000000000000000000000000000600082015250565b7f426173655661756c743a2065786365656420617661696c61626c6520726f756e60008201527f6400000000000000000000000000000000000000000000000000000000000000602082015250565b7f416363657373436f6e74726f6c3a2063616e206f6e6c792072656e6f756e636560008201527f20726f6c657320666f722073656c660000000000000000000000000000000000602082015250565b615028816147bb565b811461503357600080fd5b50565b61503f816147cd565b811461504a57600080fd5b50565b615056816147d9565b811461506157600080fd5b50565b61506d816147e3565b811461507857600080fd5b50565b6150848161482f565b811461508f57600080fd5b5056fea264697066735822122098b6d6aa464f63a3459e5f9fe381d091ae043fbf966ef3037e0ff227fecc061f64736f6c63430008040033",
  "immutableReferences": {},
  "source": "//SPDX-License-Identifier: Unlicense\npragma solidity ^0.8.4;\n\nimport \"@openzeppelin/contracts/token/ERC20/IERC20.sol\";\nimport \"@openzeppelin/contracts/token/ERC20/utils/SafeERC20.sol\";\n//import \"@openzeppelin/contracts/access/Ownable.sol\";\nimport \"../libraries/ClaimVaultLib.sol\";\nimport \"./BaseVault.sol\";\nimport \"./VaultWhitelistStorage.sol\";\n\n//import \"hardhat/console.sol\";\n\ncontract WhitelistVault is BaseVault, VaultWhitelistStorage {\n    using SafeERC20 for IERC20;\n\n    ///@dev constructor\n    ///@param _name Vault's name\n    ///@param _tos Allocated tos address\n    constructor(\n        string memory _name,\n        address _tos,\n        uint256 _inputMaxOnce\n    ) {\n        name = _name;\n        tos = _tos;\n        maxInputOnceTime = _inputMaxOnce;\n        _setRoleAdmin(ADMIN_ROLE, ADMIN_ROLE);\n        _setupRole(ADMIN_ROLE, msg.sender);\n    }\n\n    ///@dev initialization function\n    ///@param _totalAllocatedAmount total allocated amount\n    ///@param _totalTgeCount   total tge count\n    ///@param _startTime start time\n    ///@param _periodTimesPerClaim period time per claim\n    function initialize(\n        uint256 _totalAllocatedAmount,\n        uint256 _totalTgeCount,\n        uint256 _startTime,\n        uint256 _periodTimesPerClaim\n    ) external onlyOwner {\n\n        initializeBase(\n            _totalAllocatedAmount,\n            _totalTgeCount,\n            _totalTgeCount,\n            _startTime,\n            _periodTimesPerClaim\n        );\n\n    }\n\n    ///@dev allocate amount for first round (TGE)\n    ///@param amount total claimable amount\n    function allocateAmountTGE(uint256 amount)\n        external\n        onlyOwner\n        nonZero(amount)\n        validTgeRound(1)\n    {\n        require(\n            totalTgeAmount + amount <= totalAllocatedAmount,\n            \"WhitelistVault: exceed total allocated amount\"\n        );\n        uint256 round = 1;\n        ClaimVaultLib.TgeInfo storage tgeinfo = tgeInfos[round];\n        require(!tgeinfo.allocated, \"WhitelistVault: already allocated\");\n        tgeinfo.allocated = true;\n        tgeinfo.allocatedAmount = amount;\n        totalTgeAmount += amount;\n        lastClaimedRound = round;\n\n        if(totalTgeCount > 1 )  allocatedAmountForRound =  (totalAllocatedAmount - amount) / (totalTgeCount - 1);\n\n        emit AllocatedAmount(round, amount);\n    }\n\n    ///@dev allocate amount for each round (except TGE)\n    ///@param round  it is the period unit can claim once\n    function allocateAmountRound(uint256 round)\n        internal\n        nonZero(lastClaimedRound)\n        nonZero(allocatedAmountForRound)\n    {\n        require(\n            round > 1 && round <= totalTgeCount ,\n            \"WhitelistVault: no available round\"\n        );\n\n        uint256 calcRound = (block.timestamp - startTime) / periodTimesPerClaim;\n\n        /// It can be set only during each round.\n        require(round == calcRound+1, \"WhitelistVault: no current round period\");\n\n\n        ClaimVaultLib.TgeInfo storage tgeinfo = tgeInfos[round];\n        require(!tgeinfo.allocated, \"WhitelistVault: already allocated\");\n\n        uint256 amount = (round - lastClaimedRound) * allocatedAmountForRound;\n        tgeinfo.allocated = true;\n        tgeinfo.allocatedAmount = amount ;\n        totalTgeAmount += amount;\n        lastClaimedRound = round;\n\n        emit AllocatedAmount(round, amount);\n    }\n\n    ///@dev start round, Calculate how much the whitelisted people in the round can claim.\n    function startRound()\n        external\n        onlyOwner\n        nonZero(totalTgeCount)\n    {\n        uint256 round = currentRound();\n        require(round > 0 && round <= totalTgeCount, \"WhitelistVault: non-valid round\");\n\n        if(round > 1) allocateAmountRound(round);\n\n        ClaimVaultLib.TgeInfo storage tgeinfo = tgeInfos[round];\n        require(\n            tgeinfo.allocated && tgeinfo.allocatedAmount > 0,\n            \"WhitelistVault: no allocated\"\n        );\n        require(!tgeinfo.started, \"WhitelistVault: already started\");\n        require(tgeinfo.whitelist.length > 0, \"WhitelistVault: no whitelist\");\n\n        tgeinfo.started = true;\n        tgeinfo.amount = tgeinfo.allocatedAmount / tgeinfo.whitelist.length;\n\n        emit StartedRound(round);\n    }\n\n    ///@dev next claimable start time\n    function startRoundTime(uint256 round)\n        external\n        view\n        returns (uint256 start)\n    {\n        if (round > 0 && round <= totalTgeCount)\n            start = startTime + (periodTimesPerClaim * (round - 1));\n    }\n\n    ///@dev number of unclaimed\n    function unclaimedInfos(address _user)\n        public\n        view\n        returns (uint256 count, uint256 amount)\n    {\n        count = 0;\n        amount = 0;\n        if (block.timestamp > startTime) {\n            uint256 curRound = currentRound();\n            for (uint256 i = 1; i <= curRound; i++) {\n                if (curRound >= i) {\n                    ClaimVaultLib.TgeInfo storage tgeinfo = tgeInfos[i];\n                    if (tgeinfo.started &&\n                        tgeinfo.claimedTime[_user].joined &&\n                        tgeinfo.claimedTime[_user].claimedTime == 0)\n                    {\n                            count++;\n                            amount += tgeinfo.amount;\n                    }\n                }\n            }\n        }\n    }\n\n    ///@dev number of unclaimed\n    function unclaimedInfosDetails(address _user)\n        external\n        view\n        returns (uint256[] memory _rounds, uint256[] memory _amounts)\n    {\n\n        (uint256 size,) = unclaimedInfos(_user);\n        uint256[] memory counts = new uint256[](size);\n        uint256[] memory amounts = new uint256[](size);\n\n        if(size > 0){\n            uint256 k = 0;\n            if (block.timestamp > startTime) {\n                uint256 curRound = currentRound();\n                for (uint256 i = 1; i <= curRound; i++) {\n                    if (curRound >= i) {\n                        ClaimVaultLib.TgeInfo storage tgeinfo = tgeInfos[i];\n                        if (tgeinfo.started &&\n                            tgeinfo.claimedTime[_user].joined &&\n                            tgeinfo.claimedTime[_user].claimedTime == 0\n                        ) {\n                            counts[k] = i;\n                            amounts[k] = tgeinfo.amount;\n                            k++;\n                        }\n                    }\n                }\n            }\n        }\n        return (counts, amounts);\n    }\n\n\n    ///@dev claim\n    function claim() external {\n\n        uint256 amount = 0;\n        require(block.timestamp > startTime, \"WhitelistVault: not started yet\");\n\n        uint256 curRound = currentRound();\n        for (uint256 i = 1; i <= curRound; i++) {\n            if (curRound >= i) {\n                ClaimVaultLib.TgeInfo storage tgeinfo = tgeInfos[i];\n                if (tgeinfo.started &&\n                    tgeinfo.claimedTime[msg.sender].joined &&\n                    tgeinfo.claimedTime[msg.sender].claimedTime == 0\n                ) {\n                    tgeinfo.claimedTime[msg.sender].claimedTime = block.timestamp;\n                    tgeinfo.claimedCount++;\n                    amount += tgeinfo.amount;\n                }\n            }\n        }\n\n        require(amount > 0, \"WhitelistVault: no claimable amount\");\n        totalClaimedAmount += amount;\n\n        userClaimedAmount[msg.sender] += amount;\n\n        require(\n            IERC20(tos).transfer(msg.sender, amount),\n            \"WhitelistVault: transfer fail\"\n        );\n\n        emit Claimed(msg.sender, amount, totalClaimedAmount);\n    }\n}\n",
  "sourcePath": "/Users/zena/tonstarter/tonstarter-token-distribution/contracts/vaults/WhitelistVault.sol",
  "compiler": {
    "name": "solc",
    "version": "0.8.4+commit.c7e474f2.Emscripten.clang"
  },
  "schemaVersion": "3.4.4",
  "updatedAt": "2023-11-27T04:24:13.043Z",
  "devdoc": {
    "kind": "dev",
    "methods": {
      "addAdmin(address)": {
        "details": "add admin",
        "params": {
          "account": "address to add"
        }
      },
      "addWhitelist(uint256,address[])": {
        "details": "Register the white list for the round.",
        "params": {
          "round": "it is the period unit can claim once",
          "users": "people who can claim in that round"
        }
      },
      "allocateAmountTGE(uint256)": {
        "details": "allocate amount for first round (TGE)",
        "params": {
          "amount": "total claimable amount"
        }
      },
      "availableWithdrawAmount()": {
        "details": "Amount that can be withdrawn by the owner"
      },
      "claim()": {
        "details": "claim"
      },
      "constructor": {
        "details": "constructor",
        "params": {
          "_name": "Vault's name",
          "_tos": "Allocated tos address"
        }
      },
      "getRoleAdmin(bytes32)": {
        "details": "Returns the admin role that controls `role`. See {grantRole} and {revokeRole}. To change a role's admin, use {_setRoleAdmin}."
      },
      "getTgeInfos(uint256)": {
        "details": "get Tge infos",
        "params": {
          "round": "it is the period unit can claim once"
        },
        "returns": {
          "allocated": "whether allocated",
          "allocatedAmount": "allocated amount",
          "amount": "the claimeable amount by person in TGE period",
          "claimedCount": "claimed  count",
          "started": "whether started",
          "whitelist": "who can claim in TGE period"
        }
      },
      "getWhitelistInfo(uint256,address)": {
        "details": "get the claim info of whitelist's person",
        "params": {
          "round": "it is the period unit can claim once",
          "user": "person in whitelist"
        },
        "returns": {
          "claimedTime": "the claimed time",
          "joined": "whether joined"
        }
      },
      "grantRole(bytes32,address)": {
        "details": "Grants `role` to `account`. If `account` had not been already granted `role`, emits a {RoleGranted} event. Requirements: - the caller must have ``role``'s admin role."
      },
      "hasRole(bytes32,address)": {
        "details": "Returns `true` if `account` has been granted `role`."
      },
      "initialize(uint256,uint256,uint256,uint256)": {
        "details": "initialization function",
        "params": {
          "_periodTimesPerClaim": "period time per claim",
          "_startTime": "start time",
          "_totalAllocatedAmount": "total allocated amount",
          "_totalTgeCount": "total tge count"
        }
      },
      "initializeBase(uint256,uint256,uint256,uint256,uint256)": {
        "details": "initialization function",
        "params": {
          "_periodTimesPerClaim": "period time per claim",
          "_startTime": "start time",
          "_totalAllocatedAmount": "total allocated amount",
          "_totalTgeCount": "total tge count"
        }
      },
      "isAdmin(address)": {
        "details": "whether admin",
        "params": {
          "account": "address to check"
        }
      },
      "removeAdmin(address)": {
        "details": "remove admin",
        "params": {
          "account": "address to remove"
        }
      },
      "renounceRole(bytes32,address)": {
        "details": "Revokes `role` from the calling account. Roles are often managed via {grantRole} and {revokeRole}: this function's purpose is to provide a mechanism for accounts to lose their privileges if they are compromised (such as when a trusted device is misplaced). If the calling account had been granted `role`, emits a {RoleRevoked} event. Requirements: - the caller must be `account`."
      },
      "revokeRole(bytes32,address)": {
        "details": "Revokes `role` from `account`. If `account` had been granted `role`, emits a {RoleRevoked} event. Requirements: - the caller must have ``role``'s admin role."
      },
      "setMaxInputOnceTimeWhitelist(uint256)": {
        "details": "set max input at once time of whitelist",
        "params": {
          "_maxInputOnceTime": "max input at once time"
        }
      },
      "startRound()": {
        "details": "start round, Calculate how much the whitelisted people in the round can claim."
      },
      "startRoundTime(uint256)": {
        "details": "next claimable start time"
      },
      "supportsInterface(bytes4)": {
        "details": "See {IERC165-supportsInterface}."
      },
      "totalWhitelist(uint256)": {
        "details": "get the total count of whitelist in round",
        "params": {
          "round": "it is the period unit can claim once"
        },
        "returns": {
          "total": "the total count of whitelist in round"
        }
      },
      "transferAdmin(address)": {
        "details": "transfer admin",
        "params": {
          "newAdmin": "new admin address"
        }
      },
      "unclaimedInfos(address)": {
        "details": "number of unclaimed"
      },
      "unclaimedInfosDetails(address)": {
        "details": "number of unclaimed"
      },
      "withdraw(address)": {
        "details": "withdraw to whom",
        "params": {
          "to": "to address to send"
        }
      }
    },
    "version": 1
  },
  "userdoc": {
    "kind": "user",
    "methods": {
      "tgeInfos(uint256)": {
        "notice": "round => TgeInfo"
      }
    },
    "version": 1
  }
}